{"abi":[{"type":"function","name":"INTEREST_RATE_STRATEGY","inputs":[],"outputs":[{"name":"","type":"address","internalType":"address"}],"stateMutability":"view"},{"type":"function","name":"execute","inputs":[],"outputs":[],"stateMutability":"nonpayable"}],"bytecode":{"object":"0x608060405234801561001057600080fd5b50610146806100206000396000f3fe608060405234801561001057600080fd5b50600436106100365760003560e01c8063614619541461003b578063fe85eb6c14610045575b600080fd5b61004361007c565b005b61006073e6e780d77b883e9a5ec84f7baa6bf4db43177fa781565b6040516001600160a01b03909116815260200160405180910390f35b604051631d2118f960e01b81527340d16fc0246ad3160ccc09b8d0d3a2cd28ae6c2f600482015273e6e780d77b883e9a5ec84f7baa6bf4db43177fa760248201527364b761d848206f447fe2dd461b0c635ec39ebb2790631d2118f990604401600060405180830381600087803b1580156100f657600080fd5b505af115801561010a573d6000803e3d6000fd5b5050505056fea2646970667358221220c58125d70bec7b34aff2f6a82dc5c58c5f41f7c449fa9f51bb3b1d2acc103ee764736f6c63430008130033","linkReferences":{}},"methodIdentifiers":{"INTEREST_RATE_STRATEGY()":"fe85eb6c","execute()":"61461954"},"id":273}