{"abi":[{"type":"function","name":"DAI_RF","inputs":[],"outputs":[{"name":"","type":"uint256","internalType":"uint256"}],"stateMutability":"view"},{"type":"function","name":"USDC_RF","inputs":[],"outputs":[{"name":"","type":"uint256","internalType":"uint256"}],"stateMutability":"view"},{"type":"function","name":"USDT_RF","inputs":[],"outputs":[{"name":"","type":"uint256","internalType":"uint256"}],"stateMutability":"view"},{"type":"function","name":"WBTC_RF","inputs":[],"outputs":[{"name":"","type":"uint256","internalType":"uint256"}],"stateMutability":"view"},{"type":"function","name":"WETH_RF","inputs":[],"outputs":[{"name":"","type":"uint256","internalType":"uint256"}],"stateMutability":"view"},{"type":"function","name":"WMATIC_RF","inputs":[],"outputs":[{"name":"","type":"uint256","internalType":"uint256"}],"stateMutability":"view"},{"type":"function","name":"execute","inputs":[],"outputs":[],"stateMutability":"nonpayable"}],"bytecode":{"object":"0x608060405234801561001057600080fd5b5061040c806100206000396000f3fe608060405234801561001057600080fd5b506004361061007d5760003560e01c80638741e94c1161005b5780638741e94c146100b0578063ab76cb46146100b9578063e5979fa4146100c2578063f9dcf464146100cb57600080fd5b80632fe48da514610082578063614619541461009d57806376837844146100a7575b600080fd5b61008b61189c81565b60405190815260200160405180910390f35b6100a56100d4565b005b61008b61183881565b61008b6117d481565b61008b61251c81565b61008b61213481565b61008b611fa481565b604051634b4e675360e01b8152738f3cf7ad23cd3cadbd9735aff958023239c6a06360048201526117d460248201527326db2b833021583566323e3b8985999981b9f1f390634b4e675390604401600060405180830381600087803b15801561013c57600080fd5b505af1158015610150573d6000803e3d6000fd5b5050604051634b4e675360e01b8152732791bca1f2de4661ed88a30c99a7a9449aa84174600482015261189c60248201527326db2b833021583566323e3b8985999981b9f1f39250634b4e67539150604401600060405180830381600087803b1580156101bc57600080fd5b505af11580156101d0573d6000803e3d6000fd5b5050604051634b4e675360e01b815273c2132d05d31c914a87c6611c10748aeb04b58e8f600482015261183860248201527326db2b833021583566323e3b8985999981b9f1f39250634b4e67539150604401600060405180830381600087803b15801561023c57600080fd5b505af1158015610250573d6000803e3d6000fd5b5050604051634b4e675360e01b8152731bfd67037b42cf73acf2047067bd4f2c47d9bfd6600482015261251c60248201527326db2b833021583566323e3b8985999981b9f1f39250634b4e67539150604401600060405180830381600087803b1580156102bc57600080fd5b505af11580156102d0573d6000803e3d6000fd5b5050604051634b4e675360e01b8152737ceb23fd6bc0add59e62ac25578270cff1b9f619600482015261213460248201527326db2b833021583566323e3b8985999981b9f1f39250634b4e67539150604401600060405180830381600087803b15801561033c57600080fd5b505af1158015610350573d6000803e3d6000fd5b5050604051634b4e675360e01b8152730d500b1d8e8ef31e21c99d1db9a6444d3adf12706004820152611fa460248201527326db2b833021583566323e3b8985999981b9f1f39250634b4e67539150604401600060405180830381600087803b1580156103bc57600080fd5b505af11580156103d0573d6000803e3d6000fd5b5050505056fea2646970667358221220124e04c4f35fe3d98021903097fcb2843c3e01f6160d9d6915040f44b3b9856264736f6c63430008130033","linkReferences":{}},"methodIdentifiers":{"DAI_RF()":"8741e94c","USDC_RF()":"2fe48da5","USDT_RF()":"76837844","WBTC_RF()":"ab76cb46","WETH_RF()":"e5979fa4","WMATIC_RF()":"f9dcf464","execute()":"61461954"},"id":410}