{"abi":[{"type":"function","name":"BUSD_USD_FEED","inputs":[],"outputs":[{"name":"","type":"address","internalType":"address"}],"stateMutability":"view"},{"type":"function","name":"DAI_TO_DEPOSIT","inputs":[],"outputs":[{"name":"","type":"uint256","internalType":"uint256"}],"stateMutability":"view"},{"type":"function","name":"DAI_TO_SWAP","inputs":[],"outputs":[{"name":"","type":"uint256","internalType":"uint256"}],"stateMutability":"view"},{"type":"function","name":"GHO_ORACLE","inputs":[],"outputs":[{"name":"","type":"address","internalType":"address"}],"stateMutability":"view"},{"type":"function","name":"MIGRATION","inputs":[],"outputs":[{"name":"","type":"address","internalType":"contract IMigrationHelper"}],"stateMutability":"view"},{"type":"function","name":"MILKMAN","inputs":[],"outputs":[{"name":"","type":"address","internalType":"address"}],"stateMutability":"view"},{"type":"function","name":"PRICE_CHECKER","inputs":[],"outputs":[{"name":"","type":"address","internalType":"address"}],"stateMutability":"view"},{"type":"function","name":"SWAPPER","inputs":[],"outputs":[{"name":"","type":"address","internalType":"contract AaveSwapper"}],"stateMutability":"view"},{"type":"function","name":"TUSD_USD_FEED","inputs":[],"outputs":[{"name":"","type":"address","internalType":"address"}],"stateMutability":"view"},{"type":"function","name":"execute","inputs":[],"outputs":[],"stateMutability":"nonpayable"},{"type":"error","name":"SafeERC20FailedOperation","inputs":[{"name":"token","type":"address","internalType":"address"}]}],"bytecode":{"object":"0x608060405234801561001057600080fd5b506116b1806100206000396000f3fe608060405234801561001057600080fd5b506004361061009e5760003560e01c8063700d85ae11610066578063700d85ae1461013a578063716196f71461015557806385b8554214610170578063c478572714610181578063f04409681461019c57600080fd5b806332fe2ec5146100a35780633b48f9b0146100c75780634b600d79146100fa578063566a53ae146101155780636146195414610130575b600080fd5b6100b469d3c21bcecceda100000081565b6040519081526020015b60405180910390f35b6100e273ec746ecf986e2927abd291a2a1716c940100f8ba81565b6040516001600160a01b0390911681526020016100be565b6100e273833d8eb16d306ed1fbb5d7a2e019e106b960965a81565b6100e27311c76ad590abdffcd980afec9ad951b160f0279781565b6101386101b7565b005b6100e2733ea64b1c0194524b48f9118462c8e9cd61a243c781565b6100e273b748952c7bc638f31775245964707bcc5ddfabfc81565b6100b46969e10de76676d080000081565b6100e2733f12643d3f6f874d39c2a4c9f2cd6f2dbac877fc81565b6100e273e80a1c615f75aff7ed8f08c9f21f9d00982d666c81565b6101bf6101c9565b6101c76105ef565b565b6040516317d5759960e31b815260008051602061165c8339815191529063beabacc89061021c90736b175474e89094c44da98b954eedeac495271d0f90309069d3c21bcecceda100000090600401611535565b600060405180830381600087803b15801561023657600080fd5b505af115801561024a573d6000803e3d6000fd5b5061028e9250736b175474e89094c44da98b954eedeac495271d0f91507387870bca3f3fd6335c3f4ce8392d69350b4fa4e2905069d3c21bcecceda10000006111a0565b60405163e8eda9df60e01b8152736b175474e89094c44da98b954eedeac495271d0f600482015269d3c21bcecceda1000000602482015260008051602061165c8339815191526044820152600060648201527387870bca3f3fd6335c3f4ce8392d69350b4fa4e29063e8eda9df90608401600060405180830381600087803b15801561031957600080fd5b505af115801561032d573d6000803e3d6000fd5b50506040516370a0823160e01b815260008051602061165c83398151915260048201819052925063beabacc8915073028171bca77440897b824ca71d1c56cac55b68a390309082906370a0823190602401602060405180830381865afa15801561039b573d6000803e3d6000fd5b505050506040513d601f19601f820116820180604052508101906103bf9190611559565b6040518463ffffffff1660e01b81526004016103dd93929190611535565b600060405180830381600087803b1580156103f757600080fd5b505af115801561040b573d6000803e3d6000fd5b5050604051631a4ca37b60e21b8152736b175474e89094c44da98b954eedeac495271d0f60048201526000196024820152306044820152737d2768de32b0b80b7a3454c06bdac94a69ddc7a992506369328dec91506064016020604051808303816000875af1158015610482573d6000803e3d6000fd5b505050506040513d601f19601f820116820180604052508101906104a69190611559565b506040516370a0823160e01b8152306004820152600090736b175474e89094c44da98b954eedeac495271d0f906370a0823190602401602060405180830381865afa1580156104f9573d6000803e3d6000fd5b505050506040513d601f19601f8201168201806040525081019061051d9190611559565b9050610552736b175474e89094c44da98b954eedeac495271d0f7387870bca3f3fd6335c3f4ce8392d69350b4fa4e2836111a0565b60405163e8eda9df60e01b8152736b175474e89094c44da98b954eedeac495271d0f60048201526024810182905260008051602061165c8339815191526044820152600060648201527387870bca3f3fd6335c3f4ce8392d69350b4fa4e29063e8eda9df90608401600060405180830381600087803b1580156105d457600080fd5b505af11580156105e8573d6000803e3d6000fd5b5050505050565b6040516317d5759960e31b815260008051602061165c8339815191529063beabacc89061065690736b175474e89094c44da98b954eedeac495271d0f90733ea64b1c0194524b48f9118462c8e9cd61a243c7906969e10de76676d080000090600401611535565b600060405180830381600087803b15801561067057600080fd5b505af1158015610684573d6000803e3d6000fd5b505060405163cb0e9c1b60e01b8152733ea64b1c0194524b48f9118462c8e9cd61a243c7925063cb0e9c1b9150610760907311c76ad590abdffcd980afec9ad951b160f027979073e80a1c615f75aff7ed8f08c9f21f9d00982d666c90736b175474e89094c44da98b954eedeac495271d0f907340d16fc0246ad3160ccc09b8d0d3a2cd28ae6c2f9073aed0c38402a5d19df6e4c03f4e2dced6e29c1ee990733f12643d3f6f874d39c2a4c9f2cd6f2dbac877fc9060008051602061165c833981519152906969e10de76676d080000090606490600401611572565b600060405180830381600087803b15801561077a57600080fd5b505af115801561078e573d6000803e3d6000fd5b50506040516370a0823160e01b815260008051602061165c83398151915260048201526000925073a693b19d2931d498c5b318df961919bb4aee87a591506370a0823190602401602060405180830381865afa1580156107f2573d6000803e3d6000fd5b505050506040513d601f19601f820116820180604052508101906108169190611559565b6040516317d5759960e31b815290915060008051602061165c8339815191529063beabacc8906108769073a693b19d2931d498c5b318df961919bb4aee87a590733ea64b1c0194524b48f9118462c8e9cd61a243c7908690600401611535565b600060405180830381600087803b15801561089057600080fd5b505af11580156108a4573d6000803e3d6000fd5b505060405163cb0e9c1b60e01b8152733ea64b1c0194524b48f9118462c8e9cd61a243c7925063cb0e9c1b9150610977907311c76ad590abdffcd980afec9ad951b160f027979073e80a1c615f75aff7ed8f08c9f21f9d00982d666c9073a693b19d2931d498c5b318df961919bb4aee87a59073a0b86991c6218b36c1d19d4a2e9eb0ce3606eb489073a20623070413d42a5c01db2c8111640dd7a5a03a9073986b5e1e1755e3c2440e960477f25201b0a8bbd49060008051602061165c833981519152908b9061025890600401611572565b600060405180830381600087803b15801561099157600080fd5b505af11580156109a5573d6000803e3d6000fd5b50506040516370a0823160e01b815260008051602061165c83398151915260048201819052925063beabacc8915073101cc05f4a51c0319f570d5e146a8c625198e63690309082906370a0823190602401602060405180830381865afa158015610a13573d6000803e3d6000fd5b505050506040513d601f19601f82011682018060405250810190610a379190611559565b6040518463ffffffff1660e01b8152600401610a5593929190611535565b600060405180830381600087803b158015610a6f57600080fd5b505af1158015610a83573d6000803e3d6000fd5b5050604051631a4ca37b60e21b81526e085d4780b73119b644ae5ecd22b37660048201526000196024820152733ea64b1c0194524b48f9118462c8e9cd61a243c76044820152737d2768de32b0b80b7a3454c06bdac94a69ddc7a992506369328dec91506064016020604051808303816000875af1158015610b09573d6000803e3d6000fd5b505050506040513d601f19601f82011682018060405250810190610b2d9190611559565b506040516370a0823160e01b8152733ea64b1c0194524b48f9118462c8e9cd61a243c7600482018190529063cb0e9c1b907311c76ad590abdffcd980afec9ad951b160f027979073e80a1c615f75aff7ed8f08c9f21f9d00982d666c906e085d4780b73119b644ae5ecd22b376907340d16fc0246ad3160ccc09b8d0d3a2cd28ae6c2f9073ec746ecf986e2927abd291a2a1716c940100f8ba90733f12643d3f6f874d39c2a4c9f2cd6f2dbac877fc9060008051602061165c8339815191529085906370a0823190602401602060405180830381865afa158015610c15573d6000803e3d6000fd5b505050506040513d601f19601f82011682018060405250810190610c399190611559565b61012c6040518a63ffffffff1660e01b8152600401610c6099989796959493929190611572565b600060405180830381600087803b158015610c7a57600080fd5b505af1158015610c8e573d6000803e3d6000fd5b50506040516370a0823160e01b815260008051602061165c83398151915260048201819052925063beabacc8915073a361718326c15715591c299427c62086f69923d990309082906370a0823190602401602060405180830381865afa158015610cfc573d6000803e3d6000fd5b505050506040513d601f19601f82011682018060405250810190610d209190611559565b6040518463ffffffff1660e01b8152600401610d3e93929190611535565b600060405180830381600087803b158015610d5857600080fd5b505af1158015610d6c573d6000803e3d6000fd5b5050604051631a4ca37b60e21b8152734fabb145d64652a948d72533023f6e7a623c7c5360048201526000196024820152733ea64b1c0194524b48f9118462c8e9cd61a243c76044820152737d2768de32b0b80b7a3454c06bdac94a69ddc7a992506369328dec91506064016020604051808303816000875af1158015610df7573d6000803e3d6000fd5b505050506040513d601f19601f82011682018060405250810190610e1b9190611559565b506040516370a0823160e01b8152733ea64b1c0194524b48f9118462c8e9cd61a243c7600482018190529063cb0e9c1b907311c76ad590abdffcd980afec9ad951b160f027979073e80a1c615f75aff7ed8f08c9f21f9d00982d666c90734fabb145d64652a948d72533023f6e7a623c7c53907340d16fc0246ad3160ccc09b8d0d3a2cd28ae6c2f9073833d8eb16d306ed1fbb5d7a2e019e106b960965a90733f12643d3f6f874d39c2a4c9f2cd6f2dbac877fc9060008051602061165c8339815191529085906370a0823190602401602060405180830381865afa158015610f08573d6000803e3d6000fd5b505050506040513d601f19601f82011682018060405250810190610f2c9190611559565b61012c6040518a63ffffffff1660e01b8152600401610f5399989796959493929190611572565b600060405180830381600087803b158015610f6d57600080fd5b505af1158015610f81573d6000803e3d6000fd5b50506040516370a0823160e01b815260008051602061165c83398151915260048201526000925073056fd409e1d7a124bd7017459dfea2f387b6d5cd91506370a0823190602401602060405180830381865afa158015610fe5573d6000803e3d6000fd5b505050506040513d601f19601f820116820180604052508101906110099190611559565b6040516317d5759960e31b815290915060008051602061165c8339815191529063beabacc8906110699073056fd409e1d7a124bd7017459dfea2f387b6d5cd90733ea64b1c0194524b48f9118462c8e9cd61a243c7908690600401611535565b600060405180830381600087803b15801561108357600080fd5b505af1158015611097573d6000803e3d6000fd5b505060405163cb0e9c1b60e01b8152733ea64b1c0194524b48f9118462c8e9cd61a243c7925063cb0e9c1b915061116a907311c76ad590abdffcd980afec9ad951b160f027979073e80a1c615f75aff7ed8f08c9f21f9d00982d666c9073056fd409e1d7a124bd7017459dfea2f387b6d5cd9073a0b86991c6218b36c1d19d4a2e9eb0ce3606eb489073ec6f4cd64d28ef32507e2dc399948aae9bbedd7e9073986b5e1e1755e3c2440e960477f25201b0a8bbd49060008051602061165c833981519152908b906101f490600401611572565b600060405180830381600087803b15801561118457600080fd5b505af1158015611198573d6000803e3d6000fd5b505050505050565b604080516001600160a01b038416602482015260448082018490528251808303909101815260649091019091526020810180516001600160e01b031663095ea7b360e01b1790526111f1848261125a565b61125457604080516001600160a01b038516602482015260006044808301919091528251808303909101815260649091019091526020810180516001600160e01b031663095ea7b360e01b17905261124a908590611302565b6112548482611302565b50505050565b6000806000846001600160a01b03168460405161127791906115ea565b6000604051808303816000865af19150503d80600081146112b4576040519150601f19603f3d011682016040523d82523d6000602084013e6112b9565b606091505b50915091508180156112e35750805115806112e35750808060200190518101906112e39190611606565b80156112f957506000856001600160a01b03163b115b95945050505050565b60006113176001600160a01b0384168361136f565b9050805160001415801561133c57508080602001905181019061133a9190611606565b155b1561136a57604051635274afe760e01b81526001600160a01b03841660048201526024015b60405180910390fd5b505050565b60606113b3838360006040518060400160405280601e81526020017f416464726573733a206c6f772d6c6576656c2063616c6c206661696c656400008152506113ba565b9392505050565b60608247101561141b5760405162461bcd60e51b815260206004820152602660248201527f416464726573733a20696e73756666696369656e742062616c616e636520666f6044820152651c8818d85b1b60d21b6064820152608401611361565b600080866001600160a01b0316858760405161143791906115ea565b60006040518083038185875af1925050503d8060008114611474576040519150601f19603f3d011682016040523d82523d6000602084013e611479565b606091505b509150915061148a87838387611497565b925050505b949350505050565b606083156115065782516000036114ff576001600160a01b0385163b6114ff5760405162461bcd60e51b815260206004820152601d60248201527f416464726573733a2063616c6c20746f206e6f6e2d636f6e74726163740000006044820152606401611361565b508161148f565b61148f838381511561151b5781518083602001fd5b8060405162461bcd60e51b81526004016113619190611628565b6001600160a01b039384168152919092166020820152604081019190915260600190565b60006020828403121561156b57600080fd5b5051919050565b6001600160a01b03998a1681529789166020890152958816604088015293871660608701529186166080860152851660a085015290931660c083015260e08201929092526101008101919091526101200190565b60005b838110156115e15781810151838201526020016115c9565b50506000910152565b600082516115fc8184602087016115c6565b9190910192915050565b60006020828403121561161857600080fd5b815180151581146113b357600080fd5b60208152600082518060208401526116478160408501602087016115c6565b601f01601f1916919091016040019291505056fe000000000000000000000000464c71f6c2f760dda6093dcb91c24c39e5d6e18ca2646970667358221220503059e53636d874d9dc727ca8a08328c1c48ba9de8c5b50cfc6d08fb5936ba364736f6c63430008130033","linkReferences":{}},"methodIdentifiers":{"BUSD_USD_FEED()":"4b600d79","DAI_TO_DEPOSIT()":"32fe2ec5","DAI_TO_SWAP()":"85b85542","GHO_ORACLE()":"c4785727","MIGRATION()":"716196f7","MILKMAN()":"566a53ae","PRICE_CHECKER()":"f0440968","SWAPPER()":"700d85ae","TUSD_USD_FEED()":"3b48f9b0","execute()":"61461954"},"id":182}