{"abi":[{"type":"constructor","inputs":[{"name":"newPoolImpl","type":"address","internalType":"address"},{"name":"poolAddressesProvider","type":"address","internalType":"contract IPoolAddressesProvider"}],"stateMutability":"nonpayable"},{"type":"function","name":"NEW_POOL_IMPL","inputs":[],"outputs":[{"name":"","type":"address","internalType":"address"}],"stateMutability":"view"},{"type":"function","name":"POOL_ADDRESSES_PROVIDER","inputs":[],"outputs":[{"name":"","type":"address","internalType":"contract IPoolAddressesProvider"}],"stateMutability":"view"},{"type":"function","name":"execute","inputs":[],"outputs":[],"stateMutability":"nonpayable"}],"bytecode":{"object":"0x60c060405234801561001057600080fd5b506040516102d73803806102d783398101604081905261002f9161005e565b6001600160a01b039182166080521660a052610098565b6001600160a01b038116811461005b57600080fd5b50565b6000806040838503121561007157600080fd5b825161007c81610046565b602084015190925061008d81610046565b809150509250929050565b60805160a0516102086100cf60003960008181604b015261017401526000818160980152818160c4015261014c01526102086000f3fe608060405234801561001057600080fd5b50600436106100415760003560e01c8063311cd5a4146100465780636146195414610089578063ba90b25314610093575b600080fd5b61006d7f000000000000000000000000000000000000000000000000000000000000000081565b6040516001600160a01b03909116815260200160405180910390f35b6100916100ba565b005b61006d7f000000000000000000000000000000000000000000000000000000000000000081565b6001600160a01b037f0000000000000000000000000000000000000000000000000000000000000000163b6101355760405162461bcd60e51b815260206004820152601960248201527f434f4e54524143545f4e4f4e5f5945545f4445504c4f59454400000000000000604482015260640160405180910390fd5b6040516350ab220360e11b81526001600160a01b037f0000000000000000000000000000000000000000000000000000000000000000811660048301527f0000000000000000000000000000000000000000000000000000000000000000169063a156440690602401600060405180830381600087803b1580156101b857600080fd5b505af11580156101cc573d6000803e3d6000fd5b5050505056fea2646970667358221220fd4879882ebab980ee29c6b4ee8af378b4b7b12cc60cb5d985da0702c57c941b64736f6c63430008130033","linkReferences":{}},"methodIdentifiers":{"NEW_POOL_IMPL()":"ba90b253","POOL_ADDRESSES_PROVIDER()":"311cd5a4","execute()":"61461954"},"id":424}