{"abi":[{"type":"function","name":"AAVE_V1_ORACLE","inputs":[],"outputs":[{"name":"","type":"address","internalType":"address"}],"stateMutability":"view"},{"type":"function","name":"REP","inputs":[],"outputs":[{"name":"","type":"address","internalType":"address"}],"stateMutability":"view"},{"type":"function","name":"REP_ADAPTER","inputs":[],"outputs":[{"name":"","type":"address","internalType":"address"}],"stateMutability":"view"},{"type":"function","name":"execute","inputs":[],"outputs":[],"stateMutability":"nonpayable"}],"bytecode":{"object":"0x608060405234801561001057600080fd5b506102c2806100206000396000f3fe608060405234801561001057600080fd5b506004361061004c5760003560e01c8063062f67b2146100515780634faf24821461008857806361461954146100a357806361b74b1b146100ad575b600080fd5b61006c731985365e9f78359a9b6ad760e32412f4a445e86281565b6040516001600160a01b03909116815260200160405180910390f35b61006c73c7751400f809cdb0c167f87985083c558a0610f781565b6100ab6100c8565b005b61006c7376b47460d7f7c5222cfb6b6a75615ab10895dde481565b604080516001808252818301909252600091602080830190803683375050604080516001808252818301909252929350600092915060208083019080368337019050509050731985365e9f78359a9b6ad760e32412f4a445e8628260008151811061013557610135610204565b60200260200101906001600160a01b031690816001600160a01b03168152505073c7751400f809cdb0c167f87985083c558a0610f78160008151811061017d5761017d610204565b6001600160a01b0390921660209283029190910190910152604051630abfd53160e41b81527376b47460d7f7c5222cfb6b6a75615ab10895dde49063abfd5310906101ce908590859060040161025e565b600060405180830381600087803b1580156101e857600080fd5b505af11580156101fc573d6000803e3d6000fd5b505050505050565b634e487b7160e01b600052603260045260246000fd5b600081518084526020808501945080840160005b838110156102535781516001600160a01b03168752958201959082019060010161022e565b509495945050505050565b604081526000610271604083018561021a565b8281036020840152610283818561021a565b9594505050505056fea26469706673582212203e997d8c042e793ef30c062b0af26f28b99889288592c091f6e1af053650c0ca64736f6c63430008130033","linkReferences":{}},"methodIdentifiers":{"AAVE_V1_ORACLE()":"61b74b1b","REP()":"062f67b2","REP_ADAPTER()":"4faf2482","execute()":"61461954"},"id":160}