{"abi":[{"type":"function","name":"ARBITRUM_POOL_IMPL_ADDRESS","inputs":[],"outputs":[{"name":"","type":"address","internalType":"address"}],"stateMutability":"view"},{"type":"function","name":"AVALANCHE_POOL_IMPL_ADDRESS","inputs":[],"outputs":[{"name":"","type":"address","internalType":"address"}],"stateMutability":"view"},{"type":"function","name":"BASE_POOL_IMPL_ADDRESS","inputs":[],"outputs":[{"name":"","type":"address","internalType":"address"}],"stateMutability":"view"},{"type":"function","name":"ETHEREUM_POOL_IMPL_ADDRESS","inputs":[],"outputs":[{"name":"","type":"address","internalType":"address"}],"stateMutability":"view"},{"type":"function","name":"GNOSIS_POOL_IMPL_ADDRESS","inputs":[],"outputs":[{"name":"","type":"address","internalType":"address"}],"stateMutability":"view"},{"type":"function","name":"OPTIMISM_POOL_IMPL_ADDRESS","inputs":[],"outputs":[{"name":"","type":"address","internalType":"address"}],"stateMutability":"view"},{"type":"function","name":"POLYGON_POOL_IMPL_ADDRESS","inputs":[],"outputs":[{"name":"","type":"address","internalType":"address"}],"stateMutability":"view"}],"bytecode":{"object":"0x61016561003a600b82828239805160001a60731461002d57634e487b7160e01b600052600060045260246000fd5b30600052607381538281f3fe73000000000000000000000000000000000000000030146080604052600436106100875760003560e01c8063a5eb527011610065578063a5eb5270146100f9578063b365861e146100de578063c97b895514610114578063e94ea4501461011457600080fd5b80631505b06e1461008c5780631b1e0ba6146100c35780636565ec07146100de575b600080fd5b6100a773e9547fc44c271dbddf94d8e20b46836b87da678981565b6040516001600160a01b03909116815260200160405180910390f35b6100a7735faab9e1adbddad0a08734be8a52185fd6558e1481565b6100a77303e8c5cd5e194659b16456bb43dd5d38886fe54181565b6100a7735b522140fabeb6b6232336295581e63902e9b4ad81565b6100a7731ed647b250e5b6d71dc7b25806f44c33f5658f718156fea2646970667358221220676a0535a7b6b3922b9a622cd5e0627ac3fe7d966a5291f657553d1e69fe84a664736f6c63430008130033","linkReferences":{}},"methodIdentifiers":{"ARBITRUM_POOL_IMPL_ADDRESS()":"6565ec07","AVALANCHE_POOL_IMPL_ADDRESS()":"c97b8955","BASE_POOL_IMPL_ADDRESS()":"1505b06e","ETHEREUM_POOL_IMPL_ADDRESS()":"1b1e0ba6","GNOSIS_POOL_IMPL_ADDRESS()":"a5eb5270","OPTIMISM_POOL_IMPL_ADDRESS()":"b365861e","POLYGON_POOL_IMPL_ADDRESS()":"e94ea450"},"id":433}