{"abi":[{"type":"function","name":"SCROLL_ADAPTER_ETHEREUM","inputs":[],"outputs":[{"name":"","type":"address","internalType":"address"}],"stateMutability":"view"},{"type":"function","name":"SCROLL_ADAPTER_SCROLL","inputs":[],"outputs":[{"name":"","type":"address","internalType":"address"}],"stateMutability":"view"},{"type":"function","name":"SCROLL_CHAIN_ID","inputs":[],"outputs":[{"name":"","type":"uint256","internalType":"uint256"}],"stateMutability":"view"},{"type":"function","name":"execute","inputs":[],"outputs":[],"stateMutability":"nonpayable"}],"bytecode":{"object":"0x608060405234801561001057600080fd5b5061029f806100206000396000f3fe608060405234801561001057600080fd5b506004361061004c5760003560e01c80635fcc6505146100515780636146195414610089578063a97c49e314610093578063ef7597d7146100ab575b600080fd5b61006c73b29f03cbcc646201ec83e9f2c164747bea84b16281565b6040516001600160a01b0390911681526020015b60405180910390f35b6100916100c6565b005b61009d6208275081565b604051908152602001610080565b61006c73118dfd5418890c0332042ab05173db4a2c1d283c81565b604080516001808252818301909252600091816020015b60408051606081018252600080825260208083018290529282015282526000199092019101816100dd579050509050604051806060016040528073b29f03cbcc646201ec83e9f2c164747bea84b1626001600160a01b0316815260200173118dfd5418890c0332042ab05173db4a2c1d283c6001600160a01b031681526020016208275081525081600081518110610177576101776101ee565b6020908102919091010152604051630a234b1560e01b815273ed42a7d8559a463722ca4bed50e0cc05a386b0e190630a234b15906101b9908490600401610204565b600060405180830381600087803b1580156101d357600080fd5b505af11580156101e7573d6000803e3d6000fd5b5050505050565b634e487b7160e01b600052603260045260246000fd5b602080825282518282018190526000919060409081850190868401855b8281101561025c57815180516001600160a01b0390811686528782015116878601528501518585015260609093019290850190600101610221565b509197965050505050505056fea26469706673582212200c6db290deff516307e7dfdb3a1d868aaeb812f123d78eed110cb9227c0409eb64736f6c63430008130033","linkReferences":{}},"methodIdentifiers":{"SCROLL_ADAPTER_ETHEREUM()":"5fcc6505","SCROLL_ADAPTER_SCROLL()":"ef7597d7","SCROLL_CHAIN_ID()":"a97c49e3","execute()":"61461954"},"id":473}