{"abi":[{"type":"function","name":"CONFIG_ENGINE","inputs":[],"outputs":[{"name":"","type":"address","internalType":"contract IAaveV3ConfigEngine"}],"stateMutability":"view"},{"type":"function","name":"EURe","inputs":[],"outputs":[{"name":"","type":"address","internalType":"address"}],"stateMutability":"view"},{"type":"function","name":"FREEZING_STEWARD","inputs":[],"outputs":[{"name":"","type":"address","internalType":"address"}],"stateMutability":"view"},{"type":"function","name":"GNO","inputs":[],"outputs":[{"name":"","type":"address","internalType":"address"}],"stateMutability":"view"},{"type":"function","name":"GUARDIAN","inputs":[],"outputs":[{"name":"","type":"address","internalType":"address"}],"stateMutability":"view"},{"type":"function","name":"USDC","inputs":[],"outputs":[{"name":"","type":"address","internalType":"address"}],"stateMutability":"view"},{"type":"function","name":"WETH","inputs":[],"outputs":[{"name":"","type":"address","internalType":"address"}],"stateMutability":"view"},{"type":"function","name":"WXDAI","inputs":[],"outputs":[{"name":"","type":"address","internalType":"address"}],"stateMutability":"view"},{"type":"function","name":"assetsEModeUpdates","inputs":[],"outputs":[{"name":"","type":"tuple[]","internalType":"struct IAaveV3ConfigEngine.AssetEModeUpdate[]","components":[{"name":"asset","type":"address","internalType":"address"},{"name":"eModeCategory","type":"uint8","internalType":"uint8"}]}],"stateMutability":"view"},{"type":"function","name":"borrowsUpdates","inputs":[],"outputs":[{"name":"","type":"tuple[]","internalType":"struct IAaveV3ConfigEngine.BorrowUpdate[]","components":[{"name":"asset","type":"address","internalType":"address"},{"name":"enabledToBorrow","type":"uint256","internalType":"uint256"},{"name":"flashloanable","type":"uint256","internalType":"uint256"},{"name":"stableRateModeEnabled","type":"uint256","internalType":"uint256"},{"name":"borrowableInIsolation","type":"uint256","internalType":"uint256"},{"name":"withSiloedBorrowing","type":"uint256","internalType":"uint256"},{"name":"reserveFactor","type":"uint256","internalType":"uint256"}]}],"stateMutability":"view"},{"type":"function","name":"capsUpdates","inputs":[],"outputs":[{"name":"","type":"tuple[]","internalType":"struct IAaveV3ConfigEngine.CapsUpdate[]","components":[{"name":"asset","type":"address","internalType":"address"},{"name":"supplyCap","type":"uint256","internalType":"uint256"},{"name":"borrowCap","type":"uint256","internalType":"uint256"}]}],"stateMutability":"view"},{"type":"function","name":"collateralsUpdates","inputs":[],"outputs":[{"name":"","type":"tuple[]","internalType":"struct IAaveV3ConfigEngine.CollateralUpdate[]","components":[{"name":"asset","type":"address","internalType":"address"},{"name":"ltv","type":"uint256","internalType":"uint256"},{"name":"liqThreshold","type":"uint256","internalType":"uint256"},{"name":"liqBonus","type":"uint256","internalType":"uint256"},{"name":"debtCeiling","type":"uint256","internalType":"uint256"},{"name":"liqProtocolFee","type":"uint256","internalType":"uint256"}]}],"stateMutability":"view"},{"type":"function","name":"eModeCategoriesUpdates","inputs":[],"outputs":[{"name":"","type":"tuple[]","internalType":"struct IAaveV3ConfigEngine.EModeCategoryUpdate[]","components":[{"name":"eModeCategory","type":"uint8","internalType":"uint8"},{"name":"ltv","type":"uint256","internalType":"uint256"},{"name":"liqThreshold","type":"uint256","internalType":"uint256"},{"name":"liqBonus","type":"uint256","internalType":"uint256"},{"name":"priceSource","type":"address","internalType":"address"},{"name":"label","type":"string","internalType":"string"}]}],"stateMutability":"pure"},{"type":"function","name":"execute","inputs":[],"outputs":[],"stateMutability":"nonpayable"},{"type":"function","name":"getPoolContext","inputs":[],"outputs":[{"name":"","type":"tuple","internalType":"struct IAaveV3ConfigEngine.PoolContext","components":[{"name":"networkName","type":"string","internalType":"string"},{"name":"networkAbbreviation","type":"string","internalType":"string"}]}],"stateMutability":"pure"},{"type":"function","name":"newListings","inputs":[],"outputs":[{"name":"","type":"tuple[]","internalType":"struct IAaveV3ConfigEngine.Listing[]","components":[{"name":"asset","type":"address","internalType":"address"},{"name":"assetSymbol","type":"string","internalType":"string"},{"name":"priceFeed","type":"address","internalType":"address"},{"name":"rateStrategyParams","type":"tuple","internalType":"struct IV3RateStrategyFactory.RateStrategyParams","components":[{"name":"optimalUsageRatio","type":"uint256","internalType":"uint256"},{"name":"baseVariableBorrowRate","type":"uint256","internalType":"uint256"},{"name":"variableRateSlope1","type":"uint256","internalType":"uint256"},{"name":"variableRateSlope2","type":"uint256","internalType":"uint256"},{"name":"stableRateSlope1","type":"uint256","internalType":"uint256"},{"name":"stableRateSlope2","type":"uint256","internalType":"uint256"},{"name":"baseStableRateOffset","type":"uint256","internalType":"uint256"},{"name":"stableRateExcessOffset","type":"uint256","internalType":"uint256"},{"name":"optimalStableToTotalDebtRatio","type":"uint256","internalType":"uint256"}]},{"name":"enabledToBorrow","type":"uint256","internalType":"uint256"},{"name":"stableRateModeEnabled","type":"uint256","internalType":"uint256"},{"name":"borrowableInIsolation","type":"uint256","internalType":"uint256"},{"name":"withSiloedBorrowing","type":"uint256","internalType":"uint256"},{"name":"flashloanable","type":"uint256","internalType":"uint256"},{"name":"ltv","type":"uint256","internalType":"uint256"},{"name":"liqThreshold","type":"uint256","internalType":"uint256"},{"name":"liqBonus","type":"uint256","internalType":"uint256"},{"name":"reserveFactor","type":"uint256","internalType":"uint256"},{"name":"supplyCap","type":"uint256","internalType":"uint256"},{"name":"borrowCap","type":"uint256","internalType":"uint256"},{"name":"debtCeiling","type":"uint256","internalType":"uint256"},{"name":"liqProtocolFee","type":"uint256","internalType":"uint256"},{"name":"eModeCategory","type":"uint8","internalType":"uint8"}]}],"stateMutability":"pure"},{"type":"function","name":"newListingsCustom","inputs":[],"outputs":[{"name":"","type":"tuple[]","internalType":"struct IAaveV3ConfigEngine.ListingWithCustomImpl[]","components":[{"name":"base","type":"tuple","internalType":"struct IAaveV3ConfigEngine.Listing","components":[{"name":"asset","type":"address","internalType":"address"},{"name":"assetSymbol","type":"string","internalType":"string"},{"name":"priceFeed","type":"address","internalType":"address"},{"name":"rateStrategyParams","type":"tuple","internalType":"struct IV3RateStrategyFactory.RateStrategyParams","components":[{"name":"optimalUsageRatio","type":"uint256","internalType":"uint256"},{"name":"baseVariableBorrowRate","type":"uint256","internalType":"uint256"},{"name":"variableRateSlope1","type":"uint256","internalType":"uint256"},{"name":"variableRateSlope2","type":"uint256","internalType":"uint256"},{"name":"stableRateSlope1","type":"uint256","internalType":"uint256"},{"name":"stableRateSlope2","type":"uint256","internalType":"uint256"},{"name":"baseStableRateOffset","type":"uint256","internalType":"uint256"},{"name":"stableRateExcessOffset","type":"uint256","internalType":"uint256"},{"name":"optimalStableToTotalDebtRatio","type":"uint256","internalType":"uint256"}]},{"name":"enabledToBorrow","type":"uint256","internalType":"uint256"},{"name":"stableRateModeEnabled","type":"uint256","internalType":"uint256"},{"name":"borrowableInIsolation","type":"uint256","internalType":"uint256"},{"name":"withSiloedBorrowing","type":"uint256","internalType":"uint256"},{"name":"flashloanable","type":"uint256","internalType":"uint256"},{"name":"ltv","type":"uint256","internalType":"uint256"},{"name":"liqThreshold","type":"uint256","internalType":"uint256"},{"name":"liqBonus","type":"uint256","internalType":"uint256"},{"name":"reserveFactor","type":"uint256","internalType":"uint256"},{"name":"supplyCap","type":"uint256","internalType":"uint256"},{"name":"borrowCap","type":"uint256","internalType":"uint256"},{"name":"debtCeiling","type":"uint256","internalType":"uint256"},{"name":"liqProtocolFee","type":"uint256","internalType":"uint256"},{"name":"eModeCategory","type":"uint8","internalType":"uint8"}]},{"name":"implementations","type":"tuple","internalType":"struct IAaveV3ConfigEngine.TokenImplementations","components":[{"name":"aToken","type":"address","internalType":"address"},{"name":"vToken","type":"address","internalType":"address"},{"name":"sToken","type":"address","internalType":"address"}]}]}],"stateMutability":"view"},{"type":"function","name":"priceFeedsUpdates","inputs":[],"outputs":[{"name":"","type":"tuple[]","internalType":"struct IAaveV3ConfigEngine.PriceFeedUpdate[]","components":[{"name":"asset","type":"address","internalType":"address"},{"name":"priceFeed","type":"address","internalType":"address"}]}],"stateMutability":"view"},{"type":"function","name":"rateStrategiesUpdates","inputs":[],"outputs":[{"name":"","type":"tuple[]","internalType":"struct IAaveV3ConfigEngine.RateStrategyUpdate[]","components":[{"name":"asset","type":"address","internalType":"address"},{"name":"params","type":"tuple","internalType":"struct IV3RateStrategyFactory.RateStrategyParams","components":[{"name":"optimalUsageRatio","type":"uint256","internalType":"uint256"},{"name":"baseVariableBorrowRate","type":"uint256","internalType":"uint256"},{"name":"variableRateSlope1","type":"uint256","internalType":"uint256"},{"name":"variableRateSlope2","type":"uint256","internalType":"uint256"},{"name":"stableRateSlope1","type":"uint256","internalType":"uint256"},{"name":"stableRateSlope2","type":"uint256","internalType":"uint256"},{"name":"baseStableRateOffset","type":"uint256","internalType":"uint256"},{"name":"stableRateExcessOffset","type":"uint256","internalType":"uint256"},{"name":"optimalStableToTotalDebtRatio","type":"uint256","internalType":"uint256"}]}]}],"stateMutability":"view"},{"type":"function","name":"sDAI","inputs":[],"outputs":[{"name":"","type":"address","internalType":"address"}],"stateMutability":"view"},{"type":"function","name":"wstETH","inputs":[],"outputs":[{"name":"","type":"address","internalType":"address"}],"stateMutability":"view"},{"type":"error","name":"SafeERC20FailedOperation","inputs":[{"name":"token","type":"address","internalType":"address"}]}],"bytecode":{"object":"0x60a060405234801561001057600080fd5b50733238fc1d642b60f41a35f62570237656c85f474460805260805161226261004b600039600081816101d101526103b001526122626000f3fe608060405234801561001057600080fd5b50600436106101375760003560e01c806389a30271116100b8578063c0a255801161007c578063c0a25580146102b1578063ca8e89cc146102c6578063d0c38c27146102db578063de8b6149146102ea578063fabe346314610305578063fbb256f61461031457600080fd5b806389a302711461024e578063922870951461026957806395a93cb114610278578063ad5c464814610287578063b1af0d0d146102a257600080fd5b80635e5eef7a116100ff5780635e5eef7a146101cc578063604a52fb146101f3578063614619541461020e578063623f23e014610218578063724c184c1461023357600080fd5b80631850edd81461013c57806324bdd53a146101545780632b1794341461018757806338e45595146101965780634aa07e64146101b1575b600080fd5b606060405161014b9190611b16565b60405180910390f35b61016f73cb444e90d8198415266c6a2724b7900fb12fc56e81565b6040516001600160a01b03909116815260200161014b565b606060405161014b9190611ba1565b61016f739c58bacc331c9aa871afd802db6379a98e80cedb81565b61016f736c76971f98945ae98dd7d4dfca8711ebea946ea681565b61016f7f000000000000000000000000000000000000000000000000000000000000000081565b61016f73e91d153e0b41518a2ce8dd3d7944fa863463a97d81565b610216610329565b005b61016f733ceaf9b6cab92dfe6302d0cc3f1ba880c28d35e581565b61016f73f163b8698821cefbd33cf449764d69ea445ce23d81565b61016f73ddafbb505ad214d7b80b1f830fccc89b60fb7a8381565b606060405161014b9190611c15565b606060405161014b9190611c63565b61016f736a023ccd1ff6f2045c3309768ead9e68f978f6e181565b606060405161014b9190611cb8565b6102b9610525565b60405161014b9190611f0c565b6102ce611061565b60405161014b9190611f1f565b606060405161014b9190611fca565b61016f73af204776c7245bf4147c2612bf6e5972ee48370181565b606060405161014b91906120b2565b61031c61114f565b60405161014b91906120f3565b6000610333611061565b9050600061033f610525565b8251909150606090819081908190819081908190156103d8576103d663a192ac2460e01b8a6040516024016103749190611f1f565b60408051601f198184030181529190526020810180516001600160e01b03166001600160e01b0319909316929092179091526001600160a01b037f000000000000000000000000000000000000000000000000000000000000000016906111ae565b505b87511561040657610404633cb6502d60e01b6103f261114f565b8a604051602401610374929190612106565b505b865115610434576104326314d8093760e21b61042061114f565b8960405160240161037492919061212b565b505b8451156104595761045763bb06653560e01b866040516024016103749190611b16565b505b85511561047e5761047c6309d8332860e01b876040516024016103749190611ba1565b505b8351156104a3576104a16324f4c44560e01b856040516024016103749190611fca565b505b8251156104c8576104c663927c400360e01b846040516024016103749190611cb8565b505b8151156104ed576104eb632a90e62360e01b836040516024016103749190611c15565b505b805115610512576105106355caa16360e01b826040516024016103749190611c63565b505b61051a6111dc565b505050505050505050565b604080516007808252610100820190925260609160009190816020015b61054a611a29565b815260200190600190039081610542579050509050604051806102400160405280736a023ccd1ff6f2045c3309768ead9e68f978f6e16001600160a01b03168152602001604051806040016040528060048152602001630ae8aa8960e31b815250815260200173a767f745331d267c7751297d982b050c939856276001600160a01b031681526020016040518061012001604052806105ea611f4061156d565b81526020016000815260200161060161014a61156d565b8152602001610611611f4061156d565b815260200161062161019061156d565b8152602001610631611f4061156d565b815260200161064060c861156d565b815260200161065061032061156d565b81526020016106606107d061156d565b81525081526020016001815260200160008152602001600081526020016000815260200160018152602001611d4c8152602001611e78815260200161025881526020016105dc8152602001610fa08152602001610dac8152602001600081526020016103e88152602001600160ff16815250816000815181106106e5576106e5612150565b6020026020010181905250604051806102400160405280736c76971f98945ae98dd7d4dfca8711ebea946ea66001600160a01b03168152602001604051806040016040528060068152602001650eee6e88aa8960d31b815250815260200173cb0670258e5961cca85d8f71d29c1167ef20de996001600160a01b0316815260200160405180610120016040528061077d61119461156d565b8152602001600081526020016107946102bc61156d565b81526020016107a461753061156d565b81526020016107b46102bc61156d565b81526020016107c461753061156d565b81526020016107d360c861156d565b81526020016107e361032061156d565b81526020016107f36107d061156d565b81525081526020016001815260200160008152602001600081526020016000815260200160018152602001611d4c8152602001611e78815260200161025881526020016105dc8152602001610fa081526020016101908152602001600081526020016103e88152602001600160ff168152508160018151811061087857610878612150565b6020026020010181905250604051806102400160405280739c58bacc331c9aa871afd802db6379a98e80cedb6001600160a01b0316815260200160405180604001604052806003815260200162474e4f60e81b81525081526020017322441d81416430a54336ab28765abd31a792ad376001600160a01b0316815260200160405180610120016040528061090d61119461156d565b8152602001600081526020016109246102bc61156d565b815260200161093461753061156d565b81526020016109446102bc61156d565b815260200161095461753061156d565b815260200161096360c861156d565b815260200161097361032061156d565b81526020016109836107d061156d565b81525081526020016000815260200160008152602001600081526020016000815260200160018152602001610c1c8152602001610e1081526020016103e881526020016105dc8152602001617530815260200160008152602001620f424081526020016103e88152602001600060ff1681525081600281518110610a0957610a09612150565b602002602001018190525060405180610240016040528073ddafbb505ad214d7b80b1f830fccc89b60fb7a836001600160a01b03168152602001604051806040016040528060048152602001635553444360e01b81525081526020017326c31ac71010af62e6b486d1132e266d6298857d6001600160a01b03168152602001604051806101200160405280610a9f61232861156d565b815260200160008152602001610ab66101f461156d565b8152602001610ac6611d4c61156d565b8152602001610ad66101f461156d565b8152602001610ae6611d4c61156d565b8152602001610af5606461156d565b8152602001610b0561032061156d565b8152602001610b156107d061156d565b81525081526020016001815260200160008152602001600181526020016000815260200160018152602001611e148152602001611f4081526020016101f481526020016103e88152602001620f42408152602001620f42408152602001600081526020016107d08152602001600060ff1681525081600381518110610b9c57610b9c612150565b602002602001018190525060405180610240016040528073e91d153e0b41518a2ce8dd3d7944fa863463a97d6001600160a01b0316815260200160405180604001604052806005815260200164575844414960d81b815250815260200173678df3415fc31947da4324ec63212874be5a82f86001600160a01b03168152602001604051806101200160405280610c3361232861156d565b815260200160008152602001610c4a6101f461156d565b8152602001610c5a611d4c61156d565b8152602001610c6a6101f461156d565b8152602001610c7a611d4c61156d565b8152602001610c89606461156d565b8152602001610c9961032061156d565b8152602001610ca96107d061156d565b81525081526020016001815260200160008152602001600181526020016000815260200160018152602001611e148152602001611f4081526020016101f481526020016103e881526020016216e36081526020016216e3608152602001600081526020016107d08152602001600060ff1681525081600481518110610d3057610d30612150565b602002602001018190525060405180610240016040528073cb444e90d8198415266c6a2724b7900fb12fc56e6001600160a01b03168152602001604051806040016040528060048152602001634555526560e01b815250815260200173ab70bcb260073d036d1660201e9d5405f5829b7a6001600160a01b03168152602001604051806101200160405280610dc661232861156d565b815260200160008152602001610ddd61019061156d565b8152602001610ded611d4c61156d565b8152602001610dfd61019061156d565b8152602001610e0d611d4c61156d565b8152602001610e1c606461156d565b8152602001610e2c61032061156d565b8152602001610e3c6107d061156d565b815250815260200160018152602001600081526020016000815260200160008152602001600181526020016000815260200160008152602001600081526020016105dc81526020016207a12081526020016207a1208152602001600081526020016103e88152602001600060ff1681525081600581518110610ec057610ec0612150565b602002602001018190525060405180610240016040528073af204776c7245bf4147c2612bf6e5972ee4837016001600160a01b03168152602001604051806040016040528060048152602001637344414960e01b8152508152602001731d0f881ce1a646e2f27dec3c57fa056cb838bcc26001600160a01b03168152602001604051806101200160405280610f5661232861156d565b815260200160008152602001610f6d61019061156d565b8152602001610f7d611d4c61156d565b8152602001610f8d61019061156d565b8152602001610f9d611d4c61156d565b8152602001610fac606461156d565b8152602001610fbc61032061156d565b8152602001610fcc6107d061156d565b81525081526020016000815260200160008152602001600081526020016000815260200160018152602001611e148152602001611f4081526020016101f481526020016103e881526020016216e360815260200160008152602001600081526020016107d08152602001600060ff168152508160068151811061105157611051612150565b6020908102919091010152919050565b60408051600180825281830190925260609160009190816020015b6110c16040518060c00160405280600060ff16815260200160008152602001600081526020016000815260200160006001600160a01b03168152602001606081525090565b81526020019060019003908161107c5790505090506040518060c00160405280600160ff168152602001612328815260200161245481526020016064815260200160006001600160a01b031681526020016040518060400160405280600e81526020016d1155120818dbdc9c995b185d195960921b8152508152508160008151811061105157611051612150565b60408051808201909152606080825260208201525060408051608081018252600681830190815265476e6f73697360d01b6060830152815281518083019092526003825262476e6f60e81b60208381019190915281019190915290565b565b60606111d3838360405180606001604052806027815260200161220660279139611592565b90505b92915050565b6040516322650caf60e01b815273f163b8698821cefbd33cf449764d69ea445ce23d600482015273ec710f59005f48703908bc519d552df5b8472614906322650caf90602401600060405180830381600087803b15801561123c57600080fd5b505af1158015611250573d6000803e3d6000fd5b50506040516316e6a53960e21b8152733ceaf9b6cab92dfe6302d0cc3f1ba880c28d35e5600482015273ec710f59005f48703908bc519d552df5b84726149250635b9a94e49150602401600060405180830381600087803b1580156112b457600080fd5b505af11580156112c8573d6000803e3d6000fd5b50506040516316e6a53960e21b81527333ae1f41546a2e05368bf789b3d868813c0ae658600482015273ec710f59005f48703908bc519d552df5b84726149250635b9a94e49150602401600060405180830381600087803b15801561132c57600080fd5b505af1158015611340573d6000803e3d6000fd5b5050505061139373b50201558b00496a145fe76f7424749556e326d8736a023ccd1ff6f2045c3309768ead9e68f978f6e1662386f26fc10000733e652e97ff339b73421f824f5b03d75b62f1fb5161160a565b6113e273b50201558b00496a145fe76f7424749556e326d8736c76971f98945ae98dd7d4dfca8711ebea946ea6662386f26fc10000733e652e97ff339b73421f824f5b03d75b62f1fb5161160a565b61143273b50201558b00496a145fe76f7424749556e326d8739c58bacc331c9aa871afd802db6379a98e80cedb67016345785d8a0000733e652e97ff339b73421f824f5b03d75b62f1fb5161160a565b61147d73b50201558b00496a145fe76f7424749556e326d873ddafbb505ad214d7b80b1f830fccc89b60fb7a8362989680733e652e97ff339b73421f824f5b03d75b62f1fb5161160a565b6114cd73b50201558b00496a145fe76f7424749556e326d873e91d153e0b41518a2ce8dd3d7944fa863463a97d678ac7230489e80000733e652e97ff339b73421f824f5b03d75b62f1fb5161160a565b61151d73b50201558b00496a145fe76f7424749556e326d873cb444e90d8198415266c6a2724b7900fb12fc56e678ac7230489e80000733e652e97ff339b73421f824f5b03d75b62f1fb5161160a565b6111ac73b50201558b00496a145fe76f7424749556e326d873af204776c7245bf4147c2612bf6e5972ee483701678ac7230489e80000733e652e97ff339b73421f824f5b03d75b62f1fb5161160a565b60006127106115886b033b2e3c9fd0803ce800000084612166565b6111d6919061218b565b6060600080856001600160a01b0316856040516115af91906121ad565b600060405180830381855af49150503d80600081146115ea576040519150601f19603f3d011682016040523d82523d6000602084013e6115ef565b606091505b509150915061160086838387611695565b9695505050505050565b61161e6001600160a01b038416858461171b565b60405163617ba03760e01b81526001600160a01b0384811660048301526024820184905282811660448301526000606483015285169063617ba03790608401600060405180830381600087803b15801561167757600080fd5b505af115801561168b573d6000803e3d6000fd5b5050505050505050565b60608315611709578251600003611702576001600160a01b0385163b6117025760405162461bcd60e51b815260206004820152601d60248201527f416464726573733a2063616c6c20746f206e6f6e2d636f6e747261637400000060448201526064015b60405180910390fd5b5081611713565b61171383836117d5565b949350505050565b604080516001600160a01b038416602482015260448082018490528251808303909101815260649091019091526020810180516001600160e01b031663095ea7b360e01b17905261176c84826117ff565b6117cf57604080516001600160a01b038516602482015260006044808301919091528251808303909101815260649091019091526020810180516001600160e01b031663095ea7b360e01b1790526117c59085906118a7565b6117cf84826118a7565b50505050565b8151156117e55781518083602001fd5b8060405162461bcd60e51b81526004016116f991906121c9565b6000806000846001600160a01b03168460405161181c91906121ad565b6000604051808303816000865af19150503d8060008114611859576040519150601f19603f3d011682016040523d82523d6000602084013e61185e565b606091505b509150915081801561188857508051158061188857508080602001905181019061188891906121dc565b801561189e57506000856001600160a01b03163b115b95945050505050565b60006118bc6001600160a01b0384168361190f565b905080516000141580156118e15750808060200190518101906118df91906121dc565b155b1561190a57604051635274afe760e01b81526001600160a01b03841660048201526024016116f9565b505050565b60606111d3838360006040518060400160405280601e81526020017f416464726573733a206c6f772d6c6576656c2063616c6c206661696c656400008152506060824710156119af5760405162461bcd60e51b815260206004820152602660248201527f416464726573733a20696e73756666696369656e742062616c616e636520666f6044820152651c8818d85b1b60d21b60648201526084016116f9565b600080866001600160a01b031685876040516119cb91906121ad565b60006040518083038185875af1925050503d8060008114611a08576040519150601f19603f3d011682016040523d82523d6000602084013e611a0d565b606091505b5091509150611a1e87838387611695565b979650505050505050565b60405180610240016040528060006001600160a01b031681526020016060815260200160006001600160a01b03168152602001611aab6040518061012001604052806000815260200160008152602001600081526020016000815260200160008152602001600081526020016000815260200160008152602001600081525090565b815260200160008152602001600081526020016000815260200160008152602001600081526020016000815260200160008152602001600081526020016000815260200160008152602001600081526020016000815260200160008152602001600060ff1681525090565b602080825282518282018190526000919060409081850190868401855b82811015611b9457815180516001600160a01b0316855286810151878601528581015186860152606080820151908601526080808201519086015260a0808201519086015260c0908101519085015260e09093019290850190600101611b33565b5091979650505050505050565b602080825282518282018190526000919060409081850190868401855b82811015611b9457815180516001600160a01b0316855286810151878601528581015186860152606080820151908601526080808201519086015260a0908101519085015260c09093019290850190600101611bbe565b602080825282518282018190526000919060409081850190868401855b82811015611b9457815180516001600160a01b0316855286015160ff16868501529284019290850190600101611c32565b602080825282518282018190526000919060409081850190868401855b82811015611b9457815180516001600160a01b0316855286810151878601528501518585015260609093019290850190600101611c80565b602080825282518282018190526000919060409081850190868401855b82811015611b9457815180516001600160a01b0390811686529087015116868501529284019290850190600101611cd5565b60005b83811015611d22578181015183820152602001611d0a565b50506000910152565b60008151808452611d43816020860160208601611d07565b601f01601f19169290920160200192915050565b805182526020810151602083015260408101516040830152606081015160608301526080810151608083015260a081015160a083015260c081015160c083015260e081015160e08301526101008082015181840152505050565b80516001600160a01b0316825260006103406020830151816020860152611dda82860182611d2b565b9150506040830151611df760408601826001600160a01b03169052565b506060830151611e0a6060860182611d57565b5060808301516101808581019190915260a08401516101a08087019190915260c08501516101c08088019190915260e08601516101e080890191909152610100870151610200808a0191909152610120880151610220808b01919091526101408901516102408b01526101608901516102608b0152948801516102808a0152928701516102a0890152908601516102c08801528501516102e087015284015161030086015283015160ff8116610320860152509392505050565b600081518084526020808501808196508360051b8101915082860160005b85811015611b94578284038952611efa848351611db1565b98850198935090840190600101611ee2565b6020815260006111d36020830184611ec4565b60006020808301818452808551808352604092508286019150828160051b87010184880160005b83811015611fbc57888303603f190185528151805160ff16845287810151888501528681015187850152606080820151908501526080808201516001600160a01b03169085015260a09081015160c091850182905290611fa881860183611d2b565b968901969450505090860190600101611f46565b509098975050505050505050565b6020808252825182820181905260009190848201906040850190845b8181101561202157835180516001600160a01b0316845285015161200c86850182611d57565b50928401926101409290920191600101611fe6565b50909695505050505050565b600081518084526020808501808196508360051b8101915082860160005b85811015611b9457828403895281516080815181875261206d82880182611db1565b9288015180516001600160a01b03908116898b0152818a015181166040808b01919091529091015116606090970196909652509885019893509084019060010161204b565b6020815260006111d3602083018461202d565b60008151604084526120da6040850182611d2b565b90506020830151848203602086015261189e8282611d2b565b6020815260006111d360208301846120c5565b60408152600061211960408301856120c5565b828103602084015261189e8185611ec4565b60408152600061213e60408301856120c5565b828103602084015261189e818561202d565b634e487b7160e01b600052603260045260246000fd5b80820281158282048414176111d657634e487b7160e01b600052601160045260246000fd5b6000826121a857634e487b7160e01b600052601260045260246000fd5b500490565b600082516121bf818460208701611d07565b9190910192915050565b6020815260006111d36020830184611d2b565b6000602082840312156121ee57600080fd5b815180151581146121fe57600080fd5b939250505056fe416464726573733a206c6f772d6c6576656c2064656c65676174652063616c6c206661696c6564a2646970667358221220bd8e19b613eeba4e17e3020ae1b2dec2c85b1cf2e1cea11e34e955fa1e88661064736f6c63430008130033","linkReferences":{}},"methodIdentifiers":{"CONFIG_ENGINE()":"5e5eef7a","EURe()":"24bdd53a","FREEZING_STEWARD()":"623f23e0","GNO()":"38e45595","GUARDIAN()":"724c184c","USDC()":"89a30271","WETH()":"ad5c4648","WXDAI()":"604a52fb","assetsEModeUpdates()":"92287095","borrowsUpdates()":"1850edd8","capsUpdates()":"95a93cb1","collateralsUpdates()":"2b179434","eModeCategoriesUpdates()":"ca8e89cc","execute()":"61461954","getPoolContext()":"fbb256f6","newListings()":"c0a25580","newListingsCustom()":"fabe3463","priceFeedsUpdates()":"b1af0d0d","rateStrategiesUpdates()":"d0c38c27","sDAI()":"de8b6149","wstETH()":"4aa07e64"},"id":152}