{"abi":[{"type":"function","name":"BGD","inputs":[],"outputs":[{"name":"","type":"address","internalType":"address"}],"stateMutability":"view"},{"type":"function","name":"CANTINA","inputs":[],"outputs":[{"name":"","type":"address","internalType":"address"}],"stateMutability":"view"},{"type":"function","name":"execute","inputs":[],"outputs":[],"stateMutability":"nonpayable"}],"bytecode":{"object":"0x608060405234801561001057600080fd5b506102ca806100206000396000f3fe608060405234801561001057600080fd5b50600436106100415760003560e01c80635ccb54c414610046578063614619541461007d578063d4e2383714610087575b600080fd5b61006173b812d0944f8f581dfaa3a93dda0d22ecef51a9cf81565b6040516001600160a01b03909116815260200160405180910390f35b6100856100a2565b005b610061733dcb7cfbb431a11cabb6f7f2296e2354f488efc281565b6040516317d5759960e31b815273018008bfb33d285247a21d44e50697654f754e63600482015273b812d0944f8f581dfaa3a93dda0d22ecef51a9cf60248201526908e4d316827686400000604482015273464c71f6c2f760dda6093dcb91c24c39e5d6e18c9063beabacc890606401600060405180830381600087803b15801561012c57600080fd5b505af1158015610140573d6000803e3d6000fd5b50506040516317d5759960e31b81527398c23e9d8f34fefb1b7bd6a91b7ff122f4e16f5c600482015230602482015264196cd3c400604482015273464c71f6c2f760dda6093dcb91c24c39e5d6e18c925063beabacc89150606401600060405180830381600087803b1580156101b557600080fd5b505af11580156101c9573d6000803e3d6000fd5b5050604051631a4ca37b60e21b815273a0b86991c6218b36c1d19d4a2e9eb0ce3606eb4860048201526000196024820152733dcb7cfbb431a11cabb6f7f2296e2354f488efc260448201527387870bca3f3fd6335c3f4ce8392d69350b4fa4e292506369328dec91506064016020604051808303816000875af1158015610254573d6000803e3d6000fd5b505050506040513d601f19601f82011682018060405250810190610278919061027b565b50565b60006020828403121561028d57600080fd5b505191905056fea26469706673582212206e9b156bcbb6bf874747a078ff19f66155c309ad5d4d344a4d78881b20126dda64736f6c63430008130033","linkReferences":{}},"methodIdentifiers":{"BGD()":"5ccb54c4","CANTINA()":"d4e23837","execute()":"61461954"},"id":374}