{"abi":[{"type":"function","name":"GLC_SAFE","inputs":[],"outputs":[{"name":"","type":"address","internalType":"address"}],"stateMutability":"view"},{"type":"function","name":"execute","inputs":[],"outputs":[],"stateMutability":"nonpayable"}],"bytecode":{"object":"0x608060405234801561001057600080fd5b5061052a806100206000396000f3fe608060405234801561001057600080fd5b50600436106100365760003560e01c8063031f683f1461003b5780636146195414610072575b600080fd5b61005673205e795336610f5131be52f09218af19f0f3ec6081565b6040516001600160a01b03909116815260200160405180910390f35b61007a61007c565b005b6040516370a0823160e01b815273464c71f6c2f760dda6093dcb91c24c39e5d6e18c600482018190529063beabacc890738dae6cb04688c62d939ed9b68d32bc62e49970b190309082906370a0823190602401602060405180830381865afa1580156100ec573d6000803e3d6000fd5b505050506040513d601f19601f8201168201806040525081019061011091906104db565b6040516001600160e01b031960e086901b1681526001600160a01b0393841660048201529290911660248301526044820152606401600060405180830381600087803b15801561015f57600080fd5b505af1158015610173573d6000803e3d6000fd5b50506040516370a0823160e01b815273464c71f6c2f760dda6093dcb91c24c39e5d6e18c60048201819052925063beabacc89150737b95ec873268a6bfc6427e7a28e396db9d0ebc6590309082906370a0823190602401602060405180830381865afa1580156101e7573d6000803e3d6000fd5b505050506040513d601f19601f8201168201806040525081019061020b91906104db565b6040516001600160e01b031960e086901b1681526001600160a01b0393841660048201529290911660248301526044820152606401600060405180830381600087803b15801561025a57600080fd5b505af115801561026e573d6000803e3d6000fd5b50506040516370a0823160e01b815273464c71f6c2f760dda6093dcb91c24c39e5d6e18c60048201819052925063beabacc8915073d533a949740bb3306d119cc777fa900ba034cd529073205e795336610f5131be52f09218af19f0f3ec609082906370a0823190602401602060405180830381865afa1580156102f6573d6000803e3d6000fd5b505050506040513d601f19601f8201168201806040525081019061031a91906104db565b6040516001600160e01b031960e086901b1681526001600160a01b0393841660048201529290911660248301526044820152606401600060405180830381600087803b15801561036957600080fd5b505af115801561037d573d6000803e3d6000fd5b5050604051631a4ca37b60e21b815273d533a949740bb3306d119cc777fa900ba034cd526004820152600019602482015273205e795336610f5131be52f09218af19f0f3ec606044820152737d2768de32b0b80b7a3454c06bdac94a69ddc7a992506369328dec91506064016020604051808303816000875af1158015610408573d6000803e3d6000fd5b505050506040513d601f19601f8201168201806040525081019061042c91906104db565b50604051631a4ca37b60e21b815273d533a949740bb3306d119cc777fa900ba034cd526004820152600019602482015273205e795336610f5131be52f09218af19f0f3ec6060448201527387870bca3f3fd6335c3f4ce8392d69350b4fa4e2906369328dec906064016020604051808303816000875af11580156104b4573d6000803e3d6000fd5b505050506040513d601f19601f820116820180604052508101906104d891906104db565b50565b6000602082840312156104ed57600080fd5b505191905056fea2646970667358221220898b354fa329683a494fb986850d194b6b54e5448ee0efb215bbd33c36f0934164736f6c63430008130033","linkReferences":{}},"methodIdentifiers":{"GLC_SAFE()":"031f683f","execute()":"61461954"},"id":289}