{"abi":[{"type":"function","name":"generateProposalPreviewLink","inputs":[{"name":"vm","type":"Vm","internalType":"contract Vm"},{"name":"payloads","type":"tuple[]","internalType":"struct PayloadsControllerUtils.Payload[]","components":[{"name":"chain","type":"uint256","internalType":"uint256"},{"name":"accessLevel","type":"PayloadsControllerUtils.AccessControl","internalType":"enum PayloadsControllerUtils.AccessControl"},{"name":"payloadsController","type":"address","internalType":"address"},{"name":"payloadId","type":"uint40","internalType":"uint40"}]},{"name":"ipfsHash","type":"bytes32","internalType":"bytes32"},{"name":"votingPortal","type":"address","internalType":"address"}],"outputs":[],"stateMutability":"pure"},{"type":"error","name":"CannotFindPayload","inputs":[]},{"type":"error","name":"CannotFindPayloadsController","inputs":[]},{"type":"error","name":"ExecutorNotFound","inputs":[]},{"type":"error","name":"FfiFailed","inputs":[]},{"type":"error","name":"LongBytesNotSupportedYet","inputs":[]}],"bytecode":{"object":"0x610a3e61003a600b82828239805160001a60731461002d57634e487b7160e01b600052600060045260246000fd5b30600052607381538281f3fe73000000000000000000000000000000000000000030146080604052600436106100355760003560e01c80639173ffcb1461003a575b600080fd5b61004d61004836600461056a565b61004f565b005b606060005b84518110156103c15760405163348051d760e11b8152600481018290526000906001600160a01b03881690636900a3ae90602401600060405180830381865afa1580156100a5573d6000803e3d6000fd5b505050506040513d6000823e601f3d908101601f191682016040526100cd91908101906106c7565b6040516020016100dd9190610777565b6040516020818303038152906040529050600081886001600160a01b0316636900a3ae898681518110610112576101126107b4565b6020026020010151600001516040518263ffffffff1660e01b815260040161013c91815260200190565b600060405180830381865afa158015610159573d6000803e3d6000fd5b505050506040513d6000823e601f3d908101601f1916820160405261018191908101906106c7565b838a6001600160a01b0316636900a3ae8b88815181106101a3576101a36107b4565b60200260200101516020015160028111156101c0576101c06107ca565b6040516001600160e01b031960e084901b16815260ff9091166004820152602401600060405180830381865afa1580156101fe573d6000803e3d6000fd5b505050506040513d6000823e601f3d908101601f1916820160405261022691908101906106c7565b858c6001600160a01b03166356ca623e8d8a81518110610248576102486107b4565b6020026020010151604001516040518263ffffffff1660e01b815260040161027f91906001600160a01b0391909116815260200190565b600060405180830381865afa15801561029c573d6000803e3d6000fd5b505050506040513d6000823e601f3d908101601f191682016040526102c491908101906106c7565b878e6001600160a01b0316636900a3ae8f8c815181106102e6576102e66107b4565b6020026020010151606001516040518263ffffffff1660e01b815260040161031b919064ffffffffff91909116815260200190565b600060405180830381865afa158015610338573d6000803e3d6000fd5b505050506040513d6000823e601f3d908101601f1916820160405261036091908101906106c7565b6040516020016103779897969594939291906107e0565b6040516020818303038152906040529050838160405160200161039b9291906108e5565b6040516020818303038152906040529350505080806103b990610914565b915050610054565b506104526040518060800160405280604e81526020016109bb604e9139604051631623433d60e31b8152600481018690526001600160a01b0388169063b11a19e890602401600060405180830381865afa158015610423573d6000803e3d6000fd5b505050506040513d6000823e601f3d908101601f1916820160405261044b91908101906106c7565b8484610459565b5050505050565b6104a2848484846040516024016104739493929190610967565b60408051601f198184030181529190526020810180516001600160e01b03166301d637ff60e71b1790526104a8565b50505050565b6104b1816104b4565b50565b80516a636f6e736f6c652e6c6f67602083016000808483855afa5050505050565b6001600160a01b03811681146104b157600080fd5b634e487b7160e01b600052604160045260246000fd5b6040516080810167ffffffffffffffff81118282101715610523576105236104ea565b60405290565b604051601f8201601f1916810167ffffffffffffffff81118282101715610552576105526104ea565b604052919050565b8035610565816104d5565b919050565b600080600080608080868803121561058157600080fd5b853561058c816104d5565b945060208681013567ffffffffffffffff808211156105aa57600080fd5b818901915089601f8301126105be57600080fd5b8135818111156105d0576105d06104ea565b6105de848260051b01610529565b818152848101925060079190911b83018401908b8211156105fe57600080fd5b928401925b8184101561067d5785848d03121561061b5760008081fd5b610623610500565b8435815285850135600381106106395760008081fd5b8187015260408581013561064c816104d5565b9082015260608581013564ffffffffff8116811461066a5760008081fd5b9082015283529285019291840191610603565b9750505050604087013593506106989150506060860161055a565b905092959194509250565b60005b838110156106be5781810151838201526020016106a6565b50506000910152565b6000602082840312156106d957600080fd5b815167ffffffffffffffff808211156106f157600080fd5b818401915084601f83011261070557600080fd5b815181811115610717576107176104ea565b61072a601f8201601f1916602001610529565b915080825285602082850101111561074157600080fd5b6107528160208401602086016106a3565b50949350505050565b6000815161076d8185602086016106a3565b9290920192915050565b68267061796c6f61645b60b81b81526000825161079b8160098501602087016106a3565b612e9760f11b6009939091019283015250600b01919050565b634e487b7160e01b600052603260045260246000fd5b634e487b7160e01b600052602160045260246000fd5b6000895160206107f38285838f016106a3565b67636861696e49643d60c01b9184019182528a516108178160088501848f016106a3565b8a5192019161082c8160088501848e016106a3565b6b6163636573734c6576656c3d60a01b6008939091019283015288516108588160148501848d016106a3565b885192019161086d8160148501848c016106a3565b727061796c6f616473436f6e74726f6c6c65723d60681b6014939091019283015286516108a08160278501848b016106a3565b6108af6027828501018861075b565b925050506108c981697061796c6f616449643d60b01b9052565b6108d6600a82018561075b565b9b9a5050505050505050505050565b600083516108f78184602088016106a3565b83519083019061090b8183602088016106a3565b01949350505050565b60006001820161093457634e487b7160e01b600052601160045260246000fd5b5060010190565b600081518084526109538160208601602086016106a3565b601f01601f19169290920160200192915050565b60808152600061097a608083018761093b565b828103602084015261098c818761093b565b6001600160a01b0386166040850152838103606085015290506109af818561093b565b97965050505050505056fe68747470733a2f2f766f74652e6f6e616176652e636f6d2f70726f706f73616c2d6372656174652d6f766572766965773f69706673486173683d257326766f74696e67506f7274616c3d25732573a264697066735822122065bb92ad4fca4ccf8e2dbf520cc1ee39c5604eb86b5286b61d417b5df145c04f64736f6c63430008130033","linkReferences":{}},"methodIdentifiers":{"generateProposalPreviewLink(Vm,PayloadsControllerUtils.Payload[],bytes32,address)":"9173ffcb"},"id":117}