{"abi":[{"type":"function","name":"BAL_RF","inputs":[],"outputs":[{"name":"","type":"uint256","internalType":"uint256"}],"stateMutability":"view"},{"type":"function","name":"DAI_RF","inputs":[],"outputs":[{"name":"","type":"uint256","internalType":"uint256"}],"stateMutability":"view"},{"type":"function","name":"USDC_RF","inputs":[],"outputs":[{"name":"","type":"uint256","internalType":"uint256"}],"stateMutability":"view"},{"type":"function","name":"USDT_RF","inputs":[],"outputs":[{"name":"","type":"uint256","internalType":"uint256"}],"stateMutability":"view"},{"type":"function","name":"WBTC_RF","inputs":[],"outputs":[{"name":"","type":"uint256","internalType":"uint256"}],"stateMutability":"view"},{"type":"function","name":"WETH_RF","inputs":[],"outputs":[{"name":"","type":"uint256","internalType":"uint256"}],"stateMutability":"view"},{"type":"function","name":"WMATIC_RF","inputs":[],"outputs":[{"name":"","type":"uint256","internalType":"uint256"}],"stateMutability":"view"},{"type":"function","name":"execute","inputs":[],"outputs":[],"stateMutability":"nonpayable"}],"bytecode":{"object":"0x608060405234801561001057600080fd5b50610497806100206000396000f3fe608060405234801561001057600080fd5b50600436106100885760003560e01c8063ab76cb461161005b578063ab76cb46146100c4578063c11267ce146100c4578063e5979fa4146100cd578063f9dcf464146100d657600080fd5b80632fe48da51461008d57806361461954146100a857806376837844146100b25780638741e94c146100bb575b600080fd5b610096611a9081565b60405190815260200160405180910390f35b6100b06100df565b005b610096611a2c81565b6100966119c881565b61009661270f81565b61009661232881565b61009661219881565b604051634b4e675360e01b8152738f3cf7ad23cd3cadbd9735aff958023239c6a06360048201526119c860248201527326db2b833021583566323e3b8985999981b9f1f390634b4e675390604401600060405180830381600087803b15801561014757600080fd5b505af115801561015b573d6000803e3d6000fd5b5050604051634b4e675360e01b8152732791bca1f2de4661ed88a30c99a7a9449aa841746004820152611a9060248201527326db2b833021583566323e3b8985999981b9f1f39250634b4e67539150604401600060405180830381600087803b1580156101c757600080fd5b505af11580156101db573d6000803e3d6000fd5b5050604051634b4e675360e01b815273c2132d05d31c914a87c6611c10748aeb04b58e8f6004820152611a2c60248201527326db2b833021583566323e3b8985999981b9f1f39250634b4e67539150604401600060405180830381600087803b15801561024757600080fd5b505af115801561025b573d6000803e3d6000fd5b5050604051634b4e675360e01b8152731bfd67037b42cf73acf2047067bd4f2c47d9bfd6600482015261270f60248201527326db2b833021583566323e3b8985999981b9f1f39250634b4e67539150604401600060405180830381600087803b1580156102c757600080fd5b505af11580156102db573d6000803e3d6000fd5b5050604051634b4e675360e01b8152737ceb23fd6bc0add59e62ac25578270cff1b9f619600482015261232860248201527326db2b833021583566323e3b8985999981b9f1f39250634b4e67539150604401600060405180830381600087803b15801561034757600080fd5b505af115801561035b573d6000803e3d6000fd5b5050604051634b4e675360e01b8152730d500b1d8e8ef31e21c99d1db9a6444d3adf1270600482015261219860248201527326db2b833021583566323e3b8985999981b9f1f39250634b4e67539150604401600060405180830381600087803b1580156103c757600080fd5b505af11580156103db573d6000803e3d6000fd5b5050604051634b4e675360e01b8152739a71012b13ca4d3d0cdc72a177df3ef03b0e76a3600482015261270f60248201527326db2b833021583566323e3b8985999981b9f1f39250634b4e67539150604401600060405180830381600087803b15801561044757600080fd5b505af115801561045b573d6000803e3d6000fd5b5050505056fea26469706673582212209a83f4d582eddf43456f50b0ad1257747c967dfee9ecc9183785701829eddf1b64736f6c63430008130033","linkReferences":{}},"methodIdentifiers":{"BAL_RF()":"c11267ce","DAI_RF()":"8741e94c","USDC_RF()":"2fe48da5","USDT_RF()":"76837844","WBTC_RF()":"ab76cb46","WETH_RF()":"e5979fa4","WMATIC_RF()":"f9dcf464","execute()":"61461954"},"id":434}