{"abi":[{"type":"function","name":"COLLECTOR","inputs":[],"outputs":[{"name":"","type":"address","internalType":"address"}],"stateMutability":"view"},{"type":"function","name":"MILKMAN","inputs":[],"outputs":[{"name":"","type":"address","internalType":"address"}],"stateMutability":"view"},{"type":"function","name":"PRICE_CHECKER","inputs":[],"outputs":[{"name":"","type":"address","internalType":"address"}],"stateMutability":"view"},{"type":"function","name":"SWAPPER","inputs":[],"outputs":[{"name":"","type":"address","internalType":"contract AaveSwapper"}],"stateMutability":"view"},{"type":"function","name":"execute","inputs":[],"outputs":[],"stateMutability":"nonpayable"}],"bytecode":{"object":"0x608060405234801561001057600080fd5b50610788806100206000396000f3fe608060405234801561001057600080fd5b50600436106100575760003560e01c80633cbadf781461005c578063566a53ae1461009357806361461954146100ae578063700d85ae146100b8578063f0440968146100d3575b600080fd5b61007773464c71f6c2f760dda6093dcb91c24c39e5d6e18c81565b6040516001600160a01b03909116815260200160405180910390f35b6100777311c76ad590abdffcd980afec9ad951b160f0279781565b6100b66100ee565b005b610077733ea64b1c0194524b48f9118462c8e9cd61a243c781565b61007773e80a1c615f75aff7ed8f08c9f21f9d00982d666c81565b6040516370a0823160e01b815273464c71f6c2f760dda6093dcb91c24c39e5d6e18c600482015260009073030ba81f1c18d280636f32af80b9aad02cf0854e906370a0823190602401602060405180830381865afa158015610154573d6000803e3d6000fd5b505050506040513d601f19601f8201168201806040525081019061017891906106f7565b6040516370a0823160e01b815273464c71f6c2f760dda6093dcb91c24c39e5d6e18c6004820152909150600090734d5f47fa6a74757f35c14fd3a6ef8e3c9bc514e8906370a0823190602401602060405180830381865afa1580156101e1573d6000803e3d6000fd5b505050506040513d601f19601f8201168201806040525081019061020591906106f7565b6040516370a0823160e01b815273464c71f6c2f760dda6093dcb91c24c39e5d6e18c600482015290915060009073c02aaa39b223fe8d0a0e5c4f27ead9083c756cc2906370a0823190602401602060405180830381865afa15801561026e573d6000803e3d6000fd5b505050506040513d601f19601f8201168201806040525081019061029291906106f7565b6040516317d5759960e31b815273c02aaa39b223fe8d0a0e5c4f27ead9083c756cc26004820152733ea64b1c0194524b48f9118462c8e9cd61a243c760248201526044810182905290915073464c71f6c2f760dda6093dcb91c24c39e5d6e18c9063beabacc890606401600060405180830381600087803b15801561031657600080fd5b505af115801561032a573d6000803e3d6000fd5b50506040516317d5759960e31b815273030ba81f1c18d280636f32af80b9aad02cf0854e60048201523060248201526044810186905273464c71f6c2f760dda6093dcb91c24c39e5d6e18c925063beabacc89150606401600060405180830381600087803b15801561039b57600080fd5b505af11580156103af573d6000803e3d6000fd5b5050604051631a4ca37b60e21b815273c02aaa39b223fe8d0a0e5c4f27ead9083c756cc260048201526000196024820152733ea64b1c0194524b48f9118462c8e9cd61a243c76044820152737d2768de32b0b80b7a3454c06bdac94a69ddc7a992506369328dec91506064016020604051808303816000875af115801561043a573d6000803e3d6000fd5b505050506040513d601f19601f8201168201806040525081019061045e91906106f7565b6104689082610726565b905073464c71f6c2f760dda6093dcb91c24c39e5d6e18c63beabacc8734d5f47fa6a74757f35c14fd3a6ef8e3c9bc514e8306104ad68056bc75e2d631000008761073f565b6040516001600160e01b031960e086901b1681526001600160a01b0393841660048201529290911660248301526044820152606401600060405180830381600087803b1580156104fc57600080fd5b505af1158015610510573d6000803e3d6000fd5b5050604051631a4ca37b60e21b815273c02aaa39b223fe8d0a0e5c4f27ead9083c756cc260048201526000196024820152733ea64b1c0194524b48f9118462c8e9cd61a243c760448201527387870bca3f3fd6335c3f4ce8392d69350b4fa4e292506369328dec91506064016020604051808303816000875af115801561059b573d6000803e3d6000fd5b505050506040513d601f19601f820116820180604052508101906105bf91906106f7565b6105c99082610726565b60405163cb0e9c1b60e01b81527311c76ad590abdffcd980afec9ad951b160f02797600482015273e80a1c615f75aff7ed8f08c9f21f9d00982d666c602482015273c02aaa39b223fe8d0a0e5c4f27ead9083c756cc2604482015273ae78736cd615f374d3085123a210448e74fc6393606480830191909152735f4ec3df9cbd43714fe2740f5e3616155c5b841960848301527305225cd708bca9253789c1374e4337a019e99d5660a483015273464c71f6c2f760dda6093dcb91c24c39e5d6e18c60c483015260e48201839052610104820152909150733ea64b1c0194524b48f9118462c8e9cd61a243c79063cb0e9c1b9061012401600060405180830381600087803b1580156106da57600080fd5b505af11580156106ee573d6000803e3d6000fd5b50505050505050565b60006020828403121561070957600080fd5b5051919050565b634e487b7160e01b600052601160045260246000fd5b8082018082111561073957610739610710565b92915050565b818103818111156107395761073961071056fea26469706673582212205e539120506efe1a5ae9c0f42e46ac6aea3ba513da36f6564df2c5cb0029444664736f6c63430008130033","linkReferences":{}},"methodIdentifiers":{"COLLECTOR()":"3cbadf78","MILKMAN()":"566a53ae","PRICE_CHECKER()":"f0440968","SWAPPER()":"700d85ae","execute()":"61461954"},"id":187}