{"abi":[{"type":"function","name":"POLYGON_BRIDGE_EXECUTOR","inputs":[],"outputs":[{"name":"","type":"address","internalType":"address"}],"stateMutability":"view"},{"type":"function","name":"execute","inputs":[],"outputs":[],"stateMutability":"nonpayable"}],"bytecode":{"object":"0x608060405234801561001057600080fd5b50610662806100206000396000f3fe608060405234801561001057600080fd5b50600436106100365760003560e01c806325cbf1461461003b5780636146195414610072575b600080fd5b61005673dc9a35b16db4e126cfedc41322b3a36454b1f77281565b6040516001600160a01b03909116815260200160405180910390f35b61007a61007c565b005b600073794a61358d6845594f94dc1db02a252b5b4814ad6001600160a01b031663d1946dbc6040518163ffffffff1660e01b8152600401600060405180830381865afa1580156100d0573d6000803e3d6000fd5b505050506040513d6000823e601f3d908101601f191682016040526100f89190810190610416565b9050610142738b5cf413214ca9348f047d1af402db1b4e96c06073dc9a35b16db4e126cfedc41322b3a36454b1f77273e8599f3cc5d38a9ad6f3684cd5cea72f10dbc38384610145565b50565b60405163b0a65b1760e01b81526000906001600160a01b0386169063b0a65b179061017690859088906004016104c2565b600060405180830381865afa158015610193573d6000803e3d6000fd5b505050506040513d6000823e601f3d908101601f191682016040526101bb919081019061051f565b90506000805b825181101561020b578281815181106101dc576101dc6105a5565b60200260200101516000146101f9576101f66001836105d1565b91505b80610203816105ea565b9150506101c1565b5060008167ffffffffffffffff811115610227576102276103ab565b604051908082528060200260200182016040528015610250578160200160208202803683370190505b5090506000805b84518110156102e557848181518110610272576102726105a5565b60200260200101516000146102d357858181518110610293576102936105a5565b60200260200101518383815181106102ad576102ad6105a5565b6001600160a01b03909216602092830291909101909101526102d06001836105d1565b91505b806102dd816105ea565b915050610257565b5082811461032f5760405162461bcd60e51b815260206004820152601360248201527209c9e9cbe9a82a88690929c8ebe988a9c8ea89606b1b604482015260640160405180910390fd5b6040516302efb73160e61b81526001600160a01b0389169063bbedcc409061035d9085908a906004016104c2565b6020604051808303816000875af115801561037c573d6000803e3d6000fd5b505050506040513d601f19601f820116820180604052508101906103a09190610603565b505050505050505050565b634e487b7160e01b600052604160045260246000fd5b604051601f8201601f1916810167ffffffffffffffff811182821017156103ea576103ea6103ab565b604052919050565b600067ffffffffffffffff82111561040c5761040c6103ab565b5060051b60200190565b6000602080838503121561042957600080fd5b825167ffffffffffffffff81111561044057600080fd5b8301601f8101851361045157600080fd5b805161046461045f826103f2565b6103c1565b81815260059190911b8201830190838101908783111561048357600080fd5b928401925b828410156104b75783516001600160a01b03811681146104a85760008081fd5b82529284019290840190610488565b979650505050505050565b604080825283519082018190526000906020906060840190828701845b828110156105045781516001600160a01b0316845292840192908401906001016104df565b5050506001600160a01b039490941692019190915250919050565b6000602080838503121561053257600080fd5b825167ffffffffffffffff81111561054957600080fd5b8301601f8101851361055a57600080fd5b805161056861045f826103f2565b81815260059190911b8201830190838101908783111561058757600080fd5b928401925b828410156104b75783518252928401929084019061058c565b634e487b7160e01b600052603260045260246000fd5b634e487b7160e01b600052601160045260246000fd5b808201808211156105e4576105e46105bb565b92915050565b6000600182016105fc576105fc6105bb565b5060010190565b60006020828403121561061557600080fd5b8151801515811461062557600080fd5b939250505056fea2646970667358221220ff5a4851498b33d5082ac1db10b0a84cf19b6f138d73090fbae419e5a1e4249d64736f6c63430008130033","linkReferences":{}},"methodIdentifiers":{"POLYGON_BRIDGE_EXECUTOR()":"25cbf146","execute()":"61461954"},"id":496}