{"abi":[{"type":"function","name":"COLLECTOR","inputs":[],"outputs":[{"name":"","type":"address","internalType":"address"}],"stateMutability":"view"},{"type":"function","name":"MILKMAN","inputs":[],"outputs":[{"name":"","type":"address","internalType":"address"}],"stateMutability":"view"},{"type":"function","name":"PRICE_CHECKER","inputs":[],"outputs":[{"name":"","type":"address","internalType":"address"}],"stateMutability":"view"},{"type":"function","name":"RETH_ORACLE","inputs":[],"outputs":[{"name":"","type":"address","internalType":"address"}],"stateMutability":"view"},{"type":"function","name":"SWAPPER","inputs":[],"outputs":[{"name":"","type":"address","internalType":"contract AaveSwapper"}],"stateMutability":"view"},{"type":"function","name":"execute","inputs":[],"outputs":[],"stateMutability":"nonpayable"}],"bytecode":{"object":"0x608060405234801561001057600080fd5b506103b2806100206000396000f3fe608060405234801561001057600080fd5b50600436106100625760003560e01c80633cbadf7814610067578063566a53ae1461009e57806361461954146100b9578063700d85ae146100c3578063ae40da1a146100de578063f0440968146100f9575b600080fd5b61008273464c71f6c2f760dda6093dcb91c24c39e5d6e18c81565b6040516001600160a01b03909116815260200160405180910390f35b6100827311c76ad590abdffcd980afec9ad951b160f0279781565b6100c1610114565b005b610082733ea64b1c0194524b48f9118462c8e9cd61a243c781565b61008273b031a238940e8051852b156f3efdc462fc34f37b81565b61008273e80a1c615f75aff7ed8f08c9f21f9d00982d666c81565b6040516370a0823160e01b815273464c71f6c2f760dda6093dcb91c24c39e5d6e18c600482015260009073c02aaa39b223fe8d0a0e5c4f27ead9083c756cc2906370a0823190602401602060405180830381865afa15801561017a573d6000803e3d6000fd5b505050506040513d601f19601f8201168201806040525081019061019e9190610363565b6040516317d5759960e31b815273c02aaa39b223fe8d0a0e5c4f27ead9083c756cc26004820152733ea64b1c0194524b48f9118462c8e9cd61a243c760248201526044810182905290915073464c71f6c2f760dda6093dcb91c24c39e5d6e18c9063beabacc890606401600060405180830381600087803b15801561022257600080fd5b505af1158015610236573d6000803e3d6000fd5b505060405163cb0e9c1b60e01b81527311c76ad590abdffcd980afec9ad951b160f02797600482015273e80a1c615f75aff7ed8f08c9f21f9d00982d666c602482015273c02aaa39b223fe8d0a0e5c4f27ead9083c756cc2604482015273ae78736cd615f374d3085123a210448e74fc6393606480830191909152735f4ec3df9cbd43714fe2740f5e3616155c5b8419608483015273b031a238940e8051852b156f3efdc462fc34f37b60a483015273464c71f6c2f760dda6093dcb91c24c39e5d6e18c60c483015260e48201859052610104820152733ea64b1c0194524b48f9118462c8e9cd61a243c7925063cb0e9c1b915061012401600060405180830381600087803b15801561034857600080fd5b505af115801561035c573d6000803e3d6000fd5b5050505050565b60006020828403121561037557600080fd5b505191905056fea2646970667358221220213884440702459cd2039fc131362fd8e88807108e16f843ab75541084919e1464736f6c63430008130033","linkReferences":{}},"methodIdentifiers":{"COLLECTOR()":"3cbadf78","MILKMAN()":"566a53ae","PRICE_CHECKER()":"f0440968","RETH_ORACLE()":"ae40da1a","SWAPPER()":"700d85ae","execute()":"61461954"},"id":295}