{"abi":[{"type":"function","name":"CONFIG_ENGINE","inputs":[],"outputs":[{"name":"","type":"address","internalType":"contract IAaveV3ConfigEngine"}],"stateMutability":"view"},{"type":"function","name":"assetsEModeUpdates","inputs":[],"outputs":[{"name":"","type":"tuple[]","internalType":"struct IAaveV3ConfigEngine.AssetEModeUpdate[]","components":[{"name":"asset","type":"address","internalType":"address"},{"name":"eModeCategory","type":"uint8","internalType":"uint8"}]}],"stateMutability":"view"},{"type":"function","name":"borrowsUpdates","inputs":[],"outputs":[{"name":"","type":"tuple[]","internalType":"struct IAaveV3ConfigEngine.BorrowUpdate[]","components":[{"name":"asset","type":"address","internalType":"address"},{"name":"enabledToBorrow","type":"uint256","internalType":"uint256"},{"name":"flashloanable","type":"uint256","internalType":"uint256"},{"name":"stableRateModeEnabled","type":"uint256","internalType":"uint256"},{"name":"borrowableInIsolation","type":"uint256","internalType":"uint256"},{"name":"withSiloedBorrowing","type":"uint256","internalType":"uint256"},{"name":"reserveFactor","type":"uint256","internalType":"uint256"}]}],"stateMutability":"pure"},{"type":"function","name":"capsUpdates","inputs":[],"outputs":[{"name":"","type":"tuple[]","internalType":"struct IAaveV3ConfigEngine.CapsUpdate[]","components":[{"name":"asset","type":"address","internalType":"address"},{"name":"supplyCap","type":"uint256","internalType":"uint256"},{"name":"borrowCap","type":"uint256","internalType":"uint256"}]}],"stateMutability":"pure"},{"type":"function","name":"collateralsUpdates","inputs":[],"outputs":[{"name":"","type":"tuple[]","internalType":"struct IAaveV3ConfigEngine.CollateralUpdate[]","components":[{"name":"asset","type":"address","internalType":"address"},{"name":"ltv","type":"uint256","internalType":"uint256"},{"name":"liqThreshold","type":"uint256","internalType":"uint256"},{"name":"liqBonus","type":"uint256","internalType":"uint256"},{"name":"debtCeiling","type":"uint256","internalType":"uint256"},{"name":"liqProtocolFee","type":"uint256","internalType":"uint256"}]}],"stateMutability":"pure"},{"type":"function","name":"eModeCategoriesUpdates","inputs":[],"outputs":[{"name":"","type":"tuple[]","internalType":"struct IAaveV3ConfigEngine.EModeCategoryUpdate[]","components":[{"name":"eModeCategory","type":"uint8","internalType":"uint8"},{"name":"ltv","type":"uint256","internalType":"uint256"},{"name":"liqThreshold","type":"uint256","internalType":"uint256"},{"name":"liqBonus","type":"uint256","internalType":"uint256"},{"name":"priceSource","type":"address","internalType":"address"},{"name":"label","type":"string","internalType":"string"}]}],"stateMutability":"view"},{"type":"function","name":"execute","inputs":[],"outputs":[],"stateMutability":"nonpayable"},{"type":"function","name":"getPoolContext","inputs":[],"outputs":[{"name":"","type":"tuple","internalType":"struct IAaveV3ConfigEngine.PoolContext","components":[{"name":"networkName","type":"string","internalType":"string"},{"name":"networkAbbreviation","type":"string","internalType":"string"}]}],"stateMutability":"pure"},{"type":"function","name":"newListings","inputs":[],"outputs":[{"name":"","type":"tuple[]","internalType":"struct IAaveV3ConfigEngine.Listing[]","components":[{"name":"asset","type":"address","internalType":"address"},{"name":"assetSymbol","type":"string","internalType":"string"},{"name":"priceFeed","type":"address","internalType":"address"},{"name":"rateStrategyParams","type":"tuple","internalType":"struct IV3RateStrategyFactory.RateStrategyParams","components":[{"name":"optimalUsageRatio","type":"uint256","internalType":"uint256"},{"name":"baseVariableBorrowRate","type":"uint256","internalType":"uint256"},{"name":"variableRateSlope1","type":"uint256","internalType":"uint256"},{"name":"variableRateSlope2","type":"uint256","internalType":"uint256"},{"name":"stableRateSlope1","type":"uint256","internalType":"uint256"},{"name":"stableRateSlope2","type":"uint256","internalType":"uint256"},{"name":"baseStableRateOffset","type":"uint256","internalType":"uint256"},{"name":"stableRateExcessOffset","type":"uint256","internalType":"uint256"},{"name":"optimalStableToTotalDebtRatio","type":"uint256","internalType":"uint256"}]},{"name":"enabledToBorrow","type":"uint256","internalType":"uint256"},{"name":"stableRateModeEnabled","type":"uint256","internalType":"uint256"},{"name":"borrowableInIsolation","type":"uint256","internalType":"uint256"},{"name":"withSiloedBorrowing","type":"uint256","internalType":"uint256"},{"name":"flashloanable","type":"uint256","internalType":"uint256"},{"name":"ltv","type":"uint256","internalType":"uint256"},{"name":"liqThreshold","type":"uint256","internalType":"uint256"},{"name":"liqBonus","type":"uint256","internalType":"uint256"},{"name":"reserveFactor","type":"uint256","internalType":"uint256"},{"name":"supplyCap","type":"uint256","internalType":"uint256"},{"name":"borrowCap","type":"uint256","internalType":"uint256"},{"name":"debtCeiling","type":"uint256","internalType":"uint256"},{"name":"liqProtocolFee","type":"uint256","internalType":"uint256"},{"name":"eModeCategory","type":"uint8","internalType":"uint8"}]}],"stateMutability":"view"},{"type":"function","name":"newListingsCustom","inputs":[],"outputs":[{"name":"","type":"tuple[]","internalType":"struct IAaveV3ConfigEngine.ListingWithCustomImpl[]","components":[{"name":"base","type":"tuple","internalType":"struct IAaveV3ConfigEngine.Listing","components":[{"name":"asset","type":"address","internalType":"address"},{"name":"assetSymbol","type":"string","internalType":"string"},{"name":"priceFeed","type":"address","internalType":"address"},{"name":"rateStrategyParams","type":"tuple","internalType":"struct IV3RateStrategyFactory.RateStrategyParams","components":[{"name":"optimalUsageRatio","type":"uint256","internalType":"uint256"},{"name":"baseVariableBorrowRate","type":"uint256","internalType":"uint256"},{"name":"variableRateSlope1","type":"uint256","internalType":"uint256"},{"name":"variableRateSlope2","type":"uint256","internalType":"uint256"},{"name":"stableRateSlope1","type":"uint256","internalType":"uint256"},{"name":"stableRateSlope2","type":"uint256","internalType":"uint256"},{"name":"baseStableRateOffset","type":"uint256","internalType":"uint256"},{"name":"stableRateExcessOffset","type":"uint256","internalType":"uint256"},{"name":"optimalStableToTotalDebtRatio","type":"uint256","internalType":"uint256"}]},{"name":"enabledToBorrow","type":"uint256","internalType":"uint256"},{"name":"stableRateModeEnabled","type":"uint256","internalType":"uint256"},{"name":"borrowableInIsolation","type":"uint256","internalType":"uint256"},{"name":"withSiloedBorrowing","type":"uint256","internalType":"uint256"},{"name":"flashloanable","type":"uint256","internalType":"uint256"},{"name":"ltv","type":"uint256","internalType":"uint256"},{"name":"liqThreshold","type":"uint256","internalType":"uint256"},{"name":"liqBonus","type":"uint256","internalType":"uint256"},{"name":"reserveFactor","type":"uint256","internalType":"uint256"},{"name":"supplyCap","type":"uint256","internalType":"uint256"},{"name":"borrowCap","type":"uint256","internalType":"uint256"},{"name":"debtCeiling","type":"uint256","internalType":"uint256"},{"name":"liqProtocolFee","type":"uint256","internalType":"uint256"},{"name":"eModeCategory","type":"uint8","internalType":"uint8"}]},{"name":"implementations","type":"tuple","internalType":"struct IAaveV3ConfigEngine.TokenImplementations","components":[{"name":"aToken","type":"address","internalType":"address"},{"name":"vToken","type":"address","internalType":"address"},{"name":"sToken","type":"address","internalType":"address"}]}]}],"stateMutability":"view"},{"type":"function","name":"priceFeedsUpdates","inputs":[],"outputs":[{"name":"","type":"tuple[]","internalType":"struct IAaveV3ConfigEngine.PriceFeedUpdate[]","components":[{"name":"asset","type":"address","internalType":"address"},{"name":"priceFeed","type":"address","internalType":"address"}]}],"stateMutability":"view"},{"type":"function","name":"rateStrategiesUpdates","inputs":[],"outputs":[{"name":"","type":"tuple[]","internalType":"struct IAaveV3ConfigEngine.RateStrategyUpdate[]","components":[{"name":"asset","type":"address","internalType":"address"},{"name":"params","type":"tuple","internalType":"struct IV3RateStrategyFactory.RateStrategyParams","components":[{"name":"optimalUsageRatio","type":"uint256","internalType":"uint256"},{"name":"baseVariableBorrowRate","type":"uint256","internalType":"uint256"},{"name":"variableRateSlope1","type":"uint256","internalType":"uint256"},{"name":"variableRateSlope2","type":"uint256","internalType":"uint256"},{"name":"stableRateSlope1","type":"uint256","internalType":"uint256"},{"name":"stableRateSlope2","type":"uint256","internalType":"uint256"},{"name":"baseStableRateOffset","type":"uint256","internalType":"uint256"},{"name":"stableRateExcessOffset","type":"uint256","internalType":"uint256"},{"name":"optimalStableToTotalDebtRatio","type":"uint256","internalType":"uint256"}]}]}],"stateMutability":"pure"}],"bytecode":{"object":"0x60a060405234801561001057600080fd5b5073893411580e590d62ddbca8a703d61cc4a8c7b2b960805260805161123261004a6000396000818160f1015261047201526112326000f3fe608060405234801561001057600080fd5b50600436106100b45760003560e01c8063b1af0d0d11610071578063b1af0d0d14610159578063c0a2558014610168578063ca8e89cc14610177578063d0c38c2714610186578063fabe34631461019b578063fbb256f6146101aa57600080fd5b80631850edd8146100b95780632b179434146100d75780635e5eef7a146100ec578063614619541461012b578063922870951461013557806395a93cb114610144575b600080fd5b6100c16101bf565b6040516100ce9190610aeb565b60405180910390f35b6100df6102e1565b6040516100ce9190610b76565b6101137f000000000000000000000000000000000000000000000000000000000000000081565b6040516001600160a01b0390911681526020016100ce565b6101336103da565b005b60606040516100ce9190610bea565b61014c6105df565b6040516100ce9190610c38565b60606040516100ce9190610c8d565b60606040516100ce9190610ee1565b60606040516100ce9190610ef4565b61018e61068e565b6040516100ce9190610f9f565b60606040516100ce9190611087565b6101b26108a2565b6040516100ce91906110d1565b60408051600180825281830190925260609160009190816020015b6102236040518060e0016040528060006001600160a01b031681526020016000815260200160008152602001600081526020016000815260200160008152602001600081525090565b8152602001906001900390816101da5750506040805160e08101909152737f5c764cbc14f9669b88837ca1490cca17c3160781529091506020810161026b602a6000196110fa565b815260200161027d602a6000196110fa565b815260200161028f602a6000196110fa565b81526020016102a1602a6000196110fa565b81526020016102b3602a6000196110fa565b81526020016107d0815250816000815181106102d1576102d161110d565b6020908102919091010152919050565b60408051600180825281830190925260609160009190816020015b61033e6040518060c0016040528060006001600160a01b0316815260200160008152602001600081526020016000815260200160008152602001600081525090565b8152602001906001900390816102fc5790505090506040518060c00160405280730b2c639c533813f4aa9d7837caf62653d097ff856001600160a01b03168152602001611e148152602001611f408152602001602a6000196103a091906110fa565b81526020016103b2602a6000196110fa565b81526020016103c4602a6000196110fa565b815250816000815181106102d1576102d161110d565b6060808060006103e86102e1565b905060006103f46101bf565b9050600061040061068e565b9050606080600061040f6105df565b9050885160001461049a5761049863a192ac2460e01b8a6040516024016104369190610ef4565b60408051601f198184030181529190526020810180516001600160e01b03166001600160e01b0319909316929092179091526001600160a01b037f00000000000000000000000000000000000000000000000000000000000000001690610901565b505b8751156104c8576104c6633cb6502d60e01b6104b46108a2565b8a604051602401610436929190611123565b505b8651156104f6576104f46314d8093760e21b6104e26108a2565b89604051602401610436929190611148565b505b84511561051b5761051963bb06653560e01b866040516024016104369190610aeb565b505b8551156105405761053e6309d8332860e01b876040516024016104369190610b76565b505b835115610565576105636324f4c44560e01b856040516024016104369190610f9f565b505b82511561058a5761058863927c400360e01b846040516024016104369190610c8d565b505b8151156105af576105ad632a90e62360e01b836040516024016104369190610bea565b505b8051156105d4576105d26355caa16360e01b826040516024016104369190610c38565b505b505050505050505050565b60408051600180825281830190925260609160009190816020015b610627604051806060016040528060006001600160a01b0316815260200160008152602001600081525090565b8152602001906001900390816105fa5790505090506040518060600160405280737f5c764cbc14f9669b88837ca1490cca17c316076001600160a01b03168152602001630112a880815260200162ec82e0815250816000815181106102d1576102d161110d565b604080516002808252606082810190935260009190816020015b6106b0610a7c565b8152602001906001900390816106a8575050604080518082018252737f5c764cbc14f9669b88837ca1490cca17c31607815281516101208101909252919250602082019080610702602a6000196110fa565b8152602001610714602a6000196110fa565b81526020016107246102bc61092f565b8152602001610734611f4061092f565b8152602001610746602a6000196110fa565b8152602001610758602a6000196110fa565b815260200161076a602a6000196110fa565b815260200161077c602a6000196110fa565b815260200161078e602a6000196110fa565b815250815250816000815181106107a7576107a761110d565b60200260200101819052506040518060400160405280730b2c639c533813f4aa9d7837caf62653d097ff856001600160a01b03168152602001604051806101200160405280602a6000196107fb91906110fa565b815260200161080d602a6000196110fa565b815260200161081d6101f461092f565b815260200161082f602a6000196110fa565b8152602001610841602a6000196110fa565b8152602001610853602a6000196110fa565b8152602001610865602a6000196110fa565b8152602001610877602a6000196110fa565b8152602001610889602a6000196110fa565b815250815250816001815181106102d1576102d161110d565b604080518082019091526060808252602082015250604080516080810182526008818301908152674f7074696d69736d60c01b606083015281528151808301909252600382526213dc1d60ea1b60208381019190915281019190915290565b606061092683836040518060600160405280602781526020016111d660279139610954565b90505b92915050565b600061271061094a6b033b2e3c9fd0803ce80000008461116d565b6109299190611184565b6060600080856001600160a01b03168560405161097191906111a6565b600060405180830381855af49150503d80600081146109ac576040519150601f19603f3d011682016040523d82523d6000602084013e6109b1565b606091505b50915091506109c2868383876109cc565b9695505050505050565b60608315610a40578251600003610a39576001600160a01b0385163b610a395760405162461bcd60e51b815260206004820152601d60248201527f416464726573733a2063616c6c20746f206e6f6e2d636f6e747261637400000060448201526064015b60405180910390fd5b5081610a4a565b610a4a8383610a52565b949350505050565b815115610a625781518083602001fd5b8060405162461bcd60e51b8152600401610a3091906111c2565b604051806040016040528060006001600160a01b03168152602001610ae66040518061012001604052806000815260200160008152602001600081526020016000815260200160008152602001600081526020016000815260200160008152602001600081525090565b905290565b602080825282518282018190526000919060409081850190868401855b82811015610b6957815180516001600160a01b0316855286810151878601528581015186860152606080820151908601526080808201519086015260a0808201519086015260c0908101519085015260e09093019290850190600101610b08565b5091979650505050505050565b602080825282518282018190526000919060409081850190868401855b82811015610b6957815180516001600160a01b0316855286810151878601528581015186860152606080820151908601526080808201519086015260a0908101519085015260c09093019290850190600101610b93565b602080825282518282018190526000919060409081850190868401855b82811015610b6957815180516001600160a01b0316855286015160ff16868501529284019290850190600101610c07565b602080825282518282018190526000919060409081850190868401855b82811015610b6957815180516001600160a01b0316855286810151878601528501518585015260609093019290850190600101610c55565b602080825282518282018190526000919060409081850190868401855b82811015610b6957815180516001600160a01b0390811686529087015116868501529284019290850190600101610caa565b60005b83811015610cf7578181015183820152602001610cdf565b50506000910152565b60008151808452610d18816020860160208601610cdc565b601f01601f19169290920160200192915050565b805182526020810151602083015260408101516040830152606081015160608301526080810151608083015260a081015160a083015260c081015160c083015260e081015160e08301526101008082015181840152505050565b80516001600160a01b0316825260006103406020830151816020860152610daf82860182610d00565b9150506040830151610dcc60408601826001600160a01b03169052565b506060830151610ddf6060860182610d2c565b5060808301516101808581019190915260a08401516101a08087019190915260c08501516101c08088019190915260e08601516101e080890191909152610100870151610200808a0191909152610120880151610220808b01919091526101408901516102408b01526101608901516102608b0152948801516102808a0152928701516102a0890152908601516102c08801528501516102e087015284015161030086015283015160ff8116610320860152509392505050565b600081518084526020808501808196508360051b8101915082860160005b85811015610b69578284038952610ecf848351610d86565b98850198935090840190600101610eb7565b6020815260006109266020830184610e99565b60006020808301818452808551808352604092508286019150828160051b87010184880160005b83811015610f9157888303603f190185528151805160ff16845287810151888501528681015187850152606080820151908501526080808201516001600160a01b03169085015260a09081015160c091850182905290610f7d81860183610d00565b968901969450505090860190600101610f1b565b509098975050505050505050565b6020808252825182820181905260009190848201906040850190845b81811015610ff657835180516001600160a01b03168452850151610fe186850182610d2c565b50928401926101409290920191600101610fbb565b50909695505050505050565b600081518084526020808501808196508360051b8101915082860160005b85811015610b6957828403895281516080815181875261104282880182610d86565b9288015180516001600160a01b03908116898b0152818a015181166040808b019190915290910151166060909701969096525098850198935090840190600101611020565b6020815260006109266020830184611002565b60008151604084526110af6040850182610d00565b9050602083015184820360208601526110c88282610d00565b95945050505050565b602081526000610926602083018461109a565b634e487b7160e01b600052601160045260246000fd5b81810381811115610929576109296110e4565b634e487b7160e01b600052603260045260246000fd5b604081526000611136604083018561109a565b82810360208401526110c88185610e99565b60408152600061115b604083018561109a565b82810360208401526110c88185611002565b8082028115828204841417610929576109296110e4565b6000826111a157634e487b7160e01b600052601260045260246000fd5b500490565b600082516111b8818460208701610cdc565b9190910192915050565b6020815260006109266020830184610d0056fe416464726573733a206c6f772d6c6576656c2064656c65676174652063616c6c206661696c6564a264697066735822122099ef94b51af309d90a28442ffbd6790833a549b2609e1bf9987a40358270f47564736f6c63430008130033","linkReferences":{}},"methodIdentifiers":{"CONFIG_ENGINE()":"5e5eef7a","assetsEModeUpdates()":"92287095","borrowsUpdates()":"1850edd8","capsUpdates()":"95a93cb1","collateralsUpdates()":"2b179434","eModeCategoriesUpdates()":"ca8e89cc","execute()":"61461954","getPoolContext()":"fbb256f6","newListings()":"c0a25580","newListingsCustom()":"fabe3463","priceFeedsUpdates()":"b1af0d0d","rateStrategiesUpdates()":"d0c38c27"},"id":339}