{"abi":[{"type":"function","name":"AURA","inputs":[],"outputs":[{"name":"","type":"address","internalType":"address"}],"stateMutability":"view"},{"type":"function","name":"GLC_SAFE","inputs":[],"outputs":[{"name":"","type":"address","internalType":"address"}],"stateMutability":"view"},{"type":"function","name":"execute","inputs":[],"outputs":[],"stateMutability":"nonpayable"}],"bytecode":{"object":"0x608060405234801561001057600080fd5b50610202806100206000396000f3fe608060405234801561001057600080fd5b50600436106100415760003560e01c8063031f683f146100465780633829aea31461007d5780636146195414610098575b600080fd5b61006173205e795336610f5131be52f09218af19f0f3ec6081565b6040516001600160a01b03909116815260200160405180910390f35b61006173c0c293ce456ff0ed870add98a0828dd4d2903dbf81565b6100a06100a2565b005b6040516370a0823160e01b815273464c71f6c2f760dda6093dcb91c24c39e5d6e18c600482018190529063beabacc89073c0c293ce456ff0ed870add98a0828dd4d2903dbf9073205e795336610f5131be52f09218af19f0f3ec609082906370a0823190602401602060405180830381865afa158015610126573d6000803e3d6000fd5b505050506040513d601f19601f8201168201806040525081019061014a91906101b3565b6040516001600160e01b031960e086901b1681526001600160a01b0393841660048201529290911660248301526044820152606401600060405180830381600087803b15801561019957600080fd5b505af11580156101ad573d6000803e3d6000fd5b50505050565b6000602082840312156101c557600080fd5b505191905056fea2646970667358221220a4a791a3917c7809a2b96bac9778bc60256a4f67f5129d22f5cde86a557c82b664736f6c63430008130033","linkReferences":{}},"methodIdentifiers":{"AURA()":"3829aea3","GLC_SAFE()":"031f683f","execute()":"61461954"},"id":292}