{"abi":[{"type":"function","name":"AAVE_EMISSION_PER_SECOND","inputs":[],"outputs":[{"name":"","type":"uint128","internalType":"uint128"}],"stateMutability":"view"},{"type":"function","name":"DISTRIBUTION_DURATION","inputs":[],"outputs":[{"name":"","type":"uint256","internalType":"uint256"}],"stateMutability":"view"},{"type":"function","name":"execute","inputs":[],"outputs":[],"stateMutability":"nonpayable"}],"bytecode":{"object":"0x608060405234801561001057600080fd5b50610484806100206000396000f3fe608060405234801561001057600080fd5b50600436106100415760003560e01c80631366cb521461004657806328f7fdcf1461006b5780636146195414610083575b600080fd5b61004e61008d565b6040516001600160801b0390911681526020015b60405180910390f35b6100756276a70081565b604051908152602001610062565b61008b6100a6565b005b6100a3620151806802b5e3af16b1880000610369565b81565b731a88df1cfe15af22b3c4c783d4e6f7f9e0c1885d6339ccbdd36100cd6276a7004261039d565b6040518263ffffffff1660e01b81526004016100eb91815260200190565b600060405180830381600087803b15801561010557600080fd5b505af1158015610119573d6000803e3d6000fd5b5060009250600191506101299050565b60405190808252806020026020018201604052801561017457816020015b60408051606081018252600080825260208083018290529282015282526000199092019101816101475790505b5090506040518060600160405280620151806802b5e3af16b188000061019a9190610369565b6001600160801b0316815260200160008152602001731a88df1cfe15af22b3c4c783d4e6f7f9e0c1885d6001600160a01b0316815250816000815181106101e3576101e36103b6565b6020908102919091010152604051635952edfd60e11b8152731a88df1cfe15af22b3c4c783d4e6f7f9e0c1885d9063b2a5dbfa906102259084906004016103cc565b600060405180830381600087803b15801561023f57600080fd5b505af1158015610253573d6000803e3d6000fd5b50733d569673daa0575c936c7c67c4e6aeda69cc630c92506359eba45491507325f2226b597e8f9514b3f68f00f494cf4f2864919050737fc66500c84a76ad7e9c93437bfc5ac33e2ddae9731a88df1cfe15af22b3c4c783d4e6f7f9e0c1885d6276a7006102cd620151806802b5e3af16b1880000610369565b6001600160801b03166102e09190610437565b6040516001600160e01b031960e087901b1681526001600160a01b0394851660048201529284166024840152921660448201526064810191909152608401600060405180830381600087803b15801561033857600080fd5b505af115801561034c573d6000803e3d6000fd5b5050505050565b634e487b7160e01b600052601160045260246000fd5b60006001600160801b038084168061039157634e487b7160e01b600052601260045260246000fd5b92169190910492915050565b808201808211156103b0576103b0610353565b92915050565b634e487b7160e01b600052603260045260246000fd5b602080825282518282018190526000919060409081850190868401855b8281101561042a57815180516001600160801b0316855286810151878601528501516001600160a01b031685850152606090930192908501906001016103e9565b5091979650505050505050565b80820281158282048414176103b0576103b061035356fea2646970667358221220c98b897f70eb61cdbc1c1d10ae10d22ddc2469704b638ad43d488f2e01d1919064736f6c63430008130033","linkReferences":{}},"methodIdentifiers":{"AAVE_EMISSION_PER_SECOND()":"1366cb52","DISTRIBUTION_DURATION()":"28f7fdcf","execute()":"61461954"},"id":456}