{"abi":[{"type":"function","name":"BTCB","inputs":[],"outputs":[{"name":"","type":"address","internalType":"address"}],"stateMutability":"view"},{"type":"function","name":"BTCB_SEED_AMOUNT","inputs":[],"outputs":[{"name":"","type":"uint256","internalType":"uint256"}],"stateMutability":"view"},{"type":"function","name":"CAKE","inputs":[],"outputs":[{"name":"","type":"address","internalType":"address"}],"stateMutability":"view"},{"type":"function","name":"CAKE_SEED_AMOUNT","inputs":[],"outputs":[{"name":"","type":"uint256","internalType":"uint256"}],"stateMutability":"view"},{"type":"function","name":"CONFIG_ENGINE","inputs":[],"outputs":[{"name":"","type":"address","internalType":"contract IAaveV3ConfigEngine"}],"stateMutability":"view"},{"type":"function","name":"ETH","inputs":[],"outputs":[{"name":"","type":"address","internalType":"address"}],"stateMutability":"view"},{"type":"function","name":"ETH_SEED_AMOUNT","inputs":[],"outputs":[{"name":"","type":"uint256","internalType":"uint256"}],"stateMutability":"view"},{"type":"function","name":"POOL_IMPL","inputs":[],"outputs":[{"name":"","type":"address","internalType":"address"}],"stateMutability":"view"},{"type":"function","name":"USDC","inputs":[],"outputs":[{"name":"","type":"address","internalType":"address"}],"stateMutability":"view"},{"type":"function","name":"USDC_SEED_AMOUNT","inputs":[],"outputs":[{"name":"","type":"uint256","internalType":"uint256"}],"stateMutability":"view"},{"type":"function","name":"USDT","inputs":[],"outputs":[{"name":"","type":"address","internalType":"address"}],"stateMutability":"view"},{"type":"function","name":"USDT_SEED_AMOUNT","inputs":[],"outputs":[{"name":"","type":"uint256","internalType":"uint256"}],"stateMutability":"view"},{"type":"function","name":"WBNB","inputs":[],"outputs":[{"name":"","type":"address","internalType":"address"}],"stateMutability":"view"},{"type":"function","name":"WBNB_SEED_AMOUNT","inputs":[],"outputs":[{"name":"","type":"uint256","internalType":"uint256"}],"stateMutability":"view"},{"type":"function","name":"assetsEModeUpdates","inputs":[],"outputs":[{"name":"","type":"tuple[]","internalType":"struct IAaveV3ConfigEngine.AssetEModeUpdate[]","components":[{"name":"asset","type":"address","internalType":"address"},{"name":"eModeCategory","type":"uint8","internalType":"uint8"}]}],"stateMutability":"view"},{"type":"function","name":"borrowsUpdates","inputs":[],"outputs":[{"name":"","type":"tuple[]","internalType":"struct IAaveV3ConfigEngine.BorrowUpdate[]","components":[{"name":"asset","type":"address","internalType":"address"},{"name":"enabledToBorrow","type":"uint256","internalType":"uint256"},{"name":"flashloanable","type":"uint256","internalType":"uint256"},{"name":"stableRateModeEnabled","type":"uint256","internalType":"uint256"},{"name":"borrowableInIsolation","type":"uint256","internalType":"uint256"},{"name":"withSiloedBorrowing","type":"uint256","internalType":"uint256"},{"name":"reserveFactor","type":"uint256","internalType":"uint256"}]}],"stateMutability":"view"},{"type":"function","name":"capsUpdates","inputs":[],"outputs":[{"name":"","type":"tuple[]","internalType":"struct IAaveV3ConfigEngine.CapsUpdate[]","components":[{"name":"asset","type":"address","internalType":"address"},{"name":"supplyCap","type":"uint256","internalType":"uint256"},{"name":"borrowCap","type":"uint256","internalType":"uint256"}]}],"stateMutability":"view"},{"type":"function","name":"collateralsUpdates","inputs":[],"outputs":[{"name":"","type":"tuple[]","internalType":"struct IAaveV3ConfigEngine.CollateralUpdate[]","components":[{"name":"asset","type":"address","internalType":"address"},{"name":"ltv","type":"uint256","internalType":"uint256"},{"name":"liqThreshold","type":"uint256","internalType":"uint256"},{"name":"liqBonus","type":"uint256","internalType":"uint256"},{"name":"debtCeiling","type":"uint256","internalType":"uint256"},{"name":"liqProtocolFee","type":"uint256","internalType":"uint256"}]}],"stateMutability":"view"},{"type":"function","name":"eModeCategoriesUpdates","inputs":[],"outputs":[{"name":"","type":"tuple[]","internalType":"struct IAaveV3ConfigEngine.EModeCategoryUpdate[]","components":[{"name":"eModeCategory","type":"uint8","internalType":"uint8"},{"name":"ltv","type":"uint256","internalType":"uint256"},{"name":"liqThreshold","type":"uint256","internalType":"uint256"},{"name":"liqBonus","type":"uint256","internalType":"uint256"},{"name":"priceSource","type":"address","internalType":"address"},{"name":"label","type":"string","internalType":"string"}]}],"stateMutability":"view"},{"type":"function","name":"execute","inputs":[],"outputs":[],"stateMutability":"nonpayable"},{"type":"function","name":"getPoolContext","inputs":[],"outputs":[{"name":"","type":"tuple","internalType":"struct IAaveV3ConfigEngine.PoolContext","components":[{"name":"networkName","type":"string","internalType":"string"},{"name":"networkAbbreviation","type":"string","internalType":"string"}]}],"stateMutability":"pure"},{"type":"function","name":"newListings","inputs":[],"outputs":[{"name":"","type":"tuple[]","internalType":"struct IAaveV3ConfigEngine.Listing[]","components":[{"name":"asset","type":"address","internalType":"address"},{"name":"assetSymbol","type":"string","internalType":"string"},{"name":"priceFeed","type":"address","internalType":"address"},{"name":"rateStrategyParams","type":"tuple","internalType":"struct IV3RateStrategyFactory.RateStrategyParams","components":[{"name":"optimalUsageRatio","type":"uint256","internalType":"uint256"},{"name":"baseVariableBorrowRate","type":"uint256","internalType":"uint256"},{"name":"variableRateSlope1","type":"uint256","internalType":"uint256"},{"name":"variableRateSlope2","type":"uint256","internalType":"uint256"},{"name":"stableRateSlope1","type":"uint256","internalType":"uint256"},{"name":"stableRateSlope2","type":"uint256","internalType":"uint256"},{"name":"baseStableRateOffset","type":"uint256","internalType":"uint256"},{"name":"stableRateExcessOffset","type":"uint256","internalType":"uint256"},{"name":"optimalStableToTotalDebtRatio","type":"uint256","internalType":"uint256"}]},{"name":"enabledToBorrow","type":"uint256","internalType":"uint256"},{"name":"stableRateModeEnabled","type":"uint256","internalType":"uint256"},{"name":"borrowableInIsolation","type":"uint256","internalType":"uint256"},{"name":"withSiloedBorrowing","type":"uint256","internalType":"uint256"},{"name":"flashloanable","type":"uint256","internalType":"uint256"},{"name":"ltv","type":"uint256","internalType":"uint256"},{"name":"liqThreshold","type":"uint256","internalType":"uint256"},{"name":"liqBonus","type":"uint256","internalType":"uint256"},{"name":"reserveFactor","type":"uint256","internalType":"uint256"},{"name":"supplyCap","type":"uint256","internalType":"uint256"},{"name":"borrowCap","type":"uint256","internalType":"uint256"},{"name":"debtCeiling","type":"uint256","internalType":"uint256"},{"name":"liqProtocolFee","type":"uint256","internalType":"uint256"},{"name":"eModeCategory","type":"uint8","internalType":"uint8"}]}],"stateMutability":"pure"},{"type":"function","name":"newListingsCustom","inputs":[],"outputs":[{"name":"","type":"tuple[]","internalType":"struct IAaveV3ConfigEngine.ListingWithCustomImpl[]","components":[{"name":"base","type":"tuple","internalType":"struct IAaveV3ConfigEngine.Listing","components":[{"name":"asset","type":"address","internalType":"address"},{"name":"assetSymbol","type":"string","internalType":"string"},{"name":"priceFeed","type":"address","internalType":"address"},{"name":"rateStrategyParams","type":"tuple","internalType":"struct IV3RateStrategyFactory.RateStrategyParams","components":[{"name":"optimalUsageRatio","type":"uint256","internalType":"uint256"},{"name":"baseVariableBorrowRate","type":"uint256","internalType":"uint256"},{"name":"variableRateSlope1","type":"uint256","internalType":"uint256"},{"name":"variableRateSlope2","type":"uint256","internalType":"uint256"},{"name":"stableRateSlope1","type":"uint256","internalType":"uint256"},{"name":"stableRateSlope2","type":"uint256","internalType":"uint256"},{"name":"baseStableRateOffset","type":"uint256","internalType":"uint256"},{"name":"stableRateExcessOffset","type":"uint256","internalType":"uint256"},{"name":"optimalStableToTotalDebtRatio","type":"uint256","internalType":"uint256"}]},{"name":"enabledToBorrow","type":"uint256","internalType":"uint256"},{"name":"stableRateModeEnabled","type":"uint256","internalType":"uint256"},{"name":"borrowableInIsolation","type":"uint256","internalType":"uint256"},{"name":"withSiloedBorrowing","type":"uint256","internalType":"uint256"},{"name":"flashloanable","type":"uint256","internalType":"uint256"},{"name":"ltv","type":"uint256","internalType":"uint256"},{"name":"liqThreshold","type":"uint256","internalType":"uint256"},{"name":"liqBonus","type":"uint256","internalType":"uint256"},{"name":"reserveFactor","type":"uint256","internalType":"uint256"},{"name":"supplyCap","type":"uint256","internalType":"uint256"},{"name":"borrowCap","type":"uint256","internalType":"uint256"},{"name":"debtCeiling","type":"uint256","internalType":"uint256"},{"name":"liqProtocolFee","type":"uint256","internalType":"uint256"},{"name":"eModeCategory","type":"uint8","internalType":"uint8"}]},{"name":"implementations","type":"tuple","internalType":"struct IAaveV3ConfigEngine.TokenImplementations","components":[{"name":"aToken","type":"address","internalType":"address"},{"name":"vToken","type":"address","internalType":"address"},{"name":"sToken","type":"address","internalType":"address"}]}]}],"stateMutability":"view"},{"type":"function","name":"priceFeedsUpdates","inputs":[],"outputs":[{"name":"","type":"tuple[]","internalType":"struct IAaveV3ConfigEngine.PriceFeedUpdate[]","components":[{"name":"asset","type":"address","internalType":"address"},{"name":"priceFeed","type":"address","internalType":"address"}]}],"stateMutability":"view"},{"type":"function","name":"rateStrategiesUpdates","inputs":[],"outputs":[{"name":"","type":"tuple[]","internalType":"struct IAaveV3ConfigEngine.RateStrategyUpdate[]","components":[{"name":"asset","type":"address","internalType":"address"},{"name":"params","type":"tuple","internalType":"struct IV3RateStrategyFactory.RateStrategyParams","components":[{"name":"optimalUsageRatio","type":"uint256","internalType":"uint256"},{"name":"baseVariableBorrowRate","type":"uint256","internalType":"uint256"},{"name":"variableRateSlope1","type":"uint256","internalType":"uint256"},{"name":"variableRateSlope2","type":"uint256","internalType":"uint256"},{"name":"stableRateSlope1","type":"uint256","internalType":"uint256"},{"name":"stableRateSlope2","type":"uint256","internalType":"uint256"},{"name":"baseStableRateOffset","type":"uint256","internalType":"uint256"},{"name":"stableRateExcessOffset","type":"uint256","internalType":"uint256"},{"name":"optimalStableToTotalDebtRatio","type":"uint256","internalType":"uint256"}]}]}],"stateMutability":"view"},{"type":"error","name":"SafeERC20FailedOperation","inputs":[{"name":"token","type":"address","internalType":"address"}]}],"bytecode":{"object":"0x60a060405234801561001057600080fd5b5073cb0670258e5961cca85d8f71d29c1167ef20de9960805260805161200b61004b6000396000818161021b0152610400015261200b6000f3fe608060405234801561001057600080fd5b50600436106101735760003560e01c80638dd95002116100de578063c54e44eb11610097578063da2c7b1d11610071578063da2c7b1d14610321578063e9c9f44f1461033c578063fabe346314610357578063fbb256f61461036657600080fd5b8063c54e44eb146102e8578063ca8e89cc14610303578063d0c38c271461031257600080fd5b80638dd950021461028b57806392287095146102a657806395a93cb1146102b5578063a710a11e14610178578063b1af0d0d146102c4578063c0a25580146102d357600080fd5b806359c322191161013057806359c32219146102075780635e5eef7a14610216578063614619541461023d5780638322fff21461024757806383391a3f1461026257806389a302711461027057600080fd5b806302a08f93146101785780631850edd81461019a578063232da218146101a95780632b179434146101b75780634ca6ef28146101c657806354cbb32f146101f9575b600080fd5b610187674563918244f4000081565b6040519081526020015b60405180910390f35b606060405161019191906118bf565b610187662386f26fc1000081565b6060604051610191919061194a565b6101e1730e09fabb73bd3ade0a17ecc321fd13a19e81ce8281565b6040516001600160a01b039091168152602001610191565b61018766b1a2bc2ec5000081565b610187670de0b6b3a764000081565b6101e17f000000000000000000000000000000000000000000000000000000000000000081565b61024561037b565b005b6101e1732170ed0880ac9a755fd29b2688956bd959f933f881565b6101876601c6bf5263400081565b6101e1738ac76a51cc950d9822d68b83fe1ad97b32cd580d81565b6101e173bb4cdb9cbd36b01bd1cbaebf2de08d9173bc095c81565b606060405161019191906119be565b60606040516101919190611a0c565b60606040516101919190611a61565b6102db610575565b6040516101919190611cb5565b6101e17355d398326f99059ff775485246999027b319795581565b60606040516101919190611cc8565b60606040516101919190611d73565b6101e173e23ae099e2ef2a75183d06af93c8ee0b5f1b546d81565b6101e1737130d2a12b9bcbfae4f2634d864a1ee1ce3ead9c81565b60606040516101919190611e5b565b61036e610f33565b6040516101919190611e9c565b610383610f99565b6060600061038f610575565b8251909150606090819081908190819081908190156104285761042663a192ac2460e01b8a6040516024016103c49190611cc8565b60408051601f198184030181529190526020810180516001600160e01b03166001600160e01b0319909316929092179091526001600160a01b037f00000000000000000000000000000000000000000000000000000000000000001690611013565b505b87511561045657610454633cb6502d60e01b610442610f33565b8a6040516024016103c4929190611eaf565b505b865115610484576104826314d8093760e21b610470610f33565b896040516024016103c4929190611ed4565b505b8451156104a9576104a763bb06653560e01b866040516024016103c491906118bf565b505b8551156104ce576104cc6309d8332860e01b876040516024016103c4919061194a565b505b8351156104f3576104f16324f4c44560e01b856040516024016103c49190611d73565b505b8251156105185761051663927c400360e01b846040516024016103c49190611a61565b505b81511561053d5761053b632a90e62360e01b836040516024016103c491906119be565b505b805115610562576105606355caa16360e01b826040516024016103c49190611a0c565b505b61056a611041565b505050505050505050565b60408051600680825260e0820190925260609160009190816020015b6105996117d2565b815260200190600190039081610591579050509050604051806102400160405280730e09fabb73bd3ade0a17ecc321fd13a19e81ce826001600160a01b031681526020016040518060400160405280600481526020016343414b4560e01b815250815260200173b6064ed41d4f67e353768aa239ca86f4f73665a16001600160a01b0316815260200160405180610120016040528061063961119461131c565b8152602001610648600061131c565b81526020016106586102bc61131c565b815260200161066861753061131c565b81526020016106786102bc61131c565b815260200161068861753061131c565b815260200161069760c861131c565b81526020016106a761032061131c565b81526020016106b76107d061131c565b8152508152602001600181526020016000815260200160008152602001600081526020016001815260200161157c81526020016117d481526020016103e881526020016107d08152602001624c4b408152602001622255108152602001626acfc081526020016103e88152602001600060ff168152508160008151811061074057610740611ef9565b602002602001018190525060405180610240016040528073bb4cdb9cbd36b01bd1cbaebf2de08d9173bc095c6001600160a01b03168152602001604051806040016040528060048152602001632ba1272160e11b8152508152602001730567f2323251f0aab15c8dfb1967e4e8a7d42aee6001600160a01b031681526020016040518061012001604052806107d661119461131c565b81526020016107e5600061131c565b81526020016107f56102bc61131c565b815260200161080561753061131c565b81526020016108156102bc61131c565b815260200161082561753061131c565b815260200161083460c861131c565b815260200161084461032061131c565b81526020016108546107d061131c565b81525081526020016001815260200160008152602001600081526020016000815260200160018152602001611b588152602001611d4c81526020016103e881526020016107d0815260200161c35081526020016157e48152602001600081526020016103e88152602001600060ff16815250816001815181106108d9576108d9611ef9565b6020026020010181905250604051806102400160405280737130d2a12b9bcbfae4f2634d864a1ee1ce3ead9c6001600160a01b0316815260200160405180604001604052806004815260200163212a21a160e11b815250815260200173264990fbd0a4796a3e3d8e37c4d5f87a3aca5ebf6001600160a01b0316815260200160405180610120016040528061096f61119461131c565b8152602001600081526020016109866102bc61131c565b815260200161099661753061131c565b81526020016109a66102bc61131c565b81526020016109b661753061131c565b81526020016109c560c861131c565b81526020016109d561032061131c565b81526020016109e56107d061131c565b81525081526020016001815260200160008152602001600081526020016000815260200160018152602001611b588152602001611d4c81526020016103e881526020016107d08152602001610190815260200160b48152602001600081526020016103e88152602001600060ff1681525081600281518110610a6957610a69611ef9565b6020026020010181905250604051806102400160405280732170ed0880ac9a755fd29b2688956bd959f933f86001600160a01b031681526020016040518060400160405280600381526020016208aa8960eb1b8152508152602001739ef1b8c0e4f7dc8bf5719ea496883dc6401d5b2e6001600160a01b03168152602001604051806101200160405280610afe611f4061131c565b815260200160008152602001610b1561014a61131c565b8152602001610b25611f4061131c565b8152602001610b3561019061131c565b8152602001610b45611f4061131c565b8152602001610b5460c861131c565b8152602001610b6461032061131c565b8152602001610b746107d061131c565b81525081526020016001815260200160008152602001600081526020016000815260200160018152602001611f40815260200161203a81526020016103e881526020016105dc81526020016113888152602001610fa08152602001600081526020016103e88152602001600060ff1681525081600381518110610bf957610bf9611ef9565b6020026020010181905250604051806102400160405280738ac76a51cc950d9822d68b83fe1ad97b32cd580d6001600160a01b03168152602001604051806040016040528060048152602001635553444360e01b81525081526020017351597f405303c4377e36123cbc172b13269ea1636001600160a01b03168152602001604051806101200160405280610c8f61232861131c565b815260200160008152602001610ca661025861131c565b8152602001610cb661177061131c565b8152602001610cc661025861131c565b8152602001610cd661177061131c565b8152602001610ce5606461131c565b8152602001610cf561032061131c565b8152602001610d056107d061131c565b81525081526020016001815260200160008152602001600181526020016000815260200160018152602001611e148152602001611f4081526020016101f481526020016103e881526020016302faf08081526020016302aea5408152602001600081526020016103e88152602001600060ff1681525081600481518110610d8e57610d8e611ef9565b60200260200101819052506040518061024001604052807355d398326f99059ff775485246999027b31979556001600160a01b03168152602001604051806040016040528060048152602001631554d11560e21b815250815260200173b97ad0e74fa7d920791e90258a6e2085088b43206001600160a01b03168152602001604051806101200160405280610e2461232861131c565b815260200160008152602001610e3b61025861131c565b8152602001610e4b611d4c61131c565b8152602001610e5b61025861131c565b8152602001610e6b611d4c61131c565b8152602001610e7a606461131c565b8152602001610e8a61032061131c565b8152602001610e9a6107d061131c565b81525081526020016001815260200160008152602001600181526020016000815260200160018152602001611d4c8152602001611f4081526020016101f481526020016103e881526020016302faf08081526020016302aea5408152602001600081526020016103e88152602001600060ff1681525081600581518110610f2357610f23611ef9565b6020908102919091010152919050565b60408051808201909152606080825260208201525060408051608081018252600f8183019081526e2127211029b6b0b93a1021b430b4b760891b606083015281528151808301909252600382526221373160e91b60208381019190915281019190915290565b6040516350ab220360e11b815273e23ae099e2ef2a75183d06af93c8ee0b5f1b546d600482015273ff75b6da14ffbbfd355daf7a2731456b3562ba6d9063a156440690602401600060405180830381600087803b158015610ff957600080fd5b505af115801561100d573d6000803e3d6000fd5b50505050565b60606110388383604051806060016040528060278152602001611faf60279139611341565b90505b92915050565b6040516322650caf60e01b81527325170e9ed4077aba7d3dd03cf4a9f45dc6d0fccd6004820152732d97f8fa96886fd923c065f5457f9ddd494e3877906322650caf90602401600060405180830381600087803b1580156110a157600080fd5b505af11580156110b5573d6000803e3d6000fd5b50506040516316e6a53960e21b81527383f15bc50d1a212576b202f80489502a7cc104126004820152732d97f8fa96886fd923c065f5457f9ddd494e38779250635b9a94e49150602401600060405180830381600087803b15801561111957600080fd5b505af115801561112d573d6000803e3d6000fd5b50506040516316e6a53960e21b815273971f1c94b139adededa729da636e2b0c433ff5956004820152732d97f8fa96886fd923c065f5457f9ddd494e38779250635b9a94e49150602401600060405180830381600087803b15801561119157600080fd5b505af11580156111a5573d6000803e3d6000fd5b505050506111e7736807dc923806fe8fd134338eabca509979a7e0cb730e09fabb73bd3ade0a17ecc321fd13a19e81ce82670de0b6b3a764000061dead6113b9565b611224736807dc923806fe8fd134338eabca509979a7e0cb73bb4cdb9cbd36b01bd1cbaebf2de08d9173bc095c66b1a2bc2ec5000061dead6113b9565b611261736807dc923806fe8fd134338eabca509979a7e0cb737130d2a12b9bcbfae4f2634d864a1ee1ce3ead9c6601c6bf5263400061dead6113b9565b61129e736807dc923806fe8fd134338eabca509979a7e0cb732170ed0880ac9a755fd29b2688956bd959f933f8662386f26fc1000061dead6113b9565b6112dc736807dc923806fe8fd134338eabca509979a7e0cb738ac76a51cc950d9822d68b83fe1ad97b32cd580d674563918244f4000061dead6113b9565b61131a736807dc923806fe8fd134338eabca509979a7e0cb7355d398326f99059ff775485246999027b3197955674563918244f4000061dead6113b9565b565b60006127106113376b033b2e3c9fd0803ce800000084611f0f565b61103b9190611f34565b6060600080856001600160a01b03168560405161135e9190611f56565b600060405180830381855af49150503d8060008114611399576040519150601f19603f3d011682016040523d82523d6000602084013e61139e565b606091505b50915091506113af86838387611444565b9695505050505050565b6113cd6001600160a01b03841685846114ca565b60405163617ba03760e01b81526001600160a01b0384811660048301526024820184905282811660448301526000606483015285169063617ba03790608401600060405180830381600087803b15801561142657600080fd5b505af115801561143a573d6000803e3d6000fd5b5050505050505050565b606083156114b85782516000036114b1576001600160a01b0385163b6114b15760405162461bcd60e51b815260206004820152601d60248201527f416464726573733a2063616c6c20746f206e6f6e2d636f6e747261637400000060448201526064015b60405180910390fd5b50816114c2565b6114c2838361157e565b949350505050565b604080516001600160a01b038416602482015260448082018490528251808303909101815260649091019091526020810180516001600160e01b031663095ea7b360e01b17905261151b84826115a8565b61100d57604080516001600160a01b038516602482015260006044808301919091528251808303909101815260649091019091526020810180516001600160e01b031663095ea7b360e01b179052611574908590611650565b61100d8482611650565b81511561158e5781518083602001fd5b8060405162461bcd60e51b81526004016114a89190611f72565b6000806000846001600160a01b0316846040516115c59190611f56565b6000604051808303816000865af19150503d8060008114611602576040519150601f19603f3d011682016040523d82523d6000602084013e611607565b606091505b50915091508180156116315750805115806116315750808060200190518101906116319190611f85565b801561164757506000856001600160a01b03163b115b95945050505050565b60006116656001600160a01b038416836116b8565b9050805160001415801561168a5750808060200190518101906116889190611f85565b155b156116b357604051635274afe760e01b81526001600160a01b03841660048201526024016114a8565b505050565b6060611038838360006040518060400160405280601e81526020017f416464726573733a206c6f772d6c6576656c2063616c6c206661696c656400008152506060824710156117585760405162461bcd60e51b815260206004820152602660248201527f416464726573733a20696e73756666696369656e742062616c616e636520666f6044820152651c8818d85b1b60d21b60648201526084016114a8565b600080866001600160a01b031685876040516117749190611f56565b60006040518083038185875af1925050503d80600081146117b1576040519150601f19603f3d011682016040523d82523d6000602084013e6117b6565b606091505b50915091506117c787838387611444565b979650505050505050565b60405180610240016040528060006001600160a01b031681526020016060815260200160006001600160a01b031681526020016118546040518061012001604052806000815260200160008152602001600081526020016000815260200160008152602001600081526020016000815260200160008152602001600081525090565b815260200160008152602001600081526020016000815260200160008152602001600081526020016000815260200160008152602001600081526020016000815260200160008152602001600081526020016000815260200160008152602001600060ff1681525090565b602080825282518282018190526000919060409081850190868401855b8281101561193d57815180516001600160a01b0316855286810151878601528581015186860152606080820151908601526080808201519086015260a0808201519086015260c0908101519085015260e090930192908501906001016118dc565b5091979650505050505050565b602080825282518282018190526000919060409081850190868401855b8281101561193d57815180516001600160a01b0316855286810151878601528581015186860152606080820151908601526080808201519086015260a0908101519085015260c09093019290850190600101611967565b602080825282518282018190526000919060409081850190868401855b8281101561193d57815180516001600160a01b0316855286015160ff168685015292840192908501906001016119db565b602080825282518282018190526000919060409081850190868401855b8281101561193d57815180516001600160a01b0316855286810151878601528501518585015260609093019290850190600101611a29565b602080825282518282018190526000919060409081850190868401855b8281101561193d57815180516001600160a01b0390811686529087015116868501529284019290850190600101611a7e565b60005b83811015611acb578181015183820152602001611ab3565b50506000910152565b60008151808452611aec816020860160208601611ab0565b601f01601f19169290920160200192915050565b805182526020810151602083015260408101516040830152606081015160608301526080810151608083015260a081015160a083015260c081015160c083015260e081015160e08301526101008082015181840152505050565b80516001600160a01b0316825260006103406020830151816020860152611b8382860182611ad4565b9150506040830151611ba060408601826001600160a01b03169052565b506060830151611bb36060860182611b00565b5060808301516101808581019190915260a08401516101a08087019190915260c08501516101c08088019190915260e08601516101e080890191909152610100870151610200808a0191909152610120880151610220808b01919091526101408901516102408b01526101608901516102608b0152948801516102808a0152928701516102a0890152908601516102c08801528501516102e087015284015161030086015283015160ff8116610320860152509392505050565b600081518084526020808501808196508360051b8101915082860160005b8581101561193d578284038952611ca3848351611b5a565b98850198935090840190600101611c8b565b6020815260006110386020830184611c6d565b60006020808301818452808551808352604092508286019150828160051b87010184880160005b83811015611d6557888303603f190185528151805160ff16845287810151888501528681015187850152606080820151908501526080808201516001600160a01b03169085015260a09081015160c091850182905290611d5181860183611ad4565b968901969450505090860190600101611cef565b509098975050505050505050565b6020808252825182820181905260009190848201906040850190845b81811015611dca57835180516001600160a01b03168452850151611db586850182611b00565b50928401926101409290920191600101611d8f565b50909695505050505050565b600081518084526020808501808196508360051b8101915082860160005b8581101561193d578284038952815160808151818752611e1682880182611b5a565b9288015180516001600160a01b03908116898b0152818a015181166040808b019190915290910151166060909701969096525098850198935090840190600101611df4565b6020815260006110386020830184611dd6565b6000815160408452611e836040850182611ad4565b9050602083015184820360208601526116478282611ad4565b6020815260006110386020830184611e6e565b604081526000611ec26040830185611e6e565b82810360208401526116478185611c6d565b604081526000611ee76040830185611e6e565b82810360208401526116478185611dd6565b634e487b7160e01b600052603260045260246000fd5b808202811582820484141761103b57634e487b7160e01b600052601160045260246000fd5b600082611f5157634e487b7160e01b600052601260045260246000fd5b500490565b60008251611f68818460208701611ab0565b9190910192915050565b6020815260006110386020830184611ad4565b600060208284031215611f9757600080fd5b81518015158114611fa757600080fd5b939250505056fe416464726573733a206c6f772d6c6576656c2064656c65676174652063616c6c206661696c6564a2646970667358221220b62648e9df6ad567bf1b752b61748684cd9c7801243c8bac9b928b2a300a41e564736f6c63430008130033","linkReferences":{}},"methodIdentifiers":{"BTCB()":"e9c9f44f","BTCB_SEED_AMOUNT()":"83391a3f","CAKE()":"4ca6ef28","CAKE_SEED_AMOUNT()":"59c32219","CONFIG_ENGINE()":"5e5eef7a","ETH()":"8322fff2","ETH_SEED_AMOUNT()":"232da218","POOL_IMPL()":"da2c7b1d","USDC()":"89a30271","USDC_SEED_AMOUNT()":"02a08f93","USDT()":"c54e44eb","USDT_SEED_AMOUNT()":"a710a11e","WBNB()":"8dd95002","WBNB_SEED_AMOUNT()":"54cbb32f","assetsEModeUpdates()":"92287095","borrowsUpdates()":"1850edd8","capsUpdates()":"95a93cb1","collateralsUpdates()":"2b179434","eModeCategoriesUpdates()":"ca8e89cc","execute()":"61461954","getPoolContext()":"fbb256f6","newListings()":"c0a25580","newListingsCustom()":"fabe3463","priceFeedsUpdates()":"b1af0d0d","rateStrategiesUpdates()":"d0c38c27"},"id":277}