{"abi":[{"type":"function","name":"LISTING_ENGINE","inputs":[],"outputs":[{"name":"","type":"address","internalType":"contract IAaveV2ConfigEngine"}],"stateMutability":"view"},{"type":"function","name":"execute","inputs":[],"outputs":[],"stateMutability":"nonpayable"},{"type":"function","name":"rateStrategiesUpdates","inputs":[],"outputs":[{"name":"","type":"tuple[]","internalType":"struct IAaveV2ConfigEngine.RateStrategyUpdate[]","components":[{"name":"asset","type":"address","internalType":"address"},{"name":"params","type":"tuple","internalType":"struct IV2RateStrategyFactory.RateStrategyParams","components":[{"name":"optimalUtilizationRate","type":"uint256","internalType":"uint256"},{"name":"baseVariableBorrowRate","type":"uint256","internalType":"uint256"},{"name":"variableRateSlope1","type":"uint256","internalType":"uint256"},{"name":"variableRateSlope2","type":"uint256","internalType":"uint256"},{"name":"stableRateSlope1","type":"uint256","internalType":"uint256"},{"name":"stableRateSlope2","type":"uint256","internalType":"uint256"}]}]}],"stateMutability":"pure"}],"bytecode":{"object":"0x60a060405234801561001057600080fd5b50737902f3c60f05b5a6b7e4ce0cac11cb17bc8e607c60805260805161076b61004a60003960008181604b0152610116015261076b6000f3fe608060405234801561001057600080fd5b50600436106100415760003560e01c80630a4aa3fa14610046578063614619541461008a578063d0c38c2714610094575b600080fd5b61006d7f000000000000000000000000000000000000000000000000000000000000000081565b6040516001600160a01b0390911681526020015b60405180910390f35b6100926100a9565b005b61009c610141565b6040516100819190610593565b60006100b3610141565b9050805160001461013e5761013c634f48253d60e01b826040516024016100da9190610593565b60408051601f198184030181529190526020810180516001600160e01b03166001600160e01b0319909316929092179091526001600160a01b037f000000000000000000000000000000000000000000000000000000000000000016906103bf565b505b50565b6040805160038082526080820190925260609160009190816020015b61016561053a565b81526020019060019003908161015d57505060408051808201825273d586e7f844cea2f87f50152665bcbc2c279d8d708152815160c081019092529192506020820190806101b6602a600019610639565b81526020016101c8602a600019610639565b81526020016101d86102586103ed565b81526020016101ea602a600019610639565b81526020016101fc602a600019610639565b815260200161020e602a600019610639565b815250815250816000815181106102275761022761064c565b6020026020010181905250604051806040016040528073c7198437980c041c805a1edcba50c1ce5db951186001600160a01b031681526020016040518060c00160405280602a60001961027a9190610639565b815260200161028c602a600019610639565b815260200161029c6102586103ed565b81526020016102ae602a600019610639565b81526020016102c0602a600019610639565b81526020016102d2602a600019610639565b815250815250816001815181106102eb576102eb61064c565b6020026020010181905250604051806040016040528073a7d7079b0fead91f3e65f86e8915cb59c1a4c6646001600160a01b031681526020016040518060c00160405280602a60001961033e9190610639565b8152602001610350602a600019610639565b81526020016103606102586103ed565b8152602001610372602a600019610639565b8152602001610384602a600019610639565b8152602001610396602a600019610639565b815250815250816002815181106103af576103af61064c565b6020908102919091010152919050565b60606103e4838360405180606001604052806027815260200161070f60279139610412565b90505b92915050565b60006127106104086b033b2e3c9fd0803ce800000084610662565b6103e79190610679565b6060600080856001600160a01b03168560405161042f91906106bf565b600060405180830381855af49150503d806000811461046a576040519150601f19603f3d011682016040523d82523d6000602084013e61046f565b606091505b50915091506104808683838761048a565b9695505050505050565b606083156104fe5782516000036104f7576001600160a01b0385163b6104f75760405162461bcd60e51b815260206004820152601d60248201527f416464726573733a2063616c6c20746f206e6f6e2d636f6e747261637400000060448201526064015b60405180910390fd5b5081610508565b6105088383610510565b949350505050565b8151156105205781518083602001fd5b8060405162461bcd60e51b81526004016104ee91906106db565b604051806040016040528060006001600160a01b0316815260200161058e6040518060c001604052806000815260200160008152602001600081526020016000815260200160008152602001600081525090565b905290565b602080825282518282018190526000919060409081850190868401855b8281101561061657815180516001600160a01b0316855286015180518786015280870151868601528581015160608087019190915281015160808087019190915281015160a086810191909152015160c085015260e090930192908501906001016105b0565b5091979650505050505050565b634e487b7160e01b600052601160045260246000fd5b818103818111156103e7576103e7610623565b634e487b7160e01b600052603260045260246000fd5b80820281158282048414176103e7576103e7610623565b60008261069657634e487b7160e01b600052601260045260246000fd5b500490565b60005b838110156106b657818101518382015260200161069e565b50506000910152565b600082516106d181846020870161069b565b9190910192915050565b60208152600082518060208401526106fa81604085016020870161069b565b601f01601f1916919091016040019291505056fe416464726573733a206c6f772d6c6576656c2064656c65676174652063616c6c206661696c6564a264697066735822122077adaf0a9c9d108a81582b2202d565717b7d8144ee188d6f69733bbcb8e2dafe64736f6c63430008130033","linkReferences":{}},"methodIdentifiers":{"LISTING_ENGINE()":"0a4aa3fa","execute()":"61461954","rateStrategiesUpdates()":"d0c38c27"},"id":382}