{"abi":[{"type":"function","name":"DAI_RF","inputs":[],"outputs":[{"name":"","type":"uint256","internalType":"uint256"}],"stateMutability":"view"},{"type":"function","name":"USDC_RF","inputs":[],"outputs":[{"name":"","type":"uint256","internalType":"uint256"}],"stateMutability":"view"},{"type":"function","name":"USDT_RF","inputs":[],"outputs":[{"name":"","type":"uint256","internalType":"uint256"}],"stateMutability":"view"},{"type":"function","name":"WETH_RF","inputs":[],"outputs":[{"name":"","type":"uint256","internalType":"uint256"}],"stateMutability":"view"},{"type":"function","name":"WMATIC_RF","inputs":[],"outputs":[{"name":"","type":"uint256","internalType":"uint256"}],"stateMutability":"view"},{"type":"function","name":"execute","inputs":[],"outputs":[],"stateMutability":"nonpayable"}],"bytecode":{"object":"0x608060405234801561001057600080fd5b50610368806100206000396000f3fe608060405234801561001057600080fd5b50600436106100625760003560e01c80632fe48da5146100675780636146195414610082578063768378441461008c5780638741e94c14610095578063e5979fa41461009e578063f9dcf464146100a7575b600080fd5b610070611c8481565b60405190815260200160405180910390f35b61008a6100b0565b005b610070611c2081565b610070611bbc81565b61007061251c81565b61007061238c81565b604051634b4e675360e01b8152738f3cf7ad23cd3cadbd9735aff958023239c6a0636004820152611bbc60248201527326db2b833021583566323e3b8985999981b9f1f390634b4e675390604401600060405180830381600087803b15801561011857600080fd5b505af115801561012c573d6000803e3d6000fd5b5050604051634b4e675360e01b8152732791bca1f2de4661ed88a30c99a7a9449aa841746004820152611c8460248201527326db2b833021583566323e3b8985999981b9f1f39250634b4e67539150604401600060405180830381600087803b15801561019857600080fd5b505af11580156101ac573d6000803e3d6000fd5b5050604051634b4e675360e01b815273c2132d05d31c914a87c6611c10748aeb04b58e8f6004820152611c2060248201527326db2b833021583566323e3b8985999981b9f1f39250634b4e67539150604401600060405180830381600087803b15801561021857600080fd5b505af115801561022c573d6000803e3d6000fd5b5050604051634b4e675360e01b8152737ceb23fd6bc0add59e62ac25578270cff1b9f619600482015261251c60248201527326db2b833021583566323e3b8985999981b9f1f39250634b4e67539150604401600060405180830381600087803b15801561029857600080fd5b505af11580156102ac573d6000803e3d6000fd5b5050604051634b4e675360e01b8152730d500b1d8e8ef31e21c99d1db9a6444d3adf1270600482015261238c60248201527326db2b833021583566323e3b8985999981b9f1f39250634b4e67539150604401600060405180830381600087803b15801561031857600080fd5b505af115801561032c573d6000803e3d6000fd5b5050505056fea264697066735822122010893b4b6600d5b10c532cb279d7f3173fde7d01dd7d748d6d7eeb6b238f84cc64736f6c63430008130033","linkReferences":{}},"methodIdentifiers":{"DAI_RF()":"8741e94c","USDC_RF()":"2fe48da5","USDT_RF()":"76837844","WETH_RF()":"e5979fa4","WMATIC_RF()":"f9dcf464","execute()":"61461954"},"id":482}