{"abi":[{"type":"function","name":"ACI_TREASURY","inputs":[],"outputs":[{"name":"","type":"address","internalType":"address"}],"stateMutability":"view"},{"type":"function","name":"ACTUAL_AMOUNT_GHO","inputs":[],"outputs":[{"name":"","type":"uint256","internalType":"uint256"}],"stateMutability":"view"},{"type":"function","name":"GHO_STREAM_AMOUNT","inputs":[],"outputs":[{"name":"","type":"uint256","internalType":"uint256"}],"stateMutability":"view"},{"type":"function","name":"STREAM_DURATION","inputs":[],"outputs":[{"name":"","type":"uint256","internalType":"uint256"}],"stateMutability":"view"},{"type":"function","name":"execute","inputs":[],"outputs":[],"stateMutability":"nonpayable"}],"bytecode":{"object":"0x608060405234801561001057600080fd5b506102aa806100206000396000f3fe608060405234801561001057600080fd5b50600436106100575760003560e01c80634a8e6b2b1461005c5780636146195414610079578063c618251614610083578063dac0ba4f146100b6578063f96d7f21146100c7575b600080fd5b61006662ed4e0081565b6040519081526020015b60405180910390f35b6100816100cf565b005b61009e7357ab7ee15ce5ecacb1ab84ee42d5a9d0d811292281565b6040516001600160a01b039091168152602001610070565b610066694f68ca6d8cd91c60000081565b6100666101ce565b73464c71f6c2f760dda6093dcb91c24c39e5d6e18c63cc1b4bf67357ab7ee15ce5ecacb1ab84ee42d5a9d0d811292262ed4e0061011681694f68ca6d8cd91c600000610209565b610120919061022b565b7340d16fc0246ad3160ccc09b8d0d3a2cd28ae6c2f4261014362ed4e0082610248565b6040516001600160e01b031960e088901b1681526001600160a01b03958616600482015260248101949094529390911660448301526064820152608481019190915260a4016020604051808303816000875af11580156101a7573d6000803e3d6000fd5b505050506040513d601f19601f820116820180604052508101906101cb919061025b565b50565b62ed4e006101e681694f68ca6d8cd91c600000610209565b6101f0919061022b565b81565b634e487b7160e01b600052601160045260246000fd5b60008261022657634e487b7160e01b600052601260045260246000fd5b500490565b8082028115828204841417610242576102426101f3565b92915050565b80820180821115610242576102426101f3565b60006020828403121561026d57600080fd5b505191905056fea264697066735822122059dbb59ccd0710fc8d485de0ba386eebad6bfc64dcce349bcd8015196756328664736f6c63430008130033","linkReferences":{}},"methodIdentifiers":{"ACI_TREASURY()":"c6182516","ACTUAL_AMOUNT_GHO()":"f96d7f21","GHO_STREAM_AMOUNT()":"dac0ba4f","STREAM_DURATION()":"4a8e6b2b","execute()":"61461954"},"id":155}