{"abi":[{"type":"function","name":"AMOUNT","inputs":[],"outputs":[{"name":"","type":"uint256","internalType":"uint256"}],"stateMutability":"view"},{"type":"function","name":"GHO","inputs":[],"outputs":[{"name":"","type":"address","internalType":"address"}],"stateMutability":"view"},{"type":"function","name":"TOKENLOGIC","inputs":[],"outputs":[{"name":"","type":"address","internalType":"address"}],"stateMutability":"view"},{"type":"function","name":"execute","inputs":[],"outputs":[],"stateMutability":"nonpayable"}],"bytecode":{"object":"0x608060405234801561001057600080fd5b506101a7806100206000396000f3fe608060405234801561001057600080fd5b506004361061004c5760003560e01c80634bcf9a49146100515780636146195414610089578063b8d008f314610093578063d1789176146100ae575b600080fd5b61006c733e4a9f478c0c13a15137fc81e9d8269f127b4b4081565b6040516001600160a01b0390911681526020015b60405180910390f35b6100916100cd565b005b61006c7340d16fc0246ad3160ccc09b8d0d3a2cd28ae6c2f81565b6100bf69185a29990fe301e0000081565b604051908152602001610080565b6040516317d5759960e31b81527340d16fc0246ad3160ccc09b8d0d3a2cd28ae6c2f6004820152733e4a9f478c0c13a15137fc81e9d8269f127b4b40602482015269185a29990fe301e00000604482015273464c71f6c2f760dda6093dcb91c24c39e5d6e18c9063beabacc890606401600060405180830381600087803b15801561015757600080fd5b505af115801561016b573d6000803e3d6000fd5b5050505056fea2646970667358221220c67b53e1d5244e23f787536f59a01c75e1a0c6e94363d3e36df87df94712a6c464736f6c63430008130033","linkReferences":{}},"methodIdentifiers":{"AMOUNT()":"d1789176","GHO()":"b8d008f3","TOKENLOGIC()":"4bcf9a49","execute()":"61461954"},"id":255}