{"abi":[{"type":"function","name":"ACTUAL_GAUNTLET_STREAM_AMOUNT_GHO","inputs":[],"outputs":[{"name":"","type":"uint256","internalType":"uint256"}],"stateMutability":"view"},{"type":"function","name":"ACTUAL_GAUNTLET_STREAM_AMOUNT_USDT","inputs":[],"outputs":[{"name":"","type":"uint256","internalType":"uint256"}],"stateMutability":"view"},{"type":"function","name":"GAUNTLET_INSOLVENCY_REFUND","inputs":[],"outputs":[{"name":"","type":"address","internalType":"address"}],"stateMutability":"view"},{"type":"function","name":"GAUNTLET_STREAMING_BENEFICIARY","inputs":[],"outputs":[{"name":"","type":"address","internalType":"address"}],"stateMutability":"view"},{"type":"function","name":"GAUNTLET_STREAM_AMOUNT_GHO","inputs":[],"outputs":[{"name":"","type":"uint256","internalType":"uint256"}],"stateMutability":"view"},{"type":"function","name":"GAUNTLET_STREAM_AMOUNT_USDT","inputs":[],"outputs":[{"name":"","type":"uint256","internalType":"uint256"}],"stateMutability":"view"},{"type":"function","name":"INSOLVENCY_REFUND_AMOUNT_USDT","inputs":[],"outputs":[{"name":"","type":"uint256","internalType":"uint256"}],"stateMutability":"view"},{"type":"function","name":"STREAM_DURATION","inputs":[],"outputs":[{"name":"","type":"uint256","internalType":"uint256"}],"stateMutability":"view"},{"type":"function","name":"execute","inputs":[],"outputs":[],"stateMutability":"nonpayable"}],"bytecode":{"object":"0x608060405234801561001057600080fd5b506104d0806100206000396000f3fe608060405234801561001057600080fd5b50600436106100935760003560e01c8063564870c011610066578063564870c0146100fd57806361461954146101095780636b23ca98146101135780637e497cd51461012e578063f07369211461013657600080fd5b80631260b2c71461009857806326ebbea6146100b75780632898a356146100bf5780634a8e6b2b146100f2575b600080fd5b6100a4646fc23ac00081565b6040519081526020015b60405180910390f35b6100a4610147565b6100da73d20c9667bf0047f313228f9fe11f8b9f8dc29bba81565b6040516001600160a01b0390911681526020016100ae565b6100a46301e1338081565b6100a4644a817c800081565b610111610168565b005b6100da737667095caa12b79fca489ff6e2198ca01fdae05781565b6100a4610400565b6100a469a968163f0a57b400000081565b6301e1338061015b81644a817c800061042f565b6101659190610451565b81565b73464c71f6c2f760dda6093dcb91c24c39e5d6e18c63cc1b4bf673d20c9667bf0047f313228f9fe11f8b9f8dc29bba6301e133806101ab81644a817c800061042f565b6101b59190610451565b733ed3b47dd13ec9a98b44e6204a523e766b225811426101d96301e133808261046e565b6040516001600160e01b031960e088901b1681526001600160a01b03958616600482015260248101949094529390911660448301526064820152608481019190915260a4016020604051808303816000875af115801561023d573d6000803e3d6000fd5b505050506040513d601f19601f820116820180604052508101906102619190610481565b5073464c71f6c2f760dda6093dcb91c24c39e5d6e18c63cc1b4bf673d20c9667bf0047f313228f9fe11f8b9f8dc29bba6301e133806102aa8169a968163f0a57b400000061042f565b6102b49190610451565b7340d16fc0246ad3160ccc09b8d0d3a2cd28ae6c2f426102d86301e133808261046e565b6040516001600160e01b031960e088901b1681526001600160a01b03958616600482015260248101949094529390911660448301526064820152608481019190915260a4016020604051808303816000875af115801561033c573d6000803e3d6000fd5b505050506040513d601f19601f820116820180604052508101906103609190610481565b506040516317d5759960e31b8152733ed3b47dd13ec9a98b44e6204a523e766b2258116004820152737667095caa12b79fca489ff6e2198ca01fdae0576024820152646fc23ac000604482015273464c71f6c2f760dda6093dcb91c24c39e5d6e18c9063beabacc890606401600060405180830381600087803b1580156103e657600080fd5b505af11580156103fa573d6000803e3d6000fd5b50505050565b6301e1338061015b8169a968163f0a57b400000061042f565b634e487b7160e01b600052601160045260246000fd5b60008261044c57634e487b7160e01b600052601260045260246000fd5b500490565b808202811582820484141761046857610468610419565b92915050565b8082018082111561046857610468610419565b60006020828403121561049357600080fd5b505191905056fea26469706673582212209fc6c60a27669414fc81593181ec53378e2624845fc1f36846841cba6165ad6164736f6c63430008130033","linkReferences":{}},"methodIdentifiers":{"ACTUAL_GAUNTLET_STREAM_AMOUNT_GHO()":"7e497cd5","ACTUAL_GAUNTLET_STREAM_AMOUNT_USDT()":"26ebbea6","GAUNTLET_INSOLVENCY_REFUND()":"6b23ca98","GAUNTLET_STREAMING_BENEFICIARY()":"2898a356","GAUNTLET_STREAM_AMOUNT_GHO()":"f0736921","GAUNTLET_STREAM_AMOUNT_USDT()":"564870c0","INSOLVENCY_REFUND_AMOUNT_USDT()":"1260b2c7","STREAM_DURATION()":"4a8e6b2b","execute()":"61461954"},"id":318}