{"abi":[{"type":"function","name":"execute","inputs":[],"outputs":[],"stateMutability":"nonpayable"}],"bytecode":{"object":"0x608060405234801561001057600080fd5b506103c8806100206000396000f3fe608060405234801561001057600080fd5b506004361061002b5760003560e01c80636146195414610030575b600080fd5b61003861003a565b005b604051637c4e560b60e01b815273311bb771e4f8952e6da169b425e7e92d6ac4575690637c4e560b906100909073d533a949740bb3306d119cc777fa900ba034cd529060009061070890612a309060040161036c565b600060405180830381600087803b1580156100aa57600080fd5b505af11580156100be573d6000803e3d6000fd5b5050604051637c4e560b60e01b815273311bb771e4f8952e6da169b425e7e92d6ac457569250637c4e560b91506101189073514910771af9ca656af840dff83e8264ecf986ca90600090611ce8906129cc9060040161036c565b600060405180830381600087803b15801561013257600080fd5b505af1158015610146573d6000803e3d6000fd5b5050604051637c4e560b60e01b815273311bb771e4f8952e6da169b425e7e92d6ac457569250637c4e560b91506101a090739f8f72aa9304c8b593d555f12ef6589cc3a579a290600090610708906129fe9060040161036c565b600060405180830381600087803b1580156101ba57600080fd5b505af11580156101ce573d6000803e3d6000fd5b5050604051637c4e560b60e01b815273311bb771e4f8952e6da169b425e7e92d6ac457569250637c4e560b915061022890731f9840a85d5af5bf1d1762f925bdaddc4201f984906000906107d090612a949060040161036c565b600060405180830381600087803b15801561024257600080fd5b505af1158015610256573d6000803e3d6000fd5b5050604051637c4e560b60e01b815273311bb771e4f8952e6da169b425e7e92d6ac457569250637c4e560b91506102b09073e41d2489571d322189246dafa5ebde1f4699f498906000906104b090612af89060040161036c565b600060405180830381600087803b1580156102ca57600080fd5b505af11580156102de573d6000803e3d6000fd5b5050604051637c4e560b60e01b815273311bb771e4f8952e6da169b425e7e92d6ac457569250637c4e560b91506103389073c18360217d8f7ab5e7c516566761ea12ce7f9d729060009061096090612a309060040161036c565b600060405180830381600087803b15801561035257600080fd5b505af1158015610366573d6000803e3d6000fd5b50505050565b6001600160a01b039490941684526020840192909252604083015260608201526080019056fea26469706673582212208dee030bb47e0ec9dff87660ef599dee92d9230fbb66be80fb2301003658df3d64736f6c63430008130033","linkReferences":{}},"methodIdentifiers":{"execute()":"61461954"},"id":413}