{"abi":[{"type":"function","name":"CONFIG_ENGINE","inputs":[],"outputs":[{"name":"","type":"address","internalType":"contract IAaveV3ConfigEngine"}],"stateMutability":"view"},{"type":"function","name":"assetsEModeUpdates","inputs":[],"outputs":[{"name":"","type":"tuple[]","internalType":"struct IAaveV3ConfigEngine.AssetEModeUpdate[]","components":[{"name":"asset","type":"address","internalType":"address"},{"name":"eModeCategory","type":"uint8","internalType":"uint8"}]}],"stateMutability":"view"},{"type":"function","name":"borrowsUpdates","inputs":[],"outputs":[{"name":"","type":"tuple[]","internalType":"struct IAaveV3ConfigEngine.BorrowUpdate[]","components":[{"name":"asset","type":"address","internalType":"address"},{"name":"enabledToBorrow","type":"uint256","internalType":"uint256"},{"name":"flashloanable","type":"uint256","internalType":"uint256"},{"name":"stableRateModeEnabled","type":"uint256","internalType":"uint256"},{"name":"borrowableInIsolation","type":"uint256","internalType":"uint256"},{"name":"withSiloedBorrowing","type":"uint256","internalType":"uint256"},{"name":"reserveFactor","type":"uint256","internalType":"uint256"}]}],"stateMutability":"view"},{"type":"function","name":"capsUpdates","inputs":[],"outputs":[{"name":"","type":"tuple[]","internalType":"struct IAaveV3ConfigEngine.CapsUpdate[]","components":[{"name":"asset","type":"address","internalType":"address"},{"name":"supplyCap","type":"uint256","internalType":"uint256"},{"name":"borrowCap","type":"uint256","internalType":"uint256"}]}],"stateMutability":"view"},{"type":"function","name":"collateralsUpdates","inputs":[],"outputs":[{"name":"","type":"tuple[]","internalType":"struct IAaveV3ConfigEngine.CollateralUpdate[]","components":[{"name":"asset","type":"address","internalType":"address"},{"name":"ltv","type":"uint256","internalType":"uint256"},{"name":"liqThreshold","type":"uint256","internalType":"uint256"},{"name":"liqBonus","type":"uint256","internalType":"uint256"},{"name":"debtCeiling","type":"uint256","internalType":"uint256"},{"name":"liqProtocolFee","type":"uint256","internalType":"uint256"}]}],"stateMutability":"view"},{"type":"function","name":"eModeCategoriesUpdates","inputs":[],"outputs":[{"name":"","type":"tuple[]","internalType":"struct IAaveV3ConfigEngine.EModeCategoryUpdate[]","components":[{"name":"eModeCategory","type":"uint8","internalType":"uint8"},{"name":"ltv","type":"uint256","internalType":"uint256"},{"name":"liqThreshold","type":"uint256","internalType":"uint256"},{"name":"liqBonus","type":"uint256","internalType":"uint256"},{"name":"priceSource","type":"address","internalType":"address"},{"name":"label","type":"string","internalType":"string"}]}],"stateMutability":"view"},{"type":"function","name":"execute","inputs":[],"outputs":[],"stateMutability":"nonpayable"},{"type":"function","name":"getPoolContext","inputs":[],"outputs":[{"name":"","type":"tuple","internalType":"struct IAaveV3ConfigEngine.PoolContext","components":[{"name":"networkName","type":"string","internalType":"string"},{"name":"networkAbbreviation","type":"string","internalType":"string"}]}],"stateMutability":"pure"},{"type":"function","name":"newListings","inputs":[],"outputs":[{"name":"","type":"tuple[]","internalType":"struct IAaveV3ConfigEngine.Listing[]","components":[{"name":"asset","type":"address","internalType":"address"},{"name":"assetSymbol","type":"string","internalType":"string"},{"name":"priceFeed","type":"address","internalType":"address"},{"name":"rateStrategyParams","type":"tuple","internalType":"struct IV3RateStrategyFactory.RateStrategyParams","components":[{"name":"optimalUsageRatio","type":"uint256","internalType":"uint256"},{"name":"baseVariableBorrowRate","type":"uint256","internalType":"uint256"},{"name":"variableRateSlope1","type":"uint256","internalType":"uint256"},{"name":"variableRateSlope2","type":"uint256","internalType":"uint256"},{"name":"stableRateSlope1","type":"uint256","internalType":"uint256"},{"name":"stableRateSlope2","type":"uint256","internalType":"uint256"},{"name":"baseStableRateOffset","type":"uint256","internalType":"uint256"},{"name":"stableRateExcessOffset","type":"uint256","internalType":"uint256"},{"name":"optimalStableToTotalDebtRatio","type":"uint256","internalType":"uint256"}]},{"name":"enabledToBorrow","type":"uint256","internalType":"uint256"},{"name":"stableRateModeEnabled","type":"uint256","internalType":"uint256"},{"name":"borrowableInIsolation","type":"uint256","internalType":"uint256"},{"name":"withSiloedBorrowing","type":"uint256","internalType":"uint256"},{"name":"flashloanable","type":"uint256","internalType":"uint256"},{"name":"ltv","type":"uint256","internalType":"uint256"},{"name":"liqThreshold","type":"uint256","internalType":"uint256"},{"name":"liqBonus","type":"uint256","internalType":"uint256"},{"name":"reserveFactor","type":"uint256","internalType":"uint256"},{"name":"supplyCap","type":"uint256","internalType":"uint256"},{"name":"borrowCap","type":"uint256","internalType":"uint256"},{"name":"debtCeiling","type":"uint256","internalType":"uint256"},{"name":"liqProtocolFee","type":"uint256","internalType":"uint256"},{"name":"eModeCategory","type":"uint8","internalType":"uint8"}]}],"stateMutability":"pure"},{"type":"function","name":"newListingsCustom","inputs":[],"outputs":[{"name":"","type":"tuple[]","internalType":"struct IAaveV3ConfigEngine.ListingWithCustomImpl[]","components":[{"name":"base","type":"tuple","internalType":"struct IAaveV3ConfigEngine.Listing","components":[{"name":"asset","type":"address","internalType":"address"},{"name":"assetSymbol","type":"string","internalType":"string"},{"name":"priceFeed","type":"address","internalType":"address"},{"name":"rateStrategyParams","type":"tuple","internalType":"struct IV3RateStrategyFactory.RateStrategyParams","components":[{"name":"optimalUsageRatio","type":"uint256","internalType":"uint256"},{"name":"baseVariableBorrowRate","type":"uint256","internalType":"uint256"},{"name":"variableRateSlope1","type":"uint256","internalType":"uint256"},{"name":"variableRateSlope2","type":"uint256","internalType":"uint256"},{"name":"stableRateSlope1","type":"uint256","internalType":"uint256"},{"name":"stableRateSlope2","type":"uint256","internalType":"uint256"},{"name":"baseStableRateOffset","type":"uint256","internalType":"uint256"},{"name":"stableRateExcessOffset","type":"uint256","internalType":"uint256"},{"name":"optimalStableToTotalDebtRatio","type":"uint256","internalType":"uint256"}]},{"name":"enabledToBorrow","type":"uint256","internalType":"uint256"},{"name":"stableRateModeEnabled","type":"uint256","internalType":"uint256"},{"name":"borrowableInIsolation","type":"uint256","internalType":"uint256"},{"name":"withSiloedBorrowing","type":"uint256","internalType":"uint256"},{"name":"flashloanable","type":"uint256","internalType":"uint256"},{"name":"ltv","type":"uint256","internalType":"uint256"},{"name":"liqThreshold","type":"uint256","internalType":"uint256"},{"name":"liqBonus","type":"uint256","internalType":"uint256"},{"name":"reserveFactor","type":"uint256","internalType":"uint256"},{"name":"supplyCap","type":"uint256","internalType":"uint256"},{"name":"borrowCap","type":"uint256","internalType":"uint256"},{"name":"debtCeiling","type":"uint256","internalType":"uint256"},{"name":"liqProtocolFee","type":"uint256","internalType":"uint256"},{"name":"eModeCategory","type":"uint8","internalType":"uint8"}]},{"name":"implementations","type":"tuple","internalType":"struct IAaveV3ConfigEngine.TokenImplementations","components":[{"name":"aToken","type":"address","internalType":"address"},{"name":"vToken","type":"address","internalType":"address"},{"name":"sToken","type":"address","internalType":"address"}]}]}],"stateMutability":"view"},{"type":"function","name":"priceFeedsUpdates","inputs":[],"outputs":[{"name":"","type":"tuple[]","internalType":"struct IAaveV3ConfigEngine.PriceFeedUpdate[]","components":[{"name":"asset","type":"address","internalType":"address"},{"name":"priceFeed","type":"address","internalType":"address"}]}],"stateMutability":"view"},{"type":"function","name":"rateStrategiesUpdates","inputs":[],"outputs":[{"name":"","type":"tuple[]","internalType":"struct IAaveV3ConfigEngine.RateStrategyUpdate[]","components":[{"name":"asset","type":"address","internalType":"address"},{"name":"params","type":"tuple","internalType":"struct IV3RateStrategyFactory.RateStrategyParams","components":[{"name":"optimalUsageRatio","type":"uint256","internalType":"uint256"},{"name":"baseVariableBorrowRate","type":"uint256","internalType":"uint256"},{"name":"variableRateSlope1","type":"uint256","internalType":"uint256"},{"name":"variableRateSlope2","type":"uint256","internalType":"uint256"},{"name":"stableRateSlope1","type":"uint256","internalType":"uint256"},{"name":"stableRateSlope2","type":"uint256","internalType":"uint256"},{"name":"baseStableRateOffset","type":"uint256","internalType":"uint256"},{"name":"stableRateExcessOffset","type":"uint256","internalType":"uint256"},{"name":"optimalStableToTotalDebtRatio","type":"uint256","internalType":"uint256"}]}]}],"stateMutability":"view"},{"type":"function","name":"wstETH","inputs":[],"outputs":[{"name":"","type":"address","internalType":"address"}],"stateMutability":"view"},{"type":"function","name":"wstETH_SEED_AMOUNT","inputs":[],"outputs":[{"name":"","type":"uint256","internalType":"uint256"}],"stateMutability":"view"},{"type":"error","name":"SafeERC20FailedOperation","inputs":[{"name":"token","type":"address","internalType":"address"}]}],"bytecode":{"object":"0x60a060405234801561001057600080fd5b5073c7751400f809cdb0c167f87985083c558a0610f76080526080516113b461004b6000396000818161014e015261029701526113b46000f3fe608060405234801561001057600080fd5b50600436106100ea5760003560e01c80639c28620a1161008c578063ca8e89cc11610066578063ca8e89cc146101d8578063d0c38c27146101e7578063fabe3463146101f6578063fbb256f61461020557600080fd5b80639c28620a14610198578063b1af0d0d146101b4578063c0a25580146101c357600080fd5b80635e5eef7a116100c85780635e5eef7a146101495780636146195414610170578063922870951461017a57806395a93cb11461018957600080fd5b80631850edd8146100ef5780632b179434146101075780634aa07e6414610116575b600080fd5b60606040516100fe9190610c68565b60405180910390f35b60606040516100fe9190610cf3565b61013173c1cba3fcea344f92d9239c08c0568f6f2f0ee45281565b6040516001600160a01b0390911681526020016100fe565b6101317f000000000000000000000000000000000000000000000000000000000000000081565b61017861021a565b005b60606040516100fe9190610d67565b60606040516100fe9190610db5565b6101a6662386f26fc1000081565b6040519081526020016100fe565b60606040516100fe9190610e0a565b6101cb61040c565b6040516100fe919061105e565b60606040516100fe9190611071565b60606040516100fe919061111c565b60606040516100fe9190611204565b61020d6105e5565b6040516100fe9190611245565b6060600061022661040c565b8251909150606090819081908190819081908190156102bf576102bd63a192ac2460e01b8a60405160240161025b9190611071565b60408051601f198184030181529190526020810180516001600160e01b03166001600160e01b0319909316929092179091526001600160a01b037f00000000000000000000000000000000000000000000000000000000000000001690610640565b505b8751156102ed576102eb633cb6502d60e01b6102d96105e5565b8a60405160240161025b929190611258565b505b86511561031b576103196314d8093760e21b6103076105e5565b8960405160240161025b92919061127d565b505b8451156103405761033e63bb06653560e01b8660405160240161025b9190610c68565b505b855115610365576103636309d8332860e01b8760405160240161025b9190610cf3565b505b83511561038a576103886324f4c44560e01b8560405160240161025b919061111c565b505b8251156103af576103ad63927c400360e01b8460405160240161025b9190610e0a565b505b8151156103d4576103d2632a90e62360e01b8360405160240161025b9190610d67565b505b8051156103f9576103f76355caa16360e01b8260405160240161025b9190610db5565b505b61040161066e565b505050505050505050565b60408051600180825281830190925260609160009190816020015b61042f610b7b565b81526020019060019003908161042757905050905060405180610240016040528073c1cba3fcea344f92d9239c08c0568f6f2f0ee4526001600160a01b03168152602001604051806040016040528060068152602001650eee6e88aa8960d31b815250815260200173945fd405773973d286de54e44649cc0d9e264f786001600160a01b031681526020016040518061012001604052806104d1611194610750565b81526020016104e06000610750565b81526020016104f06102bc610750565b8152602001610500617530610750565b8152602001610510610514610750565b8152602001610520617530610750565b815260200161053061012c610750565b81526020016105406101f4610750565b81526020016105506107d0610750565b81525081526020016001815260200160008152602001600081526020016000815260200160018152602001611bbc8152602001611db0815260200161025881526020016105dc8152602001610fa081526020016101908152602001600081526020016103e88152602001600160ff16815250816000815181106105d5576105d56112a2565b6020908102919091010152919050565b604080518082019091526060808252602082015250604080516080810182526004818301908152634261736560e01b606083015281528151808301909252600382526242617360e81b60208381019190915281019190915290565b6060610665838360405180606001604052806027815260200161135860279139610775565b90505b92915050565b6106a873c1cba3fcea344f92d9239c08c0568f6f2f0ee45273a238dd80c259a72e81d7e4664a9801593f98d1c5662386f26fc100006107ed565b60405163617ba03760e01b815273c1cba3fcea344f92d9239c08c0568f6f2f0ee4526004820152662386f26fc10000602482015273ba9424d650a4f5c80a0da641254d1acce2a3705760448201526000606482015273a238dd80c259a72e81d7e4664a9801593f98d1c59063617ba03790608401600060405180830381600087803b15801561073657600080fd5b505af115801561074a573d6000803e3d6000fd5b50505050565b600061271061076b6b033b2e3c9fd0803ce8000000846112b8565b61066891906112dd565b6060600080856001600160a01b03168560405161079291906112ff565b600060405180830381855af49150503d80600081146107cd576040519150601f19603f3d011682016040523d82523d6000602084013e6107d2565b606091505b50915091506107e3868383876108a1565b9695505050505050565b604080516001600160a01b038416602482015260448082018490528251808303909101815260649091019091526020810180516001600160e01b031663095ea7b360e01b17905261083e8482610927565b61074a57604080516001600160a01b038516602482015260006044808301919091528251808303909101815260649091019091526020810180516001600160e01b031663095ea7b360e01b1790526108979085906109cf565b61074a84826109cf565b6060831561091557825160000361090e576001600160a01b0385163b61090e5760405162461bcd60e51b815260206004820152601d60248201527f416464726573733a2063616c6c20746f206e6f6e2d636f6e747261637400000060448201526064015b60405180910390fd5b508161091f565b61091f8383610a37565b949350505050565b6000806000846001600160a01b03168460405161094491906112ff565b6000604051808303816000865af19150503d8060008114610981576040519150601f19603f3d011682016040523d82523d6000602084013e610986565b606091505b50915091508180156109b05750805115806109b05750808060200190518101906109b0919061131b565b80156109c657506000856001600160a01b03163b115b95945050505050565b60006109e46001600160a01b03841683610a61565b90508051600014158015610a09575080806020019051810190610a07919061131b565b155b15610a3257604051635274afe760e01b81526001600160a01b0384166004820152602401610905565b505050565b815115610a475781518083602001fd5b8060405162461bcd60e51b81526004016109059190611344565b6060610665838360006040518060400160405280601e81526020017f416464726573733a206c6f772d6c6576656c2063616c6c206661696c65640000815250606082471015610b015760405162461bcd60e51b815260206004820152602660248201527f416464726573733a20696e73756666696369656e742062616c616e636520666f6044820152651c8818d85b1b60d21b6064820152608401610905565b600080866001600160a01b03168587604051610b1d91906112ff565b60006040518083038185875af1925050503d8060008114610b5a576040519150601f19603f3d011682016040523d82523d6000602084013e610b5f565b606091505b5091509150610b70878383876108a1565b979650505050505050565b60405180610240016040528060006001600160a01b031681526020016060815260200160006001600160a01b03168152602001610bfd6040518061012001604052806000815260200160008152602001600081526020016000815260200160008152602001600081526020016000815260200160008152602001600081525090565b815260200160008152602001600081526020016000815260200160008152602001600081526020016000815260200160008152602001600081526020016000815260200160008152602001600081526020016000815260200160008152602001600060ff1681525090565b602080825282518282018190526000919060409081850190868401855b82811015610ce657815180516001600160a01b0316855286810151878601528581015186860152606080820151908601526080808201519086015260a0808201519086015260c0908101519085015260e09093019290850190600101610c85565b5091979650505050505050565b602080825282518282018190526000919060409081850190868401855b82811015610ce657815180516001600160a01b0316855286810151878601528581015186860152606080820151908601526080808201519086015260a0908101519085015260c09093019290850190600101610d10565b602080825282518282018190526000919060409081850190868401855b82811015610ce657815180516001600160a01b0316855286015160ff16868501529284019290850190600101610d84565b602080825282518282018190526000919060409081850190868401855b82811015610ce657815180516001600160a01b0316855286810151878601528501518585015260609093019290850190600101610dd2565b602080825282518282018190526000919060409081850190868401855b82811015610ce657815180516001600160a01b0390811686529087015116868501529284019290850190600101610e27565b60005b83811015610e74578181015183820152602001610e5c565b50506000910152565b60008151808452610e95816020860160208601610e59565b601f01601f19169290920160200192915050565b805182526020810151602083015260408101516040830152606081015160608301526080810151608083015260a081015160a083015260c081015160c083015260e081015160e08301526101008082015181840152505050565b80516001600160a01b0316825260006103406020830151816020860152610f2c82860182610e7d565b9150506040830151610f4960408601826001600160a01b03169052565b506060830151610f5c6060860182610ea9565b5060808301516101808581019190915260a08401516101a08087019190915260c08501516101c08088019190915260e08601516101e080890191909152610100870151610200808a0191909152610120880151610220808b01919091526101408901516102408b01526101608901516102608b0152948801516102808a0152928701516102a0890152908601516102c08801528501516102e087015284015161030086015283015160ff8116610320860152509392505050565b600081518084526020808501808196508360051b8101915082860160005b85811015610ce657828403895261104c848351610f03565b98850198935090840190600101611034565b6020815260006106656020830184611016565b60006020808301818452808551808352604092508286019150828160051b87010184880160005b8381101561110e57888303603f190185528151805160ff16845287810151888501528681015187850152606080820151908501526080808201516001600160a01b03169085015260a09081015160c0918501829052906110fa81860183610e7d565b968901969450505090860190600101611098565b509098975050505050505050565b6020808252825182820181905260009190848201906040850190845b8181101561117357835180516001600160a01b0316845285015161115e86850182610ea9565b50928401926101409290920191600101611138565b50909695505050505050565b600081518084526020808501808196508360051b8101915082860160005b85811015610ce65782840389528151608081518187526111bf82880182610f03565b9288015180516001600160a01b03908116898b0152818a015181166040808b01919091529091015116606090970196909652509885019893509084019060010161119d565b602081526000610665602083018461117f565b600081516040845261122c6040850182610e7d565b9050602083015184820360208601526109c68282610e7d565b6020815260006106656020830184611217565b60408152600061126b6040830185611217565b82810360208401526109c68185611016565b6040815260006112906040830185611217565b82810360208401526109c6818561117f565b634e487b7160e01b600052603260045260246000fd5b808202811582820484141761066857634e487b7160e01b600052601160045260246000fd5b6000826112fa57634e487b7160e01b600052601260045260246000fd5b500490565b60008251611311818460208701610e59565b9190910192915050565b60006020828403121561132d57600080fd5b8151801515811461133d57600080fd5b9392505050565b6020815260006106656020830184610e7d56fe416464726573733a206c6f772d6c6576656c2064656c65676174652063616c6c206661696c6564a2646970667358221220a5ad4ed1fa228f2e458c73d2361e2475e4ad8cbd606337e2ea37303819db0b6f64736f6c63430008130033","linkReferences":{}},"methodIdentifiers":{"CONFIG_ENGINE()":"5e5eef7a","assetsEModeUpdates()":"92287095","borrowsUpdates()":"1850edd8","capsUpdates()":"95a93cb1","collateralsUpdates()":"2b179434","eModeCategoriesUpdates()":"ca8e89cc","execute()":"61461954","getPoolContext()":"fbb256f6","newListings()":"c0a25580","newListingsCustom()":"fabe3463","priceFeedsUpdates()":"b1af0d0d","rateStrategiesUpdates()":"d0c38c27","wstETH()":"4aa07e64","wstETH_SEED_AMOUNT()":"9c28620a"},"id":310}