{"abi":[{"type":"function","name":"DAI_TO_SWAP","inputs":[],"outputs":[{"name":"","type":"uint256","internalType":"uint256"}],"stateMutability":"view"},{"type":"function","name":"GHO_ORACLE","inputs":[],"outputs":[{"name":"","type":"address","internalType":"address"}],"stateMutability":"view"},{"type":"function","name":"MILKMAN","inputs":[],"outputs":[{"name":"","type":"address","internalType":"address"}],"stateMutability":"view"},{"type":"function","name":"PRICE_CHECKER","inputs":[],"outputs":[{"name":"","type":"address","internalType":"address"}],"stateMutability":"view"},{"type":"function","name":"SWAPPER","inputs":[],"outputs":[{"name":"","type":"address","internalType":"contract AaveSwapper"}],"stateMutability":"view"},{"type":"function","name":"USDC_TO_DEPOSIT","inputs":[],"outputs":[{"name":"","type":"uint256","internalType":"uint256"}],"stateMutability":"view"},{"type":"function","name":"USDC_TO_SWAP","inputs":[],"outputs":[{"name":"","type":"uint256","internalType":"uint256"}],"stateMutability":"view"},{"type":"function","name":"USDT_TO_DEPOSIT","inputs":[],"outputs":[{"name":"","type":"uint256","internalType":"uint256"}],"stateMutability":"view"},{"type":"function","name":"execute","inputs":[],"outputs":[],"stateMutability":"nonpayable"},{"type":"error","name":"SafeERC20FailedOperation","inputs":[{"name":"token","type":"address","internalType":"address"}]}],"bytecode":{"object":"0x608060405234801561001057600080fd5b50610efe806100206000396000f3fe608060405234801561001057600080fd5b50600436106100935760003560e01c8063700d85ae11610066578063700d85ae1461010157806385b855421461011c578063ab49adbe1461012d578063c478572714610139578063f04409681461015457600080fd5b806323735558146100985780634142abe1146100b7578063566a53ae146100c457806361461954146100f7575b600080fd5b6100a464ae9f7bcc0081565b6040519081526020015b60405180910390f35b6100a465018bcfe5680081565b6100df7311c76ad590abdffcd980afec9ad951b160f0279781565b6040516001600160a01b0390911681526020016100ae565b6100ff61016f565b005b6100df733ea64b1c0194524b48f9118462c8e9cd61a243c781565b6100a46969e10de76676d080000081565b6100a464e8d4a5100081565b6100df733f12643d3f6f874d39c2a4c9f2cd6f2dbac877fc81565b6100df73e80a1c615f75aff7ed8f08c9f21f9d00982d666c81565b6040516370a0823160e01b815273464c71f6c2f760dda6093dcb91c24c39e5d6e18c600482018190529063beabacc89073bcca60bb61934080951369a648fb03df4f96263c903090620f42409083906370a0823190602401602060405180830381865afa1580156101e4573d6000803e3d6000fd5b505050506040513d601f19601f820116820180604052508101906102089190610d81565b6102129190610d9a565b6040518463ffffffff1660e01b815260040161023093929190610dbb565b600060405180830381600087803b15801561024a57600080fd5b505af115801561025e573d6000803e3d6000fd5b5050604051631a4ca37b60e21b815273a0b86991c6218b36c1d19d4a2e9eb0ce3606eb4860048201526000196024820152306044820152737d2768de32b0b80b7a3454c06bdac94a69ddc7a992506369328dec91506064016020604051808303816000875af11580156102d5573d6000803e3d6000fd5b505050506040513d601f19601f820116820180604052508101906102f99190610d81565b506040516317d5759960e31b815273464c71f6c2f760dda6093dcb91c24c39e5d6e18c9063beabacc89061034f9073a0b86991c6218b36c1d19d4a2e9eb0ce3606eb4890309065018bcfe5680090600401610dbb565b600060405180830381600087803b15801561036957600080fd5b505af115801561037d573d6000803e3d6000fd5b505060405163a9059cbb60e01b8152733ea64b1c0194524b48f9118462c8e9cd61a243c7600482015264e8d4a51000602482015273a0b86991c6218b36c1d19d4a2e9eb0ce3606eb48925063a9059cbb91506044016020604051808303816000875af11580156103f1573d6000803e3d6000fd5b505050506040513d601f19601f820116820180604052508101906104159190610ddf565b506040516317d5759960e31b815273464c71f6c2f760dda6093dcb91c24c39e5d6e18c9063beabacc89061048390736b175474e89094c44da98b954eedeac495271d0f90733ea64b1c0194524b48f9118462c8e9cd61a243c7906969e10de76676d080000090600401610dbb565b600060405180830381600087803b15801561049d57600080fd5b505af11580156104b1573d6000803e3d6000fd5b50506040516317d5759960e31b815273464c71f6c2f760dda6093dcb91c24c39e5d6e18c925063beabacc891506105099073dac17f958d2ee523a2206206994597c13d831ec790309064ae9f7bcc0090600401610dbb565b600060405180830381600087803b15801561052357600080fd5b505af1158015610537573d6000803e3d6000fd5b50506040516370a0823160e01b81523060048201526105e492507387870bca3f3fd6335c3f4ce8392d69350b4fa4e2915073a0b86991c6218b36c1d19d4a2e9eb0ce3606eb48906370a0823190602401602060405180830381865afa1580156105a4573d6000803e3d6000fd5b505050506040513d601f19601f820116820180604052508101906105c89190610d81565b73a0b86991c6218b36c1d19d4a2e9eb0ce3606eb4891906109f0565b6040516370a0823160e01b81523060048201527387870bca3f3fd6335c3f4ce8392d69350b4fa4e29063e8eda9df9073a0b86991c6218b36c1d19d4a2e9eb0ce3606eb489081906370a0823190602401602060405180830381865afa158015610651573d6000803e3d6000fd5b505050506040513d601f19601f820116820180604052508101906106759190610d81565b6040516001600160e01b031960e085901b1681526001600160a01b039092166004830152602482015273464c71f6c2f760dda6093dcb91c24c39e5d6e18c604482015260006064820152608401600060405180830381600087803b1580156106dc57600080fd5b505af11580156106f0573d6000803e3d6000fd5b5061072f925073dac17f958d2ee523a2206206994597c13d831ec79150737d2768de32b0b80b7a3454c06bdac94a69ddc7a9905064ae9f7bcc006109f0565b60405163e8eda9df60e01b815273dac17f958d2ee523a2206206994597c13d831ec7600482015264ae9f7bcc00602482015273464c71f6c2f760dda6093dcb91c24c39e5d6e18c604482015260006064820152737d2768de32b0b80b7a3454c06bdac94a69ddc7a99063e8eda9df90608401600060405180830381600087803b1580156107bb57600080fd5b505af11580156107cf573d6000803e3d6000fd5b505060405163cb0e9c1b60e01b8152733ea64b1c0194524b48f9118462c8e9cd61a243c7925063cb0e9c1b91506108ac907311c76ad590abdffcd980afec9ad951b160f027979073e80a1c615f75aff7ed8f08c9f21f9d00982d666c9073a0b86991c6218b36c1d19d4a2e9eb0ce3606eb48907340d16fc0246ad3160ccc09b8d0d3a2cd28ae6c2f90738fffffd4afb6115b954bd326cbe7b4ba576818f690733f12643d3f6f874d39c2a4c9f2cd6f2dbac877fc9073464c71f6c2f760dda6093dcb91c24c39e5d6e18c9064e8d4a5100090606490600401610e01565b600060405180830381600087803b1580156108c657600080fd5b505af11580156108da573d6000803e3d6000fd5b505060405163cb0e9c1b60e01b8152733ea64b1c0194524b48f9118462c8e9cd61a243c7925063cb0e9c1b91506109bc907311c76ad590abdffcd980afec9ad951b160f027979073e80a1c615f75aff7ed8f08c9f21f9d00982d666c90736b175474e89094c44da98b954eedeac495271d0f907340d16fc0246ad3160ccc09b8d0d3a2cd28ae6c2f9073aed0c38402a5d19df6e4c03f4e2dced6e29c1ee990733f12643d3f6f874d39c2a4c9f2cd6f2dbac877fc9073464c71f6c2f760dda6093dcb91c24c39e5d6e18c906969e10de76676d080000090606490600401610e01565b600060405180830381600087803b1580156109d657600080fd5b505af11580156109ea573d6000803e3d6000fd5b50505050565b604080516001600160a01b038416602482015260448082018490528251808303909101815260649091019091526020810180516001600160e01b031663095ea7b360e01b179052610a418482610aa4565b6109ea57604080516001600160a01b038516602482015260006044808301919091528251808303909101815260649091019091526020810180516001600160e01b031663095ea7b360e01b179052610a9a908590610b4e565b6109ea8482610b4e565b6000806000846001600160a01b031684604051610ac19190610e79565b6000604051808303816000865af19150503d8060008114610afe576040519150601f19603f3d011682016040523d82523d6000602084013e610b03565b606091505b5091509150818015610b2d575080511580610b2d575080806020019051810190610b2d9190610ddf565b8015610b4357506000856001600160a01b03163b115b925050505b92915050565b6000610b636001600160a01b03841683610bbb565b90508051600014158015610b88575080806020019051810190610b869190610ddf565b155b15610bb657604051635274afe760e01b81526001600160a01b03841660048201526024015b60405180910390fd5b505050565b6060610bff838360006040518060400160405280601e81526020017f416464726573733a206c6f772d6c6576656c2063616c6c206661696c65640000815250610c06565b9392505050565b606082471015610c675760405162461bcd60e51b815260206004820152602660248201527f416464726573733a20696e73756666696369656e742062616c616e636520666f6044820152651c8818d85b1b60d21b6064820152608401610bad565b600080866001600160a01b03168587604051610c839190610e79565b60006040518083038185875af1925050503d8060008114610cc0576040519150601f19603f3d011682016040523d82523d6000602084013e610cc5565b606091505b5091509150610cd687838387610ce3565b925050505b949350505050565b60608315610d52578251600003610d4b576001600160a01b0385163b610d4b5760405162461bcd60e51b815260206004820152601d60248201527f416464726573733a2063616c6c20746f206e6f6e2d636f6e74726163740000006044820152606401610bad565b5081610cdb565b610cdb8383815115610d675781518083602001fd5b8060405162461bcd60e51b8152600401610bad9190610e95565b600060208284031215610d9357600080fd5b5051919050565b81810381811115610b4857634e487b7160e01b600052601160045260246000fd5b6001600160a01b039384168152919092166020820152604081019190915260600190565b600060208284031215610df157600080fd5b81518015158114610bff57600080fd5b6001600160a01b03998a1681529789166020890152958816604088015293871660608701529186166080860152851660a085015290931660c083015260e08201929092526101008101919091526101200190565b60005b83811015610e70578181015183820152602001610e58565b50506000910152565b60008251610e8b818460208701610e55565b9190910192915050565b6020815260008251806020840152610eb4816040850160208701610e55565b601f01601f1916919091016040019291505056fea26469706673582212202dca55b66fa83367a33e689965906aa4a1635804a7d0ea80c2c9f05dc55b9bb764736f6c63430008130033","linkReferences":{}},"methodIdentifiers":{"DAI_TO_SWAP()":"85b85542","GHO_ORACLE()":"c4785727","MILKMAN()":"566a53ae","PRICE_CHECKER()":"f0440968","SWAPPER()":"700d85ae","USDC_TO_DEPOSIT()":"4142abe1","USDC_TO_SWAP()":"ab49adbe","USDT_TO_DEPOSIT()":"23735558","execute()":"61461954"},"id":205}