{"abi":[{"type":"function","name":"ADDRESSES_PROVIDER","inputs":[],"outputs":[{"name":"","type":"address","internalType":"contract ILendingPoolAddressesProvider"}],"stateMutability":"view"},{"type":"function","name":"CONFIGURATOR","inputs":[],"outputs":[{"name":"","type":"address","internalType":"contract IPoolConfigurator"}],"stateMutability":"view"},{"type":"function","name":"CORE","inputs":[],"outputs":[{"name":"","type":"address","internalType":"contract ILendingPoolCore"}],"stateMutability":"view"},{"type":"function","name":"LIQUIDATION_MANAGER_IMPL","inputs":[],"outputs":[{"name":"","type":"address","internalType":"address"}],"stateMutability":"view"},{"type":"function","name":"MINIMAL_IR","inputs":[],"outputs":[{"name":"","type":"address","internalType":"address"}],"stateMutability":"view"},{"type":"function","name":"POOL_IMPL","inputs":[],"outputs":[{"name":"","type":"address","internalType":"address"}],"stateMutability":"view"},{"type":"function","name":"execute","inputs":[],"outputs":[],"stateMutability":"nonpayable"}],"bytecode":{"object":"0x608060405234801561001057600080fd5b506104f8806100206000396000f3fe608060405234801561001057600080fd5b506004361061007d5760003560e01c80636b6c07741161005b5780636b6c0774146100de578063b7c27286146100f9578063da2c7b1d14610114578063fb7bf61a1461012f57600080fd5b80630542975c146100825780632501c0d0146100b957806361461954146100d4575b600080fd5b61009d7324a42fd28c976a61df5d00d0599c34c4f90748c881565b6040516001600160a01b03909116815260200160405180910390f35b61009d739bf9df78b1f7c76a473588c41321b5059b62981e81565b6100dc61014a565b005b61009d733dfd23a6c5e8bbcfc9581d2e864a68feb6a076d381565b61009d731a7dde6344d5f2888209ddb446756fe292e1325e81565b61009d7389a943bac327c9e217d70e57dcd57c7f2a8c3fa981565b61009d734965f6fa20fe9728decf5165016fc338a5a85abf81565b6040516344ce375b60e01b8152731a7dde6344d5f2888209ddb446756fe292e1325e60048201527324a42fd28c976a61df5d00d0599c34c4f90748c8906344ce375b90602401600060405180830381600087803b1580156101aa57600080fd5b505af11580156101be573d6000803e3d6000fd5b5050604051635aef021f60e01b81527389a943bac327c9e217d70e57dcd57c7f2a8c3fa960048201527324a42fd28c976a61df5d00d0599c34c4f90748c89250635aef021f9150602401600060405180830381600087803b15801561022257600080fd5b505af1158015610236573d6000803e3d6000fd5b505050506000733dfd23a6c5e8bbcfc9581d2e864a68feb6a076d36001600160a01b0316630902f1ac6040518163ffffffff1660e01b8152600401600060405180830381865afa15801561028e573d6000803e3d6000fd5b505050506040513d6000823e601f3d908101601f191682016040526102b691908101906103c0565b905060005b815181101561038a57734965f6fa20fe9728decf5165016fc338a5a85abf6001600160a01b0316631d2118f98383815181106102f9576102f9610485565b60209081029190910101516040516001600160e01b031960e084901b1681526001600160a01b039091166004820152739bf9df78b1f7c76a473588c41321b5059b62981e6024820152604401600060405180830381600087803b15801561035f57600080fd5b505af1158015610373573d6000803e3d6000fd5b5050505080806103829061049b565b9150506102bb565b5050565b634e487b7160e01b600052604160045260246000fd5b80516001600160a01b03811681146103bb57600080fd5b919050565b600060208083850312156103d357600080fd5b825167ffffffffffffffff808211156103eb57600080fd5b818501915085601f8301126103ff57600080fd5b8151818111156104115761041161038e565b8060051b604051601f19603f830116810181811085821117156104365761043661038e565b60405291825284820192508381018501918883111561045457600080fd5b938501935b828510156104795761046a856103a4565b84529385019392850192610459565b98975050505050505050565b634e487b7160e01b600052603260045260246000fd5b6000600182016104bb57634e487b7160e01b600052601160045260246000fd5b506001019056fea2646970667358221220689a69e4fa4b67537be4afd30967f91fc41f8597c44c50234dbfaf49469f8ab564736f6c63430008130033","linkReferences":{}},"methodIdentifiers":{"ADDRESSES_PROVIDER()":"0542975c","CONFIGURATOR()":"fb7bf61a","CORE()":"6b6c0774","LIQUIDATION_MANAGER_IMPL()":"b7c27286","MINIMAL_IR()":"2501c0d0","POOL_IMPL()":"da2c7b1d","execute()":"61461954"},"id":438}