{"abi":[{"type":"function","name":"execute","inputs":[],"outputs":[],"stateMutability":"nonpayable"},{"type":"function","name":"getBounties","inputs":[],"outputs":[{"name":"","type":"tuple[3]","internalType":"struct AaveV3Ethereum_RequestForBountyPayoutJanuary2024_20240125.Bounty[3]","components":[{"name":"asset","type":"address","internalType":"address"},{"name":"recipient","type":"address","internalType":"address"},{"name":"amount","type":"uint256","internalType":"uint256"}]}],"stateMutability":"pure"}],"bytecode":{"object":"0x608060405234801561001057600080fd5b50610336806100206000396000f3fe608060405234801561001057600080fd5b50600436106100365760003560e01c80630cf0ac1d1461003b5780636146195414610059575b600080fd5b610043610063565b604051610050919061026a565b60405180910390f35b61006161012c565b005b61006b61022b565b506040805160c08101825273bcca60bb61934080951369a648fb03df4f96263c6060808301828152738689e84af34a18bc461928aa554a71c649beed89608085015264012a05f20060a085015283528351808201855282815273d122c282499cb6a76197db2d6ba5170d81c4895f6020828101919091526402540be400828701528085019190915284519182018552918152732bc5ffc5de1a83a9e4cddfa138baed516d70414b91810191909152633b9aca00818401529181019190915290565b6000610136610063565b905060005b60038110156102275773464c71f6c2f760dda6093dcb91c24c39e5d6e18c63beabacc8838360038110610170576101706102c3565b602002015151848460038110610188576101886102c3565b6020020151602001518585600381106101a3576101a36102c3565b602002015160409081015190516001600160e01b031960e086901b1681526001600160a01b0393841660048201529290911660248301526044820152606401600060405180830381600087803b1580156101fc57600080fd5b505af1158015610210573d6000803e3d6000fd5b50505050808061021f906102d9565b91505061013b565b5050565b60405180606001604052806003905b604080516060810182526000808252602080830182905292820152825260001990920191018161023a5790505090565b6101208101818360005b60038110156102ba57815180516001600160a01b039081168552602080830151909116818601526040918201519185019190915260609093019290910190600101610274565b50505092915050565b634e487b7160e01b600052603260045260246000fd5b6000600182016102f957634e487b7160e01b600052601160045260246000fd5b506001019056fea264697066735822122027587afb5e6b39d11656caa736df452e26fca70bc5d716efbc85ed8814e9e3c964736f6c63430008130033","linkReferences":{}},"methodIdentifiers":{"execute()":"61461954","getBounties()":"0cf0ac1d"},"id":488}