{"abi":[{"type":"function","name":"BAL80WETH20","inputs":[],"outputs":[{"name":"","type":"address","internalType":"address"}],"stateMutability":"view"},{"type":"function","name":"cancelSwap","inputs":[{"name":"tradeMilkman","type":"address","internalType":"address"},{"name":"priceChecker","type":"address","internalType":"address"},{"name":"fromToken","type":"address","internalType":"address"},{"name":"toToken","type":"address","internalType":"address"},{"name":"fromOracle","type":"address","internalType":"address"},{"name":"toOracle","type":"address","internalType":"address"},{"name":"recipient","type":"address","internalType":"address"},{"name":"amount","type":"uint256","internalType":"uint256"},{"name":"slippage","type":"uint256","internalType":"uint256"}],"outputs":[],"stateMutability":"nonpayable"},{"type":"function","name":"emergencyEtherTransfer","inputs":[{"name":"to","type":"address","internalType":"address"},{"name":"amount","type":"uint256","internalType":"uint256"}],"outputs":[],"stateMutability":"nonpayable"},{"type":"function","name":"emergencyTokenTransfer","inputs":[{"name":"erc20Token","type":"address","internalType":"address"},{"name":"to","type":"address","internalType":"address"},{"name":"amount","type":"uint256","internalType":"uint256"}],"outputs":[],"stateMutability":"nonpayable"},{"type":"function","name":"getExpectedOut","inputs":[{"name":"priceChecker","type":"address","internalType":"address"},{"name":"amount","type":"uint256","internalType":"uint256"},{"name":"fromToken","type":"address","internalType":"address"},{"name":"toToken","type":"address","internalType":"address"},{"name":"fromOracle","type":"address","internalType":"address"},{"name":"toOracle","type":"address","internalType":"address"}],"outputs":[{"name":"","type":"uint256","internalType":"uint256"}],"stateMutability":"view"},{"type":"function","name":"guardian","inputs":[],"outputs":[{"name":"","type":"address","internalType":"address"}],"stateMutability":"view"},{"type":"function","name":"initialize","inputs":[],"outputs":[],"stateMutability":"nonpayable"},{"type":"function","name":"owner","inputs":[],"outputs":[{"name":"","type":"address","internalType":"address"}],"stateMutability":"view"},{"type":"function","name":"renounceOwnership","inputs":[],"outputs":[],"stateMutability":"nonpayable"},{"type":"function","name":"swap","inputs":[{"name":"milkman","type":"address","internalType":"address"},{"name":"priceChecker","type":"address","internalType":"address"},{"name":"fromToken","type":"address","internalType":"address"},{"name":"toToken","type":"address","internalType":"address"},{"name":"fromOracle","type":"address","internalType":"address"},{"name":"toOracle","type":"address","internalType":"address"},{"name":"recipient","type":"address","internalType":"address"},{"name":"amount","type":"uint256","internalType":"uint256"},{"name":"slippage","type":"uint256","internalType":"uint256"}],"outputs":[],"stateMutability":"nonpayable"},{"type":"function","name":"transferOwnership","inputs":[{"name":"newOwner","type":"address","internalType":"address"}],"outputs":[],"stateMutability":"nonpayable"},{"type":"function","name":"updateGuardian","inputs":[{"name":"newGuardian","type":"address","internalType":"address"}],"outputs":[],"stateMutability":"nonpayable"},{"type":"function","name":"whoCanRescue","inputs":[],"outputs":[{"name":"","type":"address","internalType":"address"}],"stateMutability":"view"},{"type":"event","name":"ERC20Rescued","inputs":[{"name":"caller","type":"address","indexed":true,"internalType":"address"},{"name":"token","type":"address","indexed":true,"internalType":"address"},{"name":"to","type":"address","indexed":true,"internalType":"address"},{"name":"amount","type":"uint256","indexed":false,"internalType":"uint256"}],"anonymous":false},{"type":"event","name":"GuardianUpdated","inputs":[{"name":"oldGuardian","type":"address","indexed":false,"internalType":"address"},{"name":"newGuardian","type":"address","indexed":false,"internalType":"address"}],"anonymous":false},{"type":"event","name":"Initialized","inputs":[{"name":"version","type":"uint8","indexed":false,"internalType":"uint8"}],"anonymous":false},{"type":"event","name":"NativeTokensRescued","inputs":[{"name":"caller","type":"address","indexed":true,"internalType":"address"},{"name":"to","type":"address","indexed":true,"internalType":"address"},{"name":"amount","type":"uint256","indexed":false,"internalType":"uint256"}],"anonymous":false},{"type":"event","name":"OwnershipTransferred","inputs":[{"name":"previousOwner","type":"address","indexed":true,"internalType":"address"},{"name":"newOwner","type":"address","indexed":true,"internalType":"address"}],"anonymous":false},{"type":"event","name":"SwapCanceled","inputs":[{"name":"fromToken","type":"address","indexed":true,"internalType":"address"},{"name":"toToken","type":"address","indexed":true,"internalType":"address"},{"name":"amount","type":"uint256","indexed":false,"internalType":"uint256"}],"anonymous":false},{"type":"event","name":"SwapRequested","inputs":[{"name":"milkman","type":"address","indexed":false,"internalType":"address"},{"name":"fromToken","type":"address","indexed":true,"internalType":"address"},{"name":"toToken","type":"address","indexed":true,"internalType":"address"},{"name":"fromOracle","type":"address","indexed":false,"internalType":"address"},{"name":"toOracle","type":"address","indexed":false,"internalType":"address"},{"name":"amount","type":"uint256","indexed":false,"internalType":"uint256"},{"name":"recipient","type":"address","indexed":true,"internalType":"address"},{"name":"slippage","type":"uint256","indexed":false,"internalType":"uint256"}],"anonymous":false},{"type":"error","name":"Invalid0xAddress","inputs":[]},{"type":"error","name":"InvalidAmount","inputs":[]},{"type":"error","name":"InvalidRecipient","inputs":[]},{"type":"error","name":"OracleNotSet","inputs":[]},{"type":"error","name":"SafeERC20FailedOperation","inputs":[{"name":"token","type":"address","internalType":"address"}]}],"bytecode":{"object":"0x608060405234801561001057600080fd5b50610019610030565b610022336100f0565b61002b3361014b565b6101ac565b600054610100900460ff161561009c5760405162461bcd60e51b815260206004820152602760248201527f496e697469616c697a61626c653a20636f6e747261637420697320696e697469604482015266616c697a696e6760c81b606482015260840160405180910390fd5b60005460ff90811610156100ee576000805460ff191660ff9081179091556040519081527f7f26b83ff96e1f2b6a682f133852f6798a09c465da95921460cefb38474024989060200160405180910390a15b565b600080546001600160a01b038381166201000081810262010000600160b01b0319851617855560405193049190911692909183917f8be0079c531659141344cd1fd0a4f28419497f9722a3daafe3b4186f6b6457e091a35050565b600180546001600160a01b038381166001600160a01b031983168117909355604080519190921680825260208201939093527f064d28d3d3071c5cbc271a261c10c2f0f0d9e319390397101aa0eb23c6bad909910160405180910390a15050565b6115ed80620001bc6000396000f3fe608060405234801561001057600080fd5b50600436106100cf5760003560e01c8063a3d5b2551161008c578063d0d51cd911610066578063d0d51cd91461017b578063eed88b8d1461019c578063f2fde38b146101af578063fc525395146101c257600080fd5b8063a3d5b25514610155578063a4757b0f1461013e578063cb0e9c1b1461016857600080fd5b806328b76946146100d4578063452a9320146100e95780635bb89bf714610113578063715018a61461012e5780638129fc1c146101365780638da5cb5b1461013e575b600080fd5b6100e76100e2366004611125565b6101d5565b005b6001546001600160a01b03165b6040516001600160a01b0390911681526020015b60405180910390f35b6100f6735c6ee304399dbdb9c8ef030ab642b10820db8f5681565b6100e7610341565b6100e7610355565b6000546201000090046001600160a01b03166100f6565b6100e76101633660046111cf565b61049d565b6100e7610176366004611125565b610576565b61018e610189366004611210565b6106ff565b60405190815260200161010a565b6100e76101aa366004611289565b61080b565b6100e76101bd3660046112b5565b61096a565b6100e76101d03660046112b5565b6109e0565b6101dd6109f1565b60006101eb87878785610a78565b9050896001600160a01b031663a47721e3848a8a888e876040518763ffffffff1660e01b815260040161022396959493929190611322565b600060405180830381600087803b15801561023d57600080fd5b505af1158015610251573d6000803e3d6000fd5b50506040516370a0823160e01b81523060048201526102e8925073464c71f6c2f760dda6093dcb91c24c39e5d6e18c91506001600160a01b038b16906370a0823190602401602060405180830381865afa1580156102b3573d6000803e3d6000fd5b505050506040513d601f19601f820116820180604052508101906102d79190611370565b6001600160a01b038b169190610afb565b866001600160a01b0316886001600160a01b03167f7724aa1be65d9dd5c6689021d84d200622eb2dbbc9a92414225b6896ab916f8b8560405161032d91815260200190565b60405180910390a350505050505050505050565b610349610b5f565b6103536000610bc0565b565b600054610100900460ff16158080156103755750600054600160ff909116105b8061038f5750303b15801561038f575060005460ff166001145b6103f75760405162461bcd60e51b815260206004820152602e60248201527f496e697469616c697a61626c653a20636f6e747261637420697320616c72656160448201526d191e481a5b9a5d1a585b1a5e995960921b60648201526084015b60405180910390fd5b6000805460ff19166001179055801561041a576000805461ff0019166101001790555b61043773ee56e2b3d491590b5b31738cc34d5232f378a8d5610bc0565b61045473a519a7ce7b24333055781133b13532aeabfac81b610c1b565b801561049a576000805461ff0019169055604051600181527f7f26b83ff96e1f2b6a682f133852f6798a09c465da95921460cefb38474024989060200160405180910390a15b50565b6000546201000090046001600160a01b03166001600160a01b0316336001600160a01b0316146105065760405162461bcd60e51b815260206004820152601460248201527327a7262cafa922a9a1aaa2afa3aaa0a92224a0a760611b60448201526064016103ee565b61051a6001600160a01b0384168383610afb565b816001600160a01b0316836001600160a01b0316336001600160a01b03167fc7af665d489507e14ae25ac7ab0030fc7f570869610bdd32117ea56b60ae5c618460405161056991815260200190565b60405180910390a4505050565b61057e610b5f565b6001600160a01b038716158061059b57506001600160a01b038616155b156105b957604051639958bbd360e01b815260040160405180910390fd5b6001600160a01b0383166105e057604051634e46966960e11b815260040160405180910390fd5b816000036106015760405163162908e360e11b815260040160405180910390fd5b6106156001600160a01b0388168a84610c7c565b600061062387878785610a78565b9050896001600160a01b031663de9f0916848a8a888e876040518763ffffffff1660e01b815260040161065b96959493929190611322565b600060405180830381600087803b15801561067557600080fd5b505af1158015610689573d6000803e3d6000fd5b5050604080516001600160a01b038e811682528a81166020830152898116828401526060820188905260808201879052915188831694508b83169350918c16917f5dbc7fff5d75476e059733b073204464aab9393b12c2c33850417e8e48f554fa9181900360a00190a450505050505050505050565b60008061070f8585856000610a78565b9050600081806020019051810190610727919061139f565b915050886001600160a01b0316633a0b987c6040518163ffffffff1660e01b8152600401602060405180830381865afa158015610768573d6000803e3d6000fd5b505050506040513d601f19601f8201168201806040525081019061078c9190611458565b6001600160a01b0316630d1003ee898989856040518563ffffffff1660e01b81526004016107bd9493929190611475565b602060405180830381865afa1580156107da573d6000803e3d6000fd5b505050506040513d601f19601f820116820180604052508101906107fe9190611370565b9998505050505050505050565b6000546201000090046001600160a01b03166001600160a01b0316336001600160a01b0316146108745760405162461bcd60e51b815260206004820152601460248201527327a7262cafa922a9a1aaa2afa3aaa0a92224a0a760611b60448201526064016103ee565b604080516000808252602082019092526001600160a01b03841690839060405161089e91906114b1565b60006040518083038185875af1925050503d80600081146108db576040519150601f19603f3d011682016040523d82523d6000602084013e6108e0565b606091505b50509050806109255760405162461bcd60e51b815260206004820152601160248201527011551217d514905394d1915497d1905253607a1b60448201526064016103ee565b6040518281526001600160a01b0384169033907fb7c602059992183c7b767c08204223afc99f1895fd175adf9ece23ce9f5bb8b79060200160405180910390a3505050565b610972610b5f565b6001600160a01b0381166109d75760405162461bcd60e51b815260206004820152602660248201527f4f776e61626c653a206e6577206f776e657220697320746865207a65726f206160448201526564647265737360d01b60648201526084016103ee565b61049a81610bc0565b6109e86109f1565b61049a81610c1b565b6000546201000090046001600160a01b03166001600160a01b0316336001600160a01b03161480610a2c57506001546001600160a01b031633145b6103535760405162461bcd60e51b815260206004820152601960248201527f4f4e4c595f42595f4f574e45525f4f525f475541524449414e0000000000000060448201526064016103ee565b6060735c6ee304399dbdb9c8ef030ab642b10820db8f55196001600160a01b03861601610ad75781604051602001610ac191815260406020820181905260009082015260600190565b6040516020818303038152906040529050610af3565b81610ae28585610d12565b604051602001610ac19291906114cd565b949350505050565b6040516001600160a01b03838116602483015260448201839052610b5a91859182169063a9059cbb906064015b604051602081830303815290604052915060e01b6020820180516001600160e01b038381831617835250505050610e41565b505050565b6000546001600160a01b03620100009091041633146103535760405162461bcd60e51b815260206004820181905260248201527f4f776e61626c653a2063616c6c6572206973206e6f7420746865206f776e657260448201526064016103ee565b600080546001600160a01b038381166201000081810262010000600160b01b0319851617855560405193049190911692909183917f8be0079c531659141344cd1fd0a4f28419497f9722a3daafe3b4186f6b6457e091a35050565b600180546001600160a01b038381166001600160a01b031983168117909355604080519190921680825260208201939093527f064d28d3d3071c5cbc271a261c10c2f0f0d9e319390397101aa0eb23c6bad909910160405180910390a15050565b604080516001600160a01b038416602482015260448082018490528251808303909101815260649091019091526020810180516001600160e01b031663095ea7b360e01b179052610ccd8482610ea4565b610d0c576040516001600160a01b03848116602483015260006044830152610d0291869182169063095ea7b390606401610b28565b610d0c8482610e41565b50505050565b60606001600160a01b0383161580610d3157506001600160a01b038216155b15610d4f57604051633e1e538160e21b815260040160405180910390fd5b6040805160028082526060820183526000926020830190803683370190505090508381600081518110610d8457610d846114e6565b60200260200101906001600160a01b031690816001600160a01b0316815250508281600181518110610db857610db86114e6565b6001600160a01b03929092166020928302919091018201526040805160028082526060820183526000939192909183019080368337019050509050600181600181518110610e0857610e086114e6565b911515602092830291909101820152604051610e289184918491016114fc565b6040516020818303038152906040529250505092915050565b6000610e566001600160a01b03841683610f4c565b90508051600014158015610e7b575080806020019051810190610e799190611582565b155b15610b5a57604051635274afe760e01b81526001600160a01b03841660048201526024016103ee565b6000806000846001600160a01b031684604051610ec191906114b1565b6000604051808303816000865af19150503d8060008114610efe576040519150601f19603f3d011682016040523d82523d6000602084013e610f03565b606091505b5091509150818015610f2d575080511580610f2d575080806020019051810190610f2d9190611582565b8015610f4357506000856001600160a01b03163b115b95945050505050565b6060610f90838360006040518060400160405280601e81526020017f416464726573733a206c6f772d6c6576656c2063616c6c206661696c65640000815250610f97565b9392505050565b606082471015610ff85760405162461bcd60e51b815260206004820152602660248201527f416464726573733a20696e73756666696369656e742062616c616e636520666f6044820152651c8818d85b1b60d21b60648201526084016103ee565b600080866001600160a01b0316858760405161101491906114b1565b60006040518083038185875af1925050503d8060008114611051576040519150601f19603f3d011682016040523d82523d6000602084013e611056565b606091505b509150915061106787838387611072565b979650505050505050565b606083156110e15782516000036110da576001600160a01b0385163b6110da5760405162461bcd60e51b815260206004820152601d60248201527f416464726573733a2063616c6c20746f206e6f6e2d636f6e747261637400000060448201526064016103ee565b5081610af3565b610af383838151156110f65781518083602001fd5b8060405162461bcd60e51b81526004016103ee91906115a4565b6001600160a01b038116811461049a57600080fd5b60008060008060008060008060006101208a8c03121561114457600080fd5b893561114f81611110565b985060208a013561115f81611110565b975060408a013561116f81611110565b965060608a013561117f81611110565b955060808a013561118f81611110565b945060a08a013561119f81611110565b935060c08a01356111af81611110565b8093505060e08a013591506101008a013590509295985092959850929598565b6000806000606084860312156111e457600080fd5b83356111ef81611110565b925060208401356111ff81611110565b929592945050506040919091013590565b60008060008060008060c0878903121561122957600080fd5b863561123481611110565b955060208701359450604087013561124b81611110565b9350606087013561125b81611110565b9250608087013561126b81611110565b915060a087013561127b81611110565b809150509295509295509295565b6000806040838503121561129c57600080fd5b82356112a781611110565b946020939093013593505050565b6000602082840312156112c757600080fd5b8135610f9081611110565b60005b838110156112ed5781810151838201526020016112d5565b50506000910152565b6000815180845261130e8160208601602086016112d2565b601f01601f19169290920160200192915050565b8681526001600160a01b038681166020830152858116604083015284811660608301528316608082015260c060a08201819052600090611364908301846112f6565b98975050505050505050565b60006020828403121561138257600080fd5b5051919050565b634e487b7160e01b600052604160045260246000fd5b600080604083850312156113b257600080fd5b82519150602083015167ffffffffffffffff808211156113d157600080fd5b818501915085601f8301126113e557600080fd5b8151818111156113f7576113f7611389565b604051601f8201601f19908116603f0116810190838211818310171561141f5761141f611389565b8160405282815288602084870101111561143857600080fd5b6114498360208301602088016112d2565b80955050505050509250929050565b60006020828403121561146a57600080fd5b8151610f9081611110565b8481526001600160a01b038481166020830152831660408201526080606082018190526000906114a7908301846112f6565b9695505050505050565b600082516114c38184602087016112d2565b9190910192915050565b828152604060208201526000610af360408301846112f6565b634e487b7160e01b600052603260045260246000fd5b604080825283519082018190526000906020906060840190828701845b8281101561153e5781516001600160a01b031684529284019290840190600101611519565b5050508381038285015284518082528583019183019060005b81811015611575578351151583529284019291840191600101611557565b5090979650505050505050565b60006020828403121561159457600080fd5b81518015158114610f9057600080fd5b602081526000610f9060208301846112f656fea2646970667358221220d865dbf2c3ed8cf287cc27b795f1045acf44ed907e4390efbdc6a4dc4322b92264736f6c63430008130033","linkReferences":{}},"methodIdentifiers":{"BAL80WETH20()":"5bb89bf7","cancelSwap(address,address,address,address,address,address,address,uint256,uint256)":"28b76946","emergencyEtherTransfer(address,uint256)":"eed88b8d","emergencyTokenTransfer(address,address,uint256)":"a3d5b255","getExpectedOut(address,uint256,address,address,address,address)":"d0d51cd9","guardian()":"452a9320","initialize()":"8129fc1c","owner()":"8da5cb5b","renounceOwnership()":"715018a6","swap(address,address,address,address,address,address,address,uint256,uint256)":"cb0e9c1b","transferOwnership(address)":"f2fde38b","updateGuardian(address)":"fc525395","whoCanRescue()":"a4757b0f"},"id":127}