{"abi":[{"type":"function","name":"NEW_PRICE_ORACLE_SENTINEL","inputs":[],"outputs":[{"name":"","type":"address","internalType":"address"}],"stateMutability":"view"},{"type":"function","name":"execute","inputs":[],"outputs":[],"stateMutability":"nonpayable"}],"bytecode":{"object":"0x608060405234801561001057600080fd5b50610123806100206000396000f3fe6080604052348015600f57600080fd5b506004361060325760003560e01c806361461954146037578063d184f40714603f575b600080fd5b603d6075565b005b6059732b5ea1604babb7b730120950cb13951f3525828a81565b6040516001600160a01b03909116815260200160405180910390f35b604051631d25133b60e21b8152732b5ea1604babb7b730120950cb13951f3525828a600482015273b9fabd7500b2c6781c35dd48d54f81fc2299d7af906374944cec90602401600060405180830381600087803b15801560d457600080fd5b505af115801560e7573d6000803e3d6000fd5b5050505056fea2646970667358221220021ac454ac915d5767644bf5da83b30dceaa29aaa8c64e912396867feb21a7a364736f6c63430008130033","linkReferences":{}},"methodIdentifiers":{"NEW_PRICE_ORACLE_SENTINEL()":"d184f407","execute()":"61461954"},"id":305}