{"abi":[{"type":"function","name":"ACTUAL_STREAM_AMOUNT_AUSDT","inputs":[],"outputs":[{"name":"","type":"uint256","internalType":"uint256"}],"stateMutability":"view"},{"type":"function","name":"ACTUAL_STREAM_AMOUNT_GHO","inputs":[],"outputs":[{"name":"","type":"uint256","internalType":"uint256"}],"stateMutability":"view"},{"type":"function","name":"CHAOS_LABS_TREASURY","inputs":[],"outputs":[{"name":"","type":"address","internalType":"address"}],"stateMutability":"view"},{"type":"function","name":"STREAM_AMOUNT_AUSDT","inputs":[],"outputs":[{"name":"","type":"uint256","internalType":"uint256"}],"stateMutability":"view"},{"type":"function","name":"STREAM_AMOUNT_GHO","inputs":[],"outputs":[{"name":"","type":"uint256","internalType":"uint256"}],"stateMutability":"view"},{"type":"function","name":"STREAM_DURATION","inputs":[],"outputs":[{"name":"","type":"uint256","internalType":"uint256"}],"stateMutability":"view"},{"type":"function","name":"execute","inputs":[],"outputs":[],"stateMutability":"nonpayable"}],"bytecode":{"object":"0x608060405234801561001057600080fd5b506103f6806100206000396000f3fe608060405234801561001057600080fd5b506004361061007d5760003560e01c80636e015ab31161005b5780636e015ab3146100b25780639318923d146100c3578063b0bae3c1146100f6578063cd8a88ce146100fe57600080fd5b80634a8e6b2b1461008257806361461954146100a0578063663335b3146100aa575b600080fd5b61008d6301e1338081565b6040519081526020015b60405180910390f35b6100a861010a565b005b61008d610305565b61008d69a968163f0a57b400000081565b6100de73bc540e0729b732fb14afa240aa5a047ae9ba7df081565b6040516001600160a01b039091168152602001610097565b61008d61032b565b61008d64ba43b7400081565b73464c71f6c2f760dda6093dcb91c24c39e5d6e18c63cc1b4bf673bc540e0729b732fb14afa240aa5a047ae9ba7df06301e133806101528169a968163f0a57b4000000610355565b61015c9190610377565b7340d16fc0246ad3160ccc09b8d0d3a2cd28ae6c2f426101806301e1338082610394565b6040516001600160e01b031960e088901b1681526001600160a01b03958616600482015260248101949094529390911660448301526064820152608481019190915260a4016020604051808303816000875af11580156101e4573d6000803e3d6000fd5b505050506040513d601f19601f8201168201806040525081019061020891906103a7565b5073464c71f6c2f760dda6093dcb91c24c39e5d6e18c63cc1b4bf673bc540e0729b732fb14afa240aa5a047ae9ba7df06301e1338061024c8164ba43b74000610355565b6102569190610377565b733ed3b47dd13ec9a98b44e6204a523e766b2258114261027a6301e1338082610394565b6040516001600160e01b031960e088901b1681526001600160a01b03958616600482015260248101949094529390911660448301526064820152608481019190915260a4016020604051808303816000875af11580156102de573d6000803e3d6000fd5b505050506040513d601f19601f8201168201806040525081019061030291906103a7565b50565b6301e1338061031e8169a968163f0a57b4000000610355565b6103289190610377565b81565b6301e1338061031e8164ba43b74000610355565b634e487b7160e01b600052601160045260246000fd5b60008261037257634e487b7160e01b600052601260045260246000fd5b500490565b808202811582820484141761038e5761038e61033f565b92915050565b8082018082111561038e5761038e61033f565b6000602082840312156103b957600080fd5b505191905056fea26469706673582212203f23bd314bad0e549b84a37dda0a7c6a471b7847d8fea90d0d9a8483fa517d0f64736f6c63430008130033","linkReferences":{}},"methodIdentifiers":{"ACTUAL_STREAM_AMOUNT_AUSDT()":"b0bae3c1","ACTUAL_STREAM_AMOUNT_GHO()":"663335b3","CHAOS_LABS_TREASURY()":"9318923d","STREAM_AMOUNT_AUSDT()":"cd8a88ce","STREAM_AMOUNT_GHO()":"6e015ab3","STREAM_DURATION()":"4a8e6b2b","execute()":"61461954"},"id":175}