{"abi":[{"type":"function","name":"AT_LEAST_ONE_PAYLOAD","inputs":[],"outputs":[{"name":"","type":"string","internalType":"string"}],"stateMutability":"view"},{"type":"function","name":"CALLER_IS_NOT_VOTER_REPRESENTATIVE","inputs":[],"outputs":[{"name":"","type":"string","internalType":"string"}],"stateMutability":"view"},{"type":"function","name":"CALLER_NOT_A_VALID_VOTING_PORTAL","inputs":[],"outputs":[{"name":"","type":"string","internalType":"string"}],"stateMutability":"view"},{"type":"function","name":"CALLER_NOT_GOVERNANCE","inputs":[],"outputs":[{"name":"","type":"string","internalType":"string"}],"stateMutability":"view"},{"type":"function","name":"CANCELLATION_FEE_ALREADY_REDEEMED","inputs":[],"outputs":[{"name":"","type":"string","internalType":"string"}],"stateMutability":"view"},{"type":"function","name":"CANCELLATION_FEE_REDEEM_FAILED","inputs":[],"outputs":[{"name":"","type":"string","internalType":"string"}],"stateMutability":"view"},{"type":"function","name":"EMPTY_ASSET_STORAGE_SLOTS","inputs":[],"outputs":[{"name":"","type":"string","internalType":"string"}],"stateMutability":"view"},{"type":"function","name":"ETH_TRANSFER_FAILED","inputs":[],"outputs":[{"name":"","type":"string","internalType":"string"}],"stateMutability":"view"},{"type":"function","name":"EXECUTOR_ALREADY_SET_IN_DIFFERENT_LEVEL","inputs":[],"outputs":[{"name":"","type":"string","internalType":"string"}],"stateMutability":"view"},{"type":"function","name":"EXECUTOR_WAS_NOT_SPECIFIED_FOR_REQUESTED_ACCESS_LEVEL","inputs":[],"outputs":[{"name":"","type":"string","internalType":"string"}],"stateMutability":"view"},{"type":"function","name":"FAILED_ACTION_EXECUTION","inputs":[],"outputs":[{"name":"","type":"string","internalType":"string"}],"stateMutability":"view"},{"type":"function","name":"G_INVALID_CROSS_CHAIN_CONTROLLER_ADDRESS","inputs":[],"outputs":[{"name":"","type":"string","internalType":"string"}],"stateMutability":"view"},{"type":"function","name":"G_INVALID_IPFS_HASH","inputs":[],"outputs":[{"name":"","type":"string","internalType":"string"}],"stateMutability":"view"},{"type":"function","name":"G_INVALID_PAYLOADS_CONTROLLER","inputs":[],"outputs":[{"name":"","type":"string","internalType":"string"}],"stateMutability":"view"},{"type":"function","name":"G_INVALID_PAYLOAD_ACCESS_LEVEL","inputs":[],"outputs":[{"name":"","type":"string","internalType":"string"}],"stateMutability":"view"},{"type":"function","name":"G_INVALID_PAYLOAD_CHAIN","inputs":[],"outputs":[{"name":"","type":"string","internalType":"string"}],"stateMutability":"view"},{"type":"function","name":"INVALID_ACTION_ACCESS_LEVEL","inputs":[],"outputs":[{"name":"","type":"string","internalType":"string"}],"stateMutability":"view"},{"type":"function","name":"INVALID_ACTION_TARGET","inputs":[],"outputs":[{"name":"","type":"string","internalType":"string"}],"stateMutability":"view"},{"type":"function","name":"INVALID_CANCELLATION_FEE_COLLECTOR","inputs":[],"outputs":[{"name":"","type":"string","internalType":"string"}],"stateMutability":"view"},{"type":"function","name":"INVALID_CANCELLATION_FEE_SENT","inputs":[],"outputs":[{"name":"","type":"string","internalType":"string"}],"stateMutability":"view"},{"type":"function","name":"INVALID_CROSS_CHAIN_CONTROLLER_ADDRESS","inputs":[],"outputs":[{"name":"","type":"string","internalType":"string"}],"stateMutability":"view"},{"type":"function","name":"INVALID_DATA_WAREHOUSE","inputs":[],"outputs":[{"name":"","type":"string","internalType":"string"}],"stateMutability":"view"},{"type":"function","name":"INVALID_EMPTY_TARGETS","inputs":[],"outputs":[{"name":"","type":"string","internalType":"string"}],"stateMutability":"view"},{"type":"function","name":"INVALID_EXECUTION_TARGET","inputs":[],"outputs":[{"name":"","type":"string","internalType":"string"}],"stateMutability":"view"},{"type":"function","name":"INVALID_EXECUTOR_ACCESS_LEVEL","inputs":[],"outputs":[{"name":"","type":"string","internalType":"string"}],"stateMutability":"view"},{"type":"function","name":"INVALID_EXECUTOR_ADDRESS","inputs":[],"outputs":[{"name":"","type":"string","internalType":"string"}],"stateMutability":"view"},{"type":"function","name":"INVALID_EXECUTOR_DELAY","inputs":[],"outputs":[{"name":"","type":"string","internalType":"string"}],"stateMutability":"view"},{"type":"function","name":"INVALID_GAS_LIMIT","inputs":[],"outputs":[{"name":"","type":"string","internalType":"string"}],"stateMutability":"view"},{"type":"function","name":"INVALID_INITIAL_VOTING_CONFIGS","inputs":[],"outputs":[{"name":"","type":"string","internalType":"string"}],"stateMutability":"view"},{"type":"function","name":"INVALID_L1_VOTING_PORTAL","inputs":[],"outputs":[{"name":"","type":"string","internalType":"string"}],"stateMutability":"view"},{"type":"function","name":"INVALID_MESSAGE_ORIGINATOR_ADDRESS","inputs":[],"outputs":[{"name":"","type":"string","internalType":"string"}],"stateMutability":"view"},{"type":"function","name":"INVALID_ORIGIN_CHAIN_ID","inputs":[],"outputs":[{"name":"","type":"string","internalType":"string"}],"stateMutability":"view"},{"type":"function","name":"INVALID_POWER_STRATEGY","inputs":[],"outputs":[{"name":"","type":"string","internalType":"string"}],"stateMutability":"view"},{"type":"function","name":"INVALID_PROPOSAL_ACCESS_LEVEL","inputs":[],"outputs":[{"name":"","type":"string","internalType":"string"}],"stateMutability":"view"},{"type":"function","name":"INVALID_PROPOSITION_POWER","inputs":[],"outputs":[{"name":"","type":"string","internalType":"string"}],"stateMutability":"view"},{"type":"function","name":"INVALID_SIGNATURE","inputs":[],"outputs":[{"name":"","type":"string","internalType":"string"}],"stateMutability":"view"},{"type":"function","name":"INVALID_STATE_TO_REDEEM_CANCELLATION_FEE","inputs":[],"outputs":[{"name":"","type":"string","internalType":"string"}],"stateMutability":"view"},{"type":"function","name":"INVALID_VOTER","inputs":[],"outputs":[{"name":"","type":"string","internalType":"string"}],"stateMutability":"view"},{"type":"function","name":"INVALID_VOTE_CONFIGURATION_BLOCKHASH","inputs":[],"outputs":[{"name":"","type":"string","internalType":"string"}],"stateMutability":"view"},{"type":"function","name":"INVALID_VOTE_CONFIGURATION_VOTING_DURATION","inputs":[],"outputs":[{"name":"","type":"string","internalType":"string"}],"stateMutability":"view"},{"type":"function","name":"INVALID_VOTING_CONFIGS","inputs":[],"outputs":[{"name":"","type":"string","internalType":"string"}],"stateMutability":"view"},{"type":"function","name":"INVALID_VOTING_CONFIG_ACCESS_LEVEL","inputs":[],"outputs":[{"name":"","type":"string","internalType":"string"}],"stateMutability":"view"},{"type":"function","name":"INVALID_VOTING_DURATION","inputs":[],"outputs":[{"name":"","type":"string","internalType":"string"}],"stateMutability":"view"},{"type":"function","name":"INVALID_VOTING_MACHINE_CHAIN_ID","inputs":[],"outputs":[{"name":"","type":"string","internalType":"string"}],"stateMutability":"view"},{"type":"function","name":"INVALID_VOTING_MACHINE_CROSS_CHAIN_CONTROLLER","inputs":[],"outputs":[{"name":"","type":"string","internalType":"string"}],"stateMutability":"view"},{"type":"function","name":"INVALID_VOTING_PORTAL_ADDRESS","inputs":[],"outputs":[{"name":"","type":"string","internalType":"string"}],"stateMutability":"view"},{"type":"function","name":"INVALID_VOTING_PORTAL_ADDRESS_IN_VOTING_MACHINE","inputs":[],"outputs":[{"name":"","type":"string","internalType":"string"}],"stateMutability":"view"},{"type":"function","name":"INVALID_VOTING_PORTAL_CHAIN_ID","inputs":[],"outputs":[{"name":"","type":"string","internalType":"string"}],"stateMutability":"view"},{"type":"function","name":"INVALID_VOTING_PORTAL_CROSS_CHAIN_CONTROLLER","inputs":[],"outputs":[{"name":"","type":"string","internalType":"string"}],"stateMutability":"view"},{"type":"function","name":"INVALID_VOTING_PORTAL_GOVERNANCE","inputs":[],"outputs":[{"name":"","type":"string","internalType":"string"}],"stateMutability":"view"},{"type":"function","name":"INVALID_VOTING_PORTAL_OWNER","inputs":[],"outputs":[{"name":"","type":"string","internalType":"string"}],"stateMutability":"view"},{"type":"function","name":"INVALID_VOTING_PORTAL_VOTING_MACHINE","inputs":[],"outputs":[{"name":"","type":"string","internalType":"string"}],"stateMutability":"view"},{"type":"function","name":"INVALID_VOTING_STRATEGY","inputs":[],"outputs":[{"name":"","type":"string","internalType":"string"}],"stateMutability":"view"},{"type":"function","name":"INVALID_YES_NO_DIFFERENTIAL","inputs":[],"outputs":[{"name":"","type":"string","internalType":"string"}],"stateMutability":"view"},{"type":"function","name":"INVALID_YES_THRESHOLD","inputs":[],"outputs":[{"name":"","type":"string","internalType":"string"}],"stateMutability":"view"},{"type":"function","name":"MISSING_AAVE_ROOTS","inputs":[],"outputs":[{"name":"","type":"string","internalType":"string"}],"stateMutability":"view"},{"type":"function","name":"MISSING_A_AAVE_ROOTS","inputs":[],"outputs":[{"name":"","type":"string","internalType":"string"}],"stateMutability":"view"},{"type":"function","name":"MISSING_PROPOSAL_BLOCK_HASH","inputs":[],"outputs":[{"name":"","type":"string","internalType":"string"}],"stateMutability":"view"},{"type":"function","name":"MISSING_REPRESENTATION_ROOTS","inputs":[],"outputs":[{"name":"","type":"string","internalType":"string"}],"stateMutability":"view"},{"type":"function","name":"MISSING_STK_AAVE_ROOTS","inputs":[],"outputs":[{"name":"","type":"string","internalType":"string"}],"stateMutability":"view"},{"type":"function","name":"MISSING_STK_AAVE_SLASHING_EXCHANGE_RATE","inputs":[],"outputs":[{"name":"","type":"string","internalType":"string"}],"stateMutability":"view"},{"type":"function","name":"MISSING_VOTING_CONFIGURATIONS","inputs":[],"outputs":[{"name":"","type":"string","internalType":"string"}],"stateMutability":"view"},{"type":"function","name":"NOT_ENOUGH_MSG_VALUE","inputs":[],"outputs":[{"name":"","type":"string","internalType":"string"}],"stateMutability":"view"},{"type":"function","name":"NO_BRIDGED_VOTING_ASSETS","inputs":[],"outputs":[{"name":"","type":"string","internalType":"string"}],"stateMutability":"view"},{"type":"function","name":"NO_VOTING_ASSETS","inputs":[],"outputs":[{"name":"","type":"string","internalType":"string"}],"stateMutability":"view"},{"type":"function","name":"PAYLOAD_NOT_CREATED_BEFORE_PROPOSAL","inputs":[],"outputs":[{"name":"","type":"string","internalType":"string"}],"stateMutability":"view"},{"type":"function","name":"PAYLOAD_NOT_IN_CREATED_STATE","inputs":[],"outputs":[{"name":"","type":"string","internalType":"string"}],"stateMutability":"view"},{"type":"function","name":"PAYLOAD_NOT_IN_QUEUED_STATE","inputs":[],"outputs":[{"name":"","type":"string","internalType":"string"}],"stateMutability":"view"},{"type":"function","name":"PAYLOAD_NOT_IN_THE_CORRECT_STATE","inputs":[],"outputs":[{"name":"","type":"string","internalType":"string"}],"stateMutability":"view"},{"type":"function","name":"POWER_STRATEGY_HAS_NO_TOKENS","inputs":[],"outputs":[{"name":"","type":"string","internalType":"string"}],"stateMutability":"view"},{"type":"function","name":"PROPOSAL_NOT_IN_ACTIVE_STATE","inputs":[],"outputs":[{"name":"","type":"string","internalType":"string"}],"stateMutability":"view"},{"type":"function","name":"PROPOSAL_NOT_IN_CREATED_STATE","inputs":[],"outputs":[{"name":"","type":"string","internalType":"string"}],"stateMutability":"view"},{"type":"function","name":"PROPOSAL_NOT_IN_QUEUED_STATE","inputs":[],"outputs":[{"name":"","type":"string","internalType":"string"}],"stateMutability":"view"},{"type":"function","name":"PROPOSAL_NOT_IN_THE_CORRECT_STATE","inputs":[],"outputs":[{"name":"","type":"string","internalType":"string"}],"stateMutability":"view"},{"type":"function","name":"PROPOSAL_VOTE_ALREADY_CREATED","inputs":[],"outputs":[{"name":"","type":"string","internalType":"string"}],"stateMutability":"view"},{"type":"function","name":"PROPOSAL_VOTE_ALREADY_EXISTS","inputs":[],"outputs":[{"name":"","type":"string","internalType":"string"}],"stateMutability":"view"},{"type":"function","name":"PROPOSAL_VOTE_CONFIGURATION_ALREADY_BRIDGED","inputs":[],"outputs":[{"name":"","type":"string","internalType":"string"}],"stateMutability":"view"},{"type":"function","name":"PROPOSAL_VOTE_NOT_FINISHED","inputs":[],"outputs":[{"name":"","type":"string","internalType":"string"}],"stateMutability":"view"},{"type":"function","name":"PROPOSAL_VOTE_NOT_IN_ACTIVE_STATE","inputs":[],"outputs":[{"name":"","type":"string","internalType":"string"}],"stateMutability":"view"},{"type":"function","name":"PROPOSITION_POWER_IS_TOO_LOW","inputs":[],"outputs":[{"name":"","type":"string","internalType":"string"}],"stateMutability":"view"},{"type":"function","name":"QUEUE_COOLDOWN_PERIOD_NOT_PASSED","inputs":[],"outputs":[{"name":"","type":"string","internalType":"string"}],"stateMutability":"view"},{"type":"function","name":"REPEATED_STRATEGY_ASSET","inputs":[],"outputs":[{"name":"","type":"string","internalType":"string"}],"stateMutability":"view"},{"type":"function","name":"REPEATED_STRATEGY_ASSET_SLOT","inputs":[],"outputs":[{"name":"","type":"string","internalType":"string"}],"stateMutability":"view"},{"type":"function","name":"SHOULD_BE_AT_LEAST_ONE_EXECUTOR","inputs":[],"outputs":[{"name":"","type":"string","internalType":"string"}],"stateMutability":"view"},{"type":"function","name":"TIMELOCK_NOT_FINISHED","inputs":[],"outputs":[{"name":"","type":"string","internalType":"string"}],"stateMutability":"view"},{"type":"function","name":"UNPROCESSED_STORAGE_ROOT","inputs":[],"outputs":[{"name":"","type":"string","internalType":"string"}],"stateMutability":"view"},{"type":"function","name":"USER_BALANCE_DOES_NOT_EXISTS","inputs":[],"outputs":[{"name":"","type":"string","internalType":"string"}],"stateMutability":"view"},{"type":"function","name":"USER_VOTING_BALANCE_IS_ZERO","inputs":[],"outputs":[{"name":"","type":"string","internalType":"string"}],"stateMutability":"view"},{"type":"function","name":"VM_INVALID_GOVERNANCE_ADDRESS","inputs":[],"outputs":[{"name":"","type":"string","internalType":"string"}],"stateMutability":"view"},{"type":"function","name":"VOTER_ALREADY_VOTED_ON_PROPOSAL","inputs":[],"outputs":[{"name":"","type":"string","internalType":"string"}],"stateMutability":"view"},{"type":"function","name":"VOTE_ONCE_FOR_ASSET","inputs":[],"outputs":[{"name":"","type":"string","internalType":"string"}],"stateMutability":"view"},{"type":"function","name":"VOTING_DURATION_NOT_PASSED","inputs":[],"outputs":[{"name":"","type":"string","internalType":"string"}],"stateMutability":"view"},{"type":"function","name":"VOTING_DURATION_TOO_SMALL","inputs":[],"outputs":[{"name":"","type":"string","internalType":"string"}],"stateMutability":"view"},{"type":"function","name":"VOTING_PORTALS_COUNT_NOT_0","inputs":[],"outputs":[{"name":"","type":"string","internalType":"string"}],"stateMutability":"view"},{"type":"function","name":"VOTING_PORTAL_NOT_APPROVED","inputs":[],"outputs":[{"name":"","type":"string","internalType":"string"}],"stateMutability":"view"},{"type":"function","name":"VOTING_START_COOLDOWN_PERIOD_NOT_PASSED","inputs":[],"outputs":[{"name":"","type":"string","internalType":"string"}],"stateMutability":"view"},{"type":"function","name":"WRONG_MESSAGE_ORIGIN","inputs":[],"outputs":[{"name":"","type":"string","internalType":"string"}],"stateMutability":"view"}],"bytecode":{"object":"0x61126a61003a600b82828239805160001a60731461002d57634e487b7160e01b600052600060045260246000fd5b30600052607381538281f3fe73000000000000000000000000000000000000000030146080604052600436106105535760003560e01c806370e10188116102d4578063a976019311610197578063dc3b89d9116100fe578063ebebd6bc116100b7578063f93003ea11610091578063f93003ea14611162578063fa41c9ab14611183578063fb492fa7146111a4578063ff21b5a1146111c557600080fd5b8063ebebd6bc14611100578063ef1dd7d614611121578063f4d4aa311461114257600080fd5b8063dc3b89d91461103a578063e232f6821461105b578063e65856481461107c578063e8ff74b11461109d578063e9db95ef146110be578063eb0768c8146110df57600080fd5b8063bc08e1e911610150578063bc08e1e914610f74578063c4e8365214610f95578063c7d3085e14610fb6578063cff38e4e14610fd7578063d93b404c14610ff8578063dba41a961461101957600080fd5b8063a976019314610eae578063a9af58ba14610ecf578063aa72235c14610ef0578063afcea75c14610f11578063b51bef4d14610f32578063b6e6b04714610f5357600080fd5b806396331c141161023b578063a03798b0116101f4578063a03798b014610de9578063a3402a3814610e09578063a5ffe7e014610e2a578063a6cae50414610e4b578063a875196114610e6c578063a8cd81f114610e8d57600080fd5b806396331c1414610d245780639875a09014610d4557806398aa136f14610d6657806398ce269a14610d87578063991614fe14610da85780639ebe1a3814610dc857600080fd5b80637e6a29cd1161028d5780637e6a29cd14610c5f5780637e7ce2b614610c805780637ebbaecf14610ca157806383c46a4914610cc25780638e5c28c314610ce257806393a7bb6814610d0357600080fd5b806370e1018814610b9b57806371e9e82814610bbb57806371f6e43314610bdc57806375f5477814610bfd578063764af0b014610c1d5780637c8d048314610c3e57600080fd5b806343343d891161041c5780635b67920f1161038357806360cd59021161033c57806360cd590214610ad557806361be4d6f14610af6578063642fb94a14610b175780636a53f56614610b385780636b094da614610b595780636db9739414610b7a57600080fd5b80635b67920f14610a105780635bb3d83e14610a315780635d38480414610a525780635f08eeb014610a735780636039676014610a945780636088436a14610ab557600080fd5b80635070042e116103d55780635070042e1461094b57806350b30e361461096c578063527f441f1461098d578063536672d8146109ae57806358cab2ce146109cf5780635b45baae146109f057600080fd5b806343343d8914610885578063440c11cc146108a65780634cc503b8146108c75780634d640575146108e857806350231e2114610909578063504fa4dc1461092a57600080fd5b806326f23934116104c057806332a100c51161047957806332a100c5146107bf57806333718622146107e0578063370370ac146108015780633a21079514610822578063404ddc3914610843578063416688f91461086457600080fd5b806326f23934146106fa57806328107eb21461071b5780632d17fffa1461073c5780632f088cc31461075c5780632f7f5e8e1461077d57806331a75d941461079e57600080fd5b806312df8ec11161051257806312df8ec11461063457806313cf90c91461065557806318a7341a146106765780631d59e74a146106975780632440837f146106b857806325d8cd59146106d957600080fd5b80628e4d9a1461055857806294b5331461058f578063036add97146105b0578063059b3123146105d157806309db845e146105f25780630a858ebb14610613575b600080fd5b61057960405180604001604052806002815260200161064760f31b81525081565b60405161058691906111e6565b60405180910390f35b61057960405180604001604052806002815260200161039360f41b81525081565b61057960405180604001604052806002815260200161189960f11b81525081565b61057960405180604001604052806002815260200161313160f01b81525081565b61057960405180604001604052806002815260200161034360f41b81525081565b610579604051806040016040528060028152602001610d0d60f21b81525081565b610579604051806040016040528060028152602001610d8d60f21b81525081565b610579604051806040016040528060028152602001611c1960f11b81525081565b61057960405180604001604052806002815260200161333360f01b81525081565b61057960405180604001604052806002815260200161373560f01b81525081565b61057960405180604001604052806002815260200161363560f01b81525081565b610579604051806040016040528060028152602001610dcd60f21b81525081565b61057960405180604001604052806002815260200161036360f41b81525081565b61057960405180604001604052806002815260200161323560f01b81525081565b610579604051806040016040528060018152602001603160f81b81525081565b61057960405180604001604052806002815260200161031360f41b81525081565b61057960405180604001604052806002815260200161383160f01b81525081565b6105796040518060400160405280600281526020016106e760f31b81525081565b61057960405180604001604052806002815260200161393760f01b81525081565b61057960405180604001604052806002815260200161353760f01b81525081565b61057960405180604001604052806002815260200161323360f01b81525081565b61057960405180604001604052806002815260200161066760f31b81525081565b61057960405180604001604052806002815260200161343760f01b81525081565b61057960405180604001604052806002815260200161038360f41b81525081565b61057960405180604001604052806002815260200161191b60f11b81525081565b610579604051806040016040528060028152602001610c8d60f21b81525081565b610579604051806040016040528060028152602001610e4d60f21b81525081565b61057960405180604001604052806002815260200161333560f01b81525081565b61057960405180604001604052806002815260200161353560f01b81525081565b61057960405180604001604052806002815260200161343160f01b81525081565b61057960405180604001604052806002815260200161393560f01b81525081565b61057960405180604001604052806002815260200161333160f01b81525081565b610579604051806040016040528060028152602001610c4d60f21b81525081565b61057960405180604001604052806002815260200161068760f31b81525081565b61057960405180604001604052806002815260200161373360f01b81525081565b610579604051806040016040528060018152602001600d60fa1b81525081565b61057960405180604001604052806002815260200161363760f01b81525081565b610579604051806040016040528060028152602001611a1960f11b81525081565b61057960405180604001604052806002815260200161363360f01b81525081565b61057960405180604001604052806002815260200161189b60f11b81525081565b610579604051806040016040528060028152602001611b9960f11b81525081565b610579604051806040016040528060018152602001603360f81b81525081565b6105796040518060400160405280600281526020016106a760f31b81525081565b61057960405180604001604052806002815260200161323760f01b81525081565b61057960405180604001604052806002815260200161333960f01b81525081565b61057960405180604001604052806002815260200161035360f41b81525081565b610579604051806040016040528060028152602001610ccd60f21b81525081565b61057960405180604001604052806002815260200161383960f01b81525081565b610579604051806040016040528060018152602001603960f81b81525081565b61057960405180604001604052806002815260200161363960f01b81525081565b61057960405180604001604052806002815260200161373760f01b81525081565b610579604051806040016040528060018152602001603560f81b81525081565b61057960405180604001604052806002815260200161343360f01b81525081565b61057960405180604001604052806002815260200161373960f01b81525081565b61057960405180604001604052806002815260200161313560f01b81525081565b61057960405180604001604052806002815260200161383760f01b81525081565b61057960405180604001604052806002815260200161323160f01b81525081565b610579604051806040016040528060018152602001600760fb1b81525081565b61057960405180604001604052806002815260200161353960f01b81525081565b610579604051806040016040528060028152602001610d4d60f21b81525081565b6105796040518060400160405280600281526020016106c760f31b81525081565b610579604051806040016040528060028152602001611b9b60f11b81525081565b61057960405180604001604052806002815260200161070760f31b81525081565b610579604051806040016040528060028152602001611c1b60f11b81525081565b610579604051806040016040528060018152602001601b60f91b81525081565b61057960405180604001604052806002815260200161393360f01b81525081565b610579604051806040016040528060018152602001601960f91b81525081565b61057960405180604001604052806002815260200161313760f01b81525081565b61057960405180604001604052806002815260200161323960f01b81525081565b610579604051806040016040528060028152602001611a1b60f11b81525081565b610579604051806040016040528060028152602001611c9b60f11b81525081565b61057960405180604001604052806002815260200161383560f01b81525081565b61057960405180604001604052806002815260200161333760f01b81525081565b61057960405180604001604052806002815260200161033360f41b81525081565b610579604051806040016040528060028152602001611b1b60f11b81525081565b61057960405180604001604052806002815260200161062760f31b81525081565b61057960405180604001604052806002815260200161313360f01b81525081565b61057960405180604001604052806002815260200161199960f11b81525081565b61057960405180604001604052806002815260200161313960f01b81525081565b61057960405180604001604052806002815260200161032360f41b81525081565b61057960405180604001604052806002815260200161373160f01b81525081565b610579604051806040016040528060028152602001611a9960f11b81525081565b610579604051806040016040528060028152602001611b1960f11b81525081565b61057960405180604001604052806002815260200161199b60f11b81525081565b61057960405180604001604052806002815260200161343960f01b81525081565b61057960405180604001604052806002815260200161191960f11b81525081565b61057960405180604001604052806002815260200161353160f01b81525081565b610579604051806040016040528060028152602001611c9960f11b81525081565b61057960405180604001604052806002815260200161353360f01b81525081565b61057960405180604001604052806002815260200161383360f01b81525081565b610579604051806040016040528060028152602001610e0d60f21b81525081565b61057960405180604001604052806002815260200161037360f41b81525081565b610579604051806040016040528060018152602001603760f81b81525081565b610579604051806040016040528060028152602001611a9b60f11b81525081565b61057960405180604001604052806002815260200161363160f01b81525081565b61057960405180604001604052806002815260200161343560f01b81525081565b61057960405180604001604052806002815260200161393160f01b81525081565b600060208083528351808285015260005b81811015611213578581018301518582016040015282016111f7565b506000604082860101526040601f19601f830116850101925050509291505056fea264697066735822122049bb2f90641eee28e421ded722080b51da300cf285a5d02fc27dfced38f6df3264736f6c63430008130033","linkReferences":{}},"methodIdentifiers":{"AT_LEAST_ONE_PAYLOAD()":"a03798b0","CALLER_IS_NOT_VOTER_REPRESENTATIVE()":"a8751961","CALLER_NOT_A_VALID_VOTING_PORTAL()":"70e10188","CALLER_NOT_GOVERNANCE()":"036add97","CANCELLATION_FEE_ALREADY_REDEEMED()":"9ebe1a38","CANCELLATION_FEE_REDEEM_FAILED()":"0094b533","EMPTY_ASSET_STORAGE_SLOTS()":"7c8d0483","ETH_TRANSFER_FAILED()":"98ce269a","EXECUTOR_ALREADY_SET_IN_DIFFERENT_LEVEL()":"764af0b0","EXECUTOR_WAS_NOT_SPECIFIED_FOR_REQUESTED_ACCESS_LEVEL()":"b6e6b047","FAILED_ACTION_EXECUTION()":"a5ffe7e0","G_INVALID_CROSS_CHAIN_CONTROLLER_ADDRESS()":"60cd5902","G_INVALID_IPFS_HASH()":"8e5c28c3","G_INVALID_PAYLOADS_CONTROLLER()":"fa41c9ab","G_INVALID_PAYLOAD_ACCESS_LEVEL()":"26f23934","G_INVALID_PAYLOAD_CHAIN()":"d93b404c","INVALID_ACTION_ACCESS_LEVEL()":"cff38e4e","INVALID_ACTION_TARGET()":"e6585648","INVALID_CANCELLATION_FEE_COLLECTOR()":"ff21b5a1","INVALID_CANCELLATION_FEE_SENT()":"e8ff74b1","INVALID_CROSS_CHAIN_CONTROLLER_ADDRESS()":"536672d8","INVALID_DATA_WAREHOUSE()":"96331c14","INVALID_EMPTY_TARGETS()":"50b30e36","INVALID_EXECUTION_TARGET()":"2f7f5e8e","INVALID_EXECUTOR_ACCESS_LEVEL()":"e9db95ef","INVALID_EXECUTOR_ADDRESS()":"5bb3d83e","INVALID_EXECUTOR_DELAY()":"71f6e433","INVALID_GAS_LIMIT()":"1d59e74a","INVALID_INITIAL_VOTING_CONFIGS()":"7e7ce2b6","INVALID_L1_VOTING_PORTAL()":"ef1dd7d6","INVALID_MESSAGE_ORIGINATOR_ADDRESS()":"dc3b89d9","INVALID_ORIGIN_CHAIN_ID()":"6a53f566","INVALID_POWER_STRATEGY()":"504fa4dc","INVALID_PROPOSAL_ACCESS_LEVEL()":"a6cae504","INVALID_PROPOSITION_POWER()":"eb0768c8","INVALID_SIGNATURE()":"a3402a38","INVALID_STATE_TO_REDEEM_CANCELLATION_FEE()":"4cc503b8","INVALID_VOTER()":"5b67920f","INVALID_VOTE_CONFIGURATION_BLOCKHASH()":"58cab2ce","INVALID_VOTE_CONFIGURATION_VOTING_DURATION()":"25d8cd59","INVALID_VOTING_CONFIGS()":"9875a090","INVALID_VOTING_CONFIG_ACCESS_LEVEL()":"12df8ec1","INVALID_VOTING_DURATION()":"0a858ebb","INVALID_VOTING_MACHINE_CHAIN_ID()":"33718622","INVALID_VOTING_MACHINE_CROSS_CHAIN_CONTROLLER()":"71e9e828","INVALID_VOTING_PORTAL_ADDRESS()":"09db845e","INVALID_VOTING_PORTAL_ADDRESS_IN_VOTING_MACHINE()":"98aa136f","INVALID_VOTING_PORTAL_CHAIN_ID()":"c7d3085e","INVALID_VOTING_PORTAL_CROSS_CHAIN_CONTROLLER()":"93a7bb68","INVALID_VOTING_PORTAL_GOVERNANCE()":"f93003ea","INVALID_VOTING_PORTAL_OWNER()":"6db97394","INVALID_VOTING_PORTAL_VOTING_MACHINE()":"50231e21","INVALID_VOTING_STRATEGY()":"60396760","INVALID_YES_NO_DIFFERENTIAL()":"a8cd81f1","INVALID_YES_THRESHOLD()":"ebebd6bc","MISSING_AAVE_ROOTS()":"440c11cc","MISSING_A_AAVE_ROOTS()":"a9760193","MISSING_PROPOSAL_BLOCK_HASH()":"3a210795","MISSING_REPRESENTATION_ROOTS()":"5070042e","MISSING_STK_AAVE_ROOTS()":"28107eb2","MISSING_STK_AAVE_SLASHING_EXCHANGE_RATE()":"43343d89","MISSING_VOTING_CONFIGURATIONS()":"13cf90c9","NOT_ENOUGH_MSG_VALUE()":"008e4d9a","NO_BRIDGED_VOTING_ASSETS()":"aa72235c","NO_VOTING_ASSETS()":"7e6a29cd","PAYLOAD_NOT_CREATED_BEFORE_PROPOSAL()":"404ddc39","PAYLOAD_NOT_IN_CREATED_STATE()":"dba41a96","PAYLOAD_NOT_IN_QUEUED_STATE()":"18a7341a","PAYLOAD_NOT_IN_THE_CORRECT_STATE()":"4d640575","POWER_STRATEGY_HAS_NO_TOKENS()":"5d384804","PROPOSAL_NOT_IN_ACTIVE_STATE()":"991614fe","PROPOSAL_NOT_IN_CREATED_STATE()":"75f54778","PROPOSAL_NOT_IN_QUEUED_STATE()":"f4d4aa31","PROPOSAL_NOT_IN_THE_CORRECT_STATE()":"059b3123","PROPOSAL_VOTE_ALREADY_CREATED()":"5f08eeb0","PROPOSAL_VOTE_ALREADY_EXISTS()":"c4e83652","PROPOSAL_VOTE_CONFIGURATION_ALREADY_BRIDGED()":"642fb94a","PROPOSAL_VOTE_NOT_FINISHED()":"afcea75c","PROPOSAL_VOTE_NOT_IN_ACTIVE_STATE()":"bc08e1e9","PROPOSITION_POWER_IS_TOO_LOW()":"5b45baae","QUEUE_COOLDOWN_PERIOD_NOT_PASSED()":"2f088cc3","REPEATED_STRATEGY_ASSET()":"31a75d94","REPEATED_STRATEGY_ASSET_SLOT()":"416688f9","SHOULD_BE_AT_LEAST_ONE_EXECUTOR()":"a9af58ba","TIMELOCK_NOT_FINISHED()":"6b094da6","UNPROCESSED_STORAGE_ROOT()":"61be4d6f","USER_BALANCE_DOES_NOT_EXISTS()":"e232f682","USER_VOTING_BALANCE_IS_ZERO()":"370370ac","VM_INVALID_GOVERNANCE_ADDRESS()":"32a100c5","VOTER_ALREADY_VOTED_ON_PROPOSAL()":"b51bef4d","VOTE_ONCE_FOR_ASSET()":"7ebbaecf","VOTING_DURATION_NOT_PASSED()":"fb492fa7","VOTING_DURATION_TOO_SMALL()":"2440837f","VOTING_PORTALS_COUNT_NOT_0()":"2d17fffa","VOTING_PORTAL_NOT_APPROVED()":"6088436a","VOTING_START_COOLDOWN_PERIOD_NOT_PASSED()":"83c46a49","WRONG_MESSAGE_ORIGIN()":"527f441f"},"id":69}