{"abi":[{"type":"constructor","inputs":[{"name":"mainnetPayload","type":"address","internalType":"address"},{"name":"polygonPayload","type":"address","internalType":"address"},{"name":"executionTime","type":"uint256","internalType":"uint256"}],"stateMutability":"nonpayable"},{"type":"function","name":"EXECUTION_TIME","inputs":[],"outputs":[{"name":"","type":"uint256","internalType":"uint256"}],"stateMutability":"view"},{"type":"function","name":"MAINNET_PAYLOAD","inputs":[],"outputs":[{"name":"","type":"address","internalType":"address"}],"stateMutability":"view"},{"type":"function","name":"POLYGON_PAYLOAD","inputs":[],"outputs":[{"name":"","type":"address","internalType":"address"}],"stateMutability":"view"},{"type":"function","name":"execute","inputs":[],"outputs":[],"stateMutability":"nonpayable"}],"bytecode":{"object":"0x60e060405234801561001057600080fd5b506040516104e43803806104e483398101604081905261002f91610066565b6001600160a01b03928316608052911660a05260c0526100a2565b80516001600160a01b038116811461006157600080fd5b919050565b60008060006060848603121561007b57600080fd5b6100848461004a565b92506100926020850161004a565b9150604084015190509250925092565b60805160a05160c0516103fa6100ea60003960008181605601528181610170015261027901526000818160d90152610205015260008181609a015261011201526103fa6000f3fe608060405234801561001057600080fd5b506004361061004c5760003560e01c80633219959a14610051578063614619541461008b57806393faf03314610095578063a3973608146100d4575b600080fd5b6100787f000000000000000000000000000000000000000000000000000000000000000081565b6040519081526020015b60405180910390f35b6100936100fb565b005b6100bc7f000000000000000000000000000000000000000000000000000000000000000081565b6040516001600160a01b039091168152602001610082565b6100bc7f000000000000000000000000000000000000000000000000000000000000000081565b604051638d8fe2e360e01b81526001600160a01b037f000000000000000000000000000000000000000000000000000000000000000016600482015260006024820181905260c06044830152600960c48301526865786563757465282960b81b60e483015261010060648301526101048201527f00000000000000000000000000000000000000000000000000000000000000006084820152600160a482015273ee56e2b3d491590b5b31738cc34d5232f378a8d590638d8fe2e390610124016020604051808303816000875af11580156101da573d6000803e3d6000fd5b505050506040513d601f19601f820116820180604052508101906101fe9190610300565b50604080517f00000000000000000000000000000000000000000000000000000000000000006001600160a01b0316602082015273ee56e2b3d491590b5b31738cc34d5232f378a8d591638d8fe2e39173158a6bc04f0828318821bae797f50b0a1299d45b91600091016040516020818303038152906040527f000000000000000000000000000000000000000000000000000000000000000060016040518663ffffffff1660e01b81526004016102ba959493929190610319565b6020604051808303816000875af11580156102d9573d6000803e3d6000fd5b505050506040513d601f19601f820116820180604052508101906102fd9190610300565b50565b60006020828403121561031257600080fd5b5051919050565b60018060a01b038616815260006020868184015260c06040840152601060c08401526f6578656375746528616464726573732960801b60e084015261010080606085015286518082860152600091505b8082101561038857878201830151858301610120015290820190610369565b6101209250600083828701015282601f19601f83011686010193505050508360808301526103ba60a083018415159052565b969550505050505056fea264697066735822122004c214e3bcce6432a368f8e588c6c5de5d2b3661ee2e9e165f9416f58e73313a64736f6c63430008130033","linkReferences":{}},"methodIdentifiers":{"EXECUTION_TIME()":"3219959a","MAINNET_PAYLOAD()":"93faf033","POLYGON_PAYLOAD()":"a3973608","execute()":"61461954"},"id":491}