{"abi":[{"type":"function","name":"AAVE_STREAM_AMOUNT","inputs":[],"outputs":[{"name":"","type":"uint256","internalType":"uint256"}],"stateMutability":"view"},{"type":"function","name":"ACTUAL_AMOUNT_AAVE","inputs":[],"outputs":[{"name":"","type":"uint256","internalType":"uint256"}],"stateMutability":"view"},{"type":"function","name":"CERTORA_TREASURY","inputs":[],"outputs":[{"name":"","type":"address","internalType":"address"}],"stateMutability":"view"},{"type":"function","name":"STREAM_DURATION","inputs":[],"outputs":[{"name":"","type":"uint256","internalType":"uint256"}],"stateMutability":"view"},{"type":"function","name":"execute","inputs":[],"outputs":[],"stateMutability":"nonpayable"}],"bytecode":{"object":"0x608060405234801561001057600080fd5b506102cc806100206000396000f3fe608060405234801561001057600080fd5b50600436106100575760003560e01c80634a8e6b2b1461005c5780634f1f7ba01461007a578063571096bd146100ad57806361461954146100b5578063895dca41146100bf575b600080fd5b610067630163f50081565b6040519081526020015b60405180910390f35b610095730f11640bf66e2d9352d9c41434a5c6e597c5e4c881565b6040516001600160a01b039091168152602001610071565b6100676100d0565b6100bd6100f6565b005b610067690119e47f21381f40000081565b630163f5006100e981690119e47f21381f40000061022b565b6100f3919061024d565b81565b733d569673daa0575c936c7c67c4e6aeda69cc630c63fd59e1347325f2226b597e8f9514b3f68f00f494cf4f286491730f11640bf66e2d9352d9c41434a5c6e597c5e4c8630163f50061015381690119e47f21381f40000061022b565b61015d919061024d565b737fc66500c84a76ad7e9c93437bfc5ac33e2ddae942610181630163f5008261026a565b6040516001600160e01b031960e089901b1681526001600160a01b0396871660048201529486166024860152604485019390935293166064830152608482019290925260a481019190915260c4016020604051808303816000875af11580156101ee573d6000803e3d6000fd5b505050506040513d601f19601f82011682018060405250810190610212919061027d565b50565b634e487b7160e01b600052601160045260246000fd5b60008261024857634e487b7160e01b600052601260045260246000fd5b500490565b808202811582820484141761026457610264610215565b92915050565b8082018082111561026457610264610215565b60006020828403121561028f57600080fd5b505191905056fea26469706673582212209bd937fe7cecb7a86950af21857dc779d68119fec3175142adc43b0eb6e910f764736f6c63430008130033","linkReferences":{}},"methodIdentifiers":{"AAVE_STREAM_AMOUNT()":"895dca41","ACTUAL_AMOUNT_AAVE()":"571096bd","CERTORA_TREASURY()":"4f1f7ba0","STREAM_DURATION()":"4a8e6b2b","execute()":"61461954"},"id":364}