{"abi":[{"type":"function","name":"CONFIG_ENGINE","inputs":[],"outputs":[{"name":"","type":"address","internalType":"contract IAaveV3ConfigEngine"}],"stateMutability":"view"},{"type":"function","name":"USDCN","inputs":[],"outputs":[{"name":"","type":"address","internalType":"address"}],"stateMutability":"view"},{"type":"function","name":"USDCN_SEED_AMOUNT","inputs":[],"outputs":[{"name":"","type":"uint256","internalType":"uint256"}],"stateMutability":"view"},{"type":"function","name":"assetsEModeUpdates","inputs":[],"outputs":[{"name":"","type":"tuple[]","internalType":"struct IAaveV3ConfigEngine.AssetEModeUpdate[]","components":[{"name":"asset","type":"address","internalType":"address"},{"name":"eModeCategory","type":"uint8","internalType":"uint8"}]}],"stateMutability":"view"},{"type":"function","name":"borrowsUpdates","inputs":[],"outputs":[{"name":"","type":"tuple[]","internalType":"struct IAaveV3ConfigEngine.BorrowUpdate[]","components":[{"name":"asset","type":"address","internalType":"address"},{"name":"enabledToBorrow","type":"uint256","internalType":"uint256"},{"name":"flashloanable","type":"uint256","internalType":"uint256"},{"name":"stableRateModeEnabled","type":"uint256","internalType":"uint256"},{"name":"borrowableInIsolation","type":"uint256","internalType":"uint256"},{"name":"withSiloedBorrowing","type":"uint256","internalType":"uint256"},{"name":"reserveFactor","type":"uint256","internalType":"uint256"}]}],"stateMutability":"pure"},{"type":"function","name":"capsUpdates","inputs":[],"outputs":[{"name":"","type":"tuple[]","internalType":"struct IAaveV3ConfigEngine.CapsUpdate[]","components":[{"name":"asset","type":"address","internalType":"address"},{"name":"supplyCap","type":"uint256","internalType":"uint256"},{"name":"borrowCap","type":"uint256","internalType":"uint256"}]}],"stateMutability":"pure"},{"type":"function","name":"collateralsUpdates","inputs":[],"outputs":[{"name":"","type":"tuple[]","internalType":"struct IAaveV3ConfigEngine.CollateralUpdate[]","components":[{"name":"asset","type":"address","internalType":"address"},{"name":"ltv","type":"uint256","internalType":"uint256"},{"name":"liqThreshold","type":"uint256","internalType":"uint256"},{"name":"liqBonus","type":"uint256","internalType":"uint256"},{"name":"debtCeiling","type":"uint256","internalType":"uint256"},{"name":"liqProtocolFee","type":"uint256","internalType":"uint256"}]}],"stateMutability":"view"},{"type":"function","name":"eModeCategoriesUpdates","inputs":[],"outputs":[{"name":"","type":"tuple[]","internalType":"struct IAaveV3ConfigEngine.EModeCategoryUpdate[]","components":[{"name":"eModeCategory","type":"uint8","internalType":"uint8"},{"name":"ltv","type":"uint256","internalType":"uint256"},{"name":"liqThreshold","type":"uint256","internalType":"uint256"},{"name":"liqBonus","type":"uint256","internalType":"uint256"},{"name":"priceSource","type":"address","internalType":"address"},{"name":"label","type":"string","internalType":"string"}]}],"stateMutability":"view"},{"type":"function","name":"execute","inputs":[],"outputs":[],"stateMutability":"nonpayable"},{"type":"function","name":"getPoolContext","inputs":[],"outputs":[{"name":"","type":"tuple","internalType":"struct IAaveV3ConfigEngine.PoolContext","components":[{"name":"networkName","type":"string","internalType":"string"},{"name":"networkAbbreviation","type":"string","internalType":"string"}]}],"stateMutability":"pure"},{"type":"function","name":"newListings","inputs":[],"outputs":[{"name":"","type":"tuple[]","internalType":"struct IAaveV3ConfigEngine.Listing[]","components":[{"name":"asset","type":"address","internalType":"address"},{"name":"assetSymbol","type":"string","internalType":"string"},{"name":"priceFeed","type":"address","internalType":"address"},{"name":"rateStrategyParams","type":"tuple","internalType":"struct IV3RateStrategyFactory.RateStrategyParams","components":[{"name":"optimalUsageRatio","type":"uint256","internalType":"uint256"},{"name":"baseVariableBorrowRate","type":"uint256","internalType":"uint256"},{"name":"variableRateSlope1","type":"uint256","internalType":"uint256"},{"name":"variableRateSlope2","type":"uint256","internalType":"uint256"},{"name":"stableRateSlope1","type":"uint256","internalType":"uint256"},{"name":"stableRateSlope2","type":"uint256","internalType":"uint256"},{"name":"baseStableRateOffset","type":"uint256","internalType":"uint256"},{"name":"stableRateExcessOffset","type":"uint256","internalType":"uint256"},{"name":"optimalStableToTotalDebtRatio","type":"uint256","internalType":"uint256"}]},{"name":"enabledToBorrow","type":"uint256","internalType":"uint256"},{"name":"stableRateModeEnabled","type":"uint256","internalType":"uint256"},{"name":"borrowableInIsolation","type":"uint256","internalType":"uint256"},{"name":"withSiloedBorrowing","type":"uint256","internalType":"uint256"},{"name":"flashloanable","type":"uint256","internalType":"uint256"},{"name":"ltv","type":"uint256","internalType":"uint256"},{"name":"liqThreshold","type":"uint256","internalType":"uint256"},{"name":"liqBonus","type":"uint256","internalType":"uint256"},{"name":"reserveFactor","type":"uint256","internalType":"uint256"},{"name":"supplyCap","type":"uint256","internalType":"uint256"},{"name":"borrowCap","type":"uint256","internalType":"uint256"},{"name":"debtCeiling","type":"uint256","internalType":"uint256"},{"name":"liqProtocolFee","type":"uint256","internalType":"uint256"},{"name":"eModeCategory","type":"uint8","internalType":"uint8"}]}],"stateMutability":"pure"},{"type":"function","name":"newListingsCustom","inputs":[],"outputs":[{"name":"","type":"tuple[]","internalType":"struct IAaveV3ConfigEngine.ListingWithCustomImpl[]","components":[{"name":"base","type":"tuple","internalType":"struct IAaveV3ConfigEngine.Listing","components":[{"name":"asset","type":"address","internalType":"address"},{"name":"assetSymbol","type":"string","internalType":"string"},{"name":"priceFeed","type":"address","internalType":"address"},{"name":"rateStrategyParams","type":"tuple","internalType":"struct IV3RateStrategyFactory.RateStrategyParams","components":[{"name":"optimalUsageRatio","type":"uint256","internalType":"uint256"},{"name":"baseVariableBorrowRate","type":"uint256","internalType":"uint256"},{"name":"variableRateSlope1","type":"uint256","internalType":"uint256"},{"name":"variableRateSlope2","type":"uint256","internalType":"uint256"},{"name":"stableRateSlope1","type":"uint256","internalType":"uint256"},{"name":"stableRateSlope2","type":"uint256","internalType":"uint256"},{"name":"baseStableRateOffset","type":"uint256","internalType":"uint256"},{"name":"stableRateExcessOffset","type":"uint256","internalType":"uint256"},{"name":"optimalStableToTotalDebtRatio","type":"uint256","internalType":"uint256"}]},{"name":"enabledToBorrow","type":"uint256","internalType":"uint256"},{"name":"stableRateModeEnabled","type":"uint256","internalType":"uint256"},{"name":"borrowableInIsolation","type":"uint256","internalType":"uint256"},{"name":"withSiloedBorrowing","type":"uint256","internalType":"uint256"},{"name":"flashloanable","type":"uint256","internalType":"uint256"},{"name":"ltv","type":"uint256","internalType":"uint256"},{"name":"liqThreshold","type":"uint256","internalType":"uint256"},{"name":"liqBonus","type":"uint256","internalType":"uint256"},{"name":"reserveFactor","type":"uint256","internalType":"uint256"},{"name":"supplyCap","type":"uint256","internalType":"uint256"},{"name":"borrowCap","type":"uint256","internalType":"uint256"},{"name":"debtCeiling","type":"uint256","internalType":"uint256"},{"name":"liqProtocolFee","type":"uint256","internalType":"uint256"},{"name":"eModeCategory","type":"uint8","internalType":"uint8"}]},{"name":"implementations","type":"tuple","internalType":"struct IAaveV3ConfigEngine.TokenImplementations","components":[{"name":"aToken","type":"address","internalType":"address"},{"name":"vToken","type":"address","internalType":"address"},{"name":"sToken","type":"address","internalType":"address"}]}]}],"stateMutability":"view"},{"type":"function","name":"priceFeedsUpdates","inputs":[],"outputs":[{"name":"","type":"tuple[]","internalType":"struct IAaveV3ConfigEngine.PriceFeedUpdate[]","components":[{"name":"asset","type":"address","internalType":"address"},{"name":"priceFeed","type":"address","internalType":"address"}]}],"stateMutability":"view"},{"type":"function","name":"rateStrategiesUpdates","inputs":[],"outputs":[{"name":"","type":"tuple[]","internalType":"struct IAaveV3ConfigEngine.RateStrategyUpdate[]","components":[{"name":"asset","type":"address","internalType":"address"},{"name":"params","type":"tuple","internalType":"struct IV3RateStrategyFactory.RateStrategyParams","components":[{"name":"optimalUsageRatio","type":"uint256","internalType":"uint256"},{"name":"baseVariableBorrowRate","type":"uint256","internalType":"uint256"},{"name":"variableRateSlope1","type":"uint256","internalType":"uint256"},{"name":"variableRateSlope2","type":"uint256","internalType":"uint256"},{"name":"stableRateSlope1","type":"uint256","internalType":"uint256"},{"name":"stableRateSlope2","type":"uint256","internalType":"uint256"},{"name":"baseStableRateOffset","type":"uint256","internalType":"uint256"},{"name":"stableRateExcessOffset","type":"uint256","internalType":"uint256"},{"name":"optimalStableToTotalDebtRatio","type":"uint256","internalType":"uint256"}]}]}],"stateMutability":"view"},{"type":"error","name":"SafeERC20FailedOperation","inputs":[{"name":"token","type":"address","internalType":"address"}]}],"bytecode":{"object":"0x60a060405234801561001057600080fd5b5073893411580e590d62ddbca8a703d61cc4a8c7b2b96080526080516115af61004b6000396000818161015401526103d201526115af6000f3fe608060405234801561001057600080fd5b50600436106100ea5760003560e01c8063b1af0d0d1161008c578063d0c38c2711610066578063d0c38c27146101d7578063e6f10c14146101e6578063fabe3463146101fe578063fbb256f61461020d57600080fd5b8063b1af0d0d146101a4578063c0a25580146101b3578063ca8e89cc146101c857600080fd5b80635e5eef7a116100c85780635e5eef7a1461014f5780636146195414610176578063922870951461018057806395a93cb11461018f57600080fd5b80631850edd8146100ef5780632b1794341461010d578063526ff02d1461011c575b600080fd5b6100f7610222565b6040516101049190610e41565b60405180910390f35b60606040516101049190610ecc565b610137730b2c639c533813f4aa9d7837caf62653d097ff8581565b6040516001600160a01b039091168152602001610104565b6101377f000000000000000000000000000000000000000000000000000000000000000081565b61017e610344565b005b60606040516101049190610f40565b610197610547565b6040516101049190610f8e565b60606040516101049190610fe3565b6101bb6105f7565b6040516101049190611241565b60606040516101049190611254565b606060405161010491906112ff565b6101f0620f424081565b604051908152602001610104565b606060405161010491906113e4565b6102156107c2565b6040516101049190611425565b60408051600180825281830190925260609160009190816020015b6102866040518060e0016040528060006001600160a01b031681526020016000815260200160008152602001600081526020016000815260200160008152602001600081525090565b81526020019060019003908161023d5750506040805160e08101909152737f5c764cbc14f9669b88837ca1490cca17c316078152909150602081016102ce602a60001961144e565b81526020016102e0602a60001961144e565b81526020016102f2602a60001961144e565b8152602001610304602a60001961144e565b8152602001610316602a60001961144e565b81526020016107d08152508160008151811061033457610334611461565b6020908102919091010152919050565b606060006103506105f7565b9050606080600061035f610222565b905060608080600061036f610547565b905088516000146103fa576103f863a192ac2460e01b8a6040516024016103969190611254565b60408051601f198184030181529190526020810180516001600160e01b03166001600160e01b0319909316929092179091526001600160a01b037f00000000000000000000000000000000000000000000000000000000000000001690610821565b505b87511561042857610426633cb6502d60e01b6104146107c2565b8a604051602401610396929190611477565b505b865115610456576104546314d8093760e21b6104426107c2565b8960405160240161039692919061149c565b505b84511561047b5761047963bb06653560e01b866040516024016103969190610e41565b505b8551156104a05761049e6309d8332860e01b876040516024016103969190610ecc565b505b8351156104c5576104c36324f4c44560e01b8560405160240161039691906112ff565b505b8251156104ea576104e863927c400360e01b846040516024016103969190610fe3565b505b81511561050f5761050d632a90e62360e01b836040516024016103969190610f40565b505b805115610534576105326355caa16360e01b826040516024016103969190610f8e565b505b61053c61084f565b505050505050505050565b60408051600180825281830190925260609160009190816020015b61058f604051806060016040528060006001600160a01b0316815260200160008152602001600081525090565b8152602001906001900390816105625790505090506040518060600160405280737f5c764cbc14f9669b88837ca1490cca17c316076001600160a01b0316815260200163017d784081526020016301312d008152508160008151811061033457610334611461565b60408051600180825281830190925260609160009190816020015b61061a610d54565b815260200190600190039081610612579050509050604051806102400160405280730b2c639c533813f4aa9d7837caf62653d097ff856001600160a01b03168152602001604051806040016040528060058152602001642aa9a221b760d91b81525081526020017316a9fa2fda030272ce99b29cf780dfa30361e0f36001600160a01b031681526020016040518061012001604052806106bb612328610929565b81526020016106ca6000610929565b81526020016106da61015e610929565b81526020016106ea611770610929565b81526020016106fa61015e610929565b815260200161070a611770610929565b81526020016107196064610929565b8152602001610729610320610929565b81526020016107396107d0610929565b81525081526020016001815260200160008152602001600181526020016000815260200160018152602001611f40815260200161213481526020016101f481526020016103e8815260200163017d784081526020016301312d008152602001600081526020016103e88152602001600160ff168152508160008151811061033457610334611461565b604080518082019091526060808252602082015250604080516080810182526008818301908152674f7074696d69736d60c01b606083015281528151808301909252600382526213dc1d60ea1b60208381019190915281019190915290565b606061084683836040518060600160405280602781526020016115536027913961094e565b90505b92915050565b610885730b2c639c533813f4aa9d7837caf62653d097ff8573794a61358d6845594f94dc1db02a252b5b4814ad620f42406109c6565b60405163617ba03760e01b8152730b2c639c533813f4aa9d7837caf62653d097ff856004820152620f4240602482015273b2289e329d2f85f1ed31adbb30ea345278f21bcf60448201526000606482015273794a61358d6845594f94dc1db02a252b5b4814ad9063617ba03790608401600060405180830381600087803b15801561090f57600080fd5b505af1158015610923573d6000803e3d6000fd5b50505050565b60006127106109446b033b2e3c9fd0803ce8000000846114c1565b61084991906114d8565b6060600080856001600160a01b03168560405161096b91906114fa565b600060405180830381855af49150503d80600081146109a6576040519150601f19603f3d011682016040523d82523d6000602084013e6109ab565b606091505b50915091506109bc86838387610a7a565b9695505050505050565b604080516001600160a01b038416602482015260448082018490528251808303909101815260649091019091526020810180516001600160e01b031663095ea7b360e01b179052610a178482610b00565b61092357604080516001600160a01b038516602482015260006044808301919091528251808303909101815260649091019091526020810180516001600160e01b031663095ea7b360e01b179052610a70908590610ba8565b6109238482610ba8565b60608315610aee578251600003610ae7576001600160a01b0385163b610ae75760405162461bcd60e51b815260206004820152601d60248201527f416464726573733a2063616c6c20746f206e6f6e2d636f6e747261637400000060448201526064015b60405180910390fd5b5081610af8565b610af88383610c10565b949350505050565b6000806000846001600160a01b031684604051610b1d91906114fa565b6000604051808303816000865af19150503d8060008114610b5a576040519150601f19603f3d011682016040523d82523d6000602084013e610b5f565b606091505b5091509150818015610b89575080511580610b89575080806020019051810190610b899190611516565b8015610b9f57506000856001600160a01b03163b115b95945050505050565b6000610bbd6001600160a01b03841683610c3a565b90508051600014158015610be2575080806020019051810190610be09190611516565b155b15610c0b57604051635274afe760e01b81526001600160a01b0384166004820152602401610ade565b505050565b815115610c205781518083602001fd5b8060405162461bcd60e51b8152600401610ade919061153f565b6060610846838360006040518060400160405280601e81526020017f416464726573733a206c6f772d6c6576656c2063616c6c206661696c65640000815250606082471015610cda5760405162461bcd60e51b815260206004820152602660248201527f416464726573733a20696e73756666696369656e742062616c616e636520666f6044820152651c8818d85b1b60d21b6064820152608401610ade565b600080866001600160a01b03168587604051610cf691906114fa565b60006040518083038185875af1925050503d8060008114610d33576040519150601f19603f3d011682016040523d82523d6000602084013e610d38565b606091505b5091509150610d4987838387610a7a565b979650505050505050565b60405180610240016040528060006001600160a01b031681526020016060815260200160006001600160a01b03168152602001610dd66040518061012001604052806000815260200160008152602001600081526020016000815260200160008152602001600081526020016000815260200160008152602001600081525090565b815260200160008152602001600081526020016000815260200160008152602001600081526020016000815260200160008152602001600081526020016000815260200160008152602001600081526020016000815260200160008152602001600060ff1681525090565b602080825282518282018190526000919060409081850190868401855b82811015610ebf57815180516001600160a01b0316855286810151878601528581015186860152606080820151908601526080808201519086015260a0808201519086015260c0908101519085015260e09093019290850190600101610e5e565b5091979650505050505050565b602080825282518282018190526000919060409081850190868401855b82811015610ebf57815180516001600160a01b0316855286810151878601528581015186860152606080820151908601526080808201519086015260a0908101519085015260c09093019290850190600101610ee9565b602080825282518282018190526000919060409081850190868401855b82811015610ebf57815180516001600160a01b0316855286015160ff16868501529284019290850190600101610f5d565b602080825282518282018190526000919060409081850190868401855b82811015610ebf57815180516001600160a01b0316855286810151878601528501518585015260609093019290850190600101610fab565b602080825282518282018190526000919060409081850190868401855b82811015610ebf57815180516001600160a01b0390811686529087015116868501529284019290850190600101611000565b60005b8381101561104d578181015183820152602001611035565b50506000910152565b6000815180845261106e816020860160208601611032565b601f01601f19169290920160200192915050565b805182526020810151602083015260408101516040830152606081015160608301526080810151608083015260a081015160a083015260c081015160c083015260e081015160e08301526101008082015181840152505050565b80516001600160a01b031682526000610340602083015181602086015261110582860182611056565b915050604083015161112260408601826001600160a01b03169052565b5060608301516111356060860182611082565b5060808301516101808581019190915260a08401516101a08087019190915260c08501516101c08088019190915260e08601516101e080890191909152610100870151610200808a0191909152610120880151610220808b01919091526101408901516102408b01526101608901516102608b0152948801516102808a0152928701516102a0890152908601516102c08801528501516102e087015284015161030086015283015160ff8116610320860152509392505050565b6000815180845260208085019450848260051b860182860160005b858110156112345783830389526112228383516110dc565b9885019892509084019060010161120a565b5090979650505050505050565b60208152600061084660208301846111ef565b60006020808301818452808551808352604092508286019150828160051b87010184880160005b838110156112f157888303603f190185528151805160ff16845287810151888501528681015187850152606080820151908501526080808201516001600160a01b03169085015260a09081015160c0918501829052906112dd81860183611056565b96890196945050509086019060010161127b565b509098975050505050505050565b6020808252825182820181905260009190848201906040850190845b8181101561135657835180516001600160a01b0316845285015161134186850182611082565b5092840192610140929092019160010161131b565b50909695505050505050565b6000815180845260208085019450848260051b860182860160005b8581101561123457838303895281516080815181865261139f828701826110dc565b9288015180516001600160a01b03908116888b0152818a015181166040808a01919091529091015116606090960195909552509885019892509084019060010161137d565b6020815260006108466020830184611362565b600081516040845261140c6040850182611056565b905060208301518482036020860152610b9f8282611056565b60208152600061084660208301846113f7565b634e487b7160e01b600052601160045260246000fd5b8181038181111561084957610849611438565b634e487b7160e01b600052603260045260246000fd5b60408152600061148a60408301856113f7565b8281036020840152610b9f81856111ef565b6040815260006114af60408301856113f7565b8281036020840152610b9f8185611362565b808202811582820484141761084957610849611438565b6000826114f557634e487b7160e01b600052601260045260246000fd5b500490565b6000825161150c818460208701611032565b9190910192915050565b60006020828403121561152857600080fd5b8151801515811461153857600080fd5b9392505050565b602081526000610846602083018461105656fe416464726573733a206c6f772d6c6576656c2064656c65676174652063616c6c206661696c6564a2646970667358221220dc57bf5de98511a63938789c54c78c053daa75d568f17176ee115b0eb398f30064736f6c63430008130033","linkReferences":{}},"methodIdentifiers":{"CONFIG_ENGINE()":"5e5eef7a","USDCN()":"526ff02d","USDCN_SEED_AMOUNT()":"e6f10c14","assetsEModeUpdates()":"92287095","borrowsUpdates()":"1850edd8","capsUpdates()":"95a93cb1","collateralsUpdates()":"2b179434","eModeCategoriesUpdates()":"ca8e89cc","execute()":"61461954","getPoolContext()":"fbb256f6","newListings()":"c0a25580","newListingsCustom()":"fabe3463","priceFeedsUpdates()":"b1af0d0d","rateStrategiesUpdates()":"d0c38c27"},"id":286}