{"abi":[{"type":"function","name":"NEW_PRICE_ORACLE_SENTINEL","inputs":[],"outputs":[{"name":"","type":"address","internalType":"address"}],"stateMutability":"view"},{"type":"function","name":"execute","inputs":[],"outputs":[],"stateMutability":"nonpayable"}],"bytecode":{"object":"0x608060405234801561001057600080fd5b50610123806100206000396000f3fe6080604052348015600f57600080fd5b506004361060325760003560e01c806361461954146037578063d184f40714603f575b600080fd5b603d6075565b005b605973e229d5de4bd5beeaf12d427b5b57bfe66abd2c3b81565b6040516001600160a01b03909116815260200160405180910390f35b604051631d25133b60e21b815273e229d5de4bd5beeaf12d427b5b57bfe66abd2c3b600482015273a97684ead0e402dc232d5a977953df7ecbab3cdb906374944cec90602401600060405180830381600087803b15801560d457600080fd5b505af115801560e7573d6000803e3d6000fd5b5050505056fea2646970667358221220715d7ede3513cb1d8b7e77485e327da95e08cd509efe1d3d6482322d3fdee4d364736f6c63430008130033","linkReferences":{}},"methodIdentifiers":{"NEW_PRICE_ORACLE_SENTINEL()":"d184f407","execute()":"61461954"},"id":307}