{"abi":[{"type":"function","name":"CONFIG_ENGINE","inputs":[],"outputs":[{"name":"","type":"address","internalType":"contract IAaveV3ConfigEngine"}],"stateMutability":"view"},{"type":"function","name":"USDC","inputs":[],"outputs":[{"name":"","type":"address","internalType":"address"}],"stateMutability":"view"},{"type":"function","name":"USDC_SEED_AMOUNT","inputs":[],"outputs":[{"name":"","type":"uint256","internalType":"uint256"}],"stateMutability":"view"},{"type":"function","name":"assetsEModeUpdates","inputs":[],"outputs":[{"name":"","type":"tuple[]","internalType":"struct IAaveV3ConfigEngine.AssetEModeUpdate[]","components":[{"name":"asset","type":"address","internalType":"address"},{"name":"eModeCategory","type":"uint8","internalType":"uint8"}]}],"stateMutability":"view"},{"type":"function","name":"borrowsUpdates","inputs":[],"outputs":[{"name":"","type":"tuple[]","internalType":"struct IAaveV3ConfigEngine.BorrowUpdate[]","components":[{"name":"asset","type":"address","internalType":"address"},{"name":"enabledToBorrow","type":"uint256","internalType":"uint256"},{"name":"flashloanable","type":"uint256","internalType":"uint256"},{"name":"stableRateModeEnabled","type":"uint256","internalType":"uint256"},{"name":"borrowableInIsolation","type":"uint256","internalType":"uint256"},{"name":"withSiloedBorrowing","type":"uint256","internalType":"uint256"},{"name":"reserveFactor","type":"uint256","internalType":"uint256"}]}],"stateMutability":"pure"},{"type":"function","name":"capsUpdates","inputs":[],"outputs":[{"name":"","type":"tuple[]","internalType":"struct IAaveV3ConfigEngine.CapsUpdate[]","components":[{"name":"asset","type":"address","internalType":"address"},{"name":"supplyCap","type":"uint256","internalType":"uint256"},{"name":"borrowCap","type":"uint256","internalType":"uint256"}]}],"stateMutability":"pure"},{"type":"function","name":"collateralsUpdates","inputs":[],"outputs":[{"name":"","type":"tuple[]","internalType":"struct IAaveV3ConfigEngine.CollateralUpdate[]","components":[{"name":"asset","type":"address","internalType":"address"},{"name":"ltv","type":"uint256","internalType":"uint256"},{"name":"liqThreshold","type":"uint256","internalType":"uint256"},{"name":"liqBonus","type":"uint256","internalType":"uint256"},{"name":"debtCeiling","type":"uint256","internalType":"uint256"},{"name":"liqProtocolFee","type":"uint256","internalType":"uint256"}]}],"stateMutability":"view"},{"type":"function","name":"eModeCategoriesUpdates","inputs":[],"outputs":[{"name":"","type":"tuple[]","internalType":"struct IAaveV3ConfigEngine.EModeCategoryUpdate[]","components":[{"name":"eModeCategory","type":"uint8","internalType":"uint8"},{"name":"ltv","type":"uint256","internalType":"uint256"},{"name":"liqThreshold","type":"uint256","internalType":"uint256"},{"name":"liqBonus","type":"uint256","internalType":"uint256"},{"name":"priceSource","type":"address","internalType":"address"},{"name":"label","type":"string","internalType":"string"}]}],"stateMutability":"view"},{"type":"function","name":"execute","inputs":[],"outputs":[],"stateMutability":"nonpayable"},{"type":"function","name":"getPoolContext","inputs":[],"outputs":[{"name":"","type":"tuple","internalType":"struct IAaveV3ConfigEngine.PoolContext","components":[{"name":"networkName","type":"string","internalType":"string"},{"name":"networkAbbreviation","type":"string","internalType":"string"}]}],"stateMutability":"pure"},{"type":"function","name":"newListings","inputs":[],"outputs":[{"name":"","type":"tuple[]","internalType":"struct IAaveV3ConfigEngine.Listing[]","components":[{"name":"asset","type":"address","internalType":"address"},{"name":"assetSymbol","type":"string","internalType":"string"},{"name":"priceFeed","type":"address","internalType":"address"},{"name":"rateStrategyParams","type":"tuple","internalType":"struct IV3RateStrategyFactory.RateStrategyParams","components":[{"name":"optimalUsageRatio","type":"uint256","internalType":"uint256"},{"name":"baseVariableBorrowRate","type":"uint256","internalType":"uint256"},{"name":"variableRateSlope1","type":"uint256","internalType":"uint256"},{"name":"variableRateSlope2","type":"uint256","internalType":"uint256"},{"name":"stableRateSlope1","type":"uint256","internalType":"uint256"},{"name":"stableRateSlope2","type":"uint256","internalType":"uint256"},{"name":"baseStableRateOffset","type":"uint256","internalType":"uint256"},{"name":"stableRateExcessOffset","type":"uint256","internalType":"uint256"},{"name":"optimalStableToTotalDebtRatio","type":"uint256","internalType":"uint256"}]},{"name":"enabledToBorrow","type":"uint256","internalType":"uint256"},{"name":"stableRateModeEnabled","type":"uint256","internalType":"uint256"},{"name":"borrowableInIsolation","type":"uint256","internalType":"uint256"},{"name":"withSiloedBorrowing","type":"uint256","internalType":"uint256"},{"name":"flashloanable","type":"uint256","internalType":"uint256"},{"name":"ltv","type":"uint256","internalType":"uint256"},{"name":"liqThreshold","type":"uint256","internalType":"uint256"},{"name":"liqBonus","type":"uint256","internalType":"uint256"},{"name":"reserveFactor","type":"uint256","internalType":"uint256"},{"name":"supplyCap","type":"uint256","internalType":"uint256"},{"name":"borrowCap","type":"uint256","internalType":"uint256"},{"name":"debtCeiling","type":"uint256","internalType":"uint256"},{"name":"liqProtocolFee","type":"uint256","internalType":"uint256"},{"name":"eModeCategory","type":"uint8","internalType":"uint8"}]}],"stateMutability":"pure"},{"type":"function","name":"newListingsCustom","inputs":[],"outputs":[{"name":"","type":"tuple[]","internalType":"struct IAaveV3ConfigEngine.ListingWithCustomImpl[]","components":[{"name":"base","type":"tuple","internalType":"struct IAaveV3ConfigEngine.Listing","components":[{"name":"asset","type":"address","internalType":"address"},{"name":"assetSymbol","type":"string","internalType":"string"},{"name":"priceFeed","type":"address","internalType":"address"},{"name":"rateStrategyParams","type":"tuple","internalType":"struct IV3RateStrategyFactory.RateStrategyParams","components":[{"name":"optimalUsageRatio","type":"uint256","internalType":"uint256"},{"name":"baseVariableBorrowRate","type":"uint256","internalType":"uint256"},{"name":"variableRateSlope1","type":"uint256","internalType":"uint256"},{"name":"variableRateSlope2","type":"uint256","internalType":"uint256"},{"name":"stableRateSlope1","type":"uint256","internalType":"uint256"},{"name":"stableRateSlope2","type":"uint256","internalType":"uint256"},{"name":"baseStableRateOffset","type":"uint256","internalType":"uint256"},{"name":"stableRateExcessOffset","type":"uint256","internalType":"uint256"},{"name":"optimalStableToTotalDebtRatio","type":"uint256","internalType":"uint256"}]},{"name":"enabledToBorrow","type":"uint256","internalType":"uint256"},{"name":"stableRateModeEnabled","type":"uint256","internalType":"uint256"},{"name":"borrowableInIsolation","type":"uint256","internalType":"uint256"},{"name":"withSiloedBorrowing","type":"uint256","internalType":"uint256"},{"name":"flashloanable","type":"uint256","internalType":"uint256"},{"name":"ltv","type":"uint256","internalType":"uint256"},{"name":"liqThreshold","type":"uint256","internalType":"uint256"},{"name":"liqBonus","type":"uint256","internalType":"uint256"},{"name":"reserveFactor","type":"uint256","internalType":"uint256"},{"name":"supplyCap","type":"uint256","internalType":"uint256"},{"name":"borrowCap","type":"uint256","internalType":"uint256"},{"name":"debtCeiling","type":"uint256","internalType":"uint256"},{"name":"liqProtocolFee","type":"uint256","internalType":"uint256"},{"name":"eModeCategory","type":"uint8","internalType":"uint8"}]},{"name":"implementations","type":"tuple","internalType":"struct IAaveV3ConfigEngine.TokenImplementations","components":[{"name":"aToken","type":"address","internalType":"address"},{"name":"vToken","type":"address","internalType":"address"},{"name":"sToken","type":"address","internalType":"address"}]}]}],"stateMutability":"view"},{"type":"function","name":"priceFeedsUpdates","inputs":[],"outputs":[{"name":"","type":"tuple[]","internalType":"struct IAaveV3ConfigEngine.PriceFeedUpdate[]","components":[{"name":"asset","type":"address","internalType":"address"},{"name":"priceFeed","type":"address","internalType":"address"}]}],"stateMutability":"view"},{"type":"function","name":"rateStrategiesUpdates","inputs":[],"outputs":[{"name":"","type":"tuple[]","internalType":"struct IAaveV3ConfigEngine.RateStrategyUpdate[]","components":[{"name":"asset","type":"address","internalType":"address"},{"name":"params","type":"tuple","internalType":"struct IV3RateStrategyFactory.RateStrategyParams","components":[{"name":"optimalUsageRatio","type":"uint256","internalType":"uint256"},{"name":"baseVariableBorrowRate","type":"uint256","internalType":"uint256"},{"name":"variableRateSlope1","type":"uint256","internalType":"uint256"},{"name":"variableRateSlope2","type":"uint256","internalType":"uint256"},{"name":"stableRateSlope1","type":"uint256","internalType":"uint256"},{"name":"stableRateSlope2","type":"uint256","internalType":"uint256"},{"name":"baseStableRateOffset","type":"uint256","internalType":"uint256"},{"name":"stableRateExcessOffset","type":"uint256","internalType":"uint256"},{"name":"optimalStableToTotalDebtRatio","type":"uint256","internalType":"uint256"}]}]}],"stateMutability":"pure"},{"type":"error","name":"SafeERC20FailedOperation","inputs":[{"name":"token","type":"address","internalType":"address"}]}],"bytecode":{"object":"0x60a060405234801561001057600080fd5b5073c7751400f809cdb0c167f87985083c558a0610f76080526080516116de61004b6000396000818161013501526103df01526116de6000f3fe608060405234801561001057600080fd5b50600436106100ea5760003560e01c806395a93cb11161008c578063ca8e89cc11610066578063ca8e89cc146101dc578063d0c38c27146101eb578063fabe346314610200578063fbb256f61461020f57600080fd5b806395a93cb1146101a3578063b1af0d0d146101b8578063c0a25580146101c757600080fd5b80635e5eef7a116100c85780635e5eef7a14610130578063614619541461016f57806389a3027114610179578063922870951461019457600080fd5b806302a08f93146100ef5780631850edd81461010c5780632b17943414610121575b600080fd5b6100f9620f424081565b6040519081526020015b60405180910390f35b610114610224565b6040516101039190610f77565b60606040516101039190611002565b6101577f000000000000000000000000000000000000000000000000000000000000000081565b6040516001600160a01b039091168152602001610103565b610177610346565b005b61015773833589fcd6edb6e08f4c7c32d4f71b54bda0291381565b60606040516101039190611076565b6101ab610554565b60405161010391906110c4565b60606040516101039190611119565b6101cf610602565b604051610103919061136d565b60606040516101039190611380565b6101f36107c8565b604051610103919061142b565b60606040516101039190611513565b6102176108e2565b6040516101039190611554565b60408051600180825281830190925260609160009190816020015b6102886040518060e0016040528060006001600160a01b031681526020016000815260200160008152602001600081526020016000815260200160008152602001600081525090565b81526020019060019003908161023f5750506040805160e0810190915273d9aaec86b65d86f6a7b5b1b0c42ffa531710b6ca8152909150602081016102d0602a60001961157d565b81526020016102e2602a60001961157d565b81526020016102f4602a60001961157d565b8152602001610306602a60001961157d565b8152602001610318602a60001961157d565b81526020016107d08152508160008151811061033657610336611590565b6020908102919091010152919050565b60606000610352610602565b90506060806000610361610224565b9050600061036d6107c8565b9050606080600061037c610554565b905088516000146104075761040563a192ac2460e01b8a6040516024016103a39190611380565b60408051601f198184030181529190526020810180516001600160e01b03166001600160e01b0319909316929092179091526001600160a01b037f0000000000000000000000000000000000000000000000000000000000000000169061093d565b505b87511561043557610433633cb6502d60e01b6104216108e2565b8a6040516024016103a39291906115a6565b505b865115610463576104616314d8093760e21b61044f6108e2565b896040516024016103a39291906115cb565b505b8451156104885761048663bb06653560e01b866040516024016103a39190610f77565b505b8551156104ad576104ab6309d8332860e01b876040516024016103a39190611002565b505b8351156104d2576104d06324f4c44560e01b856040516024016103a3919061142b565b505b8251156104f7576104f563927c400360e01b846040516024016103a39190611119565b505b81511561051c5761051a632a90e62360e01b836040516024016103a39190611076565b505b8051156105415761053f6355caa16360e01b826040516024016103a391906110c4565b505b61054961096b565b505050505050505050565b60408051600180825281830190925260609160009190816020015b61059c604051806060016040528060006001600160a01b0316815260200160008152602001600081525090565b81526020019060019003908161056f579050509050604051806060016040528073d9aaec86b65d86f6a7b5b1b0c42ffa531710b6ca6001600160a01b03168152602001621e84808152602001621e84808152508160008151811061033657610336611590565b60408051600180825281830190925260609160009190816020015b610625610e70565b81526020019060019003908161061d57905050905060405180610240016040528073833589fcd6edb6e08f4c7c32d4f71b54bda029136001600160a01b03168152602001604051806040016040528060048152602001635553444360e01b8152508152602001737e860098f58bbfc8648a4311b374b1d669a2bc6b6001600160a01b031681526020016040518061012001604052806106c5612328610a45565b81526020016106d46000610a45565b81526020016106e46101f4610a45565b81526020016106f4611770610a45565b81526020016107046101f4610a45565b8152602001610714617530610a45565b81526020016107236000610a45565b81526020016107326000610a45565b81526020016107416000610a45565b81525081526020016001815260200160008152602001600081526020016000815260200160018152602001611e148152602001611f4081526020016101f481526020016103e88152602001629896808152602001628954408152602001600081526020016103e88152602001600060ff168152508160008151811061033657610336611590565b60408051600180825281830190925260609160009190816020015b6107eb610f03565b8152602001906001900390816107e357505060408051808201825273d9aaec86b65d86f6a7b5b1b0c42ffa531710b6ca81528151610120810190925291925060208201908061083d602a60001961157d565b815260200161084f602a60001961157d565b815260200161085f6102bc610a45565b815260200161086f611f40610a45565b8152602001610881602a60001961157d565b8152602001610893602a60001961157d565b81526020016108a5602a60001961157d565b81526020016108b7602a60001961157d565b81526020016108c9602a60001961157d565b8152508152508160008151811061033657610336611590565b604080518082019091526060808252602082015250604080516080810182526004818301908152634261736560e01b606083015281528151808301909252600382526242617360e81b60208381019190915281019190915290565b6060610962838360405180606001604052806027815260200161168260279139610a6a565b90505b92915050565b6109a173833589fcd6edb6e08f4c7c32d4f71b54bda0291373a238dd80c259a72e81d7e4664a9801593f98d1c5620f4240610ae2565b60405163617ba03760e01b815273833589fcd6edb6e08f4c7c32d4f71b54bda029136004820152620f4240602482015273ba9424d650a4f5c80a0da641254d1acce2a3705760448201526000606482015273a238dd80c259a72e81d7e4664a9801593f98d1c59063617ba03790608401600060405180830381600087803b158015610a2b57600080fd5b505af1158015610a3f573d6000803e3d6000fd5b50505050565b6000612710610a606b033b2e3c9fd0803ce8000000846115f0565b6109659190611607565b6060600080856001600160a01b031685604051610a879190611629565b600060405180830381855af49150503d8060008114610ac2576040519150601f19603f3d011682016040523d82523d6000602084013e610ac7565b606091505b5091509150610ad886838387610b96565b9695505050505050565b604080516001600160a01b038416602482015260448082018490528251808303909101815260649091019091526020810180516001600160e01b031663095ea7b360e01b179052610b338482610c1c565b610a3f57604080516001600160a01b038516602482015260006044808301919091528251808303909101815260649091019091526020810180516001600160e01b031663095ea7b360e01b179052610b8c908590610cc4565b610a3f8482610cc4565b60608315610c0a578251600003610c03576001600160a01b0385163b610c035760405162461bcd60e51b815260206004820152601d60248201527f416464726573733a2063616c6c20746f206e6f6e2d636f6e747261637400000060448201526064015b60405180910390fd5b5081610c14565b610c148383610d2c565b949350505050565b6000806000846001600160a01b031684604051610c399190611629565b6000604051808303816000865af19150503d8060008114610c76576040519150601f19603f3d011682016040523d82523d6000602084013e610c7b565b606091505b5091509150818015610ca5575080511580610ca5575080806020019051810190610ca59190611645565b8015610cbb57506000856001600160a01b03163b115b95945050505050565b6000610cd96001600160a01b03841683610d56565b90508051600014158015610cfe575080806020019051810190610cfc9190611645565b155b15610d2757604051635274afe760e01b81526001600160a01b0384166004820152602401610bfa565b505050565b815115610d3c5781518083602001fd5b8060405162461bcd60e51b8152600401610bfa919061166e565b6060610962838360006040518060400160405280601e81526020017f416464726573733a206c6f772d6c6576656c2063616c6c206661696c65640000815250606082471015610df65760405162461bcd60e51b815260206004820152602660248201527f416464726573733a20696e73756666696369656e742062616c616e636520666f6044820152651c8818d85b1b60d21b6064820152608401610bfa565b600080866001600160a01b03168587604051610e129190611629565b60006040518083038185875af1925050503d8060008114610e4f576040519150601f19603f3d011682016040523d82523d6000602084013e610e54565b606091505b5091509150610e6587838387610b96565b979650505050505050565b6040805161024081018252600080825260606020830181905292820152908101610e98610f2b565b815260200160008152602001600081526020016000815260200160008152602001600081526020016000815260200160008152602001600081526020016000815260200160008152602001600081526020016000815260200160008152602001600060ff1681525090565b604051806040016040528060006001600160a01b03168152602001610f26610f2b565b905290565b6040518061012001604052806000815260200160008152602001600081526020016000815260200160008152602001600081526020016000815260200160008152602001600081525090565b602080825282518282018190526000919060409081850190868401855b82811015610ff557815180516001600160a01b0316855286810151878601528581015186860152606080820151908601526080808201519086015260a0808201519086015260c0908101519085015260e09093019290850190600101610f94565b5091979650505050505050565b602080825282518282018190526000919060409081850190868401855b82811015610ff557815180516001600160a01b0316855286810151878601528581015186860152606080820151908601526080808201519086015260a0908101519085015260c0909301929085019060010161101f565b602080825282518282018190526000919060409081850190868401855b82811015610ff557815180516001600160a01b0316855286015160ff16868501529284019290850190600101611093565b602080825282518282018190526000919060409081850190868401855b82811015610ff557815180516001600160a01b03168552868101518786015285015185850152606090930192908501906001016110e1565b602080825282518282018190526000919060409081850190868401855b82811015610ff557815180516001600160a01b0390811686529087015116868501529284019290850190600101611136565b60005b8381101561118357818101518382015260200161116b565b50506000910152565b600081518084526111a4816020860160208601611168565b601f01601f19169290920160200192915050565b805182526020810151602083015260408101516040830152606081015160608301526080810151608083015260a081015160a083015260c081015160c083015260e081015160e08301526101008082015181840152505050565b80516001600160a01b031682526000610340602083015181602086015261123b8286018261118c565b915050604083015161125860408601826001600160a01b03169052565b50606083015161126b60608601826111b8565b5060808301516101808581019190915260a08401516101a08087019190915260c08501516101c08088019190915260e08601516101e080890191909152610100870151610200808a0191909152610120880151610220808b01919091526101408901516102408b01526101608901516102608b0152948801516102808a0152928701516102a0890152908601516102c08801528501516102e087015284015161030086015283015160ff8116610320860152509392505050565b600081518084526020808501808196508360051b8101915082860160005b85811015610ff557828403895261135b848351611212565b98850198935090840190600101611343565b6020815260006109626020830184611325565b60006020808301818452808551808352604092508286019150828160051b87010184880160005b8381101561141d57888303603f190185528151805160ff16845287810151888501528681015187850152606080820151908501526080808201516001600160a01b03169085015260a09081015160c0918501829052906114098186018361118c565b9689019694505050908601906001016113a7565b509098975050505050505050565b6020808252825182820181905260009190848201906040850190845b8181101561148257835180516001600160a01b0316845285015161146d868501826111b8565b50928401926101409290920191600101611447565b50909695505050505050565b600081518084526020808501808196508360051b8101915082860160005b85811015610ff55782840389528151608081518187526114ce82880182611212565b9288015180516001600160a01b03908116898b0152818a015181166040808b0191909152909101511660609097019690965250988501989350908401906001016114ac565b602081526000610962602083018461148e565b600081516040845261153b604085018261118c565b905060208301518482036020860152610cbb828261118c565b6020815260006109626020830184611526565b634e487b7160e01b600052601160045260246000fd5b8181038181111561096557610965611567565b634e487b7160e01b600052603260045260246000fd5b6040815260006115b96040830185611526565b8281036020840152610cbb8185611325565b6040815260006115de6040830185611526565b8281036020840152610cbb818561148e565b808202811582820484141761096557610965611567565b60008261162457634e487b7160e01b600052601260045260246000fd5b500490565b6000825161163b818460208701611168565b9190910192915050565b60006020828403121561165757600080fd5b8151801515811461166757600080fd5b9392505050565b602081526000610962602083018461118c56fe416464726573733a206c6f772d6c6576656c2064656c65676174652063616c6c206661696c6564a2646970667358221220725e22276bf0e87647c9ae5fe57917c05e15e16733a4f670f8e4d861358cdcc664736f6c63430008130033","linkReferences":{}},"methodIdentifiers":{"CONFIG_ENGINE()":"5e5eef7a","USDC()":"89a30271","USDC_SEED_AMOUNT()":"02a08f93","assetsEModeUpdates()":"92287095","borrowsUpdates()":"1850edd8","capsUpdates()":"95a93cb1","collateralsUpdates()":"2b179434","eModeCategoriesUpdates()":"ca8e89cc","execute()":"61461954","getPoolContext()":"fbb256f6","newListings()":"c0a25580","newListingsCustom()":"fabe3463","priceFeedsUpdates()":"b1af0d0d","rateStrategiesUpdates()":"d0c38c27"},"id":337}