{"abi":[{"type":"function","name":"CONFIG_ENGINE","inputs":[],"outputs":[{"name":"","type":"address","internalType":"contract IAaveV3ConfigEngine"}],"stateMutability":"view"},{"type":"function","name":"PYUSD","inputs":[],"outputs":[{"name":"","type":"address","internalType":"address"}],"stateMutability":"view"},{"type":"function","name":"PYUSD_SEED_AMOUNT","inputs":[],"outputs":[{"name":"","type":"uint256","internalType":"uint256"}],"stateMutability":"view"},{"type":"function","name":"assetsEModeUpdates","inputs":[],"outputs":[{"name":"","type":"tuple[]","internalType":"struct IAaveV3ConfigEngine.AssetEModeUpdate[]","components":[{"name":"asset","type":"address","internalType":"address"},{"name":"eModeCategory","type":"uint8","internalType":"uint8"}]}],"stateMutability":"view"},{"type":"function","name":"borrowsUpdates","inputs":[],"outputs":[{"name":"","type":"tuple[]","internalType":"struct IAaveV3ConfigEngine.BorrowUpdate[]","components":[{"name":"asset","type":"address","internalType":"address"},{"name":"enabledToBorrow","type":"uint256","internalType":"uint256"},{"name":"flashloanable","type":"uint256","internalType":"uint256"},{"name":"stableRateModeEnabled","type":"uint256","internalType":"uint256"},{"name":"borrowableInIsolation","type":"uint256","internalType":"uint256"},{"name":"withSiloedBorrowing","type":"uint256","internalType":"uint256"},{"name":"reserveFactor","type":"uint256","internalType":"uint256"}]}],"stateMutability":"view"},{"type":"function","name":"capsUpdates","inputs":[],"outputs":[{"name":"","type":"tuple[]","internalType":"struct IAaveV3ConfigEngine.CapsUpdate[]","components":[{"name":"asset","type":"address","internalType":"address"},{"name":"supplyCap","type":"uint256","internalType":"uint256"},{"name":"borrowCap","type":"uint256","internalType":"uint256"}]}],"stateMutability":"view"},{"type":"function","name":"collateralsUpdates","inputs":[],"outputs":[{"name":"","type":"tuple[]","internalType":"struct IAaveV3ConfigEngine.CollateralUpdate[]","components":[{"name":"asset","type":"address","internalType":"address"},{"name":"ltv","type":"uint256","internalType":"uint256"},{"name":"liqThreshold","type":"uint256","internalType":"uint256"},{"name":"liqBonus","type":"uint256","internalType":"uint256"},{"name":"debtCeiling","type":"uint256","internalType":"uint256"},{"name":"liqProtocolFee","type":"uint256","internalType":"uint256"}]}],"stateMutability":"view"},{"type":"function","name":"eModeCategoriesUpdates","inputs":[],"outputs":[{"name":"","type":"tuple[]","internalType":"struct IAaveV3ConfigEngine.EModeCategoryUpdate[]","components":[{"name":"eModeCategory","type":"uint8","internalType":"uint8"},{"name":"ltv","type":"uint256","internalType":"uint256"},{"name":"liqThreshold","type":"uint256","internalType":"uint256"},{"name":"liqBonus","type":"uint256","internalType":"uint256"},{"name":"priceSource","type":"address","internalType":"address"},{"name":"label","type":"string","internalType":"string"}]}],"stateMutability":"view"},{"type":"function","name":"execute","inputs":[],"outputs":[],"stateMutability":"nonpayable"},{"type":"function","name":"getPoolContext","inputs":[],"outputs":[{"name":"","type":"tuple","internalType":"struct IAaveV3ConfigEngine.PoolContext","components":[{"name":"networkName","type":"string","internalType":"string"},{"name":"networkAbbreviation","type":"string","internalType":"string"}]}],"stateMutability":"pure"},{"type":"function","name":"newListings","inputs":[],"outputs":[{"name":"","type":"tuple[]","internalType":"struct IAaveV3ConfigEngine.Listing[]","components":[{"name":"asset","type":"address","internalType":"address"},{"name":"assetSymbol","type":"string","internalType":"string"},{"name":"priceFeed","type":"address","internalType":"address"},{"name":"rateStrategyParams","type":"tuple","internalType":"struct IV3RateStrategyFactory.RateStrategyParams","components":[{"name":"optimalUsageRatio","type":"uint256","internalType":"uint256"},{"name":"baseVariableBorrowRate","type":"uint256","internalType":"uint256"},{"name":"variableRateSlope1","type":"uint256","internalType":"uint256"},{"name":"variableRateSlope2","type":"uint256","internalType":"uint256"},{"name":"stableRateSlope1","type":"uint256","internalType":"uint256"},{"name":"stableRateSlope2","type":"uint256","internalType":"uint256"},{"name":"baseStableRateOffset","type":"uint256","internalType":"uint256"},{"name":"stableRateExcessOffset","type":"uint256","internalType":"uint256"},{"name":"optimalStableToTotalDebtRatio","type":"uint256","internalType":"uint256"}]},{"name":"enabledToBorrow","type":"uint256","internalType":"uint256"},{"name":"stableRateModeEnabled","type":"uint256","internalType":"uint256"},{"name":"borrowableInIsolation","type":"uint256","internalType":"uint256"},{"name":"withSiloedBorrowing","type":"uint256","internalType":"uint256"},{"name":"flashloanable","type":"uint256","internalType":"uint256"},{"name":"ltv","type":"uint256","internalType":"uint256"},{"name":"liqThreshold","type":"uint256","internalType":"uint256"},{"name":"liqBonus","type":"uint256","internalType":"uint256"},{"name":"reserveFactor","type":"uint256","internalType":"uint256"},{"name":"supplyCap","type":"uint256","internalType":"uint256"},{"name":"borrowCap","type":"uint256","internalType":"uint256"},{"name":"debtCeiling","type":"uint256","internalType":"uint256"},{"name":"liqProtocolFee","type":"uint256","internalType":"uint256"},{"name":"eModeCategory","type":"uint8","internalType":"uint8"}]}],"stateMutability":"pure"},{"type":"function","name":"newListingsCustom","inputs":[],"outputs":[{"name":"","type":"tuple[]","internalType":"struct IAaveV3ConfigEngine.ListingWithCustomImpl[]","components":[{"name":"base","type":"tuple","internalType":"struct IAaveV3ConfigEngine.Listing","components":[{"name":"asset","type":"address","internalType":"address"},{"name":"assetSymbol","type":"string","internalType":"string"},{"name":"priceFeed","type":"address","internalType":"address"},{"name":"rateStrategyParams","type":"tuple","internalType":"struct IV3RateStrategyFactory.RateStrategyParams","components":[{"name":"optimalUsageRatio","type":"uint256","internalType":"uint256"},{"name":"baseVariableBorrowRate","type":"uint256","internalType":"uint256"},{"name":"variableRateSlope1","type":"uint256","internalType":"uint256"},{"name":"variableRateSlope2","type":"uint256","internalType":"uint256"},{"name":"stableRateSlope1","type":"uint256","internalType":"uint256"},{"name":"stableRateSlope2","type":"uint256","internalType":"uint256"},{"name":"baseStableRateOffset","type":"uint256","internalType":"uint256"},{"name":"stableRateExcessOffset","type":"uint256","internalType":"uint256"},{"name":"optimalStableToTotalDebtRatio","type":"uint256","internalType":"uint256"}]},{"name":"enabledToBorrow","type":"uint256","internalType":"uint256"},{"name":"stableRateModeEnabled","type":"uint256","internalType":"uint256"},{"name":"borrowableInIsolation","type":"uint256","internalType":"uint256"},{"name":"withSiloedBorrowing","type":"uint256","internalType":"uint256"},{"name":"flashloanable","type":"uint256","internalType":"uint256"},{"name":"ltv","type":"uint256","internalType":"uint256"},{"name":"liqThreshold","type":"uint256","internalType":"uint256"},{"name":"liqBonus","type":"uint256","internalType":"uint256"},{"name":"reserveFactor","type":"uint256","internalType":"uint256"},{"name":"supplyCap","type":"uint256","internalType":"uint256"},{"name":"borrowCap","type":"uint256","internalType":"uint256"},{"name":"debtCeiling","type":"uint256","internalType":"uint256"},{"name":"liqProtocolFee","type":"uint256","internalType":"uint256"},{"name":"eModeCategory","type":"uint8","internalType":"uint8"}]},{"name":"implementations","type":"tuple","internalType":"struct IAaveV3ConfigEngine.TokenImplementations","components":[{"name":"aToken","type":"address","internalType":"address"},{"name":"vToken","type":"address","internalType":"address"},{"name":"sToken","type":"address","internalType":"address"}]}]}],"stateMutability":"view"},{"type":"function","name":"priceFeedsUpdates","inputs":[],"outputs":[{"name":"","type":"tuple[]","internalType":"struct IAaveV3ConfigEngine.PriceFeedUpdate[]","components":[{"name":"asset","type":"address","internalType":"address"},{"name":"priceFeed","type":"address","internalType":"address"}]}],"stateMutability":"view"},{"type":"function","name":"rateStrategiesUpdates","inputs":[],"outputs":[{"name":"","type":"tuple[]","internalType":"struct IAaveV3ConfigEngine.RateStrategyUpdate[]","components":[{"name":"asset","type":"address","internalType":"address"},{"name":"params","type":"tuple","internalType":"struct IV3RateStrategyFactory.RateStrategyParams","components":[{"name":"optimalUsageRatio","type":"uint256","internalType":"uint256"},{"name":"baseVariableBorrowRate","type":"uint256","internalType":"uint256"},{"name":"variableRateSlope1","type":"uint256","internalType":"uint256"},{"name":"variableRateSlope2","type":"uint256","internalType":"uint256"},{"name":"stableRateSlope1","type":"uint256","internalType":"uint256"},{"name":"stableRateSlope2","type":"uint256","internalType":"uint256"},{"name":"baseStableRateOffset","type":"uint256","internalType":"uint256"},{"name":"stableRateExcessOffset","type":"uint256","internalType":"uint256"},{"name":"optimalStableToTotalDebtRatio","type":"uint256","internalType":"uint256"}]}]}],"stateMutability":"view"},{"type":"error","name":"SafeERC20FailedOperation","inputs":[{"name":"token","type":"address","internalType":"address"}]}],"bytecode":{"object":"0x60a060405234801561001057600080fd5b5073a3e44d830440df5098520f62ebec285b1198c51e6080526080516113aa61004b6000396000818161011b015261029301526113aa6000f3fe608060405234801561001057600080fd5b50600436106100ea5760003560e01c8063b1af0d0d1161008c578063d0c38c2711610066578063d0c38c27146101cb578063f4e296ec146101da578063fabe3463146101f2578063fbb256f61461020157600080fd5b8063b1af0d0d14610198578063c0a25580146101a7578063ca8e89cc146101bc57600080fd5b806361461954116100c85780636146195414610155578063922870951461015f57806395a93cb11461016e5780639e19789d1461017d57600080fd5b80631850edd8146100ef5780632b179434146101075780635e5eef7a14610116575b600080fd5b60606040516100fe9190610c5e565b60405180910390f35b60606040516100fe9190610ce9565b61013d7f000000000000000000000000000000000000000000000000000000000000000081565b6040516001600160a01b0390911681526020016100fe565b61015d610216565b005b60606040516100fe9190610d5d565b60606040516100fe9190610dab565b61013d736c3ea9036406852006290770bedfcaba0e23a0e881565b60606040516100fe9190610e00565b6101af610408565b6040516100fe9190611054565b60606040516100fe9190611067565b60606040516100fe9190611112565b6101e4620f424081565b6040519081526020016100fe565b60606040516100fe91906111fa565b6102096105df565b6040516100fe919061123b565b60606000610222610408565b8251909150606090819081908190819081908190156102bb576102b963a192ac2460e01b8a6040516024016102579190611067565b60408051601f198184030181529190526020810180516001600160e01b03166001600160e01b0319909316929092179091526001600160a01b037f0000000000000000000000000000000000000000000000000000000000000000169061063e565b505b8751156102e9576102e7633cb6502d60e01b6102d56105df565b8a60405160240161025792919061124e565b505b865115610317576103156314d8093760e21b6103036105df565b89604051602401610257929190611273565b505b84511561033c5761033a63bb06653560e01b866040516024016102579190610c5e565b505b8551156103615761035f6309d8332860e01b876040516024016102579190610ce9565b505b835115610386576103846324f4c44560e01b856040516024016102579190611112565b505b8251156103ab576103a963927c400360e01b846040516024016102579190610e00565b505b8151156103d0576103ce632a90e62360e01b836040516024016102579190610d5d565b505b8051156103f5576103f36355caa16360e01b826040516024016102579190610dab565b505b6103fd61066c565b505050505050505050565b60408051600180825281830190925260609160009190816020015b61042b610b71565b815260200190600190039081610423579050509050604051806102400160405280736c3ea9036406852006290770bedfcaba0e23a0e86001600160a01b031681526020016040518060400160405280600581526020016414165554d160da1b8152508152602001738f1df6d7f2db73eece86a18b4381f4707b918fb16001600160a01b031681526020016040518061012001604052806104cc611f40610746565b81526020016104db6000610746565b81526020016104eb610258610746565b81526020016104fb611f40610746565b815260200161050b610514610746565b815260200161051b617530610746565b815260200161052b61012c610746565b815260200161053b610320610746565b815260200161054b6107d0610746565b815250815260200160018152602001600081526020016000815260200160008152602001600181526020016000815260200160008152602001600081526020016107d08152602001629896808152602001628954408152602001600081526020016103e88152602001600060ff16815250816000815181106105cf576105cf611298565b6020908102919091010152919050565b60408051808201909152606080825260208201525060408051608081018252600881830190815267457468657265756d60c01b606083015281528151808301909252600382526208ae8d60eb1b60208381019190915281019190915290565b6060610663838360405180606001604052806027815260200161134e6027913961076b565b90505b92915050565b6106a2736c3ea9036406852006290770bedfcaba0e23a0e87387870bca3f3fd6335c3f4ce8392d69350b4fa4e2620f42406107e3565b60405163617ba03760e01b8152736c3ea9036406852006290770bedfcaba0e23a0e86004820152620f4240602482015273464c71f6c2f760dda6093dcb91c24c39e5d6e18c6044820152600060648201527387870bca3f3fd6335c3f4ce8392d69350b4fa4e29063617ba03790608401600060405180830381600087803b15801561072c57600080fd5b505af1158015610740573d6000803e3d6000fd5b50505050565b60006127106107616b033b2e3c9fd0803ce8000000846112ae565b61066691906112d3565b6060600080856001600160a01b03168560405161078891906112f5565b600060405180830381855af49150503d80600081146107c3576040519150601f19603f3d011682016040523d82523d6000602084013e6107c8565b606091505b50915091506107d986838387610897565b9695505050505050565b604080516001600160a01b038416602482015260448082018490528251808303909101815260649091019091526020810180516001600160e01b031663095ea7b360e01b179052610834848261091d565b61074057604080516001600160a01b038516602482015260006044808301919091528251808303909101815260649091019091526020810180516001600160e01b031663095ea7b360e01b17905261088d9085906109c5565b61074084826109c5565b6060831561090b578251600003610904576001600160a01b0385163b6109045760405162461bcd60e51b815260206004820152601d60248201527f416464726573733a2063616c6c20746f206e6f6e2d636f6e747261637400000060448201526064015b60405180910390fd5b5081610915565b6109158383610a2d565b949350505050565b6000806000846001600160a01b03168460405161093a91906112f5565b6000604051808303816000865af19150503d8060008114610977576040519150601f19603f3d011682016040523d82523d6000602084013e61097c565b606091505b50915091508180156109a65750805115806109a65750808060200190518101906109a69190611311565b80156109bc57506000856001600160a01b03163b115b95945050505050565b60006109da6001600160a01b03841683610a57565b905080516000141580156109ff5750808060200190518101906109fd9190611311565b155b15610a2857604051635274afe760e01b81526001600160a01b03841660048201526024016108fb565b505050565b815115610a3d5781518083602001fd5b8060405162461bcd60e51b81526004016108fb919061133a565b6060610663838360006040518060400160405280601e81526020017f416464726573733a206c6f772d6c6576656c2063616c6c206661696c65640000815250606082471015610af75760405162461bcd60e51b815260206004820152602660248201527f416464726573733a20696e73756666696369656e742062616c616e636520666f6044820152651c8818d85b1b60d21b60648201526084016108fb565b600080866001600160a01b03168587604051610b1391906112f5565b60006040518083038185875af1925050503d8060008114610b50576040519150601f19603f3d011682016040523d82523d6000602084013e610b55565b606091505b5091509150610b6687838387610897565b979650505050505050565b60405180610240016040528060006001600160a01b031681526020016060815260200160006001600160a01b03168152602001610bf36040518061012001604052806000815260200160008152602001600081526020016000815260200160008152602001600081526020016000815260200160008152602001600081525090565b815260200160008152602001600081526020016000815260200160008152602001600081526020016000815260200160008152602001600081526020016000815260200160008152602001600081526020016000815260200160008152602001600060ff1681525090565b602080825282518282018190526000919060409081850190868401855b82811015610cdc57815180516001600160a01b0316855286810151878601528581015186860152606080820151908601526080808201519086015260a0808201519086015260c0908101519085015260e09093019290850190600101610c7b565b5091979650505050505050565b602080825282518282018190526000919060409081850190868401855b82811015610cdc57815180516001600160a01b0316855286810151878601528581015186860152606080820151908601526080808201519086015260a0908101519085015260c09093019290850190600101610d06565b602080825282518282018190526000919060409081850190868401855b82811015610cdc57815180516001600160a01b0316855286015160ff16868501529284019290850190600101610d7a565b602080825282518282018190526000919060409081850190868401855b82811015610cdc57815180516001600160a01b0316855286810151878601528501518585015260609093019290850190600101610dc8565b602080825282518282018190526000919060409081850190868401855b82811015610cdc57815180516001600160a01b0390811686529087015116868501529284019290850190600101610e1d565b60005b83811015610e6a578181015183820152602001610e52565b50506000910152565b60008151808452610e8b816020860160208601610e4f565b601f01601f19169290920160200192915050565b805182526020810151602083015260408101516040830152606081015160608301526080810151608083015260a081015160a083015260c081015160c083015260e081015160e08301526101008082015181840152505050565b80516001600160a01b0316825260006103406020830151816020860152610f2282860182610e73565b9150506040830151610f3f60408601826001600160a01b03169052565b506060830151610f526060860182610e9f565b5060808301516101808581019190915260a08401516101a08087019190915260c08501516101c08088019190915260e08601516101e080890191909152610100870151610200808a0191909152610120880151610220808b01919091526101408901516102408b01526101608901516102608b0152948801516102808a0152928701516102a0890152908601516102c08801528501516102e087015284015161030086015283015160ff8116610320860152509392505050565b600081518084526020808501808196508360051b8101915082860160005b85811015610cdc578284038952611042848351610ef9565b9885019893509084019060010161102a565b602081526000610663602083018461100c565b60006020808301818452808551808352604092508286019150828160051b87010184880160005b8381101561110457888303603f190185528151805160ff16845287810151888501528681015187850152606080820151908501526080808201516001600160a01b03169085015260a09081015160c0918501829052906110f081860183610e73565b96890196945050509086019060010161108e565b509098975050505050505050565b6020808252825182820181905260009190848201906040850190845b8181101561116957835180516001600160a01b0316845285015161115486850182610e9f565b5092840192610140929092019160010161112e565b50909695505050505050565b600081518084526020808501808196508360051b8101915082860160005b85811015610cdc5782840389528151608081518187526111b582880182610ef9565b9288015180516001600160a01b03908116898b0152818a015181166040808b019190915290910151166060909701969096525098850198935090840190600101611193565b6020815260006106636020830184611175565b60008151604084526112226040850182610e73565b9050602083015184820360208601526109bc8282610e73565b602081526000610663602083018461120d565b604081526000611261604083018561120d565b82810360208401526109bc818561100c565b604081526000611286604083018561120d565b82810360208401526109bc8185611175565b634e487b7160e01b600052603260045260246000fd5b808202811582820484141761066657634e487b7160e01b600052601160045260246000fd5b6000826112f057634e487b7160e01b600052601260045260246000fd5b500490565b60008251611307818460208701610e4f565b9190910192915050565b60006020828403121561132357600080fd5b8151801515811461133357600080fd5b9392505050565b6020815260006106636020830184610e7356fe416464726573733a206c6f772d6c6576656c2064656c65676174652063616c6c206661696c6564a2646970667358221220afd45f344f3ec8b6491ace43f1d741d920133a1173f88180b8a5a1fcb65d1a3564736f6c63430008130033","linkReferences":{}},"methodIdentifiers":{"CONFIG_ENGINE()":"5e5eef7a","PYUSD()":"9e19789d","PYUSD_SEED_AMOUNT()":"f4e296ec","assetsEModeUpdates()":"92287095","borrowsUpdates()":"1850edd8","capsUpdates()":"95a93cb1","collateralsUpdates()":"2b179434","eModeCategoriesUpdates()":"ca8e89cc","execute()":"61461954","getPoolContext()":"fbb256f6","newListings()":"c0a25580","newListingsCustom()":"fabe3463","priceFeedsUpdates()":"b1af0d0d","rateStrategiesUpdates()":"d0c38c27"},"id":485}