{"abi":[{"type":"receive","stateMutability":"payable"},{"type":"function","name":"AAVE_COLLECTOR_CONSOLIDATION","inputs":[],"outputs":[{"name":"","type":"address","internalType":"address"}],"stateMutability":"view"},{"type":"function","name":"CRV_BAD_DEBT_REPAYMENT","inputs":[],"outputs":[{"name":"","type":"address","internalType":"address"}],"stateMutability":"view"},{"type":"function","name":"ONE_WAY_BONDING_CURVE","inputs":[],"outputs":[{"name":"","type":"address","internalType":"address"}],"stateMutability":"view"},{"type":"function","name":"SAFE","inputs":[],"outputs":[{"name":"","type":"address","internalType":"address"}],"stateMutability":"view"},{"type":"function","name":"WETH_TO_WITHDRAW","inputs":[],"outputs":[{"name":"","type":"uint256","internalType":"uint256"}],"stateMutability":"view"},{"type":"function","name":"execute","inputs":[],"outputs":[],"stateMutability":"nonpayable"}],"bytecode":{"object":"0x608060405234801561001057600080fd5b50610d80806100206000396000f3fe6080604052600436106100595760003560e01c806348be0c621461006557806361461954146100955780637988b0c2146100ac5780637e9c13a2146100e6578063885a1ffa1461010e578063d2d3eb581461013657600080fd5b3661006057005b600080fd5b34801561007157600080fd5b506100826806f05b59d3b200000081565b6040519081526020015b60405180910390f35b3480156100a157600080fd5b506100aa61015e565b005b3480156100b857600080fd5b506100ce600080516020610d2b83398151915281565b6040516001600160a01b03909116815260200161008c565b3480156100f257600080fd5b506100ce7346a1b7d4a2920270c7eb2c2db4df2259a109bcb481565b34801561011a57600080fd5b506100ce73cdb4fa6ba08bf1fb7aa9fdf6002e78edc431a64281565b34801561014257600080fd5b506100ce7304f90d449d4f8316edd6ef4f963b657f8444a4ca81565b6040516317d5759960e31b8152600080516020610d0b8339815191529063beabacc8906101b09073030ba81f1c18d280636f32af80b9aad02cf0854e9030906806f05b59d3b200000090600401610ccd565b600060405180830381600087803b1580156101ca57600080fd5b505af11580156101de573d6000803e3d6000fd5b50506040516370a0823160e01b8152306004820152737d2768de32b0b80b7a3454c06bdac94a69ddc7a992506369328dec915073c02aaa39b223fe8d0a0e5c4f27ead9083c756cc29073030ba81f1c18d280636f32af80b9aad02cf0854e906370a0823190602401602060405180830381865afa158015610263573d6000803e3d6000fd5b505050506040513d601f19601f820116820180604052508101906102879190610cf1565b6040516001600160e01b031960e085901b1681526001600160a01b03909216600483015260248201523060448201526064016020604051808303816000875af11580156102d8573d6000803e3d6000fd5b505050506040513d601f19601f820116820180604052508101906102fc9190610cf1565b506040516370a0823160e01b815230600482015273c02aaa39b223fe8d0a0e5c4f27ead9083c756cc290632e1a7d4d9082906370a0823190602401602060405180830381865afa158015610354573d6000803e3d6000fd5b505050506040513d601f19601f820116820180604052508101906103789190610cf1565b6040518263ffffffff1660e01b815260040161039691815260200190565b600060405180830381600087803b1580156103b057600080fd5b505af11580156103c4573d6000803e3d6000fd5b505060405173cdb4fa6ba08bf1fb7aa9fdf6002e78edc431a6429250479150600081818185875af1925050503d806000811461041c576040519150601f19603f3d011682016040523d82523d6000602084013e610421565b606091505b505060405163e1f21c6760e01b8152600080516020610d0b833981519152915063e1f21c67906104829073bcca60bb61934080951369a648fb03df4f96263c907304f90d449d4f8316edd6ef4f963b657f8444a4ca90600090600401610ccd565b600060405180830381600087803b15801561049c57600080fd5b505af11580156104b0573d6000803e3d6000fd5b505060405163e1f21c6760e01b8152600080516020610d0b833981519152925063e1f21c6791506105129073bcca60bb61934080951369a648fb03df4f96263c907346a1b7d4a2920270c7eb2c2db4df2259a109bcb490600090600401610ccd565b600060405180830381600087803b15801561052c57600080fd5b505af1158015610540573d6000803e3d6000fd5b505060405163e1f21c6760e01b8152600080516020610d0b833981519152925063e1f21c67915061059c90739a14e23a58edf4efdcb360f68cd1b95ce2081a2f90600080516020610d2b83398151915290600090600401610ccd565b600060405180830381600087803b1580156105b657600080fd5b505af11580156105ca573d6000803e3d6000fd5b505060405163e1f21c6760e01b8152600080516020610d0b833981519152925063e1f21c6791506106269073a685a61171bb30d4072b338c80cb7b2c865c873e90600080516020610d2b83398151915290600090600401610ccd565b600060405180830381600087803b15801561064057600080fd5b505af1158015610654573d6000803e3d6000fd5b505060405163e1f21c6760e01b8152600080516020610d0b833981519152925063e1f21c6791506106b09073c2e2152647f4c26028482efaf64b2aa28779efc490600080516020610d2b83398151915290600090600401610ccd565b600060405180830381600087803b1580156106ca57600080fd5b505af11580156106de573d6000803e3d6000fd5b505060405163e1f21c6760e01b8152600080516020610d0b833981519152925063e1f21c67915061073a907357ab1ec28d129707052df4df418d58a2d46d5f5190600080516020610d2b83398151915290600090600401610ccd565b600060405180830381600087803b15801561075457600080fd5b505af1158015610768573d6000803e3d6000fd5b505060405163e1f21c6760e01b8152600080516020610d0b833981519152925063e1f21c6791506107c49073c9bc48c72154ef3e5425641a3c747242112a46af90600080516020610d2b83398151915290600090600401610ccd565b600060405180830381600087803b1580156107de57600080fd5b505af11580156107f2573d6000803e3d6000fd5b505060405163e1f21c6760e01b8152600080516020610d0b833981519152925063e1f21c67915061084e9073df7ff54aacacbff42dfe29dd6144a69b629f8c9e90600080516020610d2b83398151915290600090600401610ccd565b600060405180830381600087803b15801561086857600080fd5b505af115801561087c573d6000803e3d6000fd5b505060405163e1f21c6760e01b8152600080516020610d0b833981519152925063e1f21c6791506108d890731e6bb68acec8fefbd87d192be09bb274170a054890600080516020610d2b83398151915290600090600401610ccd565b600060405180830381600087803b1580156108f257600080fd5b505af1158015610906573d6000803e3d6000fd5b505060405163e1f21c6760e01b8152600080516020610d0b833981519152925063e1f21c67915061096290736c5024cd4f8a59110119c56f8933403a539555eb90600080516020610d2b83398151915290600090600401610ccd565b600060405180830381600087803b15801561097c57600080fd5b505af1158015610990573d6000803e3d6000fd5b505060405163e1f21c6760e01b8152600080516020610d0b833981519152925063e1f21c6791506109e7906e085d4780b73119b644ae5ecd22b37690600080516020610d2b83398151915290600090600401610ccd565b600060405180830381600087803b158015610a0157600080fd5b505af1158015610a15573d6000803e3d6000fd5b505060405163e1f21c6760e01b8152600080516020610d0b833981519152925063e1f21c679150610a7190734fabb145d64652a948d72533023f6e7a623c7c5390600080516020610d2b83398151915290600090600401610ccd565b600060405180830381600087803b158015610a8b57600080fd5b505af1158015610a9f573d6000803e3d6000fd5b505060405163e1f21c6760e01b8152600080516020610d0b833981519152925063e1f21c679150610afb9073101cc05f4a51c0319f570d5e146a8c625198e63690600080516020610d2b83398151915290600090600401610ccd565b600060405180830381600087803b158015610b1557600080fd5b505af1158015610b29573d6000803e3d6000fd5b505060405163e1f21c6760e01b8152600080516020610d0b833981519152925063e1f21c679150610b8590736f634c6135d2ebd550000ac92f494f9cb8183dae90600080516020610d2b83398151915290600090600401610ccd565b600060405180830381600087803b158015610b9f57600080fd5b505af1158015610bb3573d6000803e3d6000fd5b505060405163e1f21c6760e01b8152600080516020610d0b833981519152925063e1f21c679150610c0f9073d4937682df3c8aef4fe912a96a74121c0829e66490600080516020610d2b83398151915290600090600401610ccd565b600060405180830381600087803b158015610c2957600080fd5b505af1158015610c3d573d6000803e3d6000fd5b505060405163e1f21c6760e01b8152600080516020610d0b833981519152925063e1f21c679150610c999073a361718326c15715591c299427c62086f69923d990600080516020610d2b83398151915290600090600401610ccd565b600060405180830381600087803b158015610cb357600080fd5b505af1158015610cc7573d6000803e3d6000fd5b50505050565b6001600160a01b039384168152919092166020820152604081019190915260600190565b600060208284031215610d0357600080fd5b505191905056fe000000000000000000000000464c71f6c2f760dda6093dcb91c24c39e5d6e18c000000000000000000000000a426759e433224c2b04f6619ab44217dad626c6ea26469706673582212208328f9f2bc6690415dd9b8cf2461796aaf013217c8b385aa244f9e8288ac7e9064736f6c63430008130033","linkReferences":{}},"methodIdentifiers":{"AAVE_COLLECTOR_CONSOLIDATION()":"7988b0c2","CRV_BAD_DEBT_REPAYMENT()":"7e9c13a2","ONE_WAY_BONDING_CURVE()":"d2d3eb58","SAFE()":"885a1ffa","WETH_TO_WITHDRAW()":"48be0c62","execute()":"61461954"},"id":405}