{"abi":[{"type":"function","name":"NEW_VGHO_IMPL","inputs":[],"outputs":[{"name":"","type":"address","internalType":"address"}],"stateMutability":"view"},{"type":"function","name":"execute","inputs":[],"outputs":[],"stateMutability":"nonpayable"}],"bytecode":{"object":"0x608060405234801561001057600080fd5b5061044a806100206000396000f3fe608060405234801561001057600080fd5b50600436106100365760003560e01c80632d354cb51461003b5780636146195414610072575b600080fd5b6100567320cb2f303ede313e2cc44549ad8653a5e8c0050e81565b6040516001600160a01b03909116815260200160405180910390f35b61007a61007c565b005b7364b761d848206f447fe2dd461b0c635ec39ebb276001600160a01b031663ad4e64326040518060c001604052807340d16fc0246ad3160ccc09b8d0d3a2cd28ae6c2f6001600160a01b03168152602001738164cc65827dcfe994ab23944cbc90e0aa80bfcb6001600160a01b0316815260200173786dbff3f1292ae8f92ea68cf93c30b34b1ed04b6001600160a01b03166306fdde036040518163ffffffff1660e01b8152600401600060405180830381865afa158015610142573d6000803e3d6000fd5b505050506040513d6000823e601f3d908101601f1916820160405261016a91908101906102ae565b815260200173786dbff3f1292ae8f92ea68cf93c30b34b1ed04b6001600160a01b03166395d89b416040518163ffffffff1660e01b8152600401600060405180830381865afa1580156101c1573d6000803e3d6000fd5b505050506040513d6000823e601f3d908101601f191682016040526101e991908101906102ae565b81526020017320cb2f303ede313e2cc44549ad8653a5e8c0050e6001600160a01b03168152602001604051806020016040528060008152508152506040518263ffffffff1660e01b81526004016102409190610387565b600060405180830381600087803b15801561025a57600080fd5b505af115801561026e573d6000803e3d6000fd5b50505050565b634e487b7160e01b600052604160045260246000fd5b60005b838110156102a557818101518382015260200161028d565b50506000910152565b6000602082840312156102c057600080fd5b815167ffffffffffffffff808211156102d857600080fd5b818401915084601f8301126102ec57600080fd5b8151818111156102fe576102fe610274565b604051601f8201601f19908116603f0116810190838211818310171561032657610326610274565b8160405282815287602084870101111561033f57600080fd5b61035083602083016020880161028a565b979650505050505050565b6000815180845261037381602086016020860161028a565b601f01601f19169290920160200192915050565b60208152600060018060a01b03808451166020840152806020850151166040840152604084015160c060608501526103c260e085018261035b565b90506060850151601f19808684030160808701526103e0838361035b565b92508360808801511660a087015260a08701519350808684030160c0870152505061040b818361035b565b9594505050505056fea2646970667358221220b2f9a55cb8afb8777579d9639c5f4dd75d717d71b09b3d7e2a8b07bdab4c0a5c64736f6c63430008130033","linkReferences":{}},"methodIdentifiers":{"NEW_VGHO_IMPL()":"2d354cb5","execute()":"61461954"},"id":350}