{"abi":[{"type":"function","name":"CONFIG_ENGINE","inputs":[],"outputs":[{"name":"","type":"address","internalType":"contract IAaveV3ConfigEngine"}],"stateMutability":"view"},{"type":"function","name":"USDC","inputs":[],"outputs":[{"name":"","type":"address","internalType":"address"}],"stateMutability":"view"},{"type":"function","name":"USDC_SEED_AMOUNT","inputs":[],"outputs":[{"name":"","type":"uint256","internalType":"uint256"}],"stateMutability":"view"},{"type":"function","name":"WETH","inputs":[],"outputs":[{"name":"","type":"address","internalType":"address"}],"stateMutability":"view"},{"type":"function","name":"WETH_SEED_AMOUNT","inputs":[],"outputs":[{"name":"","type":"uint256","internalType":"uint256"}],"stateMutability":"view"},{"type":"function","name":"assetsEModeUpdates","inputs":[],"outputs":[{"name":"","type":"tuple[]","internalType":"struct IAaveV3ConfigEngine.AssetEModeUpdate[]","components":[{"name":"asset","type":"address","internalType":"address"},{"name":"eModeCategory","type":"uint8","internalType":"uint8"}]}],"stateMutability":"view"},{"type":"function","name":"borrowsUpdates","inputs":[],"outputs":[{"name":"","type":"tuple[]","internalType":"struct IAaveV3ConfigEngine.BorrowUpdate[]","components":[{"name":"asset","type":"address","internalType":"address"},{"name":"enabledToBorrow","type":"uint256","internalType":"uint256"},{"name":"flashloanable","type":"uint256","internalType":"uint256"},{"name":"stableRateModeEnabled","type":"uint256","internalType":"uint256"},{"name":"borrowableInIsolation","type":"uint256","internalType":"uint256"},{"name":"withSiloedBorrowing","type":"uint256","internalType":"uint256"},{"name":"reserveFactor","type":"uint256","internalType":"uint256"}]}],"stateMutability":"view"},{"type":"function","name":"capsUpdates","inputs":[],"outputs":[{"name":"","type":"tuple[]","internalType":"struct IAaveV3ConfigEngine.CapsUpdate[]","components":[{"name":"asset","type":"address","internalType":"address"},{"name":"supplyCap","type":"uint256","internalType":"uint256"},{"name":"borrowCap","type":"uint256","internalType":"uint256"}]}],"stateMutability":"view"},{"type":"function","name":"collateralsUpdates","inputs":[],"outputs":[{"name":"","type":"tuple[]","internalType":"struct IAaveV3ConfigEngine.CollateralUpdate[]","components":[{"name":"asset","type":"address","internalType":"address"},{"name":"ltv","type":"uint256","internalType":"uint256"},{"name":"liqThreshold","type":"uint256","internalType":"uint256"},{"name":"liqBonus","type":"uint256","internalType":"uint256"},{"name":"debtCeiling","type":"uint256","internalType":"uint256"},{"name":"liqProtocolFee","type":"uint256","internalType":"uint256"}]}],"stateMutability":"view"},{"type":"function","name":"eModeCategoriesUpdates","inputs":[],"outputs":[{"name":"","type":"tuple[]","internalType":"struct IAaveV3ConfigEngine.EModeCategoryUpdate[]","components":[{"name":"eModeCategory","type":"uint8","internalType":"uint8"},{"name":"ltv","type":"uint256","internalType":"uint256"},{"name":"liqThreshold","type":"uint256","internalType":"uint256"},{"name":"liqBonus","type":"uint256","internalType":"uint256"},{"name":"priceSource","type":"address","internalType":"address"},{"name":"label","type":"string","internalType":"string"}]}],"stateMutability":"pure"},{"type":"function","name":"execute","inputs":[],"outputs":[],"stateMutability":"nonpayable"},{"type":"function","name":"getPoolContext","inputs":[],"outputs":[{"name":"","type":"tuple","internalType":"struct IAaveV3ConfigEngine.PoolContext","components":[{"name":"networkName","type":"string","internalType":"string"},{"name":"networkAbbreviation","type":"string","internalType":"string"}]}],"stateMutability":"pure"},{"type":"function","name":"newListings","inputs":[],"outputs":[{"name":"","type":"tuple[]","internalType":"struct IAaveV3ConfigEngine.Listing[]","components":[{"name":"asset","type":"address","internalType":"address"},{"name":"assetSymbol","type":"string","internalType":"string"},{"name":"priceFeed","type":"address","internalType":"address"},{"name":"rateStrategyParams","type":"tuple","internalType":"struct IV3RateStrategyFactory.RateStrategyParams","components":[{"name":"optimalUsageRatio","type":"uint256","internalType":"uint256"},{"name":"baseVariableBorrowRate","type":"uint256","internalType":"uint256"},{"name":"variableRateSlope1","type":"uint256","internalType":"uint256"},{"name":"variableRateSlope2","type":"uint256","internalType":"uint256"},{"name":"stableRateSlope1","type":"uint256","internalType":"uint256"},{"name":"stableRateSlope2","type":"uint256","internalType":"uint256"},{"name":"baseStableRateOffset","type":"uint256","internalType":"uint256"},{"name":"stableRateExcessOffset","type":"uint256","internalType":"uint256"},{"name":"optimalStableToTotalDebtRatio","type":"uint256","internalType":"uint256"}]},{"name":"enabledToBorrow","type":"uint256","internalType":"uint256"},{"name":"stableRateModeEnabled","type":"uint256","internalType":"uint256"},{"name":"borrowableInIsolation","type":"uint256","internalType":"uint256"},{"name":"withSiloedBorrowing","type":"uint256","internalType":"uint256"},{"name":"flashloanable","type":"uint256","internalType":"uint256"},{"name":"ltv","type":"uint256","internalType":"uint256"},{"name":"liqThreshold","type":"uint256","internalType":"uint256"},{"name":"liqBonus","type":"uint256","internalType":"uint256"},{"name":"reserveFactor","type":"uint256","internalType":"uint256"},{"name":"supplyCap","type":"uint256","internalType":"uint256"},{"name":"borrowCap","type":"uint256","internalType":"uint256"},{"name":"debtCeiling","type":"uint256","internalType":"uint256"},{"name":"liqProtocolFee","type":"uint256","internalType":"uint256"},{"name":"eModeCategory","type":"uint8","internalType":"uint8"}]}],"stateMutability":"pure"},{"type":"function","name":"newListingsCustom","inputs":[],"outputs":[{"name":"","type":"tuple[]","internalType":"struct IAaveV3ConfigEngine.ListingWithCustomImpl[]","components":[{"name":"base","type":"tuple","internalType":"struct IAaveV3ConfigEngine.Listing","components":[{"name":"asset","type":"address","internalType":"address"},{"name":"assetSymbol","type":"string","internalType":"string"},{"name":"priceFeed","type":"address","internalType":"address"},{"name":"rateStrategyParams","type":"tuple","internalType":"struct IV3RateStrategyFactory.RateStrategyParams","components":[{"name":"optimalUsageRatio","type":"uint256","internalType":"uint256"},{"name":"baseVariableBorrowRate","type":"uint256","internalType":"uint256"},{"name":"variableRateSlope1","type":"uint256","internalType":"uint256"},{"name":"variableRateSlope2","type":"uint256","internalType":"uint256"},{"name":"stableRateSlope1","type":"uint256","internalType":"uint256"},{"name":"stableRateSlope2","type":"uint256","internalType":"uint256"},{"name":"baseStableRateOffset","type":"uint256","internalType":"uint256"},{"name":"stableRateExcessOffset","type":"uint256","internalType":"uint256"},{"name":"optimalStableToTotalDebtRatio","type":"uint256","internalType":"uint256"}]},{"name":"enabledToBorrow","type":"uint256","internalType":"uint256"},{"name":"stableRateModeEnabled","type":"uint256","internalType":"uint256"},{"name":"borrowableInIsolation","type":"uint256","internalType":"uint256"},{"name":"withSiloedBorrowing","type":"uint256","internalType":"uint256"},{"name":"flashloanable","type":"uint256","internalType":"uint256"},{"name":"ltv","type":"uint256","internalType":"uint256"},{"name":"liqThreshold","type":"uint256","internalType":"uint256"},{"name":"liqBonus","type":"uint256","internalType":"uint256"},{"name":"reserveFactor","type":"uint256","internalType":"uint256"},{"name":"supplyCap","type":"uint256","internalType":"uint256"},{"name":"borrowCap","type":"uint256","internalType":"uint256"},{"name":"debtCeiling","type":"uint256","internalType":"uint256"},{"name":"liqProtocolFee","type":"uint256","internalType":"uint256"},{"name":"eModeCategory","type":"uint8","internalType":"uint8"}]},{"name":"implementations","type":"tuple","internalType":"struct IAaveV3ConfigEngine.TokenImplementations","components":[{"name":"aToken","type":"address","internalType":"address"},{"name":"vToken","type":"address","internalType":"address"},{"name":"sToken","type":"address","internalType":"address"}]}]}],"stateMutability":"view"},{"type":"function","name":"priceFeedsUpdates","inputs":[],"outputs":[{"name":"","type":"tuple[]","internalType":"struct IAaveV3ConfigEngine.PriceFeedUpdate[]","components":[{"name":"asset","type":"address","internalType":"address"},{"name":"priceFeed","type":"address","internalType":"address"}]}],"stateMutability":"view"},{"type":"function","name":"rateStrategiesUpdates","inputs":[],"outputs":[{"name":"","type":"tuple[]","internalType":"struct IAaveV3ConfigEngine.RateStrategyUpdate[]","components":[{"name":"asset","type":"address","internalType":"address"},{"name":"params","type":"tuple","internalType":"struct IV3RateStrategyFactory.RateStrategyParams","components":[{"name":"optimalUsageRatio","type":"uint256","internalType":"uint256"},{"name":"baseVariableBorrowRate","type":"uint256","internalType":"uint256"},{"name":"variableRateSlope1","type":"uint256","internalType":"uint256"},{"name":"variableRateSlope2","type":"uint256","internalType":"uint256"},{"name":"stableRateSlope1","type":"uint256","internalType":"uint256"},{"name":"stableRateSlope2","type":"uint256","internalType":"uint256"},{"name":"baseStableRateOffset","type":"uint256","internalType":"uint256"},{"name":"stableRateExcessOffset","type":"uint256","internalType":"uint256"},{"name":"optimalStableToTotalDebtRatio","type":"uint256","internalType":"uint256"}]}]}],"stateMutability":"view"},{"type":"function","name":"wstETH","inputs":[],"outputs":[{"name":"","type":"address","internalType":"address"}],"stateMutability":"view"},{"type":"function","name":"wstETH_SEED_AMOUNT","inputs":[],"outputs":[{"name":"","type":"uint256","internalType":"uint256"}],"stateMutability":"view"},{"type":"error","name":"SafeERC20FailedOperation","inputs":[{"name":"token","type":"address","internalType":"address"}]}],"bytecode":{"object":"0x60a060405234801561001057600080fd5b50739cbc05104c3ff7ec0885770911a0828c40fd0a326080526080516119f161004b6000396000818161019c015261030201526119f16000f3fe608060405234801561001057600080fd5b50600436106101165760003560e01c806395a93cb1116100a2578063c0a2558011610071578063c0a255801461021e578063ca8e89cc14610233578063d0c38c2714610248578063fabe346314610257578063fbb256f61461026657600080fd5b806395a93cb1146101f25780639c28620a14610156578063ad5c464814610201578063b1af0d0d1461020f57600080fd5b80634aa07e64116100e95780634aa07e64146101645780635e5eef7a1461019757806361461954146101be57806389a30271146101c857806392287095146101e357600080fd5b806302a08f931461011b5780631850edd8146101385780632b1794341461014757806344014ec114610156575b600080fd5b6101256298968081565b6040519081526020015b60405180910390f35b606060405161012f91906112a5565b606060405161012f9190611330565b6101256611c37937e0800081565b61017f73f610a9dfb7c89644979b4a0f27063e9e7d7cda3281565b6040516001600160a01b03909116815260200161012f565b61017f7f000000000000000000000000000000000000000000000000000000000000000081565b6101c661027b565b005b61017f7306efdbff2a14a7c8e15944d1f4a48f9f95f663a481565b606060405161012f91906113a4565b606060405161012f91906113f2565b61017f6004605360981b0181565b606060405161012f9190611447565b610226610477565b60405161012f919061169b565b61023b610973565b60405161012f91906116ae565b606060405161012f9190611759565b606060405161012f9190611841565b61026e610a61565b60405161012f9190611882565b6000610285610973565b90506000610291610477565b82519091506060908190819081908190819081901561032a5761032863a192ac2460e01b8a6040516024016102c691906116ae565b60408051601f198184030181529190526020810180516001600160e01b03166001600160e01b0319909316929092179091526001600160a01b037f00000000000000000000000000000000000000000000000000000000000000001690610ac0565b505b87511561035857610356633cb6502d60e01b610344610a61565b8a6040516024016102c6929190611895565b505b865115610386576103846314d8093760e21b610372610a61565b896040516024016102c69291906118ba565b505b8451156103ab576103a963bb06653560e01b866040516024016102c691906112a5565b505b8551156103d0576103ce6309d8332860e01b876040516024016102c69190611330565b505b8351156103f5576103f36324f4c44560e01b856040516024016102c69190611759565b505b82511561041a5761041863927c400360e01b846040516024016102c69190611447565b505b81511561043f5761043d632a90e62360e01b836040516024016102c691906113a4565b505b805115610464576104626355caa16360e01b826040516024016102c691906113f2565b505b61046c610aee565b505050505050505050565b6040805160038082526080820190925260609160009190816020015b61049b6111b8565b8152602001906001900390816104935790505090506040518061024001604052806004605360981b016001600160a01b03168152602001604051806040016040528060048152602001630ae8aa8960e31b8152508152602001736bf14cb0a831078629d993fdebcb182b21a8774c6001600160a01b0316815260200160405180610120016040528061052e611f40610cfc565b815260200161053d6000610cfc565b815260200161054d61014a610cfc565b815260200161055d610320610cfc565b815260200161056d61014a610cfc565b815260200161057d610320610cfc565b815260200161058c60c8610cfc565b815260200161059c610320610cfc565b81526020016105ac6107d0610cfc565b81525081526020016001815260200160008152602001600081526020016000815260200160018152602001611d4c8152602001611e78815260200161025881526020016105dc815260200160f0815260200160c88152602001600081526020016103e88152602001600160ff168152508160008151811061062f5761062f6118df565b60200260200101819052506040518061024001604052807306efdbff2a14a7c8e15944d1f4a48f9f95f663a46001600160a01b03168152602001604051806040016040528060048152602001635553444360e01b81525081526020017343d12fb3afcad5347fa764eeab105478337b72006001600160a01b031681526020016040518061012001604052806106c5612328610cfc565b81526020016106d46000610cfc565b81526020016106e4610258610cfc565b81526020016106f4611770610cfc565b8152602001610704610258610cfc565b8152602001610714611770610cfc565b81526020016107236064610cfc565b8152602001610733610320610cfc565b81526020016107436107d0610cfc565b81525081526020016001815260200160008152602001600181526020016000815260200160018152602001611e148152602001611f4081526020016101f481526020016103e88152602001620f42408152602001620dbba08152602001600081526020016103e88152602001600060ff16815250816001815181106107ca576107ca6118df565b602002602001018190525060405180610240016040528073f610a9dfb7c89644979b4a0f27063e9e7d7cda326001600160a01b03168152602001604051806040016040528060068152602001650eee6e88aa8960d31b815250815260200173db93e2712a8b36835078f8d28c70fcc95fd6d37c6001600160a01b03168152602001604051806101200160405280610862611194610cfc565b81526020016108716000610cfc565b81526020016108816102bc610cfc565b8152602001610891617530610cfc565b81526020016108a16102bc610cfc565b81526020016108b1617530610cfc565b81526020016108c060c8610cfc565b81526020016108d0610320610cfc565b81526020016108e06107d0610cfc565b81525081526020016001815260200160008152602001600081526020016000815260200160018152602001611d4c8152602001611e7881526020016102bc81526020016105dc815260200160828152602001602d8152602001600081526020016103e88152602001600160ff1681525081600281518110610963576109636118df565b6020908102919091010152919050565b60408051600180825281830190925260609160009190816020015b6109d36040518060c00160405280600060ff16815260200160008152602001600081526020016000815260200160006001600160a01b03168152602001606081525090565b81526020019060019003908161098e5790505090506040518060c00160405280600160ff168152602001612328815260200161245481526020016064815260200160006001600160a01b031681526020016040518060400160405280600e81526020016d1155120818dbdc9c995b185d195960921b81525081525081600081518110610963576109636118df565b6040805180820190915260608082526020820152506040805160808101825260068183019081526514d8dc9bdb1b60d21b606083015281528151808301909252600382526229b1b960e91b60208381019190915281019190915290565b565b6060610ae5838360405180606001604052806027815260200161199560279139610d21565b90505b92915050565b6040516322650caf60e01b81527363b20270b695e44ac94ad7592d5f81e3575b93e76004820152737633f981d87dc6307227de9383d2ce7243158081906322650caf90602401600060405180830381600087803b158015610b4e57600080fd5b505af1158015610b62573d6000803e3d6000fd5b50506040516316e6a53960e21b815273c68d0c511076283075bd5cc9aa61e43673135f376004820152737633f981d87dc6307227de9383d2ce72431580819250635b9a94e49150602401600060405180830381600087803b158015610bc657600080fd5b505af1158015610bda573d6000803e3d6000fd5b50506040516316e6a53960e21b815273c4dca550ef04fd0f8abd4c384575fb8a8123054e6004820152737633f981d87dc6307227de9383d2ce72431580819250635b9a94e49150602401600060405180830381600087803b158015610c3e57600080fd5b505af1158015610c52573d6000803e3d6000fd5b50505050610c867311fcfe756c05ad438e312a7fd934381537d3cffe6004605360981b016611c37937e0800061dead610d99565b610cbf7311fcfe756c05ad438e312a7fd934381537d3cffe7306efdbff2a14a7c8e15944d1f4a48f9f95f663a46298968061dead610d99565b610abe7311fcfe756c05ad438e312a7fd934381537d3cffe73f610a9dfb7c89644979b4a0f27063e9e7d7cda326611c37937e0800061dead610d99565b6000612710610d176b033b2e3c9fd0803ce8000000846118f5565b610ae8919061191a565b6060600080856001600160a01b031685604051610d3e919061193c565b600060405180830381855af49150503d8060008114610d79576040519150601f19603f3d011682016040523d82523d6000602084013e610d7e565b606091505b5091509150610d8f86838387610e24565b9695505050505050565b610dad6001600160a01b0384168584610eaa565b60405163617ba03760e01b81526001600160a01b0384811660048301526024820184905282811660448301526000606483015285169063617ba03790608401600060405180830381600087803b158015610e0657600080fd5b505af1158015610e1a573d6000803e3d6000fd5b5050505050505050565b60608315610e98578251600003610e91576001600160a01b0385163b610e915760405162461bcd60e51b815260206004820152601d60248201527f416464726573733a2063616c6c20746f206e6f6e2d636f6e747261637400000060448201526064015b60405180910390fd5b5081610ea2565b610ea28383610f64565b949350505050565b604080516001600160a01b038416602482015260448082018490528251808303909101815260649091019091526020810180516001600160e01b031663095ea7b360e01b179052610efb8482610f8e565b610f5e57604080516001600160a01b038516602482015260006044808301919091528251808303909101815260649091019091526020810180516001600160e01b031663095ea7b360e01b179052610f54908590611036565b610f5e8482611036565b50505050565b815115610f745781518083602001fd5b8060405162461bcd60e51b8152600401610e889190611958565b6000806000846001600160a01b031684604051610fab919061193c565b6000604051808303816000865af19150503d8060008114610fe8576040519150601f19603f3d011682016040523d82523d6000602084013e610fed565b606091505b5091509150818015611017575080511580611017575080806020019051810190611017919061196b565b801561102d57506000856001600160a01b03163b115b95945050505050565b600061104b6001600160a01b0384168361109e565b9050805160001415801561107057508080602001905181019061106e919061196b565b155b1561109957604051635274afe760e01b81526001600160a01b0384166004820152602401610e88565b505050565b6060610ae5838360006040518060400160405280601e81526020017f416464726573733a206c6f772d6c6576656c2063616c6c206661696c6564000081525060608247101561113e5760405162461bcd60e51b815260206004820152602660248201527f416464726573733a20696e73756666696369656e742062616c616e636520666f6044820152651c8818d85b1b60d21b6064820152608401610e88565b600080866001600160a01b0316858760405161115a919061193c565b60006040518083038185875af1925050503d8060008114611197576040519150601f19603f3d011682016040523d82523d6000602084013e61119c565b606091505b50915091506111ad87838387610e24565b979650505050505050565b60405180610240016040528060006001600160a01b031681526020016060815260200160006001600160a01b0316815260200161123a6040518061012001604052806000815260200160008152602001600081526020016000815260200160008152602001600081526020016000815260200160008152602001600081525090565b815260200160008152602001600081526020016000815260200160008152602001600081526020016000815260200160008152602001600081526020016000815260200160008152602001600081526020016000815260200160008152602001600060ff1681525090565b602080825282518282018190526000919060409081850190868401855b8281101561132357815180516001600160a01b0316855286810151878601528581015186860152606080820151908601526080808201519086015260a0808201519086015260c0908101519085015260e090930192908501906001016112c2565b5091979650505050505050565b602080825282518282018190526000919060409081850190868401855b8281101561132357815180516001600160a01b0316855286810151878601528581015186860152606080820151908601526080808201519086015260a0908101519085015260c0909301929085019060010161134d565b602080825282518282018190526000919060409081850190868401855b8281101561132357815180516001600160a01b0316855286015160ff168685015292840192908501906001016113c1565b602080825282518282018190526000919060409081850190868401855b8281101561132357815180516001600160a01b031685528681015187860152850151858501526060909301929085019060010161140f565b602080825282518282018190526000919060409081850190868401855b8281101561132357815180516001600160a01b0390811686529087015116868501529284019290850190600101611464565b60005b838110156114b1578181015183820152602001611499565b50506000910152565b600081518084526114d2816020860160208601611496565b601f01601f19169290920160200192915050565b805182526020810151602083015260408101516040830152606081015160608301526080810151608083015260a081015160a083015260c081015160c083015260e081015160e08301526101008082015181840152505050565b80516001600160a01b0316825260006103406020830151816020860152611569828601826114ba565b915050604083015161158660408601826001600160a01b03169052565b50606083015161159960608601826114e6565b5060808301516101808581019190915260a08401516101a08087019190915260c08501516101c08088019190915260e08601516101e080890191909152610100870151610200808a0191909152610120880151610220808b01919091526101408901516102408b01526101608901516102608b0152948801516102808a0152928701516102a0890152908601516102c08801528501516102e087015284015161030086015283015160ff8116610320860152509392505050565b600081518084526020808501808196508360051b8101915082860160005b85811015611323578284038952611689848351611540565b98850198935090840190600101611671565b602081526000610ae56020830184611653565b60006020808301818452808551808352604092508286019150828160051b87010184880160005b8381101561174b57888303603f190185528151805160ff16845287810151888501528681015187850152606080820151908501526080808201516001600160a01b03169085015260a09081015160c091850182905290611737818601836114ba565b9689019694505050908601906001016116d5565b509098975050505050505050565b6020808252825182820181905260009190848201906040850190845b818110156117b057835180516001600160a01b0316845285015161179b868501826114e6565b50928401926101409290920191600101611775565b50909695505050505050565b600081518084526020808501808196508360051b8101915082860160005b858110156113235782840389528151608081518187526117fc82880182611540565b9288015180516001600160a01b03908116898b0152818a015181166040808b0191909152909101511660609097019690965250988501989350908401906001016117da565b602081526000610ae560208301846117bc565b600081516040845261186960408501826114ba565b90506020830151848203602086015261102d82826114ba565b602081526000610ae56020830184611854565b6040815260006118a86040830185611854565b828103602084015261102d8185611653565b6040815260006118cd6040830185611854565b828103602084015261102d81856117bc565b634e487b7160e01b600052603260045260246000fd5b8082028115828204841417610ae857634e487b7160e01b600052601160045260246000fd5b60008261193757634e487b7160e01b600052601260045260246000fd5b500490565b6000825161194e818460208701611496565b9190910192915050565b602081526000610ae560208301846114ba565b60006020828403121561197d57600080fd5b8151801515811461198d57600080fd5b939250505056fe416464726573733a206c6f772d6c6576656c2064656c65676174652063616c6c206661696c6564a2646970667358221220d9e55de81bd09890d58bef88e99ef55e0df77e1626faae0f3b14bc5f21f916b364736f6c63430008130033","linkReferences":{}},"methodIdentifiers":{"CONFIG_ENGINE()":"5e5eef7a","USDC()":"89a30271","USDC_SEED_AMOUNT()":"02a08f93","WETH()":"ad5c4648","WETH_SEED_AMOUNT()":"44014ec1","assetsEModeUpdates()":"92287095","borrowsUpdates()":"1850edd8","capsUpdates()":"95a93cb1","collateralsUpdates()":"2b179434","eModeCategoriesUpdates()":"ca8e89cc","execute()":"61461954","getPoolContext()":"fbb256f6","newListings()":"c0a25580","newListingsCustom()":"fabe3463","priceFeedsUpdates()":"b1af0d0d","rateStrategiesUpdates()":"d0c38c27","wstETH()":"4aa07e64","wstETH_SEED_AMOUNT()":"9c28620a"},"id":480}