{"abi":[{"type":"constructor","inputs":[{"name":"newOwner","type":"address","internalType":"address"}],"stateMutability":"nonpayable"},{"type":"function","name":"ZERO_IR_STRATEGY","inputs":[],"outputs":[{"name":"","type":"address","internalType":"address"}],"stateMutability":"view"},{"type":"function","name":"execute","inputs":[],"outputs":[],"stateMutability":"nonpayable"},{"type":"function","name":"getAllAaveRoles","inputs":[],"outputs":[{"name":"","type":"bytes32[]","internalType":"bytes32[]"}],"stateMutability":"pure"},{"type":"function","name":"owner","inputs":[],"outputs":[{"name":"","type":"address","internalType":"address"}],"stateMutability":"view"},{"type":"function","name":"renounceOwnership","inputs":[],"outputs":[],"stateMutability":"nonpayable"},{"type":"function","name":"transferOwnership","inputs":[{"name":"newOwner","type":"address","internalType":"address"}],"outputs":[],"stateMutability":"nonpayable"},{"type":"event","name":"OwnershipTransferred","inputs":[{"name":"previousOwner","type":"address","indexed":true,"internalType":"address"},{"name":"newOwner","type":"address","indexed":true,"internalType":"address"}],"anonymous":false}],"bytecode":{"object":"0x608060405234801561001057600080fd5b50604051610cef380380610cef83398101604081905261002f91610097565b61003833610047565b61004181610047565b506100c7565b600080546001600160a01b038381166001600160a01b0319831681178455604051919092169283917f8be0079c531659141344cd1fd0a4f28419497f9722a3daafe3b4186f6b6457e09190a35050565b6000602082840312156100a957600080fd5b81516001600160a01b03811681146100c057600080fd5b9392505050565b610c19806100d66000396000f3fe608060405234801561001057600080fd5b50600436106100625760003560e01c80634af3fe43146100675780636146195414610085578063715018a61461008f5780638da5cb5b14610097578063f2fde38b146100bc578063ff631ecd146100cf575b600080fd5b61006f6100ea565b60405161007c9190610ac0565b60405180910390f35b61008d6102a7565b005b61008d610984565b6000546001600160a01b03165b6040516001600160a01b03909116815260200161007c565b61008d6100ca366004610b04565b610998565b6100a473230e0321cf38f09e247e50afc7801ea2351fe56f81565b60408051600680825260e08201909252606091600091906020820160c0803683370190505090507f19c860a63258efbd0ecb7d55c626237bf5c2044c26c073390b74f0c13c85743360001b8160008151811061014857610148610b34565b6020026020010181815250507f08fb31c3e81624356c3314088aa971b73bcc82d22bc3e3b184b4593077ae327860001b8160018151811061018b5761018b610b34565b6020026020010181815250507f5c91514091af31f62f596a314af7d5be40146b2f2355969392f055e12e0982fb60001b816002815181106101ce576101ce610b34565b6020026020010181815250507f939b8dfb57ecef2aea54a93a15e86768b9d4089f1ba61c245e6ec980695f4ca460001b8160038151811061021157610211610b34565b6020026020010181815250507f12ad05bde78c5ab75238ce885307f96ecd482bb402ef831f99e7018a0f169b7b60001b8160048151811061025457610254610b34565b6020026020010181815250507f8aa855a911518ecfbe5bc3088c8f3dda7badf130faaf8ace33fdc33828e1816760001b8160058151811061029757610297610b34565b6020908102919091010152919050565b73a72636cbcaa8f5ff95b2cc47f3cdee83f3294a0b6102c4610a16565b6040805160088082526101208201909252600091602082016101008036833701905050905073ef977d2f931c1978db5f6747666fa1eacb0d03398160008151811061031157610311610b34565b60200260200101906001600160a01b031690816001600160a01b03168152505073985458e523db3d53125813ed68c274899e9dfab48160018151811061035957610359610b34565b60200260200101906001600160a01b031690816001600160a01b031681525050733c2b8be99c50593081eaa2a724f0b8285f5aba8f816002815181106103a1576103a1610b34565b60200260200101906001600160a01b031690816001600160a01b03168152505073cf664087a5bb0237a0bad6742852ec6c8d69a27a816003815181106103e9576103e9610b34565b60200260200101906001600160a01b031690816001600160a01b03168152505073218532a12a389a4a92fc0c5fb22901d1c19198aa8160048151811061043157610431610b34565b60200260200101906001600160a01b031690816001600160a01b031681525050733095c7557bcb296ccc6e363de01b760ba031f2d98160058151811061047957610479610b34565b60200260200101906001600160a01b031690816001600160a01b031681525050736983d1e6def3690c4d616b13597a09e6193ea013816006815181106104c1576104c1610b34565b60200260200101906001600160a01b031690816001600160a01b03168152505073cf323aad9e522b93f11c352caa519ad0e14eb40f8160078151811061050957610509610b34565b6001600160a01b0392909216602092830291909101820152604080516008808252610120820190925260009290919082016101008036833701905050905073981ab570ac289938f296b975c524b66fbf1b87748160008151811061056f5761056f610b34565b60200260200101906001600160a01b031690816001600160a01b03168152505073a9f30e6ed4098e9439b2ac8aea2d3fc26bcebb45816001815181106105b7576105b7610b34565b60200260200101906001600160a01b031690816001600160a01b0316815250507305225cd708bca9253789c1374e4337a019e99d56816002815181106105ff576105ff610b34565b60200260200101906001600160a01b031690816001600160a01b031681525050733105c276558dd4cf7e7be71d73be8d33bd18f2118160038151811061064757610647610b34565b60200260200101906001600160a01b031690816001600160a01b0316815250507380f2c02224a2e548fc67c0bf705ebfa825dd54398160048151811061068f5761068f610b34565b60200260200101906001600160a01b031690816001600160a01b03168152505073945fd405773973d286de54e44649cc0d9e264f78816005815181106106d7576106d7610b34565b60200260200101906001600160a01b031690816001600160a01b031681525050737fc3fcb14ef04a48bb0c12f0c39cd74c249c37d88160068151811061071f5761071f610b34565b60200260200101906001600160a01b031690816001600160a01b03168152505073fd858c8bc5ac5e10f01018bc78471bb0dc3922478160078151811061076757610767610b34565b6001600160a01b0390921660209283029190910190910152604051630abfd53160e41b8152733c90887ede8d65ccb2777a5d577beab2548280ad9063abfd5310906107b89085908590600401610b8e565b600060405180830381600087803b1580156107d257600080fd5b505af11580156107e6573d6000803e3d6000fd5b5050505060005b82518110156108bc57738145edddf43f50276641b55bd3ad95944510021e6001600160a01b0316631d2118f984838151811061082b5761082b610b34565b60209081029190910101516040516001600160e01b031960e084901b1681526001600160a01b03909116600482015273230e0321cf38f09e247e50afc7801ea2351fe56f6024820152604401600060405180830381600087803b15801561089157600080fd5b505af11580156108a5573d6000803e3d6000fd5b5050505080806108b490610bbc565b9150506107ed565b5050506108c96000610a70565b60006108d36100ea565b905060005b815181101561097f57826001600160a01b03166336568abe83838151811061090257610902610b34565b6020026020010151306040518363ffffffff1660e01b815260040161093a9291909182526001600160a01b0316602082015260400190565b600060405180830381600087803b15801561095457600080fd5b505af1158015610968573d6000803e3d6000fd5b50505050808061097790610bbc565b9150506108d8565b505050565b61098c610a16565b6109966000610a70565b565b6109a0610a16565b6001600160a01b038116610a0a5760405162461bcd60e51b815260206004820152602660248201527f4f776e61626c653a206e6577206f776e657220697320746865207a65726f206160448201526564647265737360d01b60648201526084015b60405180910390fd5b610a1381610a70565b50565b6000546001600160a01b031633146109965760405162461bcd60e51b815260206004820181905260248201527f4f776e61626c653a2063616c6c6572206973206e6f7420746865206f776e65726044820152606401610a01565b600080546001600160a01b038381166001600160a01b0319831681178455604051919092169283917f8be0079c531659141344cd1fd0a4f28419497f9722a3daafe3b4186f6b6457e09190a35050565b6020808252825182820181905260009190848201906040850190845b81811015610af857835183529284019291840191600101610adc565b50909695505050505050565b600060208284031215610b1657600080fd5b81356001600160a01b0381168114610b2d57600080fd5b9392505050565b634e487b7160e01b600052603260045260246000fd5b600081518084526020808501945080840160005b83811015610b835781516001600160a01b031687529582019590820190600101610b5e565b509495945050505050565b604081526000610ba16040830185610b4a565b8281036020840152610bb38185610b4a565b95945050505050565b600060018201610bdc57634e487b7160e01b600052601160045260246000fd5b506001019056fea2646970667358221220ceb98222157cb5b53016b606914e4c48ea5cdcd7e5fcba90d8e1f1423f26b65c64736f6c63430008130033","linkReferences":{}},"methodIdentifiers":{"ZERO_IR_STRATEGY()":"ff631ecd","execute()":"61461954","getAllAaveRoles()":"4af3fe43","owner()":"8da5cb5b","renounceOwnership()":"715018a6","transferOwnership(address)":"f2fde38b"},"id":282}