{"abi":[{"type":"function","name":"CONFIG_ENGINE","inputs":[],"outputs":[{"name":"","type":"address","internalType":"contract IAaveV3ConfigEngine"}],"stateMutability":"view"},{"type":"function","name":"FDUSD","inputs":[],"outputs":[{"name":"","type":"address","internalType":"address"}],"stateMutability":"view"},{"type":"function","name":"FDUSD_SEED_AMOUNT","inputs":[],"outputs":[{"name":"","type":"uint256","internalType":"uint256"}],"stateMutability":"view"},{"type":"function","name":"assetsEModeUpdates","inputs":[],"outputs":[{"name":"","type":"tuple[]","internalType":"struct IAaveV3ConfigEngine.AssetEModeUpdate[]","components":[{"name":"asset","type":"address","internalType":"address"},{"name":"eModeCategory","type":"uint8","internalType":"uint8"}]}],"stateMutability":"view"},{"type":"function","name":"borrowsUpdates","inputs":[],"outputs":[{"name":"","type":"tuple[]","internalType":"struct IAaveV3ConfigEngine.BorrowUpdate[]","components":[{"name":"asset","type":"address","internalType":"address"},{"name":"enabledToBorrow","type":"uint256","internalType":"uint256"},{"name":"flashloanable","type":"uint256","internalType":"uint256"},{"name":"stableRateModeEnabled","type":"uint256","internalType":"uint256"},{"name":"borrowableInIsolation","type":"uint256","internalType":"uint256"},{"name":"withSiloedBorrowing","type":"uint256","internalType":"uint256"},{"name":"reserveFactor","type":"uint256","internalType":"uint256"}]}],"stateMutability":"view"},{"type":"function","name":"capsUpdates","inputs":[],"outputs":[{"name":"","type":"tuple[]","internalType":"struct IAaveV3ConfigEngine.CapsUpdate[]","components":[{"name":"asset","type":"address","internalType":"address"},{"name":"supplyCap","type":"uint256","internalType":"uint256"},{"name":"borrowCap","type":"uint256","internalType":"uint256"}]}],"stateMutability":"view"},{"type":"function","name":"collateralsUpdates","inputs":[],"outputs":[{"name":"","type":"tuple[]","internalType":"struct IAaveV3ConfigEngine.CollateralUpdate[]","components":[{"name":"asset","type":"address","internalType":"address"},{"name":"ltv","type":"uint256","internalType":"uint256"},{"name":"liqThreshold","type":"uint256","internalType":"uint256"},{"name":"liqBonus","type":"uint256","internalType":"uint256"},{"name":"debtCeiling","type":"uint256","internalType":"uint256"},{"name":"liqProtocolFee","type":"uint256","internalType":"uint256"}]}],"stateMutability":"view"},{"type":"function","name":"eModeCategoriesUpdates","inputs":[],"outputs":[{"name":"","type":"tuple[]","internalType":"struct IAaveV3ConfigEngine.EModeCategoryUpdate[]","components":[{"name":"eModeCategory","type":"uint8","internalType":"uint8"},{"name":"ltv","type":"uint256","internalType":"uint256"},{"name":"liqThreshold","type":"uint256","internalType":"uint256"},{"name":"liqBonus","type":"uint256","internalType":"uint256"},{"name":"priceSource","type":"address","internalType":"address"},{"name":"label","type":"string","internalType":"string"}]}],"stateMutability":"view"},{"type":"function","name":"execute","inputs":[],"outputs":[],"stateMutability":"nonpayable"},{"type":"function","name":"getPoolContext","inputs":[],"outputs":[{"name":"","type":"tuple","internalType":"struct IAaveV3ConfigEngine.PoolContext","components":[{"name":"networkName","type":"string","internalType":"string"},{"name":"networkAbbreviation","type":"string","internalType":"string"}]}],"stateMutability":"pure"},{"type":"function","name":"newListings","inputs":[],"outputs":[{"name":"","type":"tuple[]","internalType":"struct IAaveV3ConfigEngine.Listing[]","components":[{"name":"asset","type":"address","internalType":"address"},{"name":"assetSymbol","type":"string","internalType":"string"},{"name":"priceFeed","type":"address","internalType":"address"},{"name":"rateStrategyParams","type":"tuple","internalType":"struct IV3RateStrategyFactory.RateStrategyParams","components":[{"name":"optimalUsageRatio","type":"uint256","internalType":"uint256"},{"name":"baseVariableBorrowRate","type":"uint256","internalType":"uint256"},{"name":"variableRateSlope1","type":"uint256","internalType":"uint256"},{"name":"variableRateSlope2","type":"uint256","internalType":"uint256"},{"name":"stableRateSlope1","type":"uint256","internalType":"uint256"},{"name":"stableRateSlope2","type":"uint256","internalType":"uint256"},{"name":"baseStableRateOffset","type":"uint256","internalType":"uint256"},{"name":"stableRateExcessOffset","type":"uint256","internalType":"uint256"},{"name":"optimalStableToTotalDebtRatio","type":"uint256","internalType":"uint256"}]},{"name":"enabledToBorrow","type":"uint256","internalType":"uint256"},{"name":"stableRateModeEnabled","type":"uint256","internalType":"uint256"},{"name":"borrowableInIsolation","type":"uint256","internalType":"uint256"},{"name":"withSiloedBorrowing","type":"uint256","internalType":"uint256"},{"name":"flashloanable","type":"uint256","internalType":"uint256"},{"name":"ltv","type":"uint256","internalType":"uint256"},{"name":"liqThreshold","type":"uint256","internalType":"uint256"},{"name":"liqBonus","type":"uint256","internalType":"uint256"},{"name":"reserveFactor","type":"uint256","internalType":"uint256"},{"name":"supplyCap","type":"uint256","internalType":"uint256"},{"name":"borrowCap","type":"uint256","internalType":"uint256"},{"name":"debtCeiling","type":"uint256","internalType":"uint256"},{"name":"liqProtocolFee","type":"uint256","internalType":"uint256"},{"name":"eModeCategory","type":"uint8","internalType":"uint8"}]}],"stateMutability":"pure"},{"type":"function","name":"newListingsCustom","inputs":[],"outputs":[{"name":"","type":"tuple[]","internalType":"struct IAaveV3ConfigEngine.ListingWithCustomImpl[]","components":[{"name":"base","type":"tuple","internalType":"struct IAaveV3ConfigEngine.Listing","components":[{"name":"asset","type":"address","internalType":"address"},{"name":"assetSymbol","type":"string","internalType":"string"},{"name":"priceFeed","type":"address","internalType":"address"},{"name":"rateStrategyParams","type":"tuple","internalType":"struct IV3RateStrategyFactory.RateStrategyParams","components":[{"name":"optimalUsageRatio","type":"uint256","internalType":"uint256"},{"name":"baseVariableBorrowRate","type":"uint256","internalType":"uint256"},{"name":"variableRateSlope1","type":"uint256","internalType":"uint256"},{"name":"variableRateSlope2","type":"uint256","internalType":"uint256"},{"name":"stableRateSlope1","type":"uint256","internalType":"uint256"},{"name":"stableRateSlope2","type":"uint256","internalType":"uint256"},{"name":"baseStableRateOffset","type":"uint256","internalType":"uint256"},{"name":"stableRateExcessOffset","type":"uint256","internalType":"uint256"},{"name":"optimalStableToTotalDebtRatio","type":"uint256","internalType":"uint256"}]},{"name":"enabledToBorrow","type":"uint256","internalType":"uint256"},{"name":"stableRateModeEnabled","type":"uint256","internalType":"uint256"},{"name":"borrowableInIsolation","type":"uint256","internalType":"uint256"},{"name":"withSiloedBorrowing","type":"uint256","internalType":"uint256"},{"name":"flashloanable","type":"uint256","internalType":"uint256"},{"name":"ltv","type":"uint256","internalType":"uint256"},{"name":"liqThreshold","type":"uint256","internalType":"uint256"},{"name":"liqBonus","type":"uint256","internalType":"uint256"},{"name":"reserveFactor","type":"uint256","internalType":"uint256"},{"name":"supplyCap","type":"uint256","internalType":"uint256"},{"name":"borrowCap","type":"uint256","internalType":"uint256"},{"name":"debtCeiling","type":"uint256","internalType":"uint256"},{"name":"liqProtocolFee","type":"uint256","internalType":"uint256"},{"name":"eModeCategory","type":"uint8","internalType":"uint8"}]},{"name":"implementations","type":"tuple","internalType":"struct IAaveV3ConfigEngine.TokenImplementations","components":[{"name":"aToken","type":"address","internalType":"address"},{"name":"vToken","type":"address","internalType":"address"},{"name":"sToken","type":"address","internalType":"address"}]}]}],"stateMutability":"view"},{"type":"function","name":"priceFeedsUpdates","inputs":[],"outputs":[{"name":"","type":"tuple[]","internalType":"struct IAaveV3ConfigEngine.PriceFeedUpdate[]","components":[{"name":"asset","type":"address","internalType":"address"},{"name":"priceFeed","type":"address","internalType":"address"}]}],"stateMutability":"view"},{"type":"function","name":"rateStrategiesUpdates","inputs":[],"outputs":[{"name":"","type":"tuple[]","internalType":"struct IAaveV3ConfigEngine.RateStrategyUpdate[]","components":[{"name":"asset","type":"address","internalType":"address"},{"name":"params","type":"tuple","internalType":"struct IV3RateStrategyFactory.RateStrategyParams","components":[{"name":"optimalUsageRatio","type":"uint256","internalType":"uint256"},{"name":"baseVariableBorrowRate","type":"uint256","internalType":"uint256"},{"name":"variableRateSlope1","type":"uint256","internalType":"uint256"},{"name":"variableRateSlope2","type":"uint256","internalType":"uint256"},{"name":"stableRateSlope1","type":"uint256","internalType":"uint256"},{"name":"stableRateSlope2","type":"uint256","internalType":"uint256"},{"name":"baseStableRateOffset","type":"uint256","internalType":"uint256"},{"name":"stableRateExcessOffset","type":"uint256","internalType":"uint256"},{"name":"optimalStableToTotalDebtRatio","type":"uint256","internalType":"uint256"}]}]}],"stateMutability":"view"},{"type":"error","name":"SafeERC20FailedOperation","inputs":[{"name":"token","type":"address","internalType":"address"}]}],"bytecode":{"object":"0x60a060405234801561001057600080fd5b5073cb0670258e5961cca85d8f71d29c1167ef20de996080526080516113bf61004b60003960008181610167015261029401526113bf6000f3fe608060405234801561001057600080fd5b50600436106100ea5760003560e01c806395a93cb11161008c578063ca8e89cc11610066578063ca8e89cc146101d5578063d0c38c27146101e4578063fabe3463146101f3578063fbb256f61461020257600080fd5b806395a93cb1146101a2578063b1af0d0d146101b1578063c0a25580146101c057600080fd5b806341769082116100c857806341769082146101455780635e5eef7a146101625780636146195414610189578063922870951461019357600080fd5b806311317c39146100ef5780631850edd8146101275780632b17943414610136575b600080fd5b61010a73c5f0f7b66764f6ec8c8dff7ba683102295e1640981565b6040516001600160a01b0390911681526020015b60405180910390f35b606060405161011e9190610c73565b606060405161011e9190610cfe565b610154670de0b6b3a764000081565b60405190815260200161011e565b61010a7f000000000000000000000000000000000000000000000000000000000000000081565b610191610217565b005b606060405161011e9190610d72565b606060405161011e9190610dc0565b606060405161011e9190610e15565b6101c8610409565b60405161011e9190611069565b606060405161011e919061107c565b606060405161011e9190611127565b606060405161011e919061120f565b61020a6105e3565b60405161011e9190611250565b60606000610223610409565b8251909150606090819081908190819081908190156102bc576102ba63a192ac2460e01b8a604051602401610258919061107c565b60408051601f198184030181529190526020810180516001600160e01b03166001600160e01b0319909316929092179091526001600160a01b037f00000000000000000000000000000000000000000000000000000000000000001690610649565b505b8751156102ea576102e8633cb6502d60e01b6102d66105e3565b8a604051602401610258929190611263565b505b865115610318576103166314d8093760e21b6103046105e3565b89604051602401610258929190611288565b505b84511561033d5761033b63bb06653560e01b866040516024016102589190610c73565b505b855115610362576103606309d8332860e01b876040516024016102589190610cfe565b505b835115610387576103856324f4c44560e01b856040516024016102589190611127565b505b8251156103ac576103aa63927c400360e01b846040516024016102589190610e15565b505b8151156103d1576103cf632a90e62360e01b836040516024016102589190610d72565b505b8051156103f6576103f46355caa16360e01b826040516024016102589190610dc0565b505b6103fe610677565b505050505050505050565b60408051600180825281830190925260609160009190816020015b61042c610b86565b81526020019060019003908161042457905050905060405180610240016040528073c5f0f7b66764f6ec8c8dff7ba683102295e164096001600160a01b031681526020016040518060400160405280600581526020016411911554d160da1b815250815260200173390180e80058a8499930f0c13963ad3e0d86bfc96001600160a01b031681526020016040518061012001604052806104cd61232861075b565b81526020016104dc600061075b565b81526020016104ec61025861075b565b81526020016104fc611d4c61075b565b815260200161050c61051461075b565b815260200161051c61753061075b565b815260200161052c61012c61075b565b815260200161053c61032061075b565b815260200161054c6107d061075b565b81525081526020016001815260200160008152602001600181526020016000815260200160018152602001611b588152602001611d4c81526020016101f481526020016107d08152602001627a12008152602001627270e08152602001600081526020016103e88152602001600060ff16815250816000815181106105d3576105d36112ad565b6020908102919091010152919050565b60408051808201909152606080825260208201525060408051608081018252600f8183019081526e2127211029b6b0b93a1021b430b4b760891b606083015281528151808301909252600382526221373160e91b60208381019190915281019190915290565b606061066e838360405180606001604052806027815260200161136360279139610780565b90505b92915050565b6106b273c5f0f7b66764f6ec8c8dff7ba683102295e16409736807dc923806fe8fd134338eabca509979a7e0cb670de0b6b3a76400006107f8565b60405163617ba03760e01b815273c5f0f7b66764f6ec8c8dff7ba683102295e164096004820152670de0b6b3a764000060248201527325ec457d1778b0e5316e7f38f3c22baf413f1a8c604482015260006064820152736807dc923806fe8fd134338eabca509979a7e0cb9063617ba03790608401600060405180830381600087803b15801561074157600080fd5b505af1158015610755573d6000803e3d6000fd5b50505050565b60006127106107766b033b2e3c9fd0803ce8000000846112c3565b61067191906112e8565b6060600080856001600160a01b03168560405161079d919061130a565b600060405180830381855af49150503d80600081146107d8576040519150601f19603f3d011682016040523d82523d6000602084013e6107dd565b606091505b50915091506107ee868383876108ac565b9695505050505050565b604080516001600160a01b038416602482015260448082018490528251808303909101815260649091019091526020810180516001600160e01b031663095ea7b360e01b1790526108498482610932565b61075557604080516001600160a01b038516602482015260006044808301919091528251808303909101815260649091019091526020810180516001600160e01b031663095ea7b360e01b1790526108a29085906109da565b61075584826109da565b60608315610920578251600003610919576001600160a01b0385163b6109195760405162461bcd60e51b815260206004820152601d60248201527f416464726573733a2063616c6c20746f206e6f6e2d636f6e747261637400000060448201526064015b60405180910390fd5b508161092a565b61092a8383610a42565b949350505050565b6000806000846001600160a01b03168460405161094f919061130a565b6000604051808303816000865af19150503d806000811461098c576040519150601f19603f3d011682016040523d82523d6000602084013e610991565b606091505b50915091508180156109bb5750805115806109bb5750808060200190518101906109bb9190611326565b80156109d157506000856001600160a01b03163b115b95945050505050565b60006109ef6001600160a01b03841683610a6c565b90508051600014158015610a14575080806020019051810190610a129190611326565b155b15610a3d57604051635274afe760e01b81526001600160a01b0384166004820152602401610910565b505050565b815115610a525781518083602001fd5b8060405162461bcd60e51b8152600401610910919061134f565b606061066e838360006040518060400160405280601e81526020017f416464726573733a206c6f772d6c6576656c2063616c6c206661696c65640000815250606082471015610b0c5760405162461bcd60e51b815260206004820152602660248201527f416464726573733a20696e73756666696369656e742062616c616e636520666f6044820152651c8818d85b1b60d21b6064820152608401610910565b600080866001600160a01b03168587604051610b28919061130a565b60006040518083038185875af1925050503d8060008114610b65576040519150601f19603f3d011682016040523d82523d6000602084013e610b6a565b606091505b5091509150610b7b878383876108ac565b979650505050505050565b60405180610240016040528060006001600160a01b031681526020016060815260200160006001600160a01b03168152602001610c086040518061012001604052806000815260200160008152602001600081526020016000815260200160008152602001600081526020016000815260200160008152602001600081525090565b815260200160008152602001600081526020016000815260200160008152602001600081526020016000815260200160008152602001600081526020016000815260200160008152602001600081526020016000815260200160008152602001600060ff1681525090565b602080825282518282018190526000919060409081850190868401855b82811015610cf157815180516001600160a01b0316855286810151878601528581015186860152606080820151908601526080808201519086015260a0808201519086015260c0908101519085015260e09093019290850190600101610c90565b5091979650505050505050565b602080825282518282018190526000919060409081850190868401855b82811015610cf157815180516001600160a01b0316855286810151878601528581015186860152606080820151908601526080808201519086015260a0908101519085015260c09093019290850190600101610d1b565b602080825282518282018190526000919060409081850190868401855b82811015610cf157815180516001600160a01b0316855286015160ff16868501529284019290850190600101610d8f565b602080825282518282018190526000919060409081850190868401855b82811015610cf157815180516001600160a01b0316855286810151878601528501518585015260609093019290850190600101610ddd565b602080825282518282018190526000919060409081850190868401855b82811015610cf157815180516001600160a01b0390811686529087015116868501529284019290850190600101610e32565b60005b83811015610e7f578181015183820152602001610e67565b50506000910152565b60008151808452610ea0816020860160208601610e64565b601f01601f19169290920160200192915050565b805182526020810151602083015260408101516040830152606081015160608301526080810151608083015260a081015160a083015260c081015160c083015260e081015160e08301526101008082015181840152505050565b80516001600160a01b0316825260006103406020830151816020860152610f3782860182610e88565b9150506040830151610f5460408601826001600160a01b03169052565b506060830151610f676060860182610eb4565b5060808301516101808581019190915260a08401516101a08087019190915260c08501516101c08088019190915260e08601516101e080890191909152610100870151610200808a0191909152610120880151610220808b01919091526101408901516102408b01526101608901516102608b0152948801516102808a0152928701516102a0890152908601516102c08801528501516102e087015284015161030086015283015160ff8116610320860152509392505050565b600081518084526020808501808196508360051b8101915082860160005b85811015610cf1578284038952611057848351610f0e565b9885019893509084019060010161103f565b60208152600061066e6020830184611021565b60006020808301818452808551808352604092508286019150828160051b87010184880160005b8381101561111957888303603f190185528151805160ff16845287810151888501528681015187850152606080820151908501526080808201516001600160a01b03169085015260a09081015160c09185018290529061110581860183610e88565b9689019694505050908601906001016110a3565b509098975050505050505050565b6020808252825182820181905260009190848201906040850190845b8181101561117e57835180516001600160a01b0316845285015161116986850182610eb4565b50928401926101409290920191600101611143565b50909695505050505050565b600081518084526020808501808196508360051b8101915082860160005b85811015610cf15782840389528151608081518187526111ca82880182610f0e565b9288015180516001600160a01b03908116898b0152818a015181166040808b0191909152909101511660609097019690965250988501989350908401906001016111a8565b60208152600061066e602083018461118a565b60008151604084526112376040850182610e88565b9050602083015184820360208601526109d18282610e88565b60208152600061066e6020830184611222565b6040815260006112766040830185611222565b82810360208401526109d18185611021565b60408152600061129b6040830185611222565b82810360208401526109d1818561118a565b634e487b7160e01b600052603260045260246000fd5b808202811582820484141761067157634e487b7160e01b600052601160045260246000fd5b60008261130557634e487b7160e01b600052601260045260246000fd5b500490565b6000825161131c818460208701610e64565b9190910192915050565b60006020828403121561133857600080fd5b8151801515811461134857600080fd5b9392505050565b60208152600061066e6020830184610e8856fe416464726573733a206c6f772d6c6576656c2064656c65676174652063616c6c206661696c6564a2646970667358221220d73a203e5b83904c38b2b216eab6e8f8671516693438acc78bebbf0f863e7c6764736f6c63430008130033","linkReferences":{}},"methodIdentifiers":{"CONFIG_ENGINE()":"5e5eef7a","FDUSD()":"11317c39","FDUSD_SEED_AMOUNT()":"41769082","assetsEModeUpdates()":"92287095","borrowsUpdates()":"1850edd8","capsUpdates()":"95a93cb1","collateralsUpdates()":"2b179434","eModeCategoriesUpdates()":"ca8e89cc","execute()":"61461954","getPoolContext()":"fbb256f6","newListings()":"c0a25580","newListingsCustom()":"fabe3463","priceFeedsUpdates()":"b1af0d0d","rateStrategiesUpdates()":"d0c38c27"},"id":503}