{"abi":[{"type":"function","name":"CONFIG_ENGINE","inputs":[],"outputs":[{"name":"","type":"address","internalType":"contract IAaveV3ConfigEngine"}],"stateMutability":"view"},{"type":"function","name":"USDCn","inputs":[],"outputs":[{"name":"","type":"address","internalType":"address"}],"stateMutability":"view"},{"type":"function","name":"USDCn_SEED_AMOUNT","inputs":[],"outputs":[{"name":"","type":"uint256","internalType":"uint256"}],"stateMutability":"view"},{"type":"function","name":"assetsEModeUpdates","inputs":[],"outputs":[{"name":"","type":"tuple[]","internalType":"struct IAaveV3ConfigEngine.AssetEModeUpdate[]","components":[{"name":"asset","type":"address","internalType":"address"},{"name":"eModeCategory","type":"uint8","internalType":"uint8"}]}],"stateMutability":"view"},{"type":"function","name":"borrowsUpdates","inputs":[],"outputs":[{"name":"","type":"tuple[]","internalType":"struct IAaveV3ConfigEngine.BorrowUpdate[]","components":[{"name":"asset","type":"address","internalType":"address"},{"name":"enabledToBorrow","type":"uint256","internalType":"uint256"},{"name":"flashloanable","type":"uint256","internalType":"uint256"},{"name":"stableRateModeEnabled","type":"uint256","internalType":"uint256"},{"name":"borrowableInIsolation","type":"uint256","internalType":"uint256"},{"name":"withSiloedBorrowing","type":"uint256","internalType":"uint256"},{"name":"reserveFactor","type":"uint256","internalType":"uint256"}]}],"stateMutability":"pure"},{"type":"function","name":"capsUpdates","inputs":[],"outputs":[{"name":"","type":"tuple[]","internalType":"struct IAaveV3ConfigEngine.CapsUpdate[]","components":[{"name":"asset","type":"address","internalType":"address"},{"name":"supplyCap","type":"uint256","internalType":"uint256"},{"name":"borrowCap","type":"uint256","internalType":"uint256"}]}],"stateMutability":"pure"},{"type":"function","name":"collateralsUpdates","inputs":[],"outputs":[{"name":"","type":"tuple[]","internalType":"struct IAaveV3ConfigEngine.CollateralUpdate[]","components":[{"name":"asset","type":"address","internalType":"address"},{"name":"ltv","type":"uint256","internalType":"uint256"},{"name":"liqThreshold","type":"uint256","internalType":"uint256"},{"name":"liqBonus","type":"uint256","internalType":"uint256"},{"name":"debtCeiling","type":"uint256","internalType":"uint256"},{"name":"liqProtocolFee","type":"uint256","internalType":"uint256"}]}],"stateMutability":"pure"},{"type":"function","name":"eModeCategoriesUpdates","inputs":[],"outputs":[{"name":"","type":"tuple[]","internalType":"struct IAaveV3ConfigEngine.EModeCategoryUpdate[]","components":[{"name":"eModeCategory","type":"uint8","internalType":"uint8"},{"name":"ltv","type":"uint256","internalType":"uint256"},{"name":"liqThreshold","type":"uint256","internalType":"uint256"},{"name":"liqBonus","type":"uint256","internalType":"uint256"},{"name":"priceSource","type":"address","internalType":"address"},{"name":"label","type":"string","internalType":"string"}]}],"stateMutability":"view"},{"type":"function","name":"execute","inputs":[],"outputs":[],"stateMutability":"nonpayable"},{"type":"function","name":"getPoolContext","inputs":[],"outputs":[{"name":"","type":"tuple","internalType":"struct IAaveV3ConfigEngine.PoolContext","components":[{"name":"networkName","type":"string","internalType":"string"},{"name":"networkAbbreviation","type":"string","internalType":"string"}]}],"stateMutability":"pure"},{"type":"function","name":"newListings","inputs":[],"outputs":[{"name":"","type":"tuple[]","internalType":"struct IAaveV3ConfigEngine.Listing[]","components":[{"name":"asset","type":"address","internalType":"address"},{"name":"assetSymbol","type":"string","internalType":"string"},{"name":"priceFeed","type":"address","internalType":"address"},{"name":"rateStrategyParams","type":"tuple","internalType":"struct IV3RateStrategyFactory.RateStrategyParams","components":[{"name":"optimalUsageRatio","type":"uint256","internalType":"uint256"},{"name":"baseVariableBorrowRate","type":"uint256","internalType":"uint256"},{"name":"variableRateSlope1","type":"uint256","internalType":"uint256"},{"name":"variableRateSlope2","type":"uint256","internalType":"uint256"},{"name":"stableRateSlope1","type":"uint256","internalType":"uint256"},{"name":"stableRateSlope2","type":"uint256","internalType":"uint256"},{"name":"baseStableRateOffset","type":"uint256","internalType":"uint256"},{"name":"stableRateExcessOffset","type":"uint256","internalType":"uint256"},{"name":"optimalStableToTotalDebtRatio","type":"uint256","internalType":"uint256"}]},{"name":"enabledToBorrow","type":"uint256","internalType":"uint256"},{"name":"stableRateModeEnabled","type":"uint256","internalType":"uint256"},{"name":"borrowableInIsolation","type":"uint256","internalType":"uint256"},{"name":"withSiloedBorrowing","type":"uint256","internalType":"uint256"},{"name":"flashloanable","type":"uint256","internalType":"uint256"},{"name":"ltv","type":"uint256","internalType":"uint256"},{"name":"liqThreshold","type":"uint256","internalType":"uint256"},{"name":"liqBonus","type":"uint256","internalType":"uint256"},{"name":"reserveFactor","type":"uint256","internalType":"uint256"},{"name":"supplyCap","type":"uint256","internalType":"uint256"},{"name":"borrowCap","type":"uint256","internalType":"uint256"},{"name":"debtCeiling","type":"uint256","internalType":"uint256"},{"name":"liqProtocolFee","type":"uint256","internalType":"uint256"},{"name":"eModeCategory","type":"uint8","internalType":"uint8"}]}],"stateMutability":"pure"},{"type":"function","name":"newListingsCustom","inputs":[],"outputs":[{"name":"","type":"tuple[]","internalType":"struct IAaveV3ConfigEngine.ListingWithCustomImpl[]","components":[{"name":"base","type":"tuple","internalType":"struct IAaveV3ConfigEngine.Listing","components":[{"name":"asset","type":"address","internalType":"address"},{"name":"assetSymbol","type":"string","internalType":"string"},{"name":"priceFeed","type":"address","internalType":"address"},{"name":"rateStrategyParams","type":"tuple","internalType":"struct IV3RateStrategyFactory.RateStrategyParams","components":[{"name":"optimalUsageRatio","type":"uint256","internalType":"uint256"},{"name":"baseVariableBorrowRate","type":"uint256","internalType":"uint256"},{"name":"variableRateSlope1","type":"uint256","internalType":"uint256"},{"name":"variableRateSlope2","type":"uint256","internalType":"uint256"},{"name":"stableRateSlope1","type":"uint256","internalType":"uint256"},{"name":"stableRateSlope2","type":"uint256","internalType":"uint256"},{"name":"baseStableRateOffset","type":"uint256","internalType":"uint256"},{"name":"stableRateExcessOffset","type":"uint256","internalType":"uint256"},{"name":"optimalStableToTotalDebtRatio","type":"uint256","internalType":"uint256"}]},{"name":"enabledToBorrow","type":"uint256","internalType":"uint256"},{"name":"stableRateModeEnabled","type":"uint256","internalType":"uint256"},{"name":"borrowableInIsolation","type":"uint256","internalType":"uint256"},{"name":"withSiloedBorrowing","type":"uint256","internalType":"uint256"},{"name":"flashloanable","type":"uint256","internalType":"uint256"},{"name":"ltv","type":"uint256","internalType":"uint256"},{"name":"liqThreshold","type":"uint256","internalType":"uint256"},{"name":"liqBonus","type":"uint256","internalType":"uint256"},{"name":"reserveFactor","type":"uint256","internalType":"uint256"},{"name":"supplyCap","type":"uint256","internalType":"uint256"},{"name":"borrowCap","type":"uint256","internalType":"uint256"},{"name":"debtCeiling","type":"uint256","internalType":"uint256"},{"name":"liqProtocolFee","type":"uint256","internalType":"uint256"},{"name":"eModeCategory","type":"uint8","internalType":"uint8"}]},{"name":"implementations","type":"tuple","internalType":"struct IAaveV3ConfigEngine.TokenImplementations","components":[{"name":"aToken","type":"address","internalType":"address"},{"name":"vToken","type":"address","internalType":"address"},{"name":"sToken","type":"address","internalType":"address"}]}]}],"stateMutability":"view"},{"type":"function","name":"priceFeedsUpdates","inputs":[],"outputs":[{"name":"","type":"tuple[]","internalType":"struct IAaveV3ConfigEngine.PriceFeedUpdate[]","components":[{"name":"asset","type":"address","internalType":"address"},{"name":"priceFeed","type":"address","internalType":"address"}]}],"stateMutability":"view"},{"type":"function","name":"rateStrategiesUpdates","inputs":[],"outputs":[{"name":"","type":"tuple[]","internalType":"struct IAaveV3ConfigEngine.RateStrategyUpdate[]","components":[{"name":"asset","type":"address","internalType":"address"},{"name":"params","type":"tuple","internalType":"struct IV3RateStrategyFactory.RateStrategyParams","components":[{"name":"optimalUsageRatio","type":"uint256","internalType":"uint256"},{"name":"baseVariableBorrowRate","type":"uint256","internalType":"uint256"},{"name":"variableRateSlope1","type":"uint256","internalType":"uint256"},{"name":"variableRateSlope2","type":"uint256","internalType":"uint256"},{"name":"stableRateSlope1","type":"uint256","internalType":"uint256"},{"name":"stableRateSlope2","type":"uint256","internalType":"uint256"},{"name":"baseStableRateOffset","type":"uint256","internalType":"uint256"},{"name":"stableRateExcessOffset","type":"uint256","internalType":"uint256"},{"name":"optimalStableToTotalDebtRatio","type":"uint256","internalType":"uint256"}]}]}],"stateMutability":"pure"},{"type":"error","name":"SafeERC20FailedOperation","inputs":[{"name":"token","type":"address","internalType":"address"}]}],"bytecode":{"object":"0x60a060405234801561001057600080fd5b5073ffd6f13c9574bedb3f4e131e9c4320186af83c1d6080526080516117f161004b6000396000818161017201526104e301526117f16000f3fe608060405234801561001057600080fd5b50600436106100ea5760003560e01c806395a93cb11161008c578063ca8e89cc11610066578063ca8e89cc146101e6578063d0c38c27146101f5578063fabe34631461020a578063fbb256f61461021957600080fd5b806395a93cb1146101ad578063b1af0d0d146101c2578063c0a25580146101d157600080fd5b806345e81c50116100c857806345e81c50146101555780635e5eef7a1461016d5780636146195414610194578063922870951461019e57600080fd5b80631850edd8146100ef5780631cb8da4e1461010d5780632b17943414610140575b600080fd5b6100f761022e565b6040516101049190611083565b60405180910390f35b610128733c499c542cef5e3811e1192ce70d8cc03d5c335981565b6040516001600160a01b039091168152602001610104565b610148610350565b604051610104919061110e565b61015f620f424081565b604051908152602001610104565b6101287f000000000000000000000000000000000000000000000000000000000000000081565b61019c61043f565b005b60606040516101049190611182565b6101b5610658565b60405161010491906111d0565b60606040516101049190611225565b6101d9610708565b6040516101049190611483565b60606040516101049190611496565b6101fd6108d1565b6040516101049190611541565b60606040516101049190611626565b6102216109eb565b6040516101049190611667565b60408051600180825281830190925260609160009190816020015b6102926040518060e0016040528060006001600160a01b031681526020016000815260200160008152602001600081526020016000815260200160008152602001600081525090565b8152602001906001900390816102495750506040805160e08101909152732791bca1f2de4661ed88a30c99a7a9449aa841748152909150602081016102da602a600019611690565b81526020016102ec602a600019611690565b81526020016102fe602a600019611690565b8152602001610310602a600019611690565b8152602001610322602a600019611690565b81526020016107d081525081600081518110610340576103406116a3565b6020908102919091010152919050565b60408051600180825281830190925260609160009190816020015b6103ad6040518060c0016040528060006001600160a01b0316815260200160008152602001600081526020016000815260200160008152602001600081525090565b81526020019060019003908161036b5790505090506040518060c00160405280732791bca1f2de4661ed88a30c99a7a9449aa841746001600160a01b03168152602001611e148152602001611f4081526020016101f48152602001602a6000196104179190611690565b8152602001610429602a600019611690565b81525081600081518110610340576103406116a3565b6060600061044b610708565b905060606000610459610350565b9050600061046561022e565b905060006104716108d1565b90506060806000610480610658565b9050885160001461050b5761050963a192ac2460e01b8a6040516024016104a79190611496565b60408051601f198184030181529190526020810180516001600160e01b03166001600160e01b0319909316929092179091526001600160a01b037f00000000000000000000000000000000000000000000000000000000000000001690610a49565b505b87511561053957610537633cb6502d60e01b6105256109eb565b8a6040516024016104a79291906116b9565b505b865115610567576105656314d8093760e21b6105536109eb565b896040516024016104a79291906116de565b505b84511561058c5761058a63bb06653560e01b866040516024016104a79190611083565b505b8551156105b1576105af6309d8332860e01b876040516024016104a7919061110e565b505b8351156105d6576105d46324f4c44560e01b856040516024016104a79190611541565b505b8251156105fb576105f963927c400360e01b846040516024016104a79190611225565b505b8151156106205761061e632a90e62360e01b836040516024016104a79190611182565b505b805115610645576106436355caa16360e01b826040516024016104a791906111d0565b505b61064d610a77565b505050505050505050565b60408051600180825281830190925260609160009190816020015b6106a0604051806060016040528060006001600160a01b0316815260200160008152602001600081525090565b8152602001906001900390816106735790505090506040518060600160405280732791bca1f2de4661ed88a30c99a7a9449aa841746001600160a01b031681526020016302625a008152602001630225510081525081600081518110610340576103406116a3565b60408051600180825281830190925260609160009190816020015b61072b610f7c565b815260200190600190039081610723579050509050604051806102400160405280733c499c542cef5e3811e1192ce70d8cc03d5c33596001600160a01b03168152602001604051806040016040528060058152602001642aa9a221b760d91b815250815260200173fe4a8cc5b5b2366c1b58bea3858e81843581b2f76001600160a01b031681526020016040518061012001604052806107cc612328610b51565b81526020016107db6000610b51565b81526020016107eb6101f4610b51565b81526020016107fb611770610b51565b815260200161080b6101f4610b51565b815260200161081b611770610b51565b815260200161082a6000610b51565b81526020016108396000610b51565b81526020016108486000610b51565b81525081526020016001815260200160008152602001600081526020016000815260200160018152602001611e148152602001611f4081526020016101f481526020016103e881526020016302faf08081526020016302aea5408152602001600081526020016103e88152602001600160ff1681525081600081518110610340576103406116a3565b60408051600180825281830190925260609160009190816020015b6108f461100f565b8152602001906001900390816108ec575050604080518082018252732791bca1f2de4661ed88a30c99a7a9449aa84174815281516101208101909252919250602082019080610946602a600019611690565b8152602001610958602a600019611690565b81526020016109686102bc610b51565b8152602001610978611f40610b51565b815260200161098a602a600019611690565b815260200161099c602a600019611690565b81526020016109ae602a600019611690565b81526020016109c0602a600019611690565b81526020016109d2602a600019611690565b81525081525081600081518110610340576103406116a3565b604080518082019091526060808252602082015250604080516080810182526007818301908152662837b63cb3b7b760c91b6060830152815281518083019092526003825262141bdb60ea1b60208381019190915281019190915290565b6060610a6e838360405180606001604052806027815260200161179560279139610b76565b90505b92915050565b610aad733c499c542cef5e3811e1192ce70d8cc03d5c335973794a61358d6845594f94dc1db02a252b5b4814ad620f4240610bee565b60405163617ba03760e01b8152733c499c542cef5e3811e1192ce70d8cc03d5c33596004820152620f4240602482015273e8599f3cc5d38a9ad6f3684cd5cea72f10dbc38360448201526000606482015273794a61358d6845594f94dc1db02a252b5b4814ad9063617ba03790608401600060405180830381600087803b158015610b3757600080fd5b505af1158015610b4b573d6000803e3d6000fd5b50505050565b6000612710610b6c6b033b2e3c9fd0803ce800000084611703565b610a71919061171a565b6060600080856001600160a01b031685604051610b93919061173c565b600060405180830381855af49150503d8060008114610bce576040519150601f19603f3d011682016040523d82523d6000602084013e610bd3565b606091505b5091509150610be486838387610ca2565b9695505050505050565b604080516001600160a01b038416602482015260448082018490528251808303909101815260649091019091526020810180516001600160e01b031663095ea7b360e01b179052610c3f8482610d28565b610b4b57604080516001600160a01b038516602482015260006044808301919091528251808303909101815260649091019091526020810180516001600160e01b031663095ea7b360e01b179052610c98908590610dd0565b610b4b8482610dd0565b60608315610d16578251600003610d0f576001600160a01b0385163b610d0f5760405162461bcd60e51b815260206004820152601d60248201527f416464726573733a2063616c6c20746f206e6f6e2d636f6e747261637400000060448201526064015b60405180910390fd5b5081610d20565b610d208383610e38565b949350505050565b6000806000846001600160a01b031684604051610d45919061173c565b6000604051808303816000865af19150503d8060008114610d82576040519150601f19603f3d011682016040523d82523d6000602084013e610d87565b606091505b5091509150818015610db1575080511580610db1575080806020019051810190610db19190611758565b8015610dc757506000856001600160a01b03163b115b95945050505050565b6000610de56001600160a01b03841683610e62565b90508051600014158015610e0a575080806020019051810190610e089190611758565b155b15610e3357604051635274afe760e01b81526001600160a01b0384166004820152602401610d06565b505050565b815115610e485781518083602001fd5b8060405162461bcd60e51b8152600401610d069190611781565b6060610a6e838360006040518060400160405280601e81526020017f416464726573733a206c6f772d6c6576656c2063616c6c206661696c65640000815250606082471015610f025760405162461bcd60e51b815260206004820152602660248201527f416464726573733a20696e73756666696369656e742062616c616e636520666f6044820152651c8818d85b1b60d21b6064820152608401610d06565b600080866001600160a01b03168587604051610f1e919061173c565b60006040518083038185875af1925050503d8060008114610f5b576040519150601f19603f3d011682016040523d82523d6000602084013e610f60565b606091505b5091509150610f7187838387610ca2565b979650505050505050565b6040805161024081018252600080825260606020830181905292820152908101610fa4611037565b815260200160008152602001600081526020016000815260200160008152602001600081526020016000815260200160008152602001600081526020016000815260200160008152602001600081526020016000815260200160008152602001600060ff1681525090565b604051806040016040528060006001600160a01b03168152602001611032611037565b905290565b6040518061012001604052806000815260200160008152602001600081526020016000815260200160008152602001600081526020016000815260200160008152602001600081525090565b602080825282518282018190526000919060409081850190868401855b8281101561110157815180516001600160a01b0316855286810151878601528581015186860152606080820151908601526080808201519086015260a0808201519086015260c0908101519085015260e090930192908501906001016110a0565b5091979650505050505050565b602080825282518282018190526000919060409081850190868401855b8281101561110157815180516001600160a01b0316855286810151878601528581015186860152606080820151908601526080808201519086015260a0908101519085015260c0909301929085019060010161112b565b602080825282518282018190526000919060409081850190868401855b8281101561110157815180516001600160a01b0316855286015160ff1686850152928401929085019060010161119f565b602080825282518282018190526000919060409081850190868401855b8281101561110157815180516001600160a01b03168552868101518786015285015185850152606090930192908501906001016111ed565b602080825282518282018190526000919060409081850190868401855b8281101561110157815180516001600160a01b0390811686529087015116868501529284019290850190600101611242565b60005b8381101561128f578181015183820152602001611277565b50506000910152565b600081518084526112b0816020860160208601611274565b601f01601f19169290920160200192915050565b805182526020810151602083015260408101516040830152606081015160608301526080810151608083015260a081015160a083015260c081015160c083015260e081015160e08301526101008082015181840152505050565b80516001600160a01b031682526000610340602083015181602086015261134782860182611298565b915050604083015161136460408601826001600160a01b03169052565b50606083015161137760608601826112c4565b5060808301516101808581019190915260a08401516101a08087019190915260c08501516101c08088019190915260e08601516101e080890191909152610100870151610200808a0191909152610120880151610220808b01919091526101408901516102408b01526101608901516102608b0152948801516102808a0152928701516102a0890152908601516102c08801528501516102e087015284015161030086015283015160ff8116610320860152509392505050565b6000815180845260208085019450848260051b860182860160005b8581101561147657838303895261146483835161131e565b9885019892509084019060010161144c565b5090979650505050505050565b602081526000610a6e6020830184611431565b60006020808301818452808551808352604092508286019150828160051b87010184880160005b8381101561153357888303603f190185528151805160ff16845287810151888501528681015187850152606080820151908501526080808201516001600160a01b03169085015260a09081015160c09185018290529061151f81860183611298565b9689019694505050908601906001016114bd565b509098975050505050505050565b6020808252825182820181905260009190848201906040850190845b8181101561159857835180516001600160a01b03168452850151611583868501826112c4565b5092840192610140929092019160010161155d565b50909695505050505050565b6000815180845260208085019450848260051b860182860160005b858110156114765783830389528151608081518186526115e18287018261131e565b9288015180516001600160a01b03908116888b0152818a015181166040808a0191909152909101511660609096019590955250988501989250908401906001016115bf565b602081526000610a6e60208301846115a4565b600081516040845261164e6040850182611298565b905060208301518482036020860152610dc78282611298565b602081526000610a6e6020830184611639565b634e487b7160e01b600052601160045260246000fd5b81810381811115610a7157610a7161167a565b634e487b7160e01b600052603260045260246000fd5b6040815260006116cc6040830185611639565b8281036020840152610dc78185611431565b6040815260006116f16040830185611639565b8281036020840152610dc781856115a4565b8082028115828204841417610a7157610a7161167a565b60008261173757634e487b7160e01b600052601260045260246000fd5b500490565b6000825161174e818460208701611274565b9190910192915050565b60006020828403121561176a57600080fd5b8151801515811461177a57600080fd5b9392505050565b602081526000610a6e602083018461129856fe416464726573733a206c6f772d6c6576656c2064656c65676174652063616c6c206661696c6564a2646970667358221220d182d693cfd066a1d684a508e8d0decd8761c2d6de619d7704bdcc089170bae764736f6c63430008130033","linkReferences":{}},"methodIdentifiers":{"CONFIG_ENGINE()":"5e5eef7a","USDCn()":"1cb8da4e","USDCn_SEED_AMOUNT()":"45e81c50","assetsEModeUpdates()":"92287095","borrowsUpdates()":"1850edd8","capsUpdates()":"95a93cb1","collateralsUpdates()":"2b179434","eModeCategoriesUpdates()":"ca8e89cc","execute()":"61461954","getPoolContext()":"fbb256f6","newListings()":"c0a25580","newListingsCustom()":"fabe3463","priceFeedsUpdates()":"b1af0d0d","rateStrategiesUpdates()":"d0c38c27"},"id":341}