{"abi":[{"type":"function","name":"CONFIG_ENGINE","inputs":[],"outputs":[{"name":"","type":"address","internalType":"contract IAaveV3ConfigEngine"}],"stateMutability":"view"},{"type":"function","name":"FXS","inputs":[],"outputs":[{"name":"","type":"address","internalType":"address"}],"stateMutability":"view"},{"type":"function","name":"assetsEModeUpdates","inputs":[],"outputs":[{"name":"","type":"tuple[]","internalType":"struct IAaveV3ConfigEngine.AssetEModeUpdate[]","components":[{"name":"asset","type":"address","internalType":"address"},{"name":"eModeCategory","type":"uint8","internalType":"uint8"}]}],"stateMutability":"view"},{"type":"function","name":"borrowsUpdates","inputs":[],"outputs":[{"name":"","type":"tuple[]","internalType":"struct IAaveV3ConfigEngine.BorrowUpdate[]","components":[{"name":"asset","type":"address","internalType":"address"},{"name":"enabledToBorrow","type":"uint256","internalType":"uint256"},{"name":"flashloanable","type":"uint256","internalType":"uint256"},{"name":"stableRateModeEnabled","type":"uint256","internalType":"uint256"},{"name":"borrowableInIsolation","type":"uint256","internalType":"uint256"},{"name":"withSiloedBorrowing","type":"uint256","internalType":"uint256"},{"name":"reserveFactor","type":"uint256","internalType":"uint256"}]}],"stateMutability":"view"},{"type":"function","name":"capsUpdates","inputs":[],"outputs":[{"name":"","type":"tuple[]","internalType":"struct IAaveV3ConfigEngine.CapsUpdate[]","components":[{"name":"asset","type":"address","internalType":"address"},{"name":"supplyCap","type":"uint256","internalType":"uint256"},{"name":"borrowCap","type":"uint256","internalType":"uint256"}]}],"stateMutability":"view"},{"type":"function","name":"collateralsUpdates","inputs":[],"outputs":[{"name":"","type":"tuple[]","internalType":"struct IAaveV3ConfigEngine.CollateralUpdate[]","components":[{"name":"asset","type":"address","internalType":"address"},{"name":"ltv","type":"uint256","internalType":"uint256"},{"name":"liqThreshold","type":"uint256","internalType":"uint256"},{"name":"liqBonus","type":"uint256","internalType":"uint256"},{"name":"debtCeiling","type":"uint256","internalType":"uint256"},{"name":"liqProtocolFee","type":"uint256","internalType":"uint256"}]}],"stateMutability":"view"},{"type":"function","name":"eModeCategoriesUpdates","inputs":[],"outputs":[{"name":"","type":"tuple[]","internalType":"struct IAaveV3ConfigEngine.EModeCategoryUpdate[]","components":[{"name":"eModeCategory","type":"uint8","internalType":"uint8"},{"name":"ltv","type":"uint256","internalType":"uint256"},{"name":"liqThreshold","type":"uint256","internalType":"uint256"},{"name":"liqBonus","type":"uint256","internalType":"uint256"},{"name":"priceSource","type":"address","internalType":"address"},{"name":"label","type":"string","internalType":"string"}]}],"stateMutability":"view"},{"type":"function","name":"execute","inputs":[],"outputs":[],"stateMutability":"nonpayable"},{"type":"function","name":"getPoolContext","inputs":[],"outputs":[{"name":"","type":"tuple","internalType":"struct IAaveV3ConfigEngine.PoolContext","components":[{"name":"networkName","type":"string","internalType":"string"},{"name":"networkAbbreviation","type":"string","internalType":"string"}]}],"stateMutability":"pure"},{"type":"function","name":"newListings","inputs":[],"outputs":[{"name":"","type":"tuple[]","internalType":"struct IAaveV3ConfigEngine.Listing[]","components":[{"name":"asset","type":"address","internalType":"address"},{"name":"assetSymbol","type":"string","internalType":"string"},{"name":"priceFeed","type":"address","internalType":"address"},{"name":"rateStrategyParams","type":"tuple","internalType":"struct IV3RateStrategyFactory.RateStrategyParams","components":[{"name":"optimalUsageRatio","type":"uint256","internalType":"uint256"},{"name":"baseVariableBorrowRate","type":"uint256","internalType":"uint256"},{"name":"variableRateSlope1","type":"uint256","internalType":"uint256"},{"name":"variableRateSlope2","type":"uint256","internalType":"uint256"},{"name":"stableRateSlope1","type":"uint256","internalType":"uint256"},{"name":"stableRateSlope2","type":"uint256","internalType":"uint256"},{"name":"baseStableRateOffset","type":"uint256","internalType":"uint256"},{"name":"stableRateExcessOffset","type":"uint256","internalType":"uint256"},{"name":"optimalStableToTotalDebtRatio","type":"uint256","internalType":"uint256"}]},{"name":"enabledToBorrow","type":"uint256","internalType":"uint256"},{"name":"stableRateModeEnabled","type":"uint256","internalType":"uint256"},{"name":"borrowableInIsolation","type":"uint256","internalType":"uint256"},{"name":"withSiloedBorrowing","type":"uint256","internalType":"uint256"},{"name":"flashloanable","type":"uint256","internalType":"uint256"},{"name":"ltv","type":"uint256","internalType":"uint256"},{"name":"liqThreshold","type":"uint256","internalType":"uint256"},{"name":"liqBonus","type":"uint256","internalType":"uint256"},{"name":"reserveFactor","type":"uint256","internalType":"uint256"},{"name":"supplyCap","type":"uint256","internalType":"uint256"},{"name":"borrowCap","type":"uint256","internalType":"uint256"},{"name":"debtCeiling","type":"uint256","internalType":"uint256"},{"name":"liqProtocolFee","type":"uint256","internalType":"uint256"},{"name":"eModeCategory","type":"uint8","internalType":"uint8"}]}],"stateMutability":"pure"},{"type":"function","name":"newListingsCustom","inputs":[],"outputs":[{"name":"","type":"tuple[]","internalType":"struct IAaveV3ConfigEngine.ListingWithCustomImpl[]","components":[{"name":"base","type":"tuple","internalType":"struct IAaveV3ConfigEngine.Listing","components":[{"name":"asset","type":"address","internalType":"address"},{"name":"assetSymbol","type":"string","internalType":"string"},{"name":"priceFeed","type":"address","internalType":"address"},{"name":"rateStrategyParams","type":"tuple","internalType":"struct IV3RateStrategyFactory.RateStrategyParams","components":[{"name":"optimalUsageRatio","type":"uint256","internalType":"uint256"},{"name":"baseVariableBorrowRate","type":"uint256","internalType":"uint256"},{"name":"variableRateSlope1","type":"uint256","internalType":"uint256"},{"name":"variableRateSlope2","type":"uint256","internalType":"uint256"},{"name":"stableRateSlope1","type":"uint256","internalType":"uint256"},{"name":"stableRateSlope2","type":"uint256","internalType":"uint256"},{"name":"baseStableRateOffset","type":"uint256","internalType":"uint256"},{"name":"stableRateExcessOffset","type":"uint256","internalType":"uint256"},{"name":"optimalStableToTotalDebtRatio","type":"uint256","internalType":"uint256"}]},{"name":"enabledToBorrow","type":"uint256","internalType":"uint256"},{"name":"stableRateModeEnabled","type":"uint256","internalType":"uint256"},{"name":"borrowableInIsolation","type":"uint256","internalType":"uint256"},{"name":"withSiloedBorrowing","type":"uint256","internalType":"uint256"},{"name":"flashloanable","type":"uint256","internalType":"uint256"},{"name":"ltv","type":"uint256","internalType":"uint256"},{"name":"liqThreshold","type":"uint256","internalType":"uint256"},{"name":"liqBonus","type":"uint256","internalType":"uint256"},{"name":"reserveFactor","type":"uint256","internalType":"uint256"},{"name":"supplyCap","type":"uint256","internalType":"uint256"},{"name":"borrowCap","type":"uint256","internalType":"uint256"},{"name":"debtCeiling","type":"uint256","internalType":"uint256"},{"name":"liqProtocolFee","type":"uint256","internalType":"uint256"},{"name":"eModeCategory","type":"uint8","internalType":"uint8"}]},{"name":"implementations","type":"tuple","internalType":"struct IAaveV3ConfigEngine.TokenImplementations","components":[{"name":"aToken","type":"address","internalType":"address"},{"name":"vToken","type":"address","internalType":"address"},{"name":"sToken","type":"address","internalType":"address"}]}]}],"stateMutability":"view"},{"type":"function","name":"priceFeedsUpdates","inputs":[],"outputs":[{"name":"","type":"tuple[]","internalType":"struct IAaveV3ConfigEngine.PriceFeedUpdate[]","components":[{"name":"asset","type":"address","internalType":"address"},{"name":"priceFeed","type":"address","internalType":"address"}]}],"stateMutability":"view"},{"type":"function","name":"rateStrategiesUpdates","inputs":[],"outputs":[{"name":"","type":"tuple[]","internalType":"struct IAaveV3ConfigEngine.RateStrategyUpdate[]","components":[{"name":"asset","type":"address","internalType":"address"},{"name":"params","type":"tuple","internalType":"struct IV3RateStrategyFactory.RateStrategyParams","components":[{"name":"optimalUsageRatio","type":"uint256","internalType":"uint256"},{"name":"baseVariableBorrowRate","type":"uint256","internalType":"uint256"},{"name":"variableRateSlope1","type":"uint256","internalType":"uint256"},{"name":"variableRateSlope2","type":"uint256","internalType":"uint256"},{"name":"stableRateSlope1","type":"uint256","internalType":"uint256"},{"name":"stableRateSlope2","type":"uint256","internalType":"uint256"},{"name":"baseStableRateOffset","type":"uint256","internalType":"uint256"},{"name":"stableRateExcessOffset","type":"uint256","internalType":"uint256"},{"name":"optimalStableToTotalDebtRatio","type":"uint256","internalType":"uint256"}]}]}],"stateMutability":"view"},{"type":"error","name":"SafeERC20FailedOperation","inputs":[{"name":"token","type":"address","internalType":"address"}]}],"bytecode":{"object":"0x60a060405234801561001057600080fd5b5073a3e44d830440df5098520f62ebec285b1198c51e60805260805161138461004b60003960008181610133015261026001526113846000f3fe608060405234801561001057600080fd5b50600436106100cf5760003560e01c806395a93cb11161008c578063ca8e89cc11610066578063ca8e89cc146101a1578063d0c38c27146101b0578063fabe3463146101bf578063fbb256f6146101ce57600080fd5b806395a93cb11461016e578063b1af0d0d1461017d578063c0a255801461018c57600080fd5b80631850edd8146100d4578063200ea222146100ec5780632b1794341461011f5780635e5eef7a1461012e5780636146195414610155578063922870951461015f575b600080fd5b60606040516100e39190610c38565b60405180910390f35b610107733432b6a60d23ca0dfca7761b7ab56459d9c964d081565b6040516001600160a01b0390911681526020016100e3565b60606040516100e39190610cc3565b6101077f000000000000000000000000000000000000000000000000000000000000000081565b61015d6101e3565b005b60606040516100e39190610d37565b60606040516100e39190610d85565b60606040516100e39190610dda565b6101946103d5565b6040516100e3919061102e565b60606040516100e39190611041565b60606040516100e391906110ec565b60606040516100e391906111d4565b6101d66105af565b6040516100e39190611215565b606060006101ef6103d5565b8251909150606090819081908190819081908190156102885761028663a192ac2460e01b8a6040516024016102249190611041565b60408051601f198184030181529190526020810180516001600160e01b03166001600160e01b0319909316929092179091526001600160a01b037f0000000000000000000000000000000000000000000000000000000000000000169061060e565b505b8751156102b6576102b4633cb6502d60e01b6102a26105af565b8a604051602401610224929190611228565b505b8651156102e4576102e26314d8093760e21b6102d06105af565b8960405160240161022492919061124d565b505b8451156103095761030763bb06653560e01b866040516024016102249190610c38565b505b85511561032e5761032c6309d8332860e01b876040516024016102249190610cc3565b505b835115610353576103516324f4c44560e01b8560405160240161022491906110ec565b505b8251156103785761037663927c400360e01b846040516024016102249190610dda565b505b81511561039d5761039b632a90e62360e01b836040516024016102249190610d37565b505b8051156103c2576103c06355caa16360e01b826040516024016102249190610d85565b505b6103ca61063c565b505050505050505050565b60408051600180825281830190925260609160009190816020015b6103f8610b4b565b8152602001906001900390816103f0579050509050604051806102400160405280733432b6a60d23ca0dfca7761b7ab56459d9c964d06001600160a01b031681526020016040518060400160405280600381526020016246585360e81b8152508152602001736ebc52c8c1089be9eb3945c4350b68b8e4c2233f6001600160a01b03168152602001604051806101200160405280610497611194610720565b81526020016104a66000610720565b81526020016104b6610384610720565b81526020016104c6617530610720565b81526020016104d6610514610720565b81526020016104e6617530610720565b81526020016104f661012c610720565b81526020016105066101f4610720565b81526020016105166107d0610720565b81525081526020016001815260200160008152602001600081526020016000815260200160018152602001610dac815260200161119481526020016103e881526020016107d08152602001620c350081526020016207a1208152602001623d090081526020016103e88152602001600060ff168152508160008151811061059f5761059f611272565b6020908102919091010152919050565b60408051808201909152606080825260208201525060408051608081018252600881830190815267457468657265756d60c01b606083015281528151808301909252600382526208ae8d60eb1b60208381019190915281019190915290565b6060610633838360405180606001604052806027815260200161132860279139610745565b90505b92915050565b610677733432b6a60d23ca0dfca7761b7ab56459d9c964d07387870bca3f3fd6335c3f4ce8392d69350b4fa4e2670de0b6b3a76400006107bd565b60405163617ba03760e01b8152733432b6a60d23ca0dfca7761b7ab56459d9c964d06004820152670de0b6b3a7640000602482015273464c71f6c2f760dda6093dcb91c24c39e5d6e18c6044820152600060648201527387870bca3f3fd6335c3f4ce8392d69350b4fa4e29063617ba03790608401600060405180830381600087803b15801561070657600080fd5b505af115801561071a573d6000803e3d6000fd5b50505050565b600061271061073b6b033b2e3c9fd0803ce800000084611288565b61063691906112ad565b6060600080856001600160a01b03168560405161076291906112cf565b600060405180830381855af49150503d806000811461079d576040519150601f19603f3d011682016040523d82523d6000602084013e6107a2565b606091505b50915091506107b386838387610871565b9695505050505050565b604080516001600160a01b038416602482015260448082018490528251808303909101815260649091019091526020810180516001600160e01b031663095ea7b360e01b17905261080e84826108f7565b61071a57604080516001600160a01b038516602482015260006044808301919091528251808303909101815260649091019091526020810180516001600160e01b031663095ea7b360e01b17905261086790859061099f565b61071a848261099f565b606083156108e55782516000036108de576001600160a01b0385163b6108de5760405162461bcd60e51b815260206004820152601d60248201527f416464726573733a2063616c6c20746f206e6f6e2d636f6e747261637400000060448201526064015b60405180910390fd5b50816108ef565b6108ef8383610a07565b949350505050565b6000806000846001600160a01b03168460405161091491906112cf565b6000604051808303816000865af19150503d8060008114610951576040519150601f19603f3d011682016040523d82523d6000602084013e610956565b606091505b509150915081801561098057508051158061098057508080602001905181019061098091906112eb565b801561099657506000856001600160a01b03163b115b95945050505050565b60006109b46001600160a01b03841683610a31565b905080516000141580156109d95750808060200190518101906109d791906112eb565b155b15610a0257604051635274afe760e01b81526001600160a01b03841660048201526024016108d5565b505050565b815115610a175781518083602001fd5b8060405162461bcd60e51b81526004016108d59190611314565b6060610633838360006040518060400160405280601e81526020017f416464726573733a206c6f772d6c6576656c2063616c6c206661696c65640000815250606082471015610ad15760405162461bcd60e51b815260206004820152602660248201527f416464726573733a20696e73756666696369656e742062616c616e636520666f6044820152651c8818d85b1b60d21b60648201526084016108d5565b600080866001600160a01b03168587604051610aed91906112cf565b60006040518083038185875af1925050503d8060008114610b2a576040519150601f19603f3d011682016040523d82523d6000602084013e610b2f565b606091505b5091509150610b4087838387610871565b979650505050505050565b60405180610240016040528060006001600160a01b031681526020016060815260200160006001600160a01b03168152602001610bcd6040518061012001604052806000815260200160008152602001600081526020016000815260200160008152602001600081526020016000815260200160008152602001600081525090565b815260200160008152602001600081526020016000815260200160008152602001600081526020016000815260200160008152602001600081526020016000815260200160008152602001600081526020016000815260200160008152602001600060ff1681525090565b602080825282518282018190526000919060409081850190868401855b82811015610cb657815180516001600160a01b0316855286810151878601528581015186860152606080820151908601526080808201519086015260a0808201519086015260c0908101519085015260e09093019290850190600101610c55565b5091979650505050505050565b602080825282518282018190526000919060409081850190868401855b82811015610cb657815180516001600160a01b0316855286810151878601528581015186860152606080820151908601526080808201519086015260a0908101519085015260c09093019290850190600101610ce0565b602080825282518282018190526000919060409081850190868401855b82811015610cb657815180516001600160a01b0316855286015160ff16868501529284019290850190600101610d54565b602080825282518282018190526000919060409081850190868401855b82811015610cb657815180516001600160a01b0316855286810151878601528501518585015260609093019290850190600101610da2565b602080825282518282018190526000919060409081850190868401855b82811015610cb657815180516001600160a01b0390811686529087015116868501529284019290850190600101610df7565b60005b83811015610e44578181015183820152602001610e2c565b50506000910152565b60008151808452610e65816020860160208601610e29565b601f01601f19169290920160200192915050565b805182526020810151602083015260408101516040830152606081015160608301526080810151608083015260a081015160a083015260c081015160c083015260e081015160e08301526101008082015181840152505050565b80516001600160a01b0316825260006103406020830151816020860152610efc82860182610e4d565b9150506040830151610f1960408601826001600160a01b03169052565b506060830151610f2c6060860182610e79565b5060808301516101808581019190915260a08401516101a08087019190915260c08501516101c08088019190915260e08601516101e080890191909152610100870151610200808a0191909152610120880151610220808b01919091526101408901516102408b01526101608901516102608b0152948801516102808a0152928701516102a0890152908601516102c08801528501516102e087015284015161030086015283015160ff8116610320860152509392505050565b600081518084526020808501808196508360051b8101915082860160005b85811015610cb657828403895261101c848351610ed3565b98850198935090840190600101611004565b6020815260006106336020830184610fe6565b60006020808301818452808551808352604092508286019150828160051b87010184880160005b838110156110de57888303603f190185528151805160ff16845287810151888501528681015187850152606080820151908501526080808201516001600160a01b03169085015260a09081015160c0918501829052906110ca81860183610e4d565b968901969450505090860190600101611068565b509098975050505050505050565b6020808252825182820181905260009190848201906040850190845b8181101561114357835180516001600160a01b0316845285015161112e86850182610e79565b50928401926101409290920191600101611108565b50909695505050505050565b600081518084526020808501808196508360051b8101915082860160005b85811015610cb657828403895281516080815181875261118f82880182610ed3565b9288015180516001600160a01b03908116898b0152818a015181166040808b01919091529091015116606090970196909652509885019893509084019060010161116d565b602081526000610633602083018461114f565b60008151604084526111fc6040850182610e4d565b9050602083015184820360208601526109968282610e4d565b60208152600061063360208301846111e7565b60408152600061123b60408301856111e7565b82810360208401526109968185610fe6565b60408152600061126060408301856111e7565b8281036020840152610996818561114f565b634e487b7160e01b600052603260045260246000fd5b808202811582820484141761063657634e487b7160e01b600052601160045260246000fd5b6000826112ca57634e487b7160e01b600052601260045260246000fd5b500490565b600082516112e1818460208701610e29565b9190910192915050565b6000602082840312156112fd57600080fd5b8151801515811461130d57600080fd5b9392505050565b6020815260006106336020830184610e4d56fe416464726573733a206c6f772d6c6576656c2064656c65676174652063616c6c206661696c6564a2646970667358221220e036c6de6afea321b1cf402bd76f32b04d20c731e60e89da715625ed159302e464736f6c63430008130033","linkReferences":{}},"methodIdentifiers":{"CONFIG_ENGINE()":"5e5eef7a","FXS()":"200ea222","assetsEModeUpdates()":"92287095","borrowsUpdates()":"1850edd8","capsUpdates()":"95a93cb1","collateralsUpdates()":"2b179434","eModeCategoriesUpdates()":"ca8e89cc","execute()":"61461954","getPoolContext()":"fbb256f6","newListings()":"c0a25580","newListingsCustom()":"fabe3463","priceFeedsUpdates()":"b1af0d0d","rateStrategiesUpdates()":"d0c38c27"},"id":220}