{"abi":[{"type":"function","name":"execute","inputs":[],"outputs":[],"stateMutability":"nonpayable"},{"type":"function","name":"getBounties","inputs":[],"outputs":[{"name":"","type":"tuple[4]","internalType":"struct AaveV3Ethereum_RequestForBountyPayoutDecember2023_20231213.Bounty[4]","components":[{"name":"asset","type":"address","internalType":"address"},{"name":"recipient","type":"address","internalType":"address"},{"name":"amount","type":"uint256","internalType":"uint256"}]}],"stateMutability":"pure"}],"bytecode":{"object":"0x608060405234801561001057600080fd5b5061037b806100206000396000f3fe608060405234801561001057600080fd5b50600436106100365760003560e01c80630cf0ac1d1461003b5780636146195414610059575b600080fd5b610043610063565b60405161005091906102af565b60405180910390f35b610061610171565b005b61006b610270565b506040805160e08101825273018008bfb33d285247a21d44e50697654f754e6360808201818152732af2144429a7eae5fb3999b2059f246ffab6c90a60a0840152683635c9adc5dea0000060c0840152825282516060818101855282825273eb8b275f05423566c95abccdd92d860b758cf08a60208381019190915269021e19e0c9bab24000008387018190528186019390935285518083018752848152736248e2481c3d80c05f49a185d9baee515f0e7f2c81830152808701939093528486019290925284518082018652928352732bc5ffc5de1a83a9e4cddfa138baed516d70414b91830191909152688cf23f909c0fa00000938201939093529181019190915290565b600061017b610063565b905060005b600481101561026c5773464c71f6c2f760dda6093dcb91c24c39e5d6e18c63beabacc88383600481106101b5576101b5610308565b6020020151518484600481106101cd576101cd610308565b6020020151602001518585600481106101e8576101e8610308565b602002015160409081015190516001600160e01b031960e086901b1681526001600160a01b0393841660048201529290911660248301526044820152606401600060405180830381600087803b15801561024157600080fd5b505af1158015610255573d6000803e3d6000fd5b5050505080806102649061031e565b915050610180565b5050565b60405180608001604052806004905b604080516060810182526000808252602080830182905292820152825260001990920191018161027f5790505090565b6101808101818360005b60048110156102ff57815180516001600160a01b0390811685526020808301519091168186015260409182015191850191909152606090930192909101906001016102b9565b50505092915050565b634e487b7160e01b600052603260045260246000fd5b60006001820161033e57634e487b7160e01b600052601160045260246000fd5b506001019056fea26469706673582212205a202c90f5811b6d69c993613117ce28d51fab73e143793b49bf41081a67cff864736f6c63430008130033","linkReferences":{}},"methodIdentifiers":{"execute()":"61461954","getBounties()":"0cf0ac1d"},"id":368}