{"abi":[{"type":"function","name":"ACTUAL_AMOUNT_ONE","inputs":[],"outputs":[{"name":"","type":"uint256","internalType":"uint256"}],"stateMutability":"view"},{"type":"function","name":"ACTUAL_AMOUNT_TWO","inputs":[],"outputs":[{"name":"","type":"uint256","internalType":"uint256"}],"stateMutability":"view"},{"type":"function","name":"STREAM_DURATION","inputs":[],"outputs":[{"name":"","type":"uint256","internalType":"uint256"}],"stateMutability":"view"},{"type":"function","name":"STREAM_ONE_AMOUNT","inputs":[],"outputs":[{"name":"","type":"uint256","internalType":"uint256"}],"stateMutability":"view"},{"type":"function","name":"STREAM_ONE_RECEIVER","inputs":[],"outputs":[{"name":"","type":"address","internalType":"address"}],"stateMutability":"view"},{"type":"function","name":"STREAM_TO_CANCEL","inputs":[],"outputs":[{"name":"","type":"uint256","internalType":"uint256"}],"stateMutability":"view"},{"type":"function","name":"STREAM_TWO_AMOUNT","inputs":[],"outputs":[{"name":"","type":"uint256","internalType":"uint256"}],"stateMutability":"view"},{"type":"function","name":"STREAM_TWO_RECEIVER","inputs":[],"outputs":[{"name":"","type":"address","internalType":"address"}],"stateMutability":"view"},{"type":"function","name":"execute","inputs":[],"outputs":[],"stateMutability":"nonpayable"}],"bytecode":{"object":"0x608060405234801561001057600080fd5b506104db806100206000396000f3fe608060405234801561001057600080fd5b50600436106100935760003560e01c8063a035140511610066578063a0351405146100da578063b24c55bb146100e2578063cb286e5b14610115578063fa3bbe3b1461011d578063fd8676961461013857600080fd5b80630df54cd114610098578063211a8c4c146100bc5780634a8e6b2b146100c657806361461954146100d0575b600080fd5b6100a9692e963951560b5180000081565b6040519081526020015b60405180910390f35b6100a9620186b181565b6100a962ed4e0081565b6100d8610149565b005b6100a96103be565b6100fd733e4a9f478c0c13a15137fc81e9d8269f127b4b4081565b6040516001600160a01b0390911681526020016100b3565b6100a96103e3565b6100fd7358e6c7ab55aa9012eacca16d1ed4c15795669e1c81565b6100a969261dd1ce2f208880000081565b73464c71f6c2f760dda6093dcb91c24c39e5d6e18c63cc1b4bf67358e6c7ab55aa9012eacca16d1ed4c15795669e1c62ed4e0061019081692e963951560b51800000610411565b61019a9190610433565b7340d16fc0246ad3160ccc09b8d0d3a2cd28ae6c2f426101bd62ed4e0082610450565b6040516001600160e01b031960e088901b1681526001600160a01b03958616600482015260248101949094529390911660448301526064820152608481019190915260a4016020604051808303816000875af1158015610221573d6000803e3d6000fd5b505050506040513d601f19601f820116820180604052508101906102459190610463565b5073464c71f6c2f760dda6093dcb91c24c39e5d6e18c63cc1b4bf6733e4a9f478c0c13a15137fc81e9d8269f127b4b4062ed4e0061028d8169261dd1ce2f2088800000610411565b6102979190610433565b7340d16fc0246ad3160ccc09b8d0d3a2cd28ae6c2f426102ba62ed4e0082610450565b6040516001600160e01b031960e088901b1681526001600160a01b03958616600482015260248101949094529390911660448301526064820152608481019190915260a4016020604051808303816000875af115801561031e573d6000803e3d6000fd5b505050506040513d601f19601f820116820180604052508101906103429190610463565b50604051636db9241b60e01b8152620186b1600482015273464c71f6c2f760dda6093dcb91c24c39e5d6e18c90636db9241b906024016020604051808303816000875af1158015610397573d6000803e3d6000fd5b505050506040513d601f19601f820116820180604052508101906103bb919061047c565b50565b62ed4e006103d681692e963951560b51800000610411565b6103e09190610433565b81565b62ed4e006103d68169261dd1ce2f2088800000610411565b634e487b7160e01b600052601160045260246000fd5b60008261042e57634e487b7160e01b600052601260045260246000fd5b500490565b808202811582820484141761044a5761044a6103fb565b92915050565b8082018082111561044a5761044a6103fb565b60006020828403121561047557600080fd5b5051919050565b60006020828403121561048e57600080fd5b8151801515811461049e57600080fd5b939250505056fea264697066735822122042ce4af8596e8b15fbb94cecab72ccde1822435a4e40dc5789d1c9f9e6388ec164736f6c63430008130033","linkReferences":{}},"methodIdentifiers":{"ACTUAL_AMOUNT_ONE()":"a0351405","ACTUAL_AMOUNT_TWO()":"cb286e5b","STREAM_DURATION()":"4a8e6b2b","STREAM_ONE_AMOUNT()":"0df54cd1","STREAM_ONE_RECEIVER()":"fa3bbe3b","STREAM_TO_CANCEL()":"211a8c4c","STREAM_TWO_AMOUNT()":"fd867696","STREAM_TWO_RECEIVER()":"b24c55bb","execute()":"61461954"},"id":352}