{"abi":[{"type":"function","name":"LISTING_ENGINE","inputs":[],"outputs":[{"name":"","type":"address","internalType":"contract IAaveV2ConfigEngine"}],"stateMutability":"view"},{"type":"function","name":"execute","inputs":[],"outputs":[],"stateMutability":"nonpayable"},{"type":"function","name":"rateStrategiesUpdates","inputs":[],"outputs":[{"name":"","type":"tuple[]","internalType":"struct IAaveV2ConfigEngine.RateStrategyUpdate[]","components":[{"name":"asset","type":"address","internalType":"address"},{"name":"params","type":"tuple","internalType":"struct IV2RateStrategyFactory.RateStrategyParams","components":[{"name":"optimalUtilizationRate","type":"uint256","internalType":"uint256"},{"name":"baseVariableBorrowRate","type":"uint256","internalType":"uint256"},{"name":"variableRateSlope1","type":"uint256","internalType":"uint256"},{"name":"variableRateSlope2","type":"uint256","internalType":"uint256"},{"name":"stableRateSlope1","type":"uint256","internalType":"uint256"},{"name":"stableRateSlope2","type":"uint256","internalType":"uint256"}]}]}],"stateMutability":"pure"}],"bytecode":{"object":"0x60a060405234801561001057600080fd5b50739eced0293e7b73cff4a2b4f9c82aac8346158bd960805260805161066b61004a60003960008181604b015261011e015261066b6000f3fe608060405234801561001057600080fd5b50600436106100415760003560e01c80630a4aa3fa14610046578063614619541461008a578063d0c38c2714610094575b600080fd5b61006d7f000000000000000000000000000000000000000000000000000000000000000081565b6040516001600160a01b0390911681526020015b60405180910390f35b6100926100a9565b005b61009c610149565b6040516100819190610493565b6100b161023d565b60006100bb610149565b9050805160001461014657610144634f48253d60e01b826040516024016100e29190610493565b60408051601f198184030181529190526020810180516001600160e01b03166001600160e01b0319909316929092179091526001600160a01b037f000000000000000000000000000000000000000000000000000000000000000016906102bf565b505b50565b60408051600180825281830190925260609160009190816020015b61016c61043a565b81526020019060019003908161016457505060408051808201825273d46ba6d942050d489dbd938a2c909a5d5039a1618152815160c081019092529192506020820190806101bd602a600019610539565b81526020016101cf602a600019610539565b81526020016101e1602a600019610539565b81526020016101f060006102ed565b8152602001610202602a600019610539565b8152602001610214602a600019610539565b8152508152508160008151811061022d5761022d61054c565b6020908102919091010152919050565b604051634b4e675360e01b815273d46ba6d942050d489dbd938a2c909a5d5039a1616004820152612706602482015273311bb771e4f8952e6da169b425e7e92d6ac4575690634b4e675390604401600060405180830381600087803b1580156102a557600080fd5b505af11580156102b9573d6000803e3d6000fd5b50505050565b60606102e4838360405180606001604052806027815260200161060f60279139610312565b90505b92915050565b60006127106103086b033b2e3c9fd0803ce800000084610562565b6102e79190610579565b6060600080856001600160a01b03168560405161032f91906105bf565b600060405180830381855af49150503d806000811461036a576040519150601f19603f3d011682016040523d82523d6000602084013e61036f565b606091505b50915091506103808683838761038a565b9695505050505050565b606083156103fe5782516000036103f7576001600160a01b0385163b6103f75760405162461bcd60e51b815260206004820152601d60248201527f416464726573733a2063616c6c20746f206e6f6e2d636f6e747261637400000060448201526064015b60405180910390fd5b5081610408565b6104088383610410565b949350505050565b8151156104205781518083602001fd5b8060405162461bcd60e51b81526004016103ee91906105db565b604051806040016040528060006001600160a01b0316815260200161048e6040518060c001604052806000815260200160008152602001600081526020016000815260200160008152602001600081525090565b905290565b602080825282518282018190526000919060409081850190868401855b8281101561051657815180516001600160a01b0316855286015180518786015280870151868601528581015160608087019190915281015160808087019190915281015160a086810191909152015160c085015260e090930192908501906001016104b0565b5091979650505050505050565b634e487b7160e01b600052601160045260246000fd5b818103818111156102e7576102e7610523565b634e487b7160e01b600052603260045260246000fd5b80820281158282048414176102e7576102e7610523565b60008261059657634e487b7160e01b600052601260045260246000fd5b500490565b60005b838110156105b657818101518382015260200161059e565b50506000910152565b600082516105d181846020870161059b565b9190910192915050565b60208152600082518060208401526105fa81604085016020870161059b565b601f01601f1916919091016040019291505056fe416464726573733a206c6f772d6c6576656c2064656c65676174652063616c6c206661696c6564a264697066735822122053ae394cbf1ca3f775fe70918697b6bf54b4d930e4fd3046e9d9f96f5c3cb53b64736f6c63430008130033","linkReferences":{}},"methodIdentifiers":{"LISTING_ENGINE()":"0a4aa3fa","execute()":"61461954","rateStrategiesUpdates()":"d0c38c27"},"id":464}