{"abi":[{"type":"function","name":"INTEREST_RATE_STRATEGY","inputs":[],"outputs":[{"name":"","type":"address","internalType":"address"}],"stateMutability":"view"},{"type":"function","name":"execute","inputs":[],"outputs":[],"stateMutability":"nonpayable"}],"bytecode":{"object":"0x608060405234801561001057600080fd5b50610144806100206000396000f3fe608060405234801561001057600080fd5b50600436106100365760003560e01c8063614619541461003b578063fe85eb6c14610045575b600080fd5b61004361007b565b005b61005f72524e8e4c5fd2b8d8aa1226fa16b39cad69b8a081565b6040516001600160a01b03909116815260200160405180910390f35b604051631d2118f960e01b81527340d16fc0246ad3160ccc09b8d0d3a2cd28ae6c2f600482015272524e8e4c5fd2b8d8aa1226fa16b39cad69b8a060248201527364b761d848206f447fe2dd461b0c635ec39ebb2790631d2118f990604401600060405180830381600087803b1580156100f457600080fd5b505af1158015610108573d6000803e3d6000fd5b5050505056fea2646970667358221220ba3f8e0324299ef7786fc17b7ec29cfd07419ac59485676f95e48660a94a889764736f6c63430008130033","linkReferences":{}},"methodIdentifiers":{"INTEREST_RATE_STRATEGY()":"fe85eb6c","execute()":"61461954"},"id":324}