{"abi":[{"type":"function","name":"execute","inputs":[],"outputs":[],"stateMutability":"nonpayable"},{"type":"error","name":"SafeERC20FailedOperation","inputs":[{"name":"token","type":"address","internalType":"address"}]}],"bytecode":{"object":"0x608060405234801561001057600080fd5b50610be6806100206000396000f3fe608060405234801561001057600080fd5b506004361061002b5760003560e01c80636146195414610030575b600080fd5b61003861003a565b005b600061004461054a565b90506000610050610630565b6040516370a0823160e01b815273e8599f3cc5d38a9ad6f3684cd5cea72f10dbc3836004820181905291925063beabacc890732791bca1f2de4661ed88a30c99a7a9449aa8417490309082906370a0823190602401602060405180830381865afa1580156100c2573d6000803e3d6000fd5b505050506040513d601f19601f820116820180604052508101906100e69190610ac5565b6040516001600160e01b031960e086901b1681526001600160a01b0393841660048201529290911660248301526044820152606401600060405180830381600087803b15801561013557600080fd5b505af1158015610149573d6000803e3d6000fd5b50506040516370a0823160e01b815273e8599f3cc5d38a9ad6f3684cd5cea72f10dbc38360048201819052925063beabacc89150730d500b1d8e8ef31e21c99d1db9a6444d3adf127090309082906370a0823190602401602060405180830381865afa1580156101bd573d6000803e3d6000fd5b505050506040513d601f19601f820116820180604052508101906101e19190610ac5565b6040516001600160e01b031960e086901b1681526001600160a01b0393841660048201529290911660248301526044820152606401600060405180830381600087803b15801561023057600080fd5b505af1158015610244573d6000803e3d6000fd5b5050505060005b600881101561054557600083826008811061026857610268610ade565b60200201519050600083836008811061028357610283610ade565b60200201516040516370a0823160e01b815273e8599f3cc5d38a9ad6f3684cd5cea72f10dbc3836004820181905291925063beabacc890839030906001600160a01b038316906370a0823190602401602060405180830381865afa1580156102ef573d6000803e3d6000fd5b505050506040513d601f19601f820116820180604052508101906103139190610ac5565b6040516001600160e01b031960e086901b1681526001600160a01b0393841660048201529290911660248301526044820152606401600060405180830381600087803b15801561036257600080fd5b505af1158015610376573d6000803e3d6000fd5b5050604051631a4ca37b60e21b81526001600160a01b03851660048201526000196024820152306044820152738dff5e27ea6b7ac08ebfdf9eb090f32ee9a30fcf92506369328dec91506064016020604051808303816000875af11580156103e2573d6000803e3d6000fd5b505050506040513d601f19601f820116820180604052508101906104069190610ac5565b506040516370a0823160e01b81523060048201526000906001600160a01b038416906370a0823190602401602060405180830381865afa15801561044e573d6000803e3d6000fd5b505050506040513d601f19601f820116820180604052508101906104729190610ac5565b905061049c6001600160a01b03841673794a61358d6845594f94dc1db02a252b5b4814ad83610716565b60405163e8eda9df60e01b81526001600160a01b03841660048201526024810182905273e8599f3cc5d38a9ad6f3684cd5cea72f10dbc38360448201526000606482015273794a61358d6845594f94dc1db02a252b5b4814ad9063e8eda9df90608401600060405180830381600087803b15801561051957600080fd5b505af115801561052d573d6000803e3d6000fd5b505050505050508061053e90610af4565b905061024b565b505050565b610552610aa6565b506040805161010081018252732791bca1f2de4661ed88a30c99a7a9449aa841748152738f3cf7ad23cd3cadbd9735aff958023239c6a063602082015273c2132d05d31c914a87c6611c10748aeb04b58e8f91810191909152737ceb23fd6bc0add59e62ac25578270cff1b9f6196060820152730d500b1d8e8ef31e21c99d1db9a6444d3adf12706080820152731bfd67037b42cf73acf2047067bd4f2c47d9bfd660a082015273385eeac5cb85a38a9a07a70c73e0a3271cfb54a760c08201527353e0bca35ec356bd5dddfebbd1fc0fd03fabad3960e082015290565b610638610aa6565b506040805161010081018252731a13f4ca1d028320a707d99520abfefca3998b7f81527327f8d03b3a2196956ed754badc28d73be8830a6e60208201527360d55f02a771d515e077c9c2403a1ef324885cec918101919091527328424507fefb6f7f8e9d3860f56504e4e5f5f3906060820152738df3aad3a84da6b69a4da8aec3ea40d9091b2ac46080820152735c2ed810328349100a66b82b78a1791b101c9d6160a082015273080b5bf8f360f624628e0fb961f4e67c9e3c7cf160c0820152730ca2e42e8c21954af73bc9af1213e4e81d6a669a60e082015290565b604080516001600160a01b038416602482015260448082018490528251808303909101815260649091019091526020810180516001600160e01b031663095ea7b360e01b17905261076784826107d0565b6107ca57604080516001600160a01b038516602482015260006044808301919091528251808303909101815260649091019091526020810180516001600160e01b031663095ea7b360e01b1790526107c0908590610878565b6107ca8482610878565b50505050565b6000806000846001600160a01b0316846040516107ed9190610b3f565b6000604051808303816000865af19150503d806000811461082a576040519150601f19603f3d011682016040523d82523d6000602084013e61082f565b606091505b50915091508180156108595750805115806108595750808060200190518101906108599190610b5b565b801561086f57506000856001600160a01b03163b115b95945050505050565b600061088d6001600160a01b038416836108e0565b905080516000141580156108b25750808060200190518101906108b09190610b5b565b155b1561054557604051635274afe760e01b81526001600160a01b03841660048201526024015b60405180910390fd5b6060610924838360006040518060400160405280601e81526020017f416464726573733a206c6f772d6c6576656c2063616c6c206661696c6564000081525061092b565b9392505050565b60608247101561098c5760405162461bcd60e51b815260206004820152602660248201527f416464726573733a20696e73756666696369656e742062616c616e636520666f6044820152651c8818d85b1b60d21b60648201526084016108d7565b600080866001600160a01b031685876040516109a89190610b3f565b60006040518083038185875af1925050503d80600081146109e5576040519150601f19603f3d011682016040523d82523d6000602084013e6109ea565b606091505b50915091506109fb87838387610a08565b925050505b949350505050565b60608315610a77578251600003610a70576001600160a01b0385163b610a705760405162461bcd60e51b815260206004820152601d60248201527f416464726573733a2063616c6c20746f206e6f6e2d636f6e747261637400000060448201526064016108d7565b5081610a00565b610a008383815115610a8c5781518083602001fd5b8060405162461bcd60e51b81526004016108d79190610b7d565b6040518061010001604052806008906020820280368337509192915050565b600060208284031215610ad757600080fd5b5051919050565b634e487b7160e01b600052603260045260246000fd5b600060018201610b1457634e487b7160e01b600052601160045260246000fd5b5060010190565b60005b83811015610b36578181015183820152602001610b1e565b50506000910152565b60008251610b51818460208701610b1b565b9190910192915050565b600060208284031215610b6d57600080fd5b8151801515811461092457600080fd5b6020815260008251806020840152610b9c816040850160208701610b1b565b601f01601f1916919091016040019291505056fea2646970667358221220b7df549e928845496048b7b5d814d0dd979e4c310d2f1abcfad6ee91f481b9ad64736f6c63430008130033","linkReferences":{}},"methodIdentifiers":{"execute()":"61461954"},"id":359}