{"abi":[{"type":"function","name":"CONFIG_ENGINE","inputs":[],"outputs":[{"name":"","type":"address","internalType":"contract IAaveV3ConfigEngine"}],"stateMutability":"view"},{"type":"function","name":"assetsEModeUpdates","inputs":[],"outputs":[{"name":"","type":"tuple[]","internalType":"struct IAaveV3ConfigEngine.AssetEModeUpdate[]","components":[{"name":"asset","type":"address","internalType":"address"},{"name":"eModeCategory","type":"uint8","internalType":"uint8"}]}],"stateMutability":"view"},{"type":"function","name":"borrowsUpdates","inputs":[],"outputs":[{"name":"","type":"tuple[]","internalType":"struct IAaveV3ConfigEngine.BorrowUpdate[]","components":[{"name":"asset","type":"address","internalType":"address"},{"name":"enabledToBorrow","type":"uint256","internalType":"uint256"},{"name":"flashloanable","type":"uint256","internalType":"uint256"},{"name":"stableRateModeEnabled","type":"uint256","internalType":"uint256"},{"name":"borrowableInIsolation","type":"uint256","internalType":"uint256"},{"name":"withSiloedBorrowing","type":"uint256","internalType":"uint256"},{"name":"reserveFactor","type":"uint256","internalType":"uint256"}]}],"stateMutability":"view"},{"type":"function","name":"capsUpdates","inputs":[],"outputs":[{"name":"","type":"tuple[]","internalType":"struct IAaveV3ConfigEngine.CapsUpdate[]","components":[{"name":"asset","type":"address","internalType":"address"},{"name":"supplyCap","type":"uint256","internalType":"uint256"},{"name":"borrowCap","type":"uint256","internalType":"uint256"}]}],"stateMutability":"view"},{"type":"function","name":"collateralsUpdates","inputs":[],"outputs":[{"name":"","type":"tuple[]","internalType":"struct IAaveV3ConfigEngine.CollateralUpdate[]","components":[{"name":"asset","type":"address","internalType":"address"},{"name":"ltv","type":"uint256","internalType":"uint256"},{"name":"liqThreshold","type":"uint256","internalType":"uint256"},{"name":"liqBonus","type":"uint256","internalType":"uint256"},{"name":"debtCeiling","type":"uint256","internalType":"uint256"},{"name":"liqProtocolFee","type":"uint256","internalType":"uint256"}]}],"stateMutability":"view"},{"type":"function","name":"eModeCategoriesUpdates","inputs":[],"outputs":[{"name":"","type":"tuple[]","internalType":"struct IAaveV3ConfigEngine.EModeCategoryUpdate[]","components":[{"name":"eModeCategory","type":"uint8","internalType":"uint8"},{"name":"ltv","type":"uint256","internalType":"uint256"},{"name":"liqThreshold","type":"uint256","internalType":"uint256"},{"name":"liqBonus","type":"uint256","internalType":"uint256"},{"name":"priceSource","type":"address","internalType":"address"},{"name":"label","type":"string","internalType":"string"}]}],"stateMutability":"view"},{"type":"function","name":"execute","inputs":[],"outputs":[],"stateMutability":"nonpayable"},{"type":"function","name":"getPoolContext","inputs":[],"outputs":[{"name":"","type":"tuple","internalType":"struct IAaveV3ConfigEngine.PoolContext","components":[{"name":"networkName","type":"string","internalType":"string"},{"name":"networkAbbreviation","type":"string","internalType":"string"}]}],"stateMutability":"pure"},{"type":"function","name":"newListings","inputs":[],"outputs":[{"name":"","type":"tuple[]","internalType":"struct IAaveV3ConfigEngine.Listing[]","components":[{"name":"asset","type":"address","internalType":"address"},{"name":"assetSymbol","type":"string","internalType":"string"},{"name":"priceFeed","type":"address","internalType":"address"},{"name":"rateStrategyParams","type":"tuple","internalType":"struct IV3RateStrategyFactory.RateStrategyParams","components":[{"name":"optimalUsageRatio","type":"uint256","internalType":"uint256"},{"name":"baseVariableBorrowRate","type":"uint256","internalType":"uint256"},{"name":"variableRateSlope1","type":"uint256","internalType":"uint256"},{"name":"variableRateSlope2","type":"uint256","internalType":"uint256"},{"name":"stableRateSlope1","type":"uint256","internalType":"uint256"},{"name":"stableRateSlope2","type":"uint256","internalType":"uint256"},{"name":"baseStableRateOffset","type":"uint256","internalType":"uint256"},{"name":"stableRateExcessOffset","type":"uint256","internalType":"uint256"},{"name":"optimalStableToTotalDebtRatio","type":"uint256","internalType":"uint256"}]},{"name":"enabledToBorrow","type":"uint256","internalType":"uint256"},{"name":"stableRateModeEnabled","type":"uint256","internalType":"uint256"},{"name":"borrowableInIsolation","type":"uint256","internalType":"uint256"},{"name":"withSiloedBorrowing","type":"uint256","internalType":"uint256"},{"name":"flashloanable","type":"uint256","internalType":"uint256"},{"name":"ltv","type":"uint256","internalType":"uint256"},{"name":"liqThreshold","type":"uint256","internalType":"uint256"},{"name":"liqBonus","type":"uint256","internalType":"uint256"},{"name":"reserveFactor","type":"uint256","internalType":"uint256"},{"name":"supplyCap","type":"uint256","internalType":"uint256"},{"name":"borrowCap","type":"uint256","internalType":"uint256"},{"name":"debtCeiling","type":"uint256","internalType":"uint256"},{"name":"liqProtocolFee","type":"uint256","internalType":"uint256"},{"name":"eModeCategory","type":"uint8","internalType":"uint8"}]}],"stateMutability":"view"},{"type":"function","name":"newListingsCustom","inputs":[],"outputs":[{"name":"","type":"tuple[]","internalType":"struct IAaveV3ConfigEngine.ListingWithCustomImpl[]","components":[{"name":"base","type":"tuple","internalType":"struct IAaveV3ConfigEngine.Listing","components":[{"name":"asset","type":"address","internalType":"address"},{"name":"assetSymbol","type":"string","internalType":"string"},{"name":"priceFeed","type":"address","internalType":"address"},{"name":"rateStrategyParams","type":"tuple","internalType":"struct IV3RateStrategyFactory.RateStrategyParams","components":[{"name":"optimalUsageRatio","type":"uint256","internalType":"uint256"},{"name":"baseVariableBorrowRate","type":"uint256","internalType":"uint256"},{"name":"variableRateSlope1","type":"uint256","internalType":"uint256"},{"name":"variableRateSlope2","type":"uint256","internalType":"uint256"},{"name":"stableRateSlope1","type":"uint256","internalType":"uint256"},{"name":"stableRateSlope2","type":"uint256","internalType":"uint256"},{"name":"baseStableRateOffset","type":"uint256","internalType":"uint256"},{"name":"stableRateExcessOffset","type":"uint256","internalType":"uint256"},{"name":"optimalStableToTotalDebtRatio","type":"uint256","internalType":"uint256"}]},{"name":"enabledToBorrow","type":"uint256","internalType":"uint256"},{"name":"stableRateModeEnabled","type":"uint256","internalType":"uint256"},{"name":"borrowableInIsolation","type":"uint256","internalType":"uint256"},{"name":"withSiloedBorrowing","type":"uint256","internalType":"uint256"},{"name":"flashloanable","type":"uint256","internalType":"uint256"},{"name":"ltv","type":"uint256","internalType":"uint256"},{"name":"liqThreshold","type":"uint256","internalType":"uint256"},{"name":"liqBonus","type":"uint256","internalType":"uint256"},{"name":"reserveFactor","type":"uint256","internalType":"uint256"},{"name":"supplyCap","type":"uint256","internalType":"uint256"},{"name":"borrowCap","type":"uint256","internalType":"uint256"},{"name":"debtCeiling","type":"uint256","internalType":"uint256"},{"name":"liqProtocolFee","type":"uint256","internalType":"uint256"},{"name":"eModeCategory","type":"uint8","internalType":"uint8"}]},{"name":"implementations","type":"tuple","internalType":"struct IAaveV3ConfigEngine.TokenImplementations","components":[{"name":"aToken","type":"address","internalType":"address"},{"name":"vToken","type":"address","internalType":"address"},{"name":"sToken","type":"address","internalType":"address"}]}]}],"stateMutability":"view"},{"type":"function","name":"priceFeedsUpdates","inputs":[],"outputs":[{"name":"","type":"tuple[]","internalType":"struct IAaveV3ConfigEngine.PriceFeedUpdate[]","components":[{"name":"asset","type":"address","internalType":"address"},{"name":"priceFeed","type":"address","internalType":"address"}]}],"stateMutability":"view"},{"type":"function","name":"rateStrategiesUpdates","inputs":[],"outputs":[{"name":"","type":"tuple[]","internalType":"struct IAaveV3ConfigEngine.RateStrategyUpdate[]","components":[{"name":"asset","type":"address","internalType":"address"},{"name":"params","type":"tuple","internalType":"struct IV3RateStrategyFactory.RateStrategyParams","components":[{"name":"optimalUsageRatio","type":"uint256","internalType":"uint256"},{"name":"baseVariableBorrowRate","type":"uint256","internalType":"uint256"},{"name":"variableRateSlope1","type":"uint256","internalType":"uint256"},{"name":"variableRateSlope2","type":"uint256","internalType":"uint256"},{"name":"stableRateSlope1","type":"uint256","internalType":"uint256"},{"name":"stableRateSlope2","type":"uint256","internalType":"uint256"},{"name":"baseStableRateOffset","type":"uint256","internalType":"uint256"},{"name":"stableRateExcessOffset","type":"uint256","internalType":"uint256"},{"name":"optimalStableToTotalDebtRatio","type":"uint256","internalType":"uint256"}]}]}],"stateMutability":"pure"}],"bytecode":{"object":"0x60a060405234801561001057600080fd5b50730587b66bc824368cfa5849bc56216a59260df2c560805260805161123d61004a6000396000818160e50152610226015261123d6000f3fe608060405234801561001057600080fd5b50600436106100b45760003560e01c8063b1af0d0d11610071578063b1af0d0d14610147578063c0a2558014610156578063ca8e89cc14610165578063d0c38c2714610174578063fabe346314610189578063fbb256f61461019857600080fd5b80631850edd8146100b95780632b179434146100d15780635e5eef7a146100e0578063614619541461011f578063922870951461012957806395a93cb114610138575b600080fd5b60606040516100c89190610af6565b60405180910390f35b60606040516100c89190610b81565b6101077f000000000000000000000000000000000000000000000000000000000000000081565b6040516001600160a01b0390911681526020016100c8565b6101276101ad565b005b60606040516100c89190610bf5565b60606040516100c89190610c43565b60606040516100c89190610c98565b60606040516100c89190610eec565b60606040516100c89190610eff565b61017c610393565b6040516100c89190610faa565b60606040516100c89190611092565b6101a06108ac565b6040516100c891906110dc565b60608080808060006101bd610393565b8651909150606090819081901561024e5761024c63a192ac2460e01b8a6040516024016101ea9190610eff565b60408051601f198184030181529190526020810180516001600160e01b03166001600160e01b0319909316929092179091526001600160a01b037f0000000000000000000000000000000000000000000000000000000000000000169061090c565b505b87511561027c5761027a633cb6502d60e01b6102686108ac565b8a6040516024016101ea9291906110ef565b505b8651156102aa576102a86314d8093760e21b6102966108ac565b896040516024016101ea929190611114565b505b8451156102cf576102cd63bb06653560e01b866040516024016101ea9190610af6565b505b8551156102f4576102f26309d8332860e01b876040516024016101ea9190610b81565b505b835115610319576103176324f4c44560e01b856040516024016101ea9190610faa565b505b82511561033e5761033c63927c400360e01b846040516024016101ea9190610c98565b505b81511561036357610361632a90e62360e01b836040516024016101ea9190610bf5565b505b805115610388576103866355caa16360e01b826040516024016101ea9190610c43565b505b505050505050505050565b60408051600580825260c0820190925260609160009190816020015b6103b7610a87565b8152602001906001900390816103af57505060408051808201825273d586e7f844cea2f87f50152665bcbc2c279d8d70815281516101208101909252919250602082019080610409602a60001961114f565b815260200161041b602a60001961114f565b815260200161042b61025861093a565b815260200161043d602a60001961114f565b815260200161044f602a60001961114f565b8152602001610461602a60001961114f565b8152602001610473602a60001961114f565b8152602001610485602a60001961114f565b8152602001610497602a60001961114f565b815250815250816000815181106104b0576104b0611162565b6020026020010181905250604051806040016040528073b97ef9ef8734c71904d8002f8b6bc66dd9c48a6e6001600160a01b03168152602001604051806101200160405280602a600019610504919061114f565b8152602001610516602a60001961114f565b815260200161052661025861093a565b8152602001610538602a60001961114f565b815260200161054a602a60001961114f565b815260200161055c602a60001961114f565b815260200161056e602a60001961114f565b8152602001610580602a60001961114f565b8152602001610592602a60001961114f565b815250815250816001815181106105ab576105ab611162565b60200260200101819052506040518060400160405280739702230a8ea53601f5cd2dc00fdbc13d4df4a8c76001600160a01b03168152602001604051806101200160405280602a6000196105ff919061114f565b8152602001610611602a60001961114f565b815260200161062161025861093a565b8152602001610633602a60001961114f565b8152602001610645602a60001961114f565b8152602001610657602a60001961114f565b8152602001610669602a60001961114f565b815260200161067b602a60001961114f565b815260200161068d602a60001961114f565b815250815250816002815181106106a6576106a6611162565b6020026020010181905250604051806040016040528073d24c2ad096400b6fbcd2ad8b24e7acbc21a1da646001600160a01b03168152602001604051806101200160405280602a6000196106fa919061114f565b815260200161070c602a60001961114f565b815260200161071c61025861093a565b815260200161072e602a60001961114f565b8152602001610740602a60001961114f565b8152602001610752602a60001961114f565b8152602001610764602a60001961114f565b8152602001610776602a60001961114f565b8152602001610788602a60001961114f565b815250815250816003815181106107a1576107a1611162565b60200260200101819052506040518060400160405280735c49b268c9841aff1cc3b0a418ff5c3442ee3f3b6001600160a01b03168152602001604051806101200160405280602a6000196107f5919061114f565b8152602001610807602a60001961114f565b815260200161081761025861093a565b8152602001610829602a60001961114f565b815260200161083b602a60001961114f565b815260200161084d602a60001961114f565b815260200161085f602a60001961114f565b8152602001610871602a60001961114f565b8152602001610883602a60001961114f565b8152508152508160048151811061089c5761089c611162565b6020908102919091010152919050565b604080518082019091526060808252602082015250604080516080810182526009818301908152684176616c616e63686560b81b606083015281528151808301909252600382526241766160e81b60208381019190915281019190915290565b606061093183836040518060600160405280602781526020016111e16027913961095f565b90505b92915050565b60006127106109556b033b2e3c9fd0803ce800000084611178565b610934919061118f565b6060600080856001600160a01b03168560405161097c91906111b1565b600060405180830381855af49150503d80600081146109b7576040519150601f19603f3d011682016040523d82523d6000602084013e6109bc565b606091505b50915091506109cd868383876109d7565b9695505050505050565b60608315610a4b578251600003610a44576001600160a01b0385163b610a445760405162461bcd60e51b815260206004820152601d60248201527f416464726573733a2063616c6c20746f206e6f6e2d636f6e747261637400000060448201526064015b60405180910390fd5b5081610a55565b610a558383610a5d565b949350505050565b815115610a6d5781518083602001fd5b8060405162461bcd60e51b8152600401610a3b91906111cd565b604051806040016040528060006001600160a01b03168152602001610af16040518061012001604052806000815260200160008152602001600081526020016000815260200160008152602001600081526020016000815260200160008152602001600081525090565b905290565b602080825282518282018190526000919060409081850190868401855b82811015610b7457815180516001600160a01b0316855286810151878601528581015186860152606080820151908601526080808201519086015260a0808201519086015260c0908101519085015260e09093019290850190600101610b13565b5091979650505050505050565b602080825282518282018190526000919060409081850190868401855b82811015610b7457815180516001600160a01b0316855286810151878601528581015186860152606080820151908601526080808201519086015260a0908101519085015260c09093019290850190600101610b9e565b602080825282518282018190526000919060409081850190868401855b82811015610b7457815180516001600160a01b0316855286015160ff16868501529284019290850190600101610c12565b602080825282518282018190526000919060409081850190868401855b82811015610b7457815180516001600160a01b0316855286810151878601528501518585015260609093019290850190600101610c60565b602080825282518282018190526000919060409081850190868401855b82811015610b7457815180516001600160a01b0390811686529087015116868501529284019290850190600101610cb5565b60005b83811015610d02578181015183820152602001610cea565b50506000910152565b60008151808452610d23816020860160208601610ce7565b601f01601f19169290920160200192915050565b805182526020810151602083015260408101516040830152606081015160608301526080810151608083015260a081015160a083015260c081015160c083015260e081015160e08301526101008082015181840152505050565b80516001600160a01b0316825260006103406020830151816020860152610dba82860182610d0b565b9150506040830151610dd760408601826001600160a01b03169052565b506060830151610dea6060860182610d37565b5060808301516101808581019190915260a08401516101a08087019190915260c08501516101c08088019190915260e08601516101e080890191909152610100870151610200808a0191909152610120880151610220808b01919091526101408901516102408b01526101608901516102608b0152948801516102808a0152928701516102a0890152908601516102c08801528501516102e087015284015161030086015283015160ff8116610320860152509392505050565b600081518084526020808501808196508360051b8101915082860160005b85811015610b74578284038952610eda848351610d91565b98850198935090840190600101610ec2565b6020815260006109316020830184610ea4565b60006020808301818452808551808352604092508286019150828160051b87010184880160005b83811015610f9c57888303603f190185528151805160ff16845287810151888501528681015187850152606080820151908501526080808201516001600160a01b03169085015260a09081015160c091850182905290610f8881860183610d0b565b968901969450505090860190600101610f26565b509098975050505050505050565b6020808252825182820181905260009190848201906040850190845b8181101561100157835180516001600160a01b03168452850151610fec86850182610d37565b50928401926101409290920191600101610fc6565b50909695505050505050565b600081518084526020808501808196508360051b8101915082860160005b85811015610b7457828403895281516080815181875261104d82880182610d91565b9288015180516001600160a01b03908116898b0152818a015181166040808b01919091529091015116606090970196909652509885019893509084019060010161102b565b602081526000610931602083018461100d565b60008151604084526110ba6040850182610d0b565b9050602083015184820360208601526110d38282610d0b565b95945050505050565b60208152600061093160208301846110a5565b60408152600061110260408301856110a5565b82810360208401526110d38185610ea4565b60408152600061112760408301856110a5565b82810360208401526110d3818561100d565b634e487b7160e01b600052601160045260246000fd5b8181038181111561093457610934611139565b634e487b7160e01b600052603260045260246000fd5b808202811582820484141761093457610934611139565b6000826111ac57634e487b7160e01b600052601260045260246000fd5b500490565b600082516111c3818460208701610ce7565b9190910192915050565b6020815260006109316020830184610d0b56fe416464726573733a206c6f772d6c6576656c2064656c65676174652063616c6c206661696c6564a2646970667358221220968c6756d3e01e586699f9c8a5b816e8dd1b66cf6edc0fc55176b433985a298a64736f6c63430008130033","linkReferences":{}},"methodIdentifiers":{"CONFIG_ENGINE()":"5e5eef7a","assetsEModeUpdates()":"92287095","borrowsUpdates()":"1850edd8","capsUpdates()":"95a93cb1","collateralsUpdates()":"2b179434","eModeCategoriesUpdates()":"ca8e89cc","execute()":"61461954","getPoolContext()":"fbb256f6","newListings()":"c0a25580","newListingsCustom()":"fabe3463","priceFeedsUpdates()":"b1af0d0d","rateStrategiesUpdates()":"d0c38c27"},"id":390}