{"abi":[{"type":"constructor","inputs":[],"stateMutability":"nonpayable"},{"type":"function","name":"NEW_POOL_IMPL","inputs":[],"outputs":[{"name":"","type":"address","internalType":"address"}],"stateMutability":"view"},{"type":"function","name":"POOL_ADDRESSES_PROVIDER","inputs":[],"outputs":[{"name":"","type":"address","internalType":"contract IPoolAddressesProvider"}],"stateMutability":"view"},{"type":"function","name":"execute","inputs":[],"outputs":[],"stateMutability":"nonpayable"}],"bytecode":{"object":"0x60c060405234801561001057600080fd5b50731ed647b250e5b6d71dc7b25806f44c33f5658f7160805273a97684ead0e402dc232d5a977953df7ecbab3cdb60a05260805160a05161020861007860003960008181604b015261017401526000818160980152818160c4015261014c01526102086000f3fe608060405234801561001057600080fd5b50600436106100415760003560e01c8063311cd5a4146100465780636146195414610089578063ba90b25314610093575b600080fd5b61006d7f000000000000000000000000000000000000000000000000000000000000000081565b6040516001600160a01b03909116815260200160405180910390f35b6100916100ba565b005b61006d7f000000000000000000000000000000000000000000000000000000000000000081565b6001600160a01b037f0000000000000000000000000000000000000000000000000000000000000000163b6101355760405162461bcd60e51b815260206004820152601960248201527f434f4e54524143545f4e4f4e5f5945545f4445504c4f59454400000000000000604482015260640160405180910390fd5b6040516350ab220360e11b81526001600160a01b037f0000000000000000000000000000000000000000000000000000000000000000811660048301527f0000000000000000000000000000000000000000000000000000000000000000169063a156440690602401600060405180830381600087803b1580156101b857600080fd5b505af11580156101cc573d6000803e3d6000fd5b5050505056fea2646970667358221220e732f67593af63f82f9a1f4b0dfdea53c62e3b7ef5f5285e99cfe94eea979c5464736f6c63430008130033","linkReferences":{}},"methodIdentifiers":{"NEW_POOL_IMPL()":"ba90b253","POOL_ADDRESSES_PROVIDER()":"311cd5a4","execute()":"61461954"},"id":418}